{
	"my-contract.sol": {
		"PersonContract": {
			"abi": [
				{
					"inputs": [
						{
							"internalType": "string",
							"name": "_firstName",
							"type": "string"
						},
						{
							"internalType": "string",
							"name": "_lastName",
							"type": "string"
						}
					],
					"name": "AddPerson",
					"outputs": [],
					"stateMutability": "nonpayable",
					"type": "function"
				},
				{
					"inputs": [
						{
							"internalType": "uint256",
							"name": "",
							"type": "uint256"
						}
					],
					"name": "people",
					"outputs": [
						{
							"internalType": "uint256",
							"name": "_id",
							"type": "uint256"
						},
						{
							"internalType": "string",
							"name": "_firstName",
							"type": "string"
						},
						{
							"internalType": "string",
							"name": "_lastName",
							"type": "string"
						}
					],
					"stateMutability": "view",
					"type": "function"
				},
				{
					"inputs": [],
					"name": "peopleCount",
					"outputs": [
						{
							"internalType": "uint256",
							"name": "",
							"type": "uint256"
						}
					],
					"stateMutability": "view",
					"type": "function"
				}
			],
			"devdoc": {
				"kind": "dev",
				"methods": {},
				"version": 1
			},
			"evm": {
				"assembly": "    /* \"my-contract.sol\":928:1427  contract PersonContract {... */\n  mstore(0x40, 0x80)\n  callvalue\n  dup1\n  iszero\n  tag_1\n  jumpi\n  0x00\n  dup1\n  revert\ntag_1:\n  pop\n  dataSize(sub_0)\n  dup1\n  dataOffset(sub_0)\n  0x00\n  codecopy\n  0x00\n  return\nstop\n\nsub_0: assembly {\n        /* \"my-contract.sol\":928:1427  contract PersonContract {... */\n      mstore(0x40, 0x80)\n      callvalue\n      dup1\n      iszero\n      tag_1\n      jumpi\n      0x00\n      dup1\n      revert\n    tag_1:\n      pop\n      jumpi(tag_2, lt(calldatasize, 0x04))\n      shr(0xe0, calldataload(0x00))\n      dup1\n      0x267c68e0\n      eq\n      tag_3\n      jumpi\n      dup1\n      0x9e7a13ad\n      eq\n      tag_4\n      jumpi\n      dup1\n      0xa654ebf4\n      eq\n      tag_5\n      jumpi\n    tag_2:\n      0x00\n      dup1\n      revert\n        /* \"my-contract.sol\":958:984  uint256 public peopleCount */\n    tag_3:\n      tag_6\n      tag_7\n      jump\t// in\n    tag_6:\n      mload(0x40)\n      tag_8\n      swap2\n      swap1\n      tag_9\n      jump\t// in\n    tag_8:\n      mload(0x40)\n      dup1\n      swap2\n      sub\n      swap1\n      return\n        /* \"my-contract.sol\":1022:1059  mapping(uint => Person) public people */\n    tag_4:\n      tag_10\n      0x04\n      dup1\n      calldatasize\n      sub\n      dup2\n      add\n      swap1\n      tag_11\n      swap2\n      swap1\n      tag_12\n      jump\t// in\n    tag_11:\n      tag_13\n      jump\t// in\n    tag_10:\n      mload(0x40)\n      tag_14\n      swap4\n      swap3\n      swap2\n      swap1\n      tag_15\n      jump\t// in\n    tag_14:\n      mload(0x40)\n      dup1\n      swap2\n      sub\n      swap1\n      return\n        /* \"my-contract.sol\":1164:1425  function AddPerson(... */\n    tag_5:\n      tag_16\n      0x04\n      dup1\n      calldatasize\n      sub\n      dup2\n      add\n      swap1\n      tag_17\n      swap2\n      swap1\n      tag_18\n      jump\t// in\n    tag_17:\n      tag_19\n      jump\t// in\n    tag_16:\n      stop\n        /* \"my-contract.sol\":958:984  uint256 public peopleCount */\n    tag_7:\n      sload(0x00)\n      dup2\n      jump\t// out\n        /* \"my-contract.sol\":1022:1059  mapping(uint => Person) public people */\n    tag_13:\n      mstore(0x20, 0x01)\n      dup1\n      0x00\n      mstore\n      keccak256(0x00, 0x40)\n      0x00\n      swap2\n      pop\n      swap1\n      pop\n      dup1\n      0x00\n      add\n      sload\n      swap1\n      dup1\n      0x01\n      add\n      dup1\n      sload\n      tag_20\n      swap1\n      tag_21\n      jump\t// in\n    tag_20:\n      dup1\n      0x1f\n      add\n      0x20\n      dup1\n      swap2\n      div\n      mul\n      0x20\n      add\n      mload(0x40)\n      swap1\n      dup2\n      add\n      0x40\n      mstore\n      dup1\n      swap3\n      swap2\n      swap1\n      dup2\n      dup2\n      mstore\n      0x20\n      add\n      dup3\n      dup1\n      sload\n      tag_22\n      swap1\n      tag_21\n      jump\t// in\n    tag_22:\n      dup1\n      iszero\n      tag_23\n      jumpi\n      dup1\n      0x1f\n      lt\n      tag_24\n      jumpi\n      0x0100\n      dup1\n      dup4\n      sload\n      div\n      mul\n      dup4\n      mstore\n      swap2\n      0x20\n      add\n      swap2\n      jump(tag_23)\n    tag_24:\n      dup3\n      add\n      swap2\n      swap1\n      0x00\n      mstore\n      keccak256(0x00, 0x20)\n      swap1\n    tag_25:\n      dup2\n      sload\n      dup2\n      mstore\n      swap1\n      0x01\n      add\n      swap1\n      0x20\n      add\n      dup1\n      dup4\n      gt\n      tag_25\n      jumpi\n      dup3\n      swap1\n      sub\n      0x1f\n      and\n      dup3\n      add\n      swap2\n    tag_23:\n      pop\n      pop\n      pop\n      pop\n      pop\n      swap1\n      dup1\n      0x02\n      add\n      dup1\n      sload\n      tag_26\n      swap1\n      tag_21\n      jump\t// in\n    tag_26:\n      dup1\n      0x1f\n      add\n      0x20\n      dup1\n      swap2\n      div\n      mul\n      0x20\n      add\n      mload(0x40)\n      swap1\n      dup2\n      add\n      0x40\n      mstore\n      dup1\n      swap3\n      swap2\n      swap1\n      dup2\n      dup2\n      mstore\n      0x20\n      add\n      dup3\n      dup1\n      sload\n      tag_27\n      swap1\n      tag_21\n      jump\t// in\n    tag_27:\n      dup1\n      iszero\n      tag_28\n      jumpi\n      dup1\n      0x1f\n      lt\n      tag_29\n      jumpi\n      0x0100\n      dup1\n      dup4\n      sload\n      div\n      mul\n      dup4\n      mstore\n      swap2\n      0x20\n      add\n      swap2\n      jump(tag_28)\n    tag_29:\n      dup3\n      add\n      swap2\n      swap1\n      0x00\n      mstore\n      keccak256(0x00, 0x20)\n      swap1\n    tag_30:\n      dup2\n      sload\n      dup2\n      mstore\n      swap1\n      0x01\n      add\n      swap1\n      0x20\n      add\n      dup1\n      dup4\n      gt\n      tag_30\n      jumpi\n      dup3\n      swap1\n      sub\n      0x1f\n      and\n      dup3\n      add\n      swap2\n    tag_28:\n      pop\n      pop\n      pop\n      pop\n      pop\n      swap1\n      pop\n      dup4\n      jump\t// out\n        /* \"my-contract.sol\":1164:1425  function AddPerson(... */\n    tag_19:\n        /* \"my-contract.sol\":1350:1392  Person(peopleCount, _firstName, _lastName) */\n      mload(0x40)\n      dup1\n      0x60\n      add\n      0x40\n      mstore\n      dup1\n        /* \"my-contract.sol\":1357:1368  peopleCount */\n      sload(0x00)\n        /* \"my-contract.sol\":1350:1392  Person(peopleCount, _firstName, _lastName) */\n      dup2\n      mstore\n      0x20\n      add\n        /* \"my-contract.sol\":1370:1380  _firstName */\n      dup4\n        /* \"my-contract.sol\":1350:1392  Person(peopleCount, _firstName, _lastName) */\n      dup2\n      mstore\n      0x20\n      add\n        /* \"my-contract.sol\":1382:1391  _lastName */\n      dup3\n        /* \"my-contract.sol\":1350:1392  Person(peopleCount, _firstName, _lastName) */\n      dup2\n      mstore\n      pop\n        /* \"my-contract.sol\":1328:1334  people */\n      0x01\n        /* \"my-contract.sol\":1328:1347  people[peopleCount] */\n      0x00\n        /* \"my-contract.sol\":1335:1346  peopleCount */\n      dup1\n      sload\n        /* \"my-contract.sol\":1328:1347  people[peopleCount] */\n      dup2\n      mstore\n      0x20\n      add\n      swap1\n      dup2\n      mstore\n      0x20\n      add\n      0x00\n      keccak256\n        /* \"my-contract.sol\":1328:1392  people[peopleCount] = Person(peopleCount, _firstName, _lastName) */\n      0x00\n      dup3\n      add\n      mload\n      dup2\n      0x00\n      add\n      sstore\n      0x20\n      dup3\n      add\n      mload\n      dup2\n      0x01\n      add\n      swap1\n      dup2\n      tag_32\n      swap2\n      swap1\n      tag_33\n      jump\t// in\n    tag_32:\n      pop\n      0x40\n      dup3\n      add\n      mload\n      dup2\n      0x02\n      add\n      swap1\n      dup2\n      tag_34\n      swap2\n      swap1\n      tag_33\n      jump\t// in\n    tag_34:\n      pop\n      swap1\n      pop\n      pop\n        /* \"my-contract.sol\":1417:1418  1 */\n      0x01\n        /* \"my-contract.sol\":1402:1413  peopleCount */\n      0x00\n      dup1\n        /* \"my-contract.sol\":1402:1418  peopleCount += 1 */\n      dup3\n      dup3\n      sload\n      tag_35\n      swap2\n      swap1\n      tag_36\n      jump\t// in\n    tag_35:\n      swap3\n      pop\n      pop\n      dup2\n      swap1\n      sstore\n      pop\n        /* \"my-contract.sol\":1164:1425  function AddPerson(... */\n      pop\n      pop\n      jump\t// out\n        /* \"#utility.yul\":7:84   */\n    tag_37:\n        /* \"#utility.yul\":44:51   */\n      0x00\n        /* \"#utility.yul\":73:78   */\n      dup2\n        /* \"#utility.yul\":62:78   */\n      swap1\n      pop\n        /* \"#utility.yul\":7:84   */\n      swap2\n      swap1\n      pop\n      jump\t// out\n        /* \"#utility.yul\":90:208   */\n    tag_38:\n        /* \"#utility.yul\":177:201   */\n      tag_78\n        /* \"#utility.yul\":195:200   */\n      dup2\n        /* \"#utility.yul\":177:201   */\n      tag_37\n      jump\t// in\n    tag_78:\n        /* \"#utility.yul\":172:175   */\n      dup3\n        /* \"#utility.yul\":165:202   */\n      mstore\n        /* \"#utility.yul\":90:208   */\n      pop\n      pop\n      jump\t// out\n        /* \"#utility.yul\":214:436   */\n    tag_9:\n        /* \"#utility.yul\":307:311   */\n      0x00\n        /* \"#utility.yul\":345:347   */\n      0x20\n        /* \"#utility.yul\":334:343   */\n      dup3\n        /* \"#utility.yul\":330:348   */\n      add\n        /* \"#utility.yul\":322:348   */\n      swap1\n      pop\n        /* \"#utility.yul\":358:429   */\n      tag_80\n        /* \"#utility.yul\":426:427   */\n      0x00\n        /* \"#utility.yul\":415:424   */\n      dup4\n        /* \"#utility.yul\":411:428   */\n      add\n        /* \"#utility.yul\":402:408   */\n      dup5\n        /* \"#utility.yul\":358:429   */\n      tag_38\n      jump\t// in\n    tag_80:\n        /* \"#utility.yul\":214:436   */\n      swap3\n      swap2\n      pop\n      pop\n      jump\t// out\n        /* \"#utility.yul\":442:517   */\n    tag_39:\n        /* \"#utility.yul\":475:481   */\n      0x00\n        /* \"#utility.yul\":508:510   */\n      0x40\n        /* \"#utility.yul\":502:511   */\n      mload\n        /* \"#utility.yul\":492:511   */\n      swap1\n      pop\n        /* \"#utility.yul\":442:517   */\n      swap1\n      jump\t// out\n        /* \"#utility.yul\":523:640   */\n    tag_40:\n        /* \"#utility.yul\":632:633   */\n      0x00\n        /* \"#utility.yul\":629:630   */\n      dup1\n        /* \"#utility.yul\":622:634   */\n      revert\n        /* \"#utility.yul\":646:763   */\n    tag_41:\n        /* \"#utility.yul\":755:756   */\n      0x00\n        /* \"#utility.yul\":752:753   */\n      dup1\n        /* \"#utility.yul\":745:757   */\n      revert\n        /* \"#utility.yul\":769:891   */\n    tag_42:\n        /* \"#utility.yul\":842:866   */\n      tag_85\n        /* \"#utility.yul\":860:865   */\n      dup2\n        /* \"#utility.yul\":842:866   */\n      tag_37\n      jump\t// in\n    tag_85:\n        /* \"#utility.yul\":835:840   */\n      dup2\n        /* \"#utility.yul\":832:867   */\n      eq\n        /* \"#utility.yul\":822:885   */\n      tag_86\n      jumpi\n        /* \"#utility.yul\":881:882   */\n      0x00\n        /* \"#utility.yul\":878:879   */\n      dup1\n        /* \"#utility.yul\":871:883   */\n      revert\n        /* \"#utility.yul\":822:885   */\n    tag_86:\n        /* \"#utility.yul\":769:891   */\n      pop\n      jump\t// out\n        /* \"#utility.yul\":897:1036   */\n    tag_43:\n        /* \"#utility.yul\":943:948   */\n      0x00\n        /* \"#utility.yul\":981:987   */\n      dup2\n        /* \"#utility.yul\":968:988   */\n      calldataload\n        /* \"#utility.yul\":959:988   */\n      swap1\n      pop\n        /* \"#utility.yul\":997:1030   */\n      tag_88\n        /* \"#utility.yul\":1024:1029   */\n      dup2\n        /* \"#utility.yul\":997:1030   */\n      tag_42\n      jump\t// in\n    tag_88:\n        /* \"#utility.yul\":897:1036   */\n      swap3\n      swap2\n      pop\n      pop\n      jump\t// out\n        /* \"#utility.yul\":1042:1371   */\n    tag_12:\n        /* \"#utility.yul\":1101:1107   */\n      0x00\n        /* \"#utility.yul\":1150:1152   */\n      0x20\n        /* \"#utility.yul\":1138:1147   */\n      dup3\n        /* \"#utility.yul\":1129:1136   */\n      dup5\n        /* \"#utility.yul\":1125:1148   */\n      sub\n        /* \"#utility.yul\":1121:1153   */\n      slt\n        /* \"#utility.yul\":1118:1237   */\n      iszero\n      tag_90\n      jumpi\n        /* \"#utility.yul\":1156:1235   */\n      tag_91\n      tag_40\n      jump\t// in\n    tag_91:\n        /* \"#utility.yul\":1118:1237   */\n    tag_90:\n        /* \"#utility.yul\":1276:1277   */\n      0x00\n        /* \"#utility.yul\":1301:1354   */\n      tag_92\n        /* \"#utility.yul\":1346:1353   */\n      dup5\n        /* \"#utility.yul\":1337:1343   */\n      dup3\n        /* \"#utility.yul\":1326:1335   */\n      dup6\n        /* \"#utility.yul\":1322:1344   */\n      add\n        /* \"#utility.yul\":1301:1354   */\n      tag_43\n      jump\t// in\n    tag_92:\n        /* \"#utility.yul\":1291:1354   */\n      swap2\n      pop\n        /* \"#utility.yul\":1247:1364   */\n      pop\n        /* \"#utility.yul\":1042:1371   */\n      swap3\n      swap2\n      pop\n      pop\n      jump\t// out\n        /* \"#utility.yul\":1377:1476   */\n    tag_44:\n        /* \"#utility.yul\":1429:1435   */\n      0x00\n        /* \"#utility.yul\":1463:1468   */\n      dup2\n        /* \"#utility.yul\":1457:1469   */\n      mload\n        /* \"#utility.yul\":1447:1469   */\n      swap1\n      pop\n        /* \"#utility.yul\":1377:1476   */\n      swap2\n      swap1\n      pop\n      jump\t// out\n        /* \"#utility.yul\":1482:1651   */\n    tag_45:\n        /* \"#utility.yul\":1566:1577   */\n      0x00\n        /* \"#utility.yul\":1600:1606   */\n      dup3\n        /* \"#utility.yul\":1595:1598   */\n      dup3\n        /* \"#utility.yul\":1588:1607   */\n      mstore\n        /* \"#utility.yul\":1640:1644   */\n      0x20\n        /* \"#utility.yul\":1635:1638   */\n      dup3\n        /* \"#utility.yul\":1631:1645   */\n      add\n        /* \"#utility.yul\":1616:1645   */\n      swap1\n      pop\n        /* \"#utility.yul\":1482:1651   */\n      swap3\n      swap2\n      pop\n      pop\n      jump\t// out\n        /* \"#utility.yul\":1657:1796   */\n    tag_46:\n        /* \"#utility.yul\":1746:1752   */\n      dup3\n        /* \"#utility.yul\":1741:1744   */\n      dup2\n        /* \"#utility.yul\":1736:1739   */\n      dup4\n        /* \"#utility.yul\":1730:1753   */\n      mcopy\n        /* \"#utility.yul\":1787:1788   */\n      0x00\n        /* \"#utility.yul\":1778:1784   */\n      dup4\n        /* \"#utility.yul\":1773:1776   */\n      dup4\n        /* \"#utility.yul\":1769:1785   */\n      add\n        /* \"#utility.yul\":1762:1789   */\n      mstore\n        /* \"#utility.yul\":1657:1796   */\n      pop\n      pop\n      pop\n      jump\t// out\n        /* \"#utility.yul\":1802:1904   */\n    tag_47:\n        /* \"#utility.yul\":1843:1849   */\n      0x00\n        /* \"#utility.yul\":1894:1896   */\n      0x1f\n        /* \"#utility.yul\":1890:1897   */\n      not\n        /* \"#utility.yul\":1885:1887   */\n      0x1f\n        /* \"#utility.yul\":1878:1883   */\n      dup4\n        /* \"#utility.yul\":1874:1888   */\n      add\n        /* \"#utility.yul\":1870:1898   */\n      and\n        /* \"#utility.yul\":1860:1898   */\n      swap1\n      pop\n        /* \"#utility.yul\":1802:1904   */\n      swap2\n      swap1\n      pop\n      jump\t// out\n        /* \"#utility.yul\":1910:2287   */\n    tag_48:\n        /* \"#utility.yul\":1998:2001   */\n      0x00\n        /* \"#utility.yul\":2026:2065   */\n      tag_98\n        /* \"#utility.yul\":2059:2064   */\n      dup3\n        /* \"#utility.yul\":2026:2065   */\n      tag_44\n      jump\t// in\n    tag_98:\n        /* \"#utility.yul\":2081:2152   */\n      tag_99\n        /* \"#utility.yul\":2145:2151   */\n      dup2\n        /* \"#utility.yul\":2140:2143   */\n      dup6\n        /* \"#utility.yul\":2081:2152   */\n      tag_45\n      jump\t// in\n    tag_99:\n        /* \"#utility.yul\":2074:2152   */\n      swap4\n      pop\n        /* \"#utility.yul\":2161:2226   */\n      tag_100\n        /* \"#utility.yul\":2219:2225   */\n      dup2\n        /* \"#utility.yul\":2214:2217   */\n      dup6\n        /* \"#utility.yul\":2207:2211   */\n      0x20\n        /* \"#utility.yul\":2200:2205   */\n      dup7\n        /* \"#utility.yul\":2196:2212   */\n      add\n        /* \"#utility.yul\":2161:2226   */\n      tag_46\n      jump\t// in\n    tag_100:\n        /* \"#utility.yul\":2251:2280   */\n      tag_101\n        /* \"#utility.yul\":2273:2279   */\n      dup2\n        /* \"#utility.yul\":2251:2280   */\n      tag_47\n      jump\t// in\n    tag_101:\n        /* \"#utility.yul\":2246:2249   */\n      dup5\n        /* \"#utility.yul\":2242:2281   */\n      add\n        /* \"#utility.yul\":2235:2281   */\n      swap2\n      pop\n        /* \"#utility.yul\":2002:2287   */\n      pop\n        /* \"#utility.yul\":1910:2287   */\n      swap3\n      swap2\n      pop\n      pop\n      jump\t// out\n        /* \"#utility.yul\":2293:2917   */\n    tag_15:\n        /* \"#utility.yul\":2482:2486   */\n      0x00\n        /* \"#utility.yul\":2520:2522   */\n      0x60\n        /* \"#utility.yul\":2509:2518   */\n      dup3\n        /* \"#utility.yul\":2505:2523   */\n      add\n        /* \"#utility.yul\":2497:2523   */\n      swap1\n      pop\n        /* \"#utility.yul\":2533:2604   */\n      tag_103\n        /* \"#utility.yul\":2601:2602   */\n      0x00\n        /* \"#utility.yul\":2590:2599   */\n      dup4\n        /* \"#utility.yul\":2586:2603   */\n      add\n        /* \"#utility.yul\":2577:2583   */\n      dup7\n        /* \"#utility.yul\":2533:2604   */\n      tag_38\n      jump\t// in\n    tag_103:\n        /* \"#utility.yul\":2651:2660   */\n      dup2\n        /* \"#utility.yul\":2645:2649   */\n      dup2\n        /* \"#utility.yul\":2641:2661   */\n      sub\n        /* \"#utility.yul\":2636:2638   */\n      0x20\n        /* \"#utility.yul\":2625:2634   */\n      dup4\n        /* \"#utility.yul\":2621:2639   */\n      add\n        /* \"#utility.yul\":2614:2662   */\n      mstore\n        /* \"#utility.yul\":2679:2757   */\n      tag_104\n        /* \"#utility.yul\":2752:2756   */\n      dup2\n        /* \"#utility.yul\":2743:2749   */\n      dup6\n        /* \"#utility.yul\":2679:2757   */\n      tag_48\n      jump\t// in\n    tag_104:\n        /* \"#utility.yul\":2671:2757   */\n      swap1\n      pop\n        /* \"#utility.yul\":2804:2813   */\n      dup2\n        /* \"#utility.yul\":2798:2802   */\n      dup2\n        /* \"#utility.yul\":2794:2814   */\n      sub\n        /* \"#utility.yul\":2789:2791   */\n      0x40\n        /* \"#utility.yul\":2778:2787   */\n      dup4\n        /* \"#utility.yul\":2774:2792   */\n      add\n        /* \"#utility.yul\":2767:2815   */\n      mstore\n        /* \"#utility.yul\":2832:2910   */\n      tag_105\n        /* \"#utility.yul\":2905:2909   */\n      dup2\n        /* \"#utility.yul\":2896:2902   */\n      dup5\n        /* \"#utility.yul\":2832:2910   */\n      tag_48\n      jump\t// in\n    tag_105:\n        /* \"#utility.yul\":2824:2910   */\n      swap1\n      pop\n        /* \"#utility.yul\":2293:2917   */\n      swap5\n      swap4\n      pop\n      pop\n      pop\n      pop\n      jump\t// out\n        /* \"#utility.yul\":2923:3040   */\n    tag_49:\n        /* \"#utility.yul\":3032:3033   */\n      0x00\n        /* \"#utility.yul\":3029:3030   */\n      dup1\n        /* \"#utility.yul\":3022:3034   */\n      revert\n        /* \"#utility.yul\":3046:3163   */\n    tag_50:\n        /* \"#utility.yul\":3155:3156   */\n      0x00\n        /* \"#utility.yul\":3152:3153   */\n      dup1\n        /* \"#utility.yul\":3145:3157   */\n      revert\n        /* \"#utility.yul\":3169:3349   */\n    tag_51:\n        /* \"#utility.yul\":3217:3294   */\n      0x4e487b7100000000000000000000000000000000000000000000000000000000\n        /* \"#utility.yul\":3214:3215   */\n      0x00\n        /* \"#utility.yul\":3207:3295   */\n      mstore\n        /* \"#utility.yul\":3314:3318   */\n      0x41\n        /* \"#utility.yul\":3311:3312   */\n      0x04\n        /* \"#utility.yul\":3304:3319   */\n      mstore\n        /* \"#utility.yul\":3338:3342   */\n      0x24\n        /* \"#utility.yul\":3335:3336   */\n      0x00\n        /* \"#utility.yul\":3328:3343   */\n      revert\n        /* \"#utility.yul\":3355:3636   */\n    tag_52:\n        /* \"#utility.yul\":3438:3465   */\n      tag_110\n        /* \"#utility.yul\":3460:3464   */\n      dup3\n        /* \"#utility.yul\":3438:3465   */\n      tag_47\n      jump\t// in\n    tag_110:\n        /* \"#utility.yul\":3430:3436   */\n      dup2\n        /* \"#utility.yul\":3426:3466   */\n      add\n        /* \"#utility.yul\":3568:3574   */\n      dup2\n        /* \"#utility.yul\":3556:3566   */\n      dup2\n        /* \"#utility.yul\":3553:3575   */\n      lt\n        /* \"#utility.yul\":3532:3550   */\n      0xffffffffffffffff\n        /* \"#utility.yul\":3520:3530   */\n      dup3\n        /* \"#utility.yul\":3517:3551   */\n      gt\n        /* \"#utility.yul\":3514:3576   */\n      or\n        /* \"#utility.yul\":3511:3599   */\n      iszero\n      tag_111\n      jumpi\n        /* \"#utility.yul\":3579:3597   */\n      tag_112\n      tag_51\n      jump\t// in\n    tag_112:\n        /* \"#utility.yul\":3511:3599   */\n    tag_111:\n        /* \"#utility.yul\":3619:3629   */\n      dup1\n        /* \"#utility.yul\":3615:3617   */\n      0x40\n        /* \"#utility.yul\":3608:3630   */\n      mstore\n        /* \"#utility.yul\":3398:3636   */\n      pop\n        /* \"#utility.yul\":3355:3636   */\n      pop\n      pop\n      jump\t// out\n        /* \"#utility.yul\":3642:3771   */\n    tag_53:\n        /* \"#utility.yul\":3676:3682   */\n      0x00\n        /* \"#utility.yul\":3703:3723   */\n      tag_114\n      tag_39\n      jump\t// in\n    tag_114:\n        /* \"#utility.yul\":3693:3723   */\n      swap1\n      pop\n        /* \"#utility.yul\":3732:3765   */\n      tag_115\n        /* \"#utility.yul\":3760:3764   */\n      dup3\n        /* \"#utility.yul\":3752:3758   */\n      dup3\n        /* \"#utility.yul\":3732:3765   */\n      tag_52\n      jump\t// in\n    tag_115:\n        /* \"#utility.yul\":3642:3771   */\n      swap2\n      swap1\n      pop\n      jump\t// out\n        /* \"#utility.yul\":3777:4085   */\n    tag_54:\n        /* \"#utility.yul\":3839:3843   */\n      0x00\n        /* \"#utility.yul\":3929:3947   */\n      0xffffffffffffffff\n        /* \"#utility.yul\":3921:3927   */\n      dup3\n        /* \"#utility.yul\":3918:3948   */\n      gt\n        /* \"#utility.yul\":3915:3971   */\n      iszero\n      tag_117\n      jumpi\n        /* \"#utility.yul\":3951:3969   */\n      tag_118\n      tag_51\n      jump\t// in\n    tag_118:\n        /* \"#utility.yul\":3915:3971   */\n    tag_117:\n        /* \"#utility.yul\":3989:4018   */\n      tag_119\n        /* \"#utility.yul\":4011:4017   */\n      dup3\n        /* \"#utility.yul\":3989:4018   */\n      tag_47\n      jump\t// in\n    tag_119:\n        /* \"#utility.yul\":3981:4018   */\n      swap1\n      pop\n        /* \"#utility.yul\":4073:4077   */\n      0x20\n        /* \"#utility.yul\":4067:4071   */\n      dup2\n        /* \"#utility.yul\":4063:4078   */\n      add\n        /* \"#utility.yul\":4055:4078   */\n      swap1\n      pop\n        /* \"#utility.yul\":3777:4085   */\n      swap2\n      swap1\n      pop\n      jump\t// out\n        /* \"#utility.yul\":4091:4239   */\n    tag_55:\n        /* \"#utility.yul\":4189:4195   */\n      dup3\n        /* \"#utility.yul\":4184:4187   */\n      dup2\n        /* \"#utility.yul\":4179:4182   */\n      dup4\n        /* \"#utility.yul\":4166:4196   */\n      calldatacopy\n        /* \"#utility.yul\":4230:4231   */\n      0x00\n        /* \"#utility.yul\":4221:4227   */\n      dup4\n        /* \"#utility.yul\":4216:4219   */\n      dup4\n        /* \"#utility.yul\":4212:4228   */\n      add\n        /* \"#utility.yul\":4205:4232   */\n      mstore\n        /* \"#utility.yul\":4091:4239   */\n      pop\n      pop\n      pop\n      jump\t// out\n        /* \"#utility.yul\":4245:4670   */\n    tag_56:\n        /* \"#utility.yul\":4323:4328   */\n      0x00\n        /* \"#utility.yul\":4348:4414   */\n      tag_122\n        /* \"#utility.yul\":4364:4413   */\n      tag_123\n        /* \"#utility.yul\":4406:4412   */\n      dup5\n        /* \"#utility.yul\":4364:4413   */\n      tag_54\n      jump\t// in\n    tag_123:\n        /* \"#utility.yul\":4348:4414   */\n      tag_53\n      jump\t// in\n    tag_122:\n        /* \"#utility.yul\":4339:4414   */\n      swap1\n      pop\n        /* \"#utility.yul\":4437:4443   */\n      dup3\n        /* \"#utility.yul\":4430:4435   */\n      dup2\n        /* \"#utility.yul\":4423:4444   */\n      mstore\n        /* \"#utility.yul\":4475:4479   */\n      0x20\n        /* \"#utility.yul\":4468:4473   */\n      dup2\n        /* \"#utility.yul\":4464:4480   */\n      add\n        /* \"#utility.yul\":4513:4516   */\n      dup5\n        /* \"#utility.yul\":4504:4510   */\n      dup5\n        /* \"#utility.yul\":4499:4502   */\n      dup5\n        /* \"#utility.yul\":4495:4511   */\n      add\n        /* \"#utility.yul\":4492:4517   */\n      gt\n        /* \"#utility.yul\":4489:4601   */\n      iszero\n      tag_124\n      jumpi\n        /* \"#utility.yul\":4520:4599   */\n      tag_125\n      tag_50\n      jump\t// in\n    tag_125:\n        /* \"#utility.yul\":4489:4601   */\n    tag_124:\n        /* \"#utility.yul\":4610:4664   */\n      tag_126\n        /* \"#utility.yul\":4657:4663   */\n      dup5\n        /* \"#utility.yul\":4652:4655   */\n      dup3\n        /* \"#utility.yul\":4647:4650   */\n      dup6\n        /* \"#utility.yul\":4610:4664   */\n      tag_55\n      jump\t// in\n    tag_126:\n        /* \"#utility.yul\":4329:4670   */\n      pop\n        /* \"#utility.yul\":4245:4670   */\n      swap4\n      swap3\n      pop\n      pop\n      pop\n      jump\t// out\n        /* \"#utility.yul\":4690:5030   */\n    tag_57:\n        /* \"#utility.yul\":4746:4751   */\n      0x00\n        /* \"#utility.yul\":4795:4798   */\n      dup3\n        /* \"#utility.yul\":4788:4792   */\n      0x1f\n        /* \"#utility.yul\":4780:4786   */\n      dup4\n        /* \"#utility.yul\":4776:4793   */\n      add\n        /* \"#utility.yul\":4772:4799   */\n      slt\n        /* \"#utility.yul\":4762:4884   */\n      tag_128\n      jumpi\n        /* \"#utility.yul\":4803:4882   */\n      tag_129\n      tag_49\n      jump\t// in\n    tag_129:\n        /* \"#utility.yul\":4762:4884   */\n    tag_128:\n        /* \"#utility.yul\":4920:4926   */\n      dup2\n        /* \"#utility.yul\":4907:4927   */\n      calldataload\n        /* \"#utility.yul\":4945:5024   */\n      tag_130\n        /* \"#utility.yul\":5020:5023   */\n      dup5\n        /* \"#utility.yul\":5012:5018   */\n      dup3\n        /* \"#utility.yul\":5005:5009   */\n      0x20\n        /* \"#utility.yul\":4997:5003   */\n      dup7\n        /* \"#utility.yul\":4993:5010   */\n      add\n        /* \"#utility.yul\":4945:5024   */\n      tag_56\n      jump\t// in\n    tag_130:\n        /* \"#utility.yul\":4936:5024   */\n      swap2\n      pop\n        /* \"#utility.yul\":4752:5030   */\n      pop\n        /* \"#utility.yul\":4690:5030   */\n      swap3\n      swap2\n      pop\n      pop\n      jump\t// out\n        /* \"#utility.yul\":5036:5870   */\n    tag_18:\n        /* \"#utility.yul\":5124:5130   */\n      0x00\n        /* \"#utility.yul\":5132:5138   */\n      dup1\n        /* \"#utility.yul\":5181:5183   */\n      0x40\n        /* \"#utility.yul\":5169:5178   */\n      dup4\n        /* \"#utility.yul\":5160:5167   */\n      dup6\n        /* \"#utility.yul\":5156:5179   */\n      sub\n        /* \"#utility.yul\":5152:5184   */\n      slt\n        /* \"#utility.yul\":5149:5268   */\n      iszero\n      tag_132\n      jumpi\n        /* \"#utility.yul\":5187:5266   */\n      tag_133\n      tag_40\n      jump\t// in\n    tag_133:\n        /* \"#utility.yul\":5149:5268   */\n    tag_132:\n        /* \"#utility.yul\":5335:5336   */\n      0x00\n        /* \"#utility.yul\":5324:5333   */\n      dup4\n        /* \"#utility.yul\":5320:5337   */\n      add\n        /* \"#utility.yul\":5307:5338   */\n      calldataload\n        /* \"#utility.yul\":5365:5383   */\n      0xffffffffffffffff\n        /* \"#utility.yul\":5357:5363   */\n      dup2\n        /* \"#utility.yul\":5354:5384   */\n      gt\n        /* \"#utility.yul\":5351:5468   */\n      iszero\n      tag_134\n      jumpi\n        /* \"#utility.yul\":5387:5466   */\n      tag_135\n      tag_41\n      jump\t// in\n    tag_135:\n        /* \"#utility.yul\":5351:5468   */\n    tag_134:\n        /* \"#utility.yul\":5492:5555   */\n      tag_136\n        /* \"#utility.yul\":5547:5554   */\n      dup6\n        /* \"#utility.yul\":5538:5544   */\n      dup3\n        /* \"#utility.yul\":5527:5536   */\n      dup7\n        /* \"#utility.yul\":5523:5545   */\n      add\n        /* \"#utility.yul\":5492:5555   */\n      tag_57\n      jump\t// in\n    tag_136:\n        /* \"#utility.yul\":5482:5555   */\n      swap3\n      pop\n        /* \"#utility.yul\":5278:5565   */\n      pop\n        /* \"#utility.yul\":5632:5634   */\n      0x20\n        /* \"#utility.yul\":5621:5630   */\n      dup4\n        /* \"#utility.yul\":5617:5635   */\n      add\n        /* \"#utility.yul\":5604:5636   */\n      calldataload\n        /* \"#utility.yul\":5663:5681   */\n      0xffffffffffffffff\n        /* \"#utility.yul\":5655:5661   */\n      dup2\n        /* \"#utility.yul\":5652:5682   */\n      gt\n        /* \"#utility.yul\":5649:5766   */\n      iszero\n      tag_137\n      jumpi\n        /* \"#utility.yul\":5685:5764   */\n      tag_138\n      tag_41\n      jump\t// in\n    tag_138:\n        /* \"#utility.yul\":5649:5766   */\n    tag_137:\n        /* \"#utility.yul\":5790:5853   */\n      tag_139\n        /* \"#utility.yul\":5845:5852   */\n      dup6\n        /* \"#utility.yul\":5836:5842   */\n      dup3\n        /* \"#utility.yul\":5825:5834   */\n      dup7\n        /* \"#utility.yul\":5821:5843   */\n      add\n        /* \"#utility.yul\":5790:5853   */\n      tag_57\n      jump\t// in\n    tag_139:\n        /* \"#utility.yul\":5780:5853   */\n      swap2\n      pop\n        /* \"#utility.yul\":5575:5863   */\n      pop\n        /* \"#utility.yul\":5036:5870   */\n      swap3\n      pop\n      swap3\n      swap1\n      pop\n      jump\t// out\n        /* \"#utility.yul\":5876:6056   */\n    tag_58:\n        /* \"#utility.yul\":5924:6001   */\n      0x4e487b7100000000000000000000000000000000000000000000000000000000\n        /* \"#utility.yul\":5921:5922   */\n      0x00\n        /* \"#utility.yul\":5914:6002   */\n      mstore\n        /* \"#utility.yul\":6021:6025   */\n      0x22\n        /* \"#utility.yul\":6018:6019   */\n      0x04\n        /* \"#utility.yul\":6011:6026   */\n      mstore\n        /* \"#utility.yul\":6045:6049   */\n      0x24\n        /* \"#utility.yul\":6042:6043   */\n      0x00\n        /* \"#utility.yul\":6035:6050   */\n      revert\n        /* \"#utility.yul\":6062:6382   */\n    tag_21:\n        /* \"#utility.yul\":6106:6112   */\n      0x00\n        /* \"#utility.yul\":6143:6144   */\n      0x02\n        /* \"#utility.yul\":6137:6141   */\n      dup3\n        /* \"#utility.yul\":6133:6145   */\n      div\n        /* \"#utility.yul\":6123:6145   */\n      swap1\n      pop\n        /* \"#utility.yul\":6190:6191   */\n      0x01\n        /* \"#utility.yul\":6184:6188   */\n      dup3\n        /* \"#utility.yul\":6180:6192   */\n      and\n        /* \"#utility.yul\":6211:6229   */\n      dup1\n        /* \"#utility.yul\":6201:6282   */\n      tag_142\n      jumpi\n        /* \"#utility.yul\":6267:6271   */\n      0x7f\n        /* \"#utility.yul\":6259:6265   */\n      dup3\n        /* \"#utility.yul\":6255:6272   */\n      and\n        /* \"#utility.yul\":6245:6272   */\n      swap2\n      pop\n        /* \"#utility.yul\":6201:6282   */\n    tag_142:\n        /* \"#utility.yul\":6329:6331   */\n      0x20\n        /* \"#utility.yul\":6321:6327   */\n      dup3\n        /* \"#utility.yul\":6318:6332   */\n      lt\n        /* \"#utility.yul\":6298:6316   */\n      dup2\n        /* \"#utility.yul\":6295:6333   */\n      sub\n        /* \"#utility.yul\":6292:6376   */\n      tag_143\n      jumpi\n        /* \"#utility.yul\":6348:6366   */\n      tag_144\n      tag_58\n      jump\t// in\n    tag_144:\n        /* \"#utility.yul\":6292:6376   */\n    tag_143:\n        /* \"#utility.yul\":6113:6382   */\n      pop\n        /* \"#utility.yul\":6062:6382   */\n      swap2\n      swap1\n      pop\n      jump\t// out\n        /* \"#utility.yul\":6388:6529   */\n    tag_59:\n        /* \"#utility.yul\":6437:6441   */\n      0x00\n        /* \"#utility.yul\":6460:6463   */\n      dup2\n        /* \"#utility.yul\":6452:6463   */\n      swap1\n      pop\n        /* \"#utility.yul\":6483:6486   */\n      dup2\n        /* \"#utility.yul\":6480:6481   */\n      0x00\n        /* \"#utility.yul\":6473:6487   */\n      mstore\n        /* \"#utility.yul\":6517:6521   */\n      0x20\n        /* \"#utility.yul\":6514:6515   */\n      0x00\n        /* \"#utility.yul\":6504:6522   */\n      keccak256\n        /* \"#utility.yul\":6496:6522   */\n      swap1\n      pop\n        /* \"#utility.yul\":6388:6529   */\n      swap2\n      swap1\n      pop\n      jump\t// out\n        /* \"#utility.yul\":6535:6628   */\n    tag_60:\n        /* \"#utility.yul\":6572:6578   */\n      0x00\n        /* \"#utility.yul\":6619:6621   */\n      0x20\n        /* \"#utility.yul\":6614:6616   */\n      0x1f\n        /* \"#utility.yul\":6607:6612   */\n      dup4\n        /* \"#utility.yul\":6603:6617   */\n      add\n        /* \"#utility.yul\":6599:6622   */\n      div\n        /* \"#utility.yul\":6589:6622   */\n      swap1\n      pop\n        /* \"#utility.yul\":6535:6628   */\n      swap2\n      swap1\n      pop\n      jump\t// out\n        /* \"#utility.yul\":6634:6741   */\n    tag_61:\n        /* \"#utility.yul\":6678:6686   */\n      0x00\n        /* \"#utility.yul\":6728:6733   */\n      dup3\n        /* \"#utility.yul\":6722:6726   */\n      dup3\n        /* \"#utility.yul\":6718:6734   */\n      shl\n        /* \"#utility.yul\":6697:6734   */\n      swap1\n      pop\n        /* \"#utility.yul\":6634:6741   */\n      swap3\n      swap2\n      pop\n      pop\n      jump\t// out\n        /* \"#utility.yul\":6747:7140   */\n    tag_62:\n        /* \"#utility.yul\":6816:6822   */\n      0x00\n        /* \"#utility.yul\":6866:6867   */\n      0x08\n        /* \"#utility.yul\":6854:6864   */\n      dup4\n        /* \"#utility.yul\":6850:6868   */\n      mul\n        /* \"#utility.yul\":6889:6986   */\n      tag_149\n        /* \"#utility.yul\":6919:6985   */\n      0xffffffffffffffffffffffffffffffffffffffffffffffffffffffffffffffff\n        /* \"#utility.yul\":6908:6917   */\n      dup3\n        /* \"#utility.yul\":6889:6986   */\n      tag_61\n      jump\t// in\n    tag_149:\n        /* \"#utility.yul\":7007:7046   */\n      tag_150\n        /* \"#utility.yul\":7037:7045   */\n      dup7\n        /* \"#utility.yul\":7026:7035   */\n      dup4\n        /* \"#utility.yul\":7007:7046   */\n      tag_61\n      jump\t// in\n    tag_150:\n        /* \"#utility.yul\":6995:7046   */\n      swap6\n      pop\n        /* \"#utility.yul\":7079:7083   */\n      dup1\n        /* \"#utility.yul\":7075:7084   */\n      not\n        /* \"#utility.yul\":7068:7073   */\n      dup5\n        /* \"#utility.yul\":7064:7085   */\n      and\n        /* \"#utility.yul\":7055:7085   */\n      swap4\n      pop\n        /* \"#utility.yul\":7128:7132   */\n      dup1\n        /* \"#utility.yul\":7118:7126   */\n      dup7\n        /* \"#utility.yul\":7114:7133   */\n      and\n        /* \"#utility.yul\":7107:7112   */\n      dup5\n        /* \"#utility.yul\":7104:7134   */\n      or\n        /* \"#utility.yul\":7094:7134   */\n      swap3\n      pop\n        /* \"#utility.yul\":6823:7140   */\n      pop\n      pop\n        /* \"#utility.yul\":6747:7140   */\n      swap4\n      swap3\n      pop\n      pop\n      pop\n      jump\t// out\n        /* \"#utility.yul\":7146:7206   */\n    tag_63:\n        /* \"#utility.yul\":7174:7177   */\n      0x00\n        /* \"#utility.yul\":7195:7200   */\n      dup2\n        /* \"#utility.yul\":7188:7200   */\n      swap1\n      pop\n        /* \"#utility.yul\":7146:7206   */\n      swap2\n      swap1\n      pop\n      jump\t// out\n        /* \"#utility.yul\":7212:7354   */\n    tag_64:\n        /* \"#utility.yul\":7262:7271   */\n      0x00\n        /* \"#utility.yul\":7295:7348   */\n      tag_153\n        /* \"#utility.yul\":7313:7347   */\n      tag_154\n        /* \"#utility.yul\":7322:7346   */\n      tag_155\n        /* \"#utility.yul\":7340:7345   */\n      dup5\n        /* \"#utility.yul\":7322:7346   */\n      tag_37\n      jump\t// in\n    tag_155:\n        /* \"#utility.yul\":7313:7347   */\n      tag_63\n      jump\t// in\n    tag_154:\n        /* \"#utility.yul\":7295:7348   */\n      tag_37\n      jump\t// in\n    tag_153:\n        /* \"#utility.yul\":7282:7348   */\n      swap1\n      pop\n        /* \"#utility.yul\":7212:7354   */\n      swap2\n      swap1\n      pop\n      jump\t// out\n        /* \"#utility.yul\":7360:7435   */\n    tag_65:\n        /* \"#utility.yul\":7403:7406   */\n      0x00\n        /* \"#utility.yul\":7424:7429   */\n      dup2\n        /* \"#utility.yul\":7417:7429   */\n      swap1\n      pop\n        /* \"#utility.yul\":7360:7435   */\n      swap2\n      swap1\n      pop\n      jump\t// out\n        /* \"#utility.yul\":7441:7710   */\n    tag_66:\n        /* \"#utility.yul\":7551:7590   */\n      tag_158\n        /* \"#utility.yul\":7582:7589   */\n      dup4\n        /* \"#utility.yul\":7551:7590   */\n      tag_64\n      jump\t// in\n    tag_158:\n        /* \"#utility.yul\":7612:7703   */\n      tag_159\n        /* \"#utility.yul\":7661:7702   */\n      tag_160\n        /* \"#utility.yul\":7685:7701   */\n      dup3\n        /* \"#utility.yul\":7661:7702   */\n      tag_65\n      jump\t// in\n    tag_160:\n        /* \"#utility.yul\":7653:7659   */\n      dup5\n        /* \"#utility.yul\":7646:7650   */\n      dup5\n        /* \"#utility.yul\":7640:7651   */\n      sload\n        /* \"#utility.yul\":7612:7703   */\n      tag_62\n      jump\t// in\n    tag_159:\n        /* \"#utility.yul\":7606:7610   */\n      dup3\n        /* \"#utility.yul\":7599:7704   */\n      sstore\n        /* \"#utility.yul\":7517:7710   */\n      pop\n        /* \"#utility.yul\":7441:7710   */\n      pop\n      pop\n      pop\n      jump\t// out\n        /* \"#utility.yul\":7716:7789   */\n    tag_67:\n        /* \"#utility.yul\":7761:7764   */\n      0x00\n        /* \"#utility.yul\":7716:7789   */\n      swap1\n      jump\t// out\n        /* \"#utility.yul\":7795:7984   */\n    tag_68:\n        /* \"#utility.yul\":7872:7904   */\n      tag_163\n      tag_67\n      jump\t// in\n    tag_163:\n        /* \"#utility.yul\":7913:7978   */\n      tag_164\n        /* \"#utility.yul\":7971:7977   */\n      dup2\n        /* \"#utility.yul\":7963:7969   */\n      dup5\n        /* \"#utility.yul\":7957:7961   */\n      dup5\n        /* \"#utility.yul\":7913:7978   */\n      tag_66\n      jump\t// in\n    tag_164:\n        /* \"#utility.yul\":7848:7984   */\n      pop\n        /* \"#utility.yul\":7795:7984   */\n      pop\n      pop\n      jump\t// out\n        /* \"#utility.yul\":7990:8176   */\n    tag_69:\n        /* \"#utility.yul\":8050:8170   */\n    tag_166:\n        /* \"#utility.yul\":8067:8070   */\n      dup2\n        /* \"#utility.yul\":8060:8065   */\n      dup2\n        /* \"#utility.yul\":8057:8071   */\n      lt\n        /* \"#utility.yul\":8050:8170   */\n      iszero\n      tag_168\n      jumpi\n        /* \"#utility.yul\":8121:8160   */\n      tag_169\n        /* \"#utility.yul\":8158:8159   */\n      0x00\n        /* \"#utility.yul\":8151:8156   */\n      dup3\n        /* \"#utility.yul\":8121:8160   */\n      tag_68\n      jump\t// in\n    tag_169:\n        /* \"#utility.yul\":8094:8095   */\n      0x01\n        /* \"#utility.yul\":8087:8092   */\n      dup2\n        /* \"#utility.yul\":8083:8096   */\n      add\n        /* \"#utility.yul\":8074:8096   */\n      swap1\n      pop\n        /* \"#utility.yul\":8050:8170   */\n      jump(tag_166)\n    tag_168:\n        /* \"#utility.yul\":7990:8176   */\n      pop\n      pop\n      jump\t// out\n        /* \"#utility.yul\":8182:8725   */\n    tag_70:\n        /* \"#utility.yul\":8283:8285   */\n      0x1f\n        /* \"#utility.yul\":8278:8281   */\n      dup3\n        /* \"#utility.yul\":8275:8286   */\n      gt\n        /* \"#utility.yul\":8272:8718   */\n      iszero\n      tag_171\n      jumpi\n        /* \"#utility.yul\":8317:8355   */\n      tag_172\n        /* \"#utility.yul\":8349:8354   */\n      dup2\n        /* \"#utility.yul\":8317:8355   */\n      tag_59\n      jump\t// in\n    tag_172:\n        /* \"#utility.yul\":8401:8430   */\n      tag_173\n        /* \"#utility.yul\":8419:8429   */\n      dup5\n        /* \"#utility.yul\":8401:8430   */\n      tag_60\n      jump\t// in\n    tag_173:\n        /* \"#utility.yul\":8391:8399   */\n      dup2\n        /* \"#utility.yul\":8387:8431   */\n      add\n        /* \"#utility.yul\":8584:8586   */\n      0x20\n        /* \"#utility.yul\":8572:8582   */\n      dup6\n        /* \"#utility.yul\":8569:8587   */\n      lt\n        /* \"#utility.yul\":8566:8615   */\n      iszero\n      tag_174\n      jumpi\n        /* \"#utility.yul\":8605:8613   */\n      dup2\n        /* \"#utility.yul\":8590:8613   */\n      swap1\n      pop\n        /* \"#utility.yul\":8566:8615   */\n    tag_174:\n        /* \"#utility.yul\":8628:8708   */\n      tag_175\n        /* \"#utility.yul\":8684:8706   */\n      tag_176\n        /* \"#utility.yul\":8702:8705   */\n      dup6\n        /* \"#utility.yul\":8684:8706   */\n      tag_60\n      jump\t// in\n    tag_176:\n        /* \"#utility.yul\":8674:8682   */\n      dup4\n        /* \"#utility.yul\":8670:8707   */\n      add\n        /* \"#utility.yul\":8657:8668   */\n      dup3\n        /* \"#utility.yul\":8628:8708   */\n      tag_69\n      jump\t// in\n    tag_175:\n        /* \"#utility.yul\":8287:8718   */\n      pop\n      pop\n        /* \"#utility.yul\":8272:8718   */\n    tag_171:\n        /* \"#utility.yul\":8182:8725   */\n      pop\n      pop\n      pop\n      jump\t// out\n        /* \"#utility.yul\":8731:8848   */\n    tag_71:\n        /* \"#utility.yul\":8785:8793   */\n      0x00\n        /* \"#utility.yul\":8835:8840   */\n      dup3\n        /* \"#utility.yul\":8829:8833   */\n      dup3\n        /* \"#utility.yul\":8825:8841   */\n      shr\n        /* \"#utility.yul\":8804:8841   */\n      swap1\n      pop\n        /* \"#utility.yul\":8731:8848   */\n      swap3\n      swap2\n      pop\n      pop\n      jump\t// out\n        /* \"#utility.yul\":8854:9023   */\n    tag_72:\n        /* \"#utility.yul\":8898:8904   */\n      0x00\n        /* \"#utility.yul\":8931:8982   */\n      tag_179\n        /* \"#utility.yul\":8979:8980   */\n      0x00\n        /* \"#utility.yul\":8975:8981   */\n      not\n        /* \"#utility.yul\":8967:8972   */\n      dup5\n        /* \"#utility.yul\":8964:8965   */\n      0x08\n        /* \"#utility.yul\":8960:8973   */\n      mul\n        /* \"#utility.yul\":8931:8982   */\n      tag_71\n      jump\t// in\n    tag_179:\n        /* \"#utility.yul\":8927:8983   */\n      not\n        /* \"#utility.yul\":9012:9016   */\n      dup1\n        /* \"#utility.yul\":9006:9010   */\n      dup4\n        /* \"#utility.yul\":9002:9017   */\n      and\n        /* \"#utility.yul\":8992:9017   */\n      swap2\n      pop\n        /* \"#utility.yul\":8905:9023   */\n      pop\n        /* \"#utility.yul\":8854:9023   */\n      swap3\n      swap2\n      pop\n      pop\n      jump\t// out\n        /* \"#utility.yul\":9028:9323   */\n    tag_73:\n        /* \"#utility.yul\":9104:9108   */\n      0x00\n        /* \"#utility.yul\":9250:9279   */\n      tag_181\n        /* \"#utility.yul\":9275:9278   */\n      dup4\n        /* \"#utility.yul\":9269:9273   */\n      dup4\n        /* \"#utility.yul\":9250:9279   */\n      tag_72\n      jump\t// in\n    tag_181:\n        /* \"#utility.yul\":9242:9279   */\n      swap2\n      pop\n        /* \"#utility.yul\":9312:9315   */\n      dup3\n        /* \"#utility.yul\":9309:9310   */\n      0x02\n        /* \"#utility.yul\":9305:9316   */\n      mul\n        /* \"#utility.yul\":9299:9303   */\n      dup3\n        /* \"#utility.yul\":9296:9317   */\n      or\n        /* \"#utility.yul\":9288:9317   */\n      swap1\n      pop\n        /* \"#utility.yul\":9028:9323   */\n      swap3\n      swap2\n      pop\n      pop\n      jump\t// out\n        /* \"#utility.yul\":9328:10723   */\n    tag_33:\n        /* \"#utility.yul\":9445:9482   */\n      tag_183\n        /* \"#utility.yul\":9478:9481   */\n      dup3\n        /* \"#utility.yul\":9445:9482   */\n      tag_44\n      jump\t// in\n    tag_183:\n        /* \"#utility.yul\":9547:9565   */\n      0xffffffffffffffff\n        /* \"#utility.yul\":9539:9545   */\n      dup2\n        /* \"#utility.yul\":9536:9566   */\n      gt\n        /* \"#utility.yul\":9533:9589   */\n      iszero\n      tag_184\n      jumpi\n        /* \"#utility.yul\":9569:9587   */\n      tag_185\n      tag_51\n      jump\t// in\n    tag_185:\n        /* \"#utility.yul\":9533:9589   */\n    tag_184:\n        /* \"#utility.yul\":9613:9651   */\n      tag_186\n        /* \"#utility.yul\":9645:9649   */\n      dup3\n        /* \"#utility.yul\":9639:9650   */\n      sload\n        /* \"#utility.yul\":9613:9651   */\n      tag_21\n      jump\t// in\n    tag_186:\n        /* \"#utility.yul\":9698:9765   */\n      tag_187\n        /* \"#utility.yul\":9758:9764   */\n      dup3\n        /* \"#utility.yul\":9750:9756   */\n      dup3\n        /* \"#utility.yul\":9744:9748   */\n      dup6\n        /* \"#utility.yul\":9698:9765   */\n      tag_70\n      jump\t// in\n    tag_187:\n        /* \"#utility.yul\":9792:9793   */\n      0x00\n        /* \"#utility.yul\":9816:9820   */\n      0x20\n        /* \"#utility.yul\":9803:9820   */\n      swap1\n      pop\n        /* \"#utility.yul\":9848:9850   */\n      0x1f\n        /* \"#utility.yul\":9840:9846   */\n      dup4\n        /* \"#utility.yul\":9837:9851   */\n      gt\n        /* \"#utility.yul\":9865:9866   */\n      0x01\n        /* \"#utility.yul\":9860:10478   */\n      dup2\n      eq\n      tag_189\n      jumpi\n        /* \"#utility.yul\":10522:10523   */\n      0x00\n        /* \"#utility.yul\":10539:10545   */\n      dup5\n        /* \"#utility.yul\":10536:10613   */\n      iszero\n      tag_190\n      jumpi\n        /* \"#utility.yul\":10588:10597   */\n      dup3\n        /* \"#utility.yul\":10583:10586   */\n      dup8\n        /* \"#utility.yul\":10579:10598   */\n      add\n        /* \"#utility.yul\":10573:10599   */\n      mload\n        /* \"#utility.yul\":10564:10599   */\n      swap1\n      pop\n        /* \"#utility.yul\":10536:10613   */\n    tag_190:\n        /* \"#utility.yul\":10639:10706   */\n      tag_191\n        /* \"#utility.yul\":10699:10705   */\n      dup6\n        /* \"#utility.yul\":10692:10697   */\n      dup3\n        /* \"#utility.yul\":10639:10706   */\n      tag_73\n      jump\t// in\n    tag_191:\n        /* \"#utility.yul\":10633:10637   */\n      dup7\n        /* \"#utility.yul\":10626:10707   */\n      sstore\n        /* \"#utility.yul\":10495:10717   */\n      pop\n        /* \"#utility.yul\":9830:10717   */\n      jump(tag_188)\n        /* \"#utility.yul\":9860:10478   */\n    tag_189:\n        /* \"#utility.yul\":9912:9916   */\n      0x1f\n        /* \"#utility.yul\":9908:9917   */\n      not\n        /* \"#utility.yul\":9900:9906   */\n      dup5\n        /* \"#utility.yul\":9896:9918   */\n      and\n        /* \"#utility.yul\":9946:9983   */\n      tag_192\n        /* \"#utility.yul\":9978:9982   */\n      dup7\n        /* \"#utility.yul\":9946:9983   */\n      tag_59\n      jump\t// in\n    tag_192:\n        /* \"#utility.yul\":10005:10006   */\n      0x00\n        /* \"#utility.yul\":10019:10227   */\n    tag_193:\n        /* \"#utility.yul\":10033:10040   */\n      dup3\n        /* \"#utility.yul\":10030:10031   */\n      dup2\n        /* \"#utility.yul\":10027:10041   */\n      lt\n        /* \"#utility.yul\":10019:10227   */\n      iszero\n      tag_195\n      jumpi\n        /* \"#utility.yul\":10112:10121   */\n      dup5\n        /* \"#utility.yul\":10107:10110   */\n      dup10\n        /* \"#utility.yul\":10103:10122   */\n      add\n        /* \"#utility.yul\":10097:10123   */\n      mload\n        /* \"#utility.yul\":10089:10095   */\n      dup3\n        /* \"#utility.yul\":10082:10124   */\n      sstore\n        /* \"#utility.yul\":10163:10164   */\n      0x01\n        /* \"#utility.yul\":10155:10161   */\n      dup3\n        /* \"#utility.yul\":10151:10165   */\n      add\n        /* \"#utility.yul\":10141:10165   */\n      swap2\n      pop\n        /* \"#utility.yul\":10210:10212   */\n      0x20\n        /* \"#utility.yul\":10199:10208   */\n      dup6\n        /* \"#utility.yul\":10195:10213   */\n      add\n        /* \"#utility.yul\":10182:10213   */\n      swap5\n      pop\n        /* \"#utility.yul\":10056:10060   */\n      0x20\n        /* \"#utility.yul\":10053:10054   */\n      dup2\n        /* \"#utility.yul\":10049:10061   */\n      add\n        /* \"#utility.yul\":10044:10061   */\n      swap1\n      pop\n        /* \"#utility.yul\":10019:10227   */\n      jump(tag_193)\n    tag_195:\n        /* \"#utility.yul\":10255:10261   */\n      dup7\n        /* \"#utility.yul\":10246:10253   */\n      dup4\n        /* \"#utility.yul\":10243:10262   */\n      lt\n        /* \"#utility.yul\":10240:10419   */\n      iszero\n      tag_196\n      jumpi\n        /* \"#utility.yul\":10313:10322   */\n      dup5\n        /* \"#utility.yul\":10308:10311   */\n      dup10\n        /* \"#utility.yul\":10304:10323   */\n      add\n        /* \"#utility.yul\":10298:10324   */\n      mload\n        /* \"#utility.yul\":10356:10404   */\n      tag_197\n        /* \"#utility.yul\":10398:10402   */\n      0x1f\n        /* \"#utility.yul\":10390:10396   */\n      dup10\n        /* \"#utility.yul\":10386:10403   */\n      and\n        /* \"#utility.yul\":10375:10384   */\n      dup3\n        /* \"#utility.yul\":10356:10404   */\n      tag_72\n      jump\t// in\n    tag_197:\n        /* \"#utility.yul\":10348:10354   */\n      dup4\n        /* \"#utility.yul\":10341:10405   */\n      sstore\n        /* \"#utility.yul\":10263:10419   */\n      pop\n        /* \"#utility.yul\":10240:10419   */\n    tag_196:\n        /* \"#utility.yul\":10465:10466   */\n      0x01\n        /* \"#utility.yul\":10461:10462   */\n      0x02\n        /* \"#utility.yul\":10453:10459   */\n      dup9\n        /* \"#utility.yul\":10449:10463   */\n      mul\n        /* \"#utility.yul\":10445:10467   */\n      add\n        /* \"#utility.yul\":10439:10443   */\n      dup9\n        /* \"#utility.yul\":10432:10468   */\n      sstore\n        /* \"#utility.yul\":9867:10478   */\n      pop\n      pop\n      pop\n        /* \"#utility.yul\":9830:10717   */\n    tag_188:\n      pop\n        /* \"#utility.yul\":9420:10723   */\n      pop\n      pop\n      pop\n        /* \"#utility.yul\":9328:10723   */\n      pop\n      pop\n      jump\t// out\n        /* \"#utility.yul\":10729:10909   */\n    tag_74:\n        /* \"#utility.yul\":10777:10854   */\n      0x4e487b7100000000000000000000000000000000000000000000000000000000\n        /* \"#utility.yul\":10774:10775   */\n      0x00\n        /* \"#utility.yul\":10767:10855   */\n      mstore\n        /* \"#utility.yul\":10874:10878   */\n      0x11\n        /* \"#utility.yul\":10871:10872   */\n      0x04\n        /* \"#utility.yul\":10864:10879   */\n      mstore\n        /* \"#utility.yul\":10898:10902   */\n      0x24\n        /* \"#utility.yul\":10895:10896   */\n      0x00\n        /* \"#utility.yul\":10888:10903   */\n      revert\n        /* \"#utility.yul\":10915:11106   */\n    tag_36:\n        /* \"#utility.yul\":10955:10958   */\n      0x00\n        /* \"#utility.yul\":10974:10994   */\n      tag_200\n        /* \"#utility.yul\":10992:10993   */\n      dup3\n        /* \"#utility.yul\":10974:10994   */\n      tag_37\n      jump\t// in\n    tag_200:\n        /* \"#utility.yul\":10969:10994   */\n      swap2\n      pop\n        /* \"#utility.yul\":11008:11028   */\n      tag_201\n        /* \"#utility.yul\":11026:11027   */\n      dup4\n        /* \"#utility.yul\":11008:11028   */\n      tag_37\n      jump\t// in\n    tag_201:\n        /* \"#utility.yul\":11003:11028   */\n      swap3\n      pop\n        /* \"#utility.yul\":11051:11052   */\n      dup3\n        /* \"#utility.yul\":11048:11049   */\n      dup3\n        /* \"#utility.yul\":11044:11053   */\n      add\n        /* \"#utility.yul\":11037:11053   */\n      swap1\n      pop\n        /* \"#utility.yul\":11072:11075   */\n      dup1\n        /* \"#utility.yul\":11069:11070   */\n      dup3\n        /* \"#utility.yul\":11066:11076   */\n      gt\n        /* \"#utility.yul\":11063:11099   */\n      iszero\n      tag_202\n      jumpi\n        /* \"#utility.yul\":11079:11097   */\n      tag_203\n      tag_74\n      jump\t// in\n    tag_203:\n        /* \"#utility.yul\":11063:11099   */\n    tag_202:\n        /* \"#utility.yul\":10915:11106   */\n      swap3\n      swap2\n      pop\n      pop\n      jump\t// out\n\n    auxdata: 0xa264697066735822122058197bbc6c59fdd81ada0d80cd1fa9894988d9bb00136049f301aa315c55474764736f6c634300081a0033\n}\n",
				"bytecode": {
					"linkReferences": {},
					"object": "6080604052348015600e575f80fd5b506108b28061001c5f395ff3fe608060405234801561000f575f80fd5b506004361061003f575f3560e01c8063267c68e0146100435780639e7a13ad14610061578063a654ebf414610093575b5f80fd5b61004b6100af565b604051610058919061027f565b60405180910390f35b61007b600480360381019061007691906102d3565b6100b4565b60405161008a9392919061036e565b60405180910390f35b6100ad60048036038101906100a891906104dd565b6101e6565b005b5f5481565b6001602052805f5260405f205f91509050805f0154908060010180546100d990610580565b80601f016020809104026020016040519081016040528092919081815260200182805461010590610580565b80156101505780601f1061012757610100808354040283529160200191610150565b820191905f5260205f20905b81548152906001019060200180831161013357829003601f168201915b50505050509080600201805461016590610580565b80601f016020809104026020016040519081016040528092919081815260200182805461019190610580565b80156101dc5780601f106101b3576101008083540402835291602001916101dc565b820191905f5260205f20905b8154815290600101906020018083116101bf57829003601f168201915b5050505050905083565b60405180606001604052805f5481526020018381526020018281525060015f805481526020019081526020015f205f820151815f01556020820151816001019081610231919061074d565b506040820151816002019081610247919061074d565b5090505060015f8082825461025c9190610849565b925050819055505050565b5f819050919050565b61027981610267565b82525050565b5f6020820190506102925f830184610270565b92915050565b5f604051905090565b5f80fd5b5f80fd5b6102b281610267565b81146102bc575f80fd5b50565b5f813590506102cd816102a9565b92915050565b5f602082840312156102e8576102e76102a1565b5b5f6102f5848285016102bf565b91505092915050565b5f81519050919050565b5f82825260208201905092915050565b8281835e5f83830152505050565b5f601f19601f8301169050919050565b5f610340826102fe565b61034a8185610308565b935061035a818560208601610318565b61036381610326565b840191505092915050565b5f6060820190506103815f830186610270565b81810360208301526103938185610336565b905081810360408301526103a78184610336565b9050949350505050565b5f80fd5b5f80fd5b7f4e487b71000000000000000000000000000000000000000000000000000000005f52604160045260245ffd5b6103ef82610326565b810181811067ffffffffffffffff8211171561040e5761040d6103b9565b5b80604052505050565b5f610420610298565b905061042c82826103e6565b919050565b5f67ffffffffffffffff82111561044b5761044a6103b9565b5b61045482610326565b9050602081019050919050565b828183375f83830152505050565b5f61048161047c84610431565b610417565b90508281526020810184848401111561049d5761049c6103b5565b5b6104a8848285610461565b509392505050565b5f82601f8301126104c4576104c36103b1565b5b81356104d484826020860161046f565b91505092915050565b5f80604083850312156104f3576104f26102a1565b5b5f83013567ffffffffffffffff8111156105105761050f6102a5565b5b61051c858286016104b0565b925050602083013567ffffffffffffffff81111561053d5761053c6102a5565b5b610549858286016104b0565b9150509250929050565b7f4e487b71000000000000000000000000000000000000000000000000000000005f52602260045260245ffd5b5f600282049050600182168061059757607f821691505b6020821081036105aa576105a9610553565b5b50919050565b5f819050815f5260205f209050919050565b5f6020601f8301049050919050565b5f82821b905092915050565b5f6008830261060c7fffffffffffffffffffffffffffffffffffffffffffffffffffffffffffffffff826105d1565b61061686836105d1565b95508019841693508086168417925050509392505050565b5f819050919050565b5f61065161064c61064784610267565b61062e565b610267565b9050919050565b5f819050919050565b61066a83610637565b61067e61067682610658565b8484546105dd565b825550505050565b5f90565b610692610686565b61069d818484610661565b505050565b5b818110156106c0576106b55f8261068a565b6001810190506106a3565b5050565b601f821115610705576106d6816105b0565b6106df846105c2565b810160208510156106ee578190505b6107026106fa856105c2565b8301826106a2565b50505b505050565b5f82821c905092915050565b5f6107255f198460080261070a565b1980831691505092915050565b5f61073d8383610716565b9150826002028217905092915050565b610756826102fe565b67ffffffffffffffff81111561076f5761076e6103b9565b5b6107798254610580565b6107848282856106c4565b5f60209050601f8311600181146107b5575f84156107a3578287015190505b6107ad8582610732565b865550610814565b601f1984166107c3866105b0565b5f5b828110156107ea578489015182556001820191506020850194506020810190506107c5565b868310156108075784890151610803601f891682610716565b8355505b6001600288020188555050505b505050505050565b7f4e487b71000000000000000000000000000000000000000000000000000000005f52601160045260245ffd5b5f61085382610267565b915061085e83610267565b92508282019050808211156108765761087561081c565b5b9291505056fea264697066735822122058197bbc6c59fdd81ada0d80cd1fa9894988d9bb00136049f301aa315c55474764736f6c634300081a0033",
					"opcodes": "PUSH1 0x80 PUSH1 0x40 MSTORE CALLVALUE DUP1 ISZERO PUSH1 0xE JUMPI PUSH0 DUP1 REVERT JUMPDEST POP PUSH2 0x8B2 DUP1 PUSH2 0x1C PUSH0 CODECOPY PUSH0 RETURN INVALID PUSH1 0x80 PUSH1 0x40 MSTORE CALLVALUE DUP1 ISZERO PUSH2 0xF JUMPI PUSH0 DUP1 REVERT JUMPDEST POP PUSH1 0x4 CALLDATASIZE LT PUSH2 0x3F JUMPI PUSH0 CALLDATALOAD PUSH1 0xE0 SHR DUP1 PUSH4 0x267C68E0 EQ PUSH2 0x43 JUMPI DUP1 PUSH4 0x9E7A13AD EQ PUSH2 0x61 JUMPI DUP1 PUSH4 0xA654EBF4 EQ PUSH2 0x93 JUMPI JUMPDEST PUSH0 DUP1 REVERT JUMPDEST PUSH2 0x4B PUSH2 0xAF JUMP JUMPDEST PUSH1 0x40 MLOAD PUSH2 0x58 SWAP2 SWAP1 PUSH2 0x27F JUMP JUMPDEST PUSH1 0x40 MLOAD DUP1 SWAP2 SUB SWAP1 RETURN JUMPDEST PUSH2 0x7B PUSH1 0x4 DUP1 CALLDATASIZE SUB DUP2 ADD SWAP1 PUSH2 0x76 SWAP2 SWAP1 PUSH2 0x2D3 JUMP JUMPDEST PUSH2 0xB4 JUMP JUMPDEST PUSH1 0x40 MLOAD PUSH2 0x8A SWAP4 SWAP3 SWAP2 SWAP1 PUSH2 0x36E JUMP JUMPDEST PUSH1 0x40 MLOAD DUP1 SWAP2 SUB SWAP1 RETURN JUMPDEST PUSH2 0xAD PUSH1 0x4 DUP1 CALLDATASIZE SUB DUP2 ADD SWAP1 PUSH2 0xA8 SWAP2 SWAP1 PUSH2 0x4DD JUMP JUMPDEST PUSH2 0x1E6 JUMP JUMPDEST STOP JUMPDEST PUSH0 SLOAD DUP2 JUMP JUMPDEST PUSH1 0x1 PUSH1 0x20 MSTORE DUP1 PUSH0 MSTORE PUSH1 0x40 PUSH0 KECCAK256 PUSH0 SWAP2 POP SWAP1 POP DUP1 PUSH0 ADD SLOAD SWAP1 DUP1 PUSH1 0x1 ADD DUP1 SLOAD PUSH2 0xD9 SWAP1 PUSH2 0x580 JUMP JUMPDEST DUP1 PUSH1 0x1F ADD PUSH1 0x20 DUP1 SWAP2 DIV MUL PUSH1 0x20 ADD PUSH1 0x40 MLOAD SWAP1 DUP2 ADD PUSH1 0x40 MSTORE DUP1 SWAP3 SWAP2 SWAP1 DUP2 DUP2 MSTORE PUSH1 0x20 ADD DUP3 DUP1 SLOAD PUSH2 0x105 SWAP1 PUSH2 0x580 JUMP JUMPDEST DUP1 ISZERO PUSH2 0x150 JUMPI DUP1 PUSH1 0x1F LT PUSH2 0x127 JUMPI PUSH2 0x100 DUP1 DUP4 SLOAD DIV MUL DUP4 MSTORE SWAP2 PUSH1 0x20 ADD SWAP2 PUSH2 0x150 JUMP JUMPDEST DUP3 ADD SWAP2 SWAP1 PUSH0 MSTORE PUSH1 0x20 PUSH0 KECCAK256 SWAP1 JUMPDEST DUP2 SLOAD DUP2 MSTORE SWAP1 PUSH1 0x1 ADD SWAP1 PUSH1 0x20 ADD DUP1 DUP4 GT PUSH2 0x133 JUMPI DUP3 SWAP1 SUB PUSH1 0x1F AND DUP3 ADD SWAP2 JUMPDEST POP POP POP POP POP SWAP1 DUP1 PUSH1 0x2 ADD DUP1 SLOAD PUSH2 0x165 SWAP1 PUSH2 0x580 JUMP JUMPDEST DUP1 PUSH1 0x1F ADD PUSH1 0x20 DUP1 SWAP2 DIV MUL PUSH1 0x20 ADD PUSH1 0x40 MLOAD SWAP1 DUP2 ADD PUSH1 0x40 MSTORE DUP1 SWAP3 SWAP2 SWAP1 DUP2 DUP2 MSTORE PUSH1 0x20 ADD DUP3 DUP1 SLOAD PUSH2 0x191 SWAP1 PUSH2 0x580 JUMP JUMPDEST DUP1 ISZERO PUSH2 0x1DC JUMPI DUP1 PUSH1 0x1F LT PUSH2 0x1B3 JUMPI PUSH2 0x100 DUP1 DUP4 SLOAD DIV MUL DUP4 MSTORE SWAP2 PUSH1 0x20 ADD SWAP2 PUSH2 0x1DC JUMP JUMPDEST DUP3 ADD SWAP2 SWAP1 PUSH0 MSTORE PUSH1 0x20 PUSH0 KECCAK256 SWAP1 JUMPDEST DUP2 SLOAD DUP2 MSTORE SWAP1 PUSH1 0x1 ADD SWAP1 PUSH1 0x20 ADD DUP1 DUP4 GT PUSH2 0x1BF JUMPI DUP3 SWAP1 SUB PUSH1 0x1F AND DUP3 ADD SWAP2 JUMPDEST POP POP POP POP POP SWAP1 POP DUP4 JUMP JUMPDEST PUSH1 0x40 MLOAD DUP1 PUSH1 0x60 ADD PUSH1 0x40 MSTORE DUP1 PUSH0 SLOAD DUP2 MSTORE PUSH1 0x20 ADD DUP4 DUP2 MSTORE PUSH1 0x20 ADD DUP3 DUP2 MSTORE POP PUSH1 0x1 PUSH0 DUP1 SLOAD DUP2 MSTORE PUSH1 0x20 ADD SWAP1 DUP2 MSTORE PUSH1 0x20 ADD PUSH0 KECCAK256 PUSH0 DUP3 ADD MLOAD DUP2 PUSH0 ADD SSTORE PUSH1 0x20 DUP3 ADD MLOAD DUP2 PUSH1 0x1 ADD SWAP1 DUP2 PUSH2 0x231 SWAP2 SWAP1 PUSH2 0x74D JUMP JUMPDEST POP PUSH1 0x40 DUP3 ADD MLOAD DUP2 PUSH1 0x2 ADD SWAP1 DUP2 PUSH2 0x247 SWAP2 SWAP1 PUSH2 0x74D JUMP JUMPDEST POP SWAP1 POP POP PUSH1 0x1 PUSH0 DUP1 DUP3 DUP3 SLOAD PUSH2 0x25C SWAP2 SWAP1 PUSH2 0x849 JUMP JUMPDEST SWAP3 POP POP DUP2 SWAP1 SSTORE POP POP POP JUMP JUMPDEST PUSH0 DUP2 SWAP1 POP SWAP2 SWAP1 POP JUMP JUMPDEST PUSH2 0x279 DUP2 PUSH2 0x267 JUMP JUMPDEST DUP3 MSTORE POP POP JUMP JUMPDEST PUSH0 PUSH1 0x20 DUP3 ADD SWAP1 POP PUSH2 0x292 PUSH0 DUP4 ADD DUP5 PUSH2 0x270 JUMP JUMPDEST SWAP3 SWAP2 POP POP JUMP JUMPDEST PUSH0 PUSH1 0x40 MLOAD SWAP1 POP SWAP1 JUMP JUMPDEST PUSH0 DUP1 REVERT JUMPDEST PUSH0 DUP1 REVERT JUMPDEST PUSH2 0x2B2 DUP2 PUSH2 0x267 JUMP JUMPDEST DUP2 EQ PUSH2 0x2BC JUMPI PUSH0 DUP1 REVERT JUMPDEST POP JUMP JUMPDEST PUSH0 DUP2 CALLDATALOAD SWAP1 POP PUSH2 0x2CD DUP2 PUSH2 0x2A9 JUMP JUMPDEST SWAP3 SWAP2 POP POP JUMP JUMPDEST PUSH0 PUSH1 0x20 DUP3 DUP5 SUB SLT ISZERO PUSH2 0x2E8 JUMPI PUSH2 0x2E7 PUSH2 0x2A1 JUMP JUMPDEST JUMPDEST PUSH0 PUSH2 0x2F5 DUP5 DUP3 DUP6 ADD PUSH2 0x2BF JUMP JUMPDEST SWAP2 POP POP SWAP3 SWAP2 POP POP JUMP JUMPDEST PUSH0 DUP2 MLOAD SWAP1 POP SWAP2 SWAP1 POP JUMP JUMPDEST PUSH0 DUP3 DUP3 MSTORE PUSH1 0x20 DUP3 ADD SWAP1 POP SWAP3 SWAP2 POP POP JUMP JUMPDEST DUP3 DUP2 DUP4 MCOPY PUSH0 DUP4 DUP4 ADD MSTORE POP POP POP JUMP JUMPDEST PUSH0 PUSH1 0x1F NOT PUSH1 0x1F DUP4 ADD AND SWAP1 POP SWAP2 SWAP1 POP JUMP JUMPDEST PUSH0 PUSH2 0x340 DUP3 PUSH2 0x2FE JUMP JUMPDEST PUSH2 0x34A DUP2 DUP6 PUSH2 0x308 JUMP JUMPDEST SWAP4 POP PUSH2 0x35A DUP2 DUP6 PUSH1 0x20 DUP7 ADD PUSH2 0x318 JUMP JUMPDEST PUSH2 0x363 DUP2 PUSH2 0x326 JUMP JUMPDEST DUP5 ADD SWAP2 POP POP SWAP3 SWAP2 POP POP JUMP JUMPDEST PUSH0 PUSH1 0x60 DUP3 ADD SWAP1 POP PUSH2 0x381 PUSH0 DUP4 ADD DUP7 PUSH2 0x270 JUMP JUMPDEST DUP2 DUP2 SUB PUSH1 0x20 DUP4 ADD MSTORE PUSH2 0x393 DUP2 DUP6 PUSH2 0x336 JUMP JUMPDEST SWAP1 POP DUP2 DUP2 SUB PUSH1 0x40 DUP4 ADD MSTORE PUSH2 0x3A7 DUP2 DUP5 PUSH2 0x336 JUMP JUMPDEST SWAP1 POP SWAP5 SWAP4 POP POP POP POP JUMP JUMPDEST PUSH0 DUP1 REVERT JUMPDEST PUSH0 DUP1 REVERT JUMPDEST PUSH32 0x4E487B7100000000000000000000000000000000000000000000000000000000 PUSH0 MSTORE PUSH1 0x41 PUSH1 0x4 MSTORE PUSH1 0x24 PUSH0 REVERT JUMPDEST PUSH2 0x3EF DUP3 PUSH2 0x326 JUMP JUMPDEST DUP2 ADD DUP2 DUP2 LT PUSH8 0xFFFFFFFFFFFFFFFF DUP3 GT OR ISZERO PUSH2 0x40E JUMPI PUSH2 0x40D PUSH2 0x3B9 JUMP JUMPDEST JUMPDEST DUP1 PUSH1 0x40 MSTORE POP POP POP JUMP JUMPDEST PUSH0 PUSH2 0x420 PUSH2 0x298 JUMP JUMPDEST SWAP1 POP PUSH2 0x42C DUP3 DUP3 PUSH2 0x3E6 JUMP JUMPDEST SWAP2 SWAP1 POP JUMP JUMPDEST PUSH0 PUSH8 0xFFFFFFFFFFFFFFFF DUP3 GT ISZERO PUSH2 0x44B JUMPI PUSH2 0x44A PUSH2 0x3B9 JUMP JUMPDEST JUMPDEST PUSH2 0x454 DUP3 PUSH2 0x326 JUMP JUMPDEST SWAP1 POP PUSH1 0x20 DUP2 ADD SWAP1 POP SWAP2 SWAP1 POP JUMP JUMPDEST DUP3 DUP2 DUP4 CALLDATACOPY PUSH0 DUP4 DUP4 ADD MSTORE POP POP POP JUMP JUMPDEST PUSH0 PUSH2 0x481 PUSH2 0x47C DUP5 PUSH2 0x431 JUMP JUMPDEST PUSH2 0x417 JUMP JUMPDEST SWAP1 POP DUP3 DUP2 MSTORE PUSH1 0x20 DUP2 ADD DUP5 DUP5 DUP5 ADD GT ISZERO PUSH2 0x49D JUMPI PUSH2 0x49C PUSH2 0x3B5 JUMP JUMPDEST JUMPDEST PUSH2 0x4A8 DUP5 DUP3 DUP6 PUSH2 0x461 JUMP JUMPDEST POP SWAP4 SWAP3 POP POP POP JUMP JUMPDEST PUSH0 DUP3 PUSH1 0x1F DUP4 ADD SLT PUSH2 0x4C4 JUMPI PUSH2 0x4C3 PUSH2 0x3B1 JUMP JUMPDEST JUMPDEST DUP2 CALLDATALOAD PUSH2 0x4D4 DUP5 DUP3 PUSH1 0x20 DUP7 ADD PUSH2 0x46F JUMP JUMPDEST SWAP2 POP POP SWAP3 SWAP2 POP POP JUMP JUMPDEST PUSH0 DUP1 PUSH1 0x40 DUP4 DUP6 SUB SLT ISZERO PUSH2 0x4F3 JUMPI PUSH2 0x4F2 PUSH2 0x2A1 JUMP JUMPDEST JUMPDEST PUSH0 DUP4 ADD CALLDATALOAD PUSH8 0xFFFFFFFFFFFFFFFF DUP2 GT ISZERO PUSH2 0x510 JUMPI PUSH2 0x50F PUSH2 0x2A5 JUMP JUMPDEST JUMPDEST PUSH2 0x51C DUP6 DUP3 DUP7 ADD PUSH2 0x4B0 JUMP JUMPDEST SWAP3 POP POP PUSH1 0x20 DUP4 ADD CALLDATALOAD PUSH8 0xFFFFFFFFFFFFFFFF DUP2 GT ISZERO PUSH2 0x53D JUMPI PUSH2 0x53C PUSH2 0x2A5 JUMP JUMPDEST JUMPDEST PUSH2 0x549 DUP6 DUP3 DUP7 ADD PUSH2 0x4B0 JUMP JUMPDEST SWAP2 POP POP SWAP3 POP SWAP3 SWAP1 POP JUMP JUMPDEST PUSH32 0x4E487B7100000000000000000000000000000000000000000000000000000000 PUSH0 MSTORE PUSH1 0x22 PUSH1 0x4 MSTORE PUSH1 0x24 PUSH0 REVERT JUMPDEST PUSH0 PUSH1 0x2 DUP3 DIV SWAP1 POP PUSH1 0x1 DUP3 AND DUP1 PUSH2 0x597 JUMPI PUSH1 0x7F DUP3 AND SWAP2 POP JUMPDEST PUSH1 0x20 DUP3 LT DUP2 SUB PUSH2 0x5AA JUMPI PUSH2 0x5A9 PUSH2 0x553 JUMP JUMPDEST JUMPDEST POP SWAP2 SWAP1 POP JUMP JUMPDEST PUSH0 DUP2 SWAP1 POP DUP2 PUSH0 MSTORE PUSH1 0x20 PUSH0 KECCAK256 SWAP1 POP SWAP2 SWAP1 POP JUMP JUMPDEST PUSH0 PUSH1 0x20 PUSH1 0x1F DUP4 ADD DIV SWAP1 POP SWAP2 SWAP1 POP JUMP JUMPDEST PUSH0 DUP3 DUP3 SHL SWAP1 POP SWAP3 SWAP2 POP POP JUMP JUMPDEST PUSH0 PUSH1 0x8 DUP4 MUL PUSH2 0x60C PUSH32 0xFFFFFFFFFFFFFFFFFFFFFFFFFFFFFFFFFFFFFFFFFFFFFFFFFFFFFFFFFFFFFFFF DUP3 PUSH2 0x5D1 JUMP JUMPDEST PUSH2 0x616 DUP7 DUP4 PUSH2 0x5D1 JUMP JUMPDEST SWAP6 POP DUP1 NOT DUP5 AND SWAP4 POP DUP1 DUP7 AND DUP5 OR SWAP3 POP POP POP SWAP4 SWAP3 POP POP POP JUMP JUMPDEST PUSH0 DUP2 SWAP1 POP SWAP2 SWAP1 POP JUMP JUMPDEST PUSH0 PUSH2 0x651 PUSH2 0x64C PUSH2 0x647 DUP5 PUSH2 0x267 JUMP JUMPDEST PUSH2 0x62E JUMP JUMPDEST PUSH2 0x267 JUMP JUMPDEST SWAP1 POP SWAP2 SWAP1 POP JUMP JUMPDEST PUSH0 DUP2 SWAP1 POP SWAP2 SWAP1 POP JUMP JUMPDEST PUSH2 0x66A DUP4 PUSH2 0x637 JUMP JUMPDEST PUSH2 0x67E PUSH2 0x676 DUP3 PUSH2 0x658 JUMP JUMPDEST DUP5 DUP5 SLOAD PUSH2 0x5DD JUMP JUMPDEST DUP3 SSTORE POP POP POP POP JUMP JUMPDEST PUSH0 SWAP1 JUMP JUMPDEST PUSH2 0x692 PUSH2 0x686 JUMP JUMPDEST PUSH2 0x69D DUP2 DUP5 DUP5 PUSH2 0x661 JUMP JUMPDEST POP POP POP JUMP JUMPDEST JUMPDEST DUP2 DUP2 LT ISZERO PUSH2 0x6C0 JUMPI PUSH2 0x6B5 PUSH0 DUP3 PUSH2 0x68A JUMP JUMPDEST PUSH1 0x1 DUP2 ADD SWAP1 POP PUSH2 0x6A3 JUMP JUMPDEST POP POP JUMP JUMPDEST PUSH1 0x1F DUP3 GT ISZERO PUSH2 0x705 JUMPI PUSH2 0x6D6 DUP2 PUSH2 0x5B0 JUMP JUMPDEST PUSH2 0x6DF DUP5 PUSH2 0x5C2 JUMP JUMPDEST DUP2 ADD PUSH1 0x20 DUP6 LT ISZERO PUSH2 0x6EE JUMPI DUP2 SWAP1 POP JUMPDEST PUSH2 0x702 PUSH2 0x6FA DUP6 PUSH2 0x5C2 JUMP JUMPDEST DUP4 ADD DUP3 PUSH2 0x6A2 JUMP JUMPDEST POP POP JUMPDEST POP POP POP JUMP JUMPDEST PUSH0 DUP3 DUP3 SHR SWAP1 POP SWAP3 SWAP2 POP POP JUMP JUMPDEST PUSH0 PUSH2 0x725 PUSH0 NOT DUP5 PUSH1 0x8 MUL PUSH2 0x70A JUMP JUMPDEST NOT DUP1 DUP4 AND SWAP2 POP POP SWAP3 SWAP2 POP POP JUMP JUMPDEST PUSH0 PUSH2 0x73D DUP4 DUP4 PUSH2 0x716 JUMP JUMPDEST SWAP2 POP DUP3 PUSH1 0x2 MUL DUP3 OR SWAP1 POP SWAP3 SWAP2 POP POP JUMP JUMPDEST PUSH2 0x756 DUP3 PUSH2 0x2FE JUMP JUMPDEST PUSH8 0xFFFFFFFFFFFFFFFF DUP2 GT ISZERO PUSH2 0x76F JUMPI PUSH2 0x76E PUSH2 0x3B9 JUMP JUMPDEST JUMPDEST PUSH2 0x779 DUP3 SLOAD PUSH2 0x580 JUMP JUMPDEST PUSH2 0x784 DUP3 DUP3 DUP6 PUSH2 0x6C4 JUMP JUMPDEST PUSH0 PUSH1 0x20 SWAP1 POP PUSH1 0x1F DUP4 GT PUSH1 0x1 DUP2 EQ PUSH2 0x7B5 JUMPI PUSH0 DUP5 ISZERO PUSH2 0x7A3 JUMPI DUP3 DUP8 ADD MLOAD SWAP1 POP JUMPDEST PUSH2 0x7AD DUP6 DUP3 PUSH2 0x732 JUMP JUMPDEST DUP7 SSTORE POP PUSH2 0x814 JUMP JUMPDEST PUSH1 0x1F NOT DUP5 AND PUSH2 0x7C3 DUP7 PUSH2 0x5B0 JUMP JUMPDEST PUSH0 JUMPDEST DUP3 DUP2 LT ISZERO PUSH2 0x7EA JUMPI DUP5 DUP10 ADD MLOAD DUP3 SSTORE PUSH1 0x1 DUP3 ADD SWAP2 POP PUSH1 0x20 DUP6 ADD SWAP5 POP PUSH1 0x20 DUP2 ADD SWAP1 POP PUSH2 0x7C5 JUMP JUMPDEST DUP7 DUP4 LT ISZERO PUSH2 0x807 JUMPI DUP5 DUP10 ADD MLOAD PUSH2 0x803 PUSH1 0x1F DUP10 AND DUP3 PUSH2 0x716 JUMP JUMPDEST DUP4 SSTORE POP JUMPDEST PUSH1 0x1 PUSH1 0x2 DUP9 MUL ADD DUP9 SSTORE POP POP POP JUMPDEST POP POP POP POP POP POP JUMP JUMPDEST PUSH32 0x4E487B7100000000000000000000000000000000000000000000000000000000 PUSH0 MSTORE PUSH1 0x11 PUSH1 0x4 MSTORE PUSH1 0x24 PUSH0 REVERT JUMPDEST PUSH0 PUSH2 0x853 DUP3 PUSH2 0x267 JUMP JUMPDEST SWAP2 POP PUSH2 0x85E DUP4 PUSH2 0x267 JUMP JUMPDEST SWAP3 POP DUP3 DUP3 ADD SWAP1 POP DUP1 DUP3 GT ISZERO PUSH2 0x876 JUMPI PUSH2 0x875 PUSH2 0x81C JUMP JUMPDEST JUMPDEST SWAP3 SWAP2 POP POP JUMP INVALID LOG2 PUSH5 0x6970667358 0x22 SLT KECCAK256 PC NOT PUSH28 0xBC6C59FDD81ADA0D80CD1FA9894988D9BB00136049F301AA315C5547 SELFBALANCE PUSH5 0x736F6C6343 STOP ADDMOD BYTE STOP CALLER "
				},
				"gasEstimates": {
					"creation": {
						"codeDepositCost": "445200",
						"executionCost": "478",
						"totalCost": "445678"
					},
					"external": {
						"AddPerson(string,string)": "infinite",
						"people(uint256)": "infinite",
						"peopleCount()": "2402"
					}
				},
				"methodIdentifiers": {
					"AddPerson(string,string)": "a654ebf4",
					"people(uint256)": "9e7a13ad",
					"peopleCount()": "267c68e0"
				}
			},
			"storageLayout": {
				"storage": [
					{
						"astId": 95,
						"contract": "my-contract.sol:PersonContract",
						"label": "peopleCount",
						"offset": 0,
						"slot": "0",
						"type": "t_uint256"
					},
					{
						"astId": 100,
						"contract": "my-contract.sol:PersonContract",
						"label": "people",
						"offset": 0,
						"slot": "1",
						"type": "t_mapping(t_uint256,t_struct(Person)107_storage)"
					}
				],
				"types": {
					"t_mapping(t_uint256,t_struct(Person)107_storage)": {
						"encoding": "mapping",
						"key": "t_uint256",
						"label": "mapping(uint256 => struct PersonContract.Person)",
						"numberOfBytes": "32",
						"value": "t_struct(Person)107_storage"
					},
					"t_string_storage": {
						"encoding": "bytes",
						"label": "string",
						"numberOfBytes": "32"
					},
					"t_struct(Person)107_storage": {
						"encoding": "inplace",
						"label": "struct PersonContract.Person",
						"members": [
							{
								"astId": 102,
								"contract": "my-contract.sol:PersonContract",
								"label": "_id",
								"offset": 0,
								"slot": "0",
								"type": "t_uint256"
							},
							{
								"astId": 104,
								"contract": "my-contract.sol:PersonContract",
								"label": "_firstName",
								"offset": 0,
								"slot": "1",
								"type": "t_string_storage"
							},
							{
								"astId": 106,
								"contract": "my-contract.sol:PersonContract",
								"label": "_lastName",
								"offset": 0,
								"slot": "2",
								"type": "t_string_storage"
							}
						],
						"numberOfBytes": "96"
					},
					"t_uint256": {
						"encoding": "inplace",
						"label": "uint256",
						"numberOfBytes": "32"
					}
				}
			},
			"userdoc": {
				"kind": "user",
				"methods": {},
				"version": 1
			}
		}
	}
}