{
	"topics/solidity/basics/simple-storage-contract.sol": {
		"SimpleStorage": {
			"abi": [
				{
					"inputs": [],
					"name": "getData",
					"outputs": [
						{
							"internalType": "string",
							"name": "",
							"type": "string"
						}
					],
					"stateMutability": "view",
					"type": "function"
				},
				{
					"inputs": [
						{
							"internalType": "string",
							"name": "_storedDataString",
							"type": "string"
						}
					],
					"name": "storeData",
					"outputs": [],
					"stateMutability": "nonpayable",
					"type": "function"
				},
				{
					"inputs": [],
					"name": "storedDataString",
					"outputs": [
						{
							"internalType": "string",
							"name": "",
							"type": "string"
						}
					],
					"stateMutability": "view",
					"type": "function"
				}
			],
			"devdoc": {
				"kind": "dev",
				"methods": {},
				"version": 1
			},
			"evm": {
				"assembly": "    /* \"topics/solidity/basics/simple-storage-contract.sol\":207:492  contract SimpleStorage {... */\n  mstore(0x40, 0x80)\n  callvalue\n  dup1\n  iszero\n  tag_1\n  jumpi\n  0x00\n  dup1\n  revert\ntag_1:\n  pop\n  dataSize(sub_0)\n  dup1\n  dataOffset(sub_0)\n  0x00\n  codecopy\n  0x00\n  return\nstop\n\nsub_0: assembly {\n        /* \"topics/solidity/basics/simple-storage-contract.sol\":207:492  contract SimpleStorage {... */\n      mstore(0x40, 0x80)\n      callvalue\n      dup1\n      iszero\n      tag_1\n      jumpi\n      0x00\n      dup1\n      revert\n    tag_1:\n      pop\n      jumpi(tag_2, lt(calldatasize, 0x04))\n      shr(0xe0, calldataload(0x00))\n      dup1\n      0x0c4789a3\n      eq\n      tag_3\n      jumpi\n      dup1\n      0x3bc5de30\n      eq\n      tag_4\n      jumpi\n      dup1\n      0xfb218f5f\n      eq\n      tag_5\n      jumpi\n    tag_2:\n      0x00\n      dup1\n      revert\n        /* \"topics/solidity/basics/simple-storage-contract.sol\":236:266  string public storedDataString */\n    tag_3:\n      tag_6\n      tag_7\n      jump\t// in\n    tag_6:\n      mload(0x40)\n      tag_8\n      swap2\n      swap1\n      tag_9\n      jump\t// in\n    tag_8:\n      mload(0x40)\n      dup1\n      swap2\n      sub\n      swap1\n      return\n        /* \"topics/solidity/basics/simple-storage-contract.sol\":394:489  function getData() public view returns (string memory) {... */\n    tag_4:\n      tag_10\n      tag_11\n      jump\t// in\n    tag_10:\n      mload(0x40)\n      tag_12\n      swap2\n      swap1\n      tag_9\n      jump\t// in\n    tag_12:\n      mload(0x40)\n      dup1\n      swap2\n      sub\n      swap1\n      return\n        /* \"topics/solidity/basics/simple-storage-contract.sol\":274:388  function storeData(string calldata _storedDataString) public {... */\n    tag_5:\n      tag_13\n      0x04\n      dup1\n      calldatasize\n      sub\n      dup2\n      add\n      swap1\n      tag_14\n      swap2\n      swap1\n      tag_15\n      jump\t// in\n    tag_14:\n      tag_16\n      jump\t// in\n    tag_13:\n      stop\n        /* \"topics/solidity/basics/simple-storage-contract.sol\":236:266  string public storedDataString */\n    tag_7:\n      0x00\n      dup1\n      sload\n      tag_17\n      swap1\n      tag_18\n      jump\t// in\n    tag_17:\n      dup1\n      0x1f\n      add\n      0x20\n      dup1\n      swap2\n      div\n      mul\n      0x20\n      add\n      mload(0x40)\n      swap1\n      dup2\n      add\n      0x40\n      mstore\n      dup1\n      swap3\n      swap2\n      swap1\n      dup2\n      dup2\n      mstore\n      0x20\n      add\n      dup3\n      dup1\n      sload\n      tag_19\n      swap1\n      tag_18\n      jump\t// in\n    tag_19:\n      dup1\n      iszero\n      tag_20\n      jumpi\n      dup1\n      0x1f\n      lt\n      tag_21\n      jumpi\n      0x0100\n      dup1\n      dup4\n      sload\n      div\n      mul\n      dup4\n      mstore\n      swap2\n      0x20\n      add\n      swap2\n      jump(tag_20)\n    tag_21:\n      dup3\n      add\n      swap2\n      swap1\n      0x00\n      mstore\n      keccak256(0x00, 0x20)\n      swap1\n    tag_22:\n      dup2\n      sload\n      dup2\n      mstore\n      swap1\n      0x01\n      add\n      swap1\n      0x20\n      add\n      dup1\n      dup4\n      gt\n      tag_22\n      jumpi\n      dup3\n      swap1\n      sub\n      0x1f\n      and\n      dup3\n      add\n      swap2\n    tag_20:\n      pop\n      pop\n      pop\n      pop\n      pop\n      dup2\n      jump\t// out\n        /* \"topics/solidity/basics/simple-storage-contract.sol\":394:489  function getData() public view returns (string memory) {... */\n    tag_11:\n        /* \"topics/solidity/basics/simple-storage-contract.sol\":434:447  string memory */\n      0x60\n        /* \"topics/solidity/basics/simple-storage-contract.sol\":466:482  storedDataString */\n      0x00\n        /* \"topics/solidity/basics/simple-storage-contract.sol\":459:482  return storedDataString */\n      dup1\n      sload\n      tag_24\n      swap1\n      tag_18\n      jump\t// in\n    tag_24:\n      dup1\n      0x1f\n      add\n      0x20\n      dup1\n      swap2\n      div\n      mul\n      0x20\n      add\n      mload(0x40)\n      swap1\n      dup2\n      add\n      0x40\n      mstore\n      dup1\n      swap3\n      swap2\n      swap1\n      dup2\n      dup2\n      mstore\n      0x20\n      add\n      dup3\n      dup1\n      sload\n      tag_25\n      swap1\n      tag_18\n      jump\t// in\n    tag_25:\n      dup1\n      iszero\n      tag_26\n      jumpi\n      dup1\n      0x1f\n      lt\n      tag_27\n      jumpi\n      0x0100\n      dup1\n      dup4\n      sload\n      div\n      mul\n      dup4\n      mstore\n      swap2\n      0x20\n      add\n      swap2\n      jump(tag_26)\n    tag_27:\n      dup3\n      add\n      swap2\n      swap1\n      0x00\n      mstore\n      keccak256(0x00, 0x20)\n      swap1\n    tag_28:\n      dup2\n      sload\n      dup2\n      mstore\n      swap1\n      0x01\n      add\n      swap1\n      0x20\n      add\n      dup1\n      dup4\n      gt\n      tag_28\n      jumpi\n      dup3\n      swap1\n      sub\n      0x1f\n      and\n      dup3\n      add\n      swap2\n    tag_26:\n      pop\n      pop\n      pop\n      pop\n      pop\n      swap1\n      pop\n        /* \"topics/solidity/basics/simple-storage-contract.sol\":394:489  function getData() public view returns (string memory) {... */\n      swap1\n      jump\t// out\n        /* \"topics/solidity/basics/simple-storage-contract.sol\":274:388  function storeData(string calldata _storedDataString) public {... */\n    tag_16:\n        /* \"topics/solidity/basics/simple-storage-contract.sol\":364:381  _storedDataString */\n      dup2\n      dup2\n        /* \"topics/solidity/basics/simple-storage-contract.sol\":345:361  storedDataString */\n      0x00\n        /* \"topics/solidity/basics/simple-storage-contract.sol\":345:381  storedDataString = _storedDataString */\n      swap2\n      dup3\n      tag_30\n      swap3\n      swap2\n      swap1\n      tag_31\n      jump\t// in\n    tag_30:\n      pop\n        /* \"topics/solidity/basics/simple-storage-contract.sol\":274:388  function storeData(string calldata _storedDataString) public {... */\n      pop\n      pop\n      jump\t// out\n        /* \"#utility.yul\":7:106   */\n    tag_32:\n        /* \"#utility.yul\":59:65   */\n      0x00\n        /* \"#utility.yul\":93:98   */\n      dup2\n        /* \"#utility.yul\":87:99   */\n      mload\n        /* \"#utility.yul\":77:99   */\n      swap1\n      pop\n        /* \"#utility.yul\":7:106   */\n      swap2\n      swap1\n      pop\n      jump\t// out\n        /* \"#utility.yul\":112:281   */\n    tag_33:\n        /* \"#utility.yul\":196:207   */\n      0x00\n        /* \"#utility.yul\":230:236   */\n      dup3\n        /* \"#utility.yul\":225:228   */\n      dup3\n        /* \"#utility.yul\":218:237   */\n      mstore\n        /* \"#utility.yul\":270:274   */\n      0x20\n        /* \"#utility.yul\":265:268   */\n      dup3\n        /* \"#utility.yul\":261:275   */\n      add\n        /* \"#utility.yul\":246:275   */\n      swap1\n      pop\n        /* \"#utility.yul\":112:281   */\n      swap3\n      swap2\n      pop\n      pop\n      jump\t// out\n        /* \"#utility.yul\":287:426   */\n    tag_34:\n        /* \"#utility.yul\":376:382   */\n      dup3\n        /* \"#utility.yul\":371:374   */\n      dup2\n        /* \"#utility.yul\":366:369   */\n      dup4\n        /* \"#utility.yul\":360:383   */\n      mcopy\n        /* \"#utility.yul\":417:418   */\n      0x00\n        /* \"#utility.yul\":408:414   */\n      dup4\n        /* \"#utility.yul\":403:406   */\n      dup4\n        /* \"#utility.yul\":399:415   */\n      add\n        /* \"#utility.yul\":392:419   */\n      mstore\n        /* \"#utility.yul\":287:426   */\n      pop\n      pop\n      pop\n      jump\t// out\n        /* \"#utility.yul\":432:534   */\n    tag_35:\n        /* \"#utility.yul\":473:479   */\n      0x00\n        /* \"#utility.yul\":524:526   */\n      0x1f\n        /* \"#utility.yul\":520:527   */\n      not\n        /* \"#utility.yul\":515:517   */\n      0x1f\n        /* \"#utility.yul\":508:513   */\n      dup4\n        /* \"#utility.yul\":504:518   */\n      add\n        /* \"#utility.yul\":500:528   */\n      and\n        /* \"#utility.yul\":490:528   */\n      swap1\n      pop\n        /* \"#utility.yul\":432:534   */\n      swap2\n      swap1\n      pop\n      jump\t// out\n        /* \"#utility.yul\":540:917   */\n    tag_36:\n        /* \"#utility.yul\":628:631   */\n      0x00\n        /* \"#utility.yul\":656:695   */\n      tag_69\n        /* \"#utility.yul\":689:694   */\n      dup3\n        /* \"#utility.yul\":656:695   */\n      tag_32\n      jump\t// in\n    tag_69:\n        /* \"#utility.yul\":711:782   */\n      tag_70\n        /* \"#utility.yul\":775:781   */\n      dup2\n        /* \"#utility.yul\":770:773   */\n      dup6\n        /* \"#utility.yul\":711:782   */\n      tag_33\n      jump\t// in\n    tag_70:\n        /* \"#utility.yul\":704:782   */\n      swap4\n      pop\n        /* \"#utility.yul\":791:856   */\n      tag_71\n        /* \"#utility.yul\":849:855   */\n      dup2\n        /* \"#utility.yul\":844:847   */\n      dup6\n        /* \"#utility.yul\":837:841   */\n      0x20\n        /* \"#utility.yul\":830:835   */\n      dup7\n        /* \"#utility.yul\":826:842   */\n      add\n        /* \"#utility.yul\":791:856   */\n      tag_34\n      jump\t// in\n    tag_71:\n        /* \"#utility.yul\":881:910   */\n      tag_72\n        /* \"#utility.yul\":903:909   */\n      dup2\n        /* \"#utility.yul\":881:910   */\n      tag_35\n      jump\t// in\n    tag_72:\n        /* \"#utility.yul\":876:879   */\n      dup5\n        /* \"#utility.yul\":872:911   */\n      add\n        /* \"#utility.yul\":865:911   */\n      swap2\n      pop\n        /* \"#utility.yul\":632:917   */\n      pop\n        /* \"#utility.yul\":540:917   */\n      swap3\n      swap2\n      pop\n      pop\n      jump\t// out\n        /* \"#utility.yul\":923:1236   */\n    tag_9:\n        /* \"#utility.yul\":1036:1040   */\n      0x00\n        /* \"#utility.yul\":1074:1076   */\n      0x20\n        /* \"#utility.yul\":1063:1072   */\n      dup3\n        /* \"#utility.yul\":1059:1077   */\n      add\n        /* \"#utility.yul\":1051:1077   */\n      swap1\n      pop\n        /* \"#utility.yul\":1123:1132   */\n      dup2\n        /* \"#utility.yul\":1117:1121   */\n      dup2\n        /* \"#utility.yul\":1113:1133   */\n      sub\n        /* \"#utility.yul\":1109:1110   */\n      0x00\n        /* \"#utility.yul\":1098:1107   */\n      dup4\n        /* \"#utility.yul\":1094:1111   */\n      add\n        /* \"#utility.yul\":1087:1134   */\n      mstore\n        /* \"#utility.yul\":1151:1229   */\n      tag_74\n        /* \"#utility.yul\":1224:1228   */\n      dup2\n        /* \"#utility.yul\":1215:1221   */\n      dup5\n        /* \"#utility.yul\":1151:1229   */\n      tag_36\n      jump\t// in\n    tag_74:\n        /* \"#utility.yul\":1143:1229   */\n      swap1\n      pop\n        /* \"#utility.yul\":923:1236   */\n      swap3\n      swap2\n      pop\n      pop\n      jump\t// out\n        /* \"#utility.yul\":1323:1440   */\n    tag_38:\n        /* \"#utility.yul\":1432:1433   */\n      0x00\n        /* \"#utility.yul\":1429:1430   */\n      dup1\n        /* \"#utility.yul\":1422:1434   */\n      revert\n        /* \"#utility.yul\":1446:1563   */\n    tag_39:\n        /* \"#utility.yul\":1555:1556   */\n      0x00\n        /* \"#utility.yul\":1552:1553   */\n      dup1\n        /* \"#utility.yul\":1545:1557   */\n      revert\n        /* \"#utility.yul\":1569:1686   */\n    tag_40:\n        /* \"#utility.yul\":1678:1679   */\n      0x00\n        /* \"#utility.yul\":1675:1676   */\n      dup1\n        /* \"#utility.yul\":1668:1680   */\n      revert\n        /* \"#utility.yul\":1692:1809   */\n    tag_41:\n        /* \"#utility.yul\":1801:1802   */\n      0x00\n        /* \"#utility.yul\":1798:1799   */\n      dup1\n        /* \"#utility.yul\":1791:1803   */\n      revert\n        /* \"#utility.yul\":1815:1932   */\n    tag_42:\n        /* \"#utility.yul\":1924:1925   */\n      0x00\n        /* \"#utility.yul\":1921:1922   */\n      dup1\n        /* \"#utility.yul\":1914:1926   */\n      revert\n        /* \"#utility.yul\":1952:2505   */\n    tag_43:\n        /* \"#utility.yul\":2010:2018   */\n      0x00\n        /* \"#utility.yul\":2020:2026   */\n      dup1\n        /* \"#utility.yul\":2070:2073   */\n      dup4\n        /* \"#utility.yul\":2063:2067   */\n      0x1f\n        /* \"#utility.yul\":2055:2061   */\n      dup5\n        /* \"#utility.yul\":2051:2068   */\n      add\n        /* \"#utility.yul\":2047:2074   */\n      slt\n        /* \"#utility.yul\":2037:2159   */\n      tag_82\n      jumpi\n        /* \"#utility.yul\":2078:2157   */\n      tag_83\n      tag_40\n      jump\t// in\n    tag_83:\n        /* \"#utility.yul\":2037:2159   */\n    tag_82:\n        /* \"#utility.yul\":2191:2197   */\n      dup3\n        /* \"#utility.yul\":2178:2198   */\n      calldataload\n        /* \"#utility.yul\":2168:2198   */\n      swap1\n      pop\n        /* \"#utility.yul\":2221:2239   */\n      0xffffffffffffffff\n        /* \"#utility.yul\":2213:2219   */\n      dup2\n        /* \"#utility.yul\":2210:2240   */\n      gt\n        /* \"#utility.yul\":2207:2324   */\n      iszero\n      tag_84\n      jumpi\n        /* \"#utility.yul\":2243:2322   */\n      tag_85\n      tag_41\n      jump\t// in\n    tag_85:\n        /* \"#utility.yul\":2207:2324   */\n    tag_84:\n        /* \"#utility.yul\":2357:2361   */\n      0x20\n        /* \"#utility.yul\":2349:2355   */\n      dup4\n        /* \"#utility.yul\":2345:2362   */\n      add\n        /* \"#utility.yul\":2333:2362   */\n      swap2\n      pop\n        /* \"#utility.yul\":2411:2414   */\n      dup4\n        /* \"#utility.yul\":2403:2407   */\n      0x01\n        /* \"#utility.yul\":2395:2401   */\n      dup3\n        /* \"#utility.yul\":2391:2408   */\n      mul\n        /* \"#utility.yul\":2381:2389   */\n      dup4\n        /* \"#utility.yul\":2377:2409   */\n      add\n        /* \"#utility.yul\":2374:2415   */\n      gt\n        /* \"#utility.yul\":2371:2499   */\n      iszero\n      tag_86\n      jumpi\n        /* \"#utility.yul\":2418:2497   */\n      tag_87\n      tag_42\n      jump\t// in\n    tag_87:\n        /* \"#utility.yul\":2371:2499   */\n    tag_86:\n        /* \"#utility.yul\":1952:2505   */\n      swap3\n      pop\n      swap3\n      swap1\n      pop\n      jump\t// out\n        /* \"#utility.yul\":2511:3040   */\n    tag_15:\n        /* \"#utility.yul\":2582:2588   */\n      0x00\n        /* \"#utility.yul\":2590:2596   */\n      dup1\n        /* \"#utility.yul\":2639:2641   */\n      0x20\n        /* \"#utility.yul\":2627:2636   */\n      dup4\n        /* \"#utility.yul\":2618:2625   */\n      dup6\n        /* \"#utility.yul\":2614:2637   */\n      sub\n        /* \"#utility.yul\":2610:2642   */\n      slt\n        /* \"#utility.yul\":2607:2726   */\n      iszero\n      tag_89\n      jumpi\n        /* \"#utility.yul\":2645:2724   */\n      tag_90\n      tag_38\n      jump\t// in\n    tag_90:\n        /* \"#utility.yul\":2607:2726   */\n    tag_89:\n        /* \"#utility.yul\":2793:2794   */\n      0x00\n        /* \"#utility.yul\":2782:2791   */\n      dup4\n        /* \"#utility.yul\":2778:2795   */\n      add\n        /* \"#utility.yul\":2765:2796   */\n      calldataload\n        /* \"#utility.yul\":2823:2841   */\n      0xffffffffffffffff\n        /* \"#utility.yul\":2815:2821   */\n      dup2\n        /* \"#utility.yul\":2812:2842   */\n      gt\n        /* \"#utility.yul\":2809:2926   */\n      iszero\n      tag_91\n      jumpi\n        /* \"#utility.yul\":2845:2924   */\n      tag_92\n      tag_39\n      jump\t// in\n    tag_92:\n        /* \"#utility.yul\":2809:2926   */\n    tag_91:\n        /* \"#utility.yul\":2958:3023   */\n      tag_93\n        /* \"#utility.yul\":3015:3022   */\n      dup6\n        /* \"#utility.yul\":3006:3012   */\n      dup3\n        /* \"#utility.yul\":2995:3004   */\n      dup7\n        /* \"#utility.yul\":2991:3013   */\n      add\n        /* \"#utility.yul\":2958:3023   */\n      tag_43\n      jump\t// in\n    tag_93:\n        /* \"#utility.yul\":2940:3023   */\n      swap3\n      pop\n      swap3\n      pop\n        /* \"#utility.yul\":2736:3033   */\n      pop\n        /* \"#utility.yul\":2511:3040   */\n      swap3\n      pop\n      swap3\n      swap1\n      pop\n      jump\t// out\n        /* \"#utility.yul\":3046:3226   */\n    tag_44:\n        /* \"#utility.yul\":3094:3171   */\n      0x4e487b7100000000000000000000000000000000000000000000000000000000\n        /* \"#utility.yul\":3091:3092   */\n      0x00\n        /* \"#utility.yul\":3084:3172   */\n      mstore\n        /* \"#utility.yul\":3191:3195   */\n      0x22\n        /* \"#utility.yul\":3188:3189   */\n      0x04\n        /* \"#utility.yul\":3181:3196   */\n      mstore\n        /* \"#utility.yul\":3215:3219   */\n      0x24\n        /* \"#utility.yul\":3212:3213   */\n      0x00\n        /* \"#utility.yul\":3205:3220   */\n      revert\n        /* \"#utility.yul\":3232:3552   */\n    tag_18:\n        /* \"#utility.yul\":3276:3282   */\n      0x00\n        /* \"#utility.yul\":3313:3314   */\n      0x02\n        /* \"#utility.yul\":3307:3311   */\n      dup3\n        /* \"#utility.yul\":3303:3315   */\n      div\n        /* \"#utility.yul\":3293:3315   */\n      swap1\n      pop\n        /* \"#utility.yul\":3360:3361   */\n      0x01\n        /* \"#utility.yul\":3354:3358   */\n      dup3\n        /* \"#utility.yul\":3350:3362   */\n      and\n        /* \"#utility.yul\":3381:3399   */\n      dup1\n        /* \"#utility.yul\":3371:3452   */\n      tag_96\n      jumpi\n        /* \"#utility.yul\":3437:3441   */\n      0x7f\n        /* \"#utility.yul\":3429:3435   */\n      dup3\n        /* \"#utility.yul\":3425:3442   */\n      and\n        /* \"#utility.yul\":3415:3442   */\n      swap2\n      pop\n        /* \"#utility.yul\":3371:3452   */\n    tag_96:\n        /* \"#utility.yul\":3499:3501   */\n      0x20\n        /* \"#utility.yul\":3491:3497   */\n      dup3\n        /* \"#utility.yul\":3488:3502   */\n      lt\n        /* \"#utility.yul\":3468:3486   */\n      dup2\n        /* \"#utility.yul\":3465:3503   */\n      sub\n        /* \"#utility.yul\":3462:3546   */\n      tag_97\n      jumpi\n        /* \"#utility.yul\":3518:3536   */\n      tag_98\n      tag_44\n      jump\t// in\n    tag_98:\n        /* \"#utility.yul\":3462:3546   */\n    tag_97:\n        /* \"#utility.yul\":3283:3552   */\n      pop\n        /* \"#utility.yul\":3232:3552   */\n      swap2\n      swap1\n      pop\n      jump\t// out\n        /* \"#utility.yul\":3558:3655   */\n    tag_45:\n        /* \"#utility.yul\":3617:3623   */\n      0x00\n        /* \"#utility.yul\":3645:3648   */\n      dup3\n        /* \"#utility.yul\":3635:3648   */\n      swap1\n      pop\n        /* \"#utility.yul\":3558:3655   */\n      swap3\n      swap2\n      pop\n      pop\n      jump\t// out\n        /* \"#utility.yul\":3661:3841   */\n    tag_46:\n        /* \"#utility.yul\":3709:3786   */\n      0x4e487b7100000000000000000000000000000000000000000000000000000000\n        /* \"#utility.yul\":3706:3707   */\n      0x00\n        /* \"#utility.yul\":3699:3787   */\n      mstore\n        /* \"#utility.yul\":3806:3810   */\n      0x41\n        /* \"#utility.yul\":3803:3804   */\n      0x04\n        /* \"#utility.yul\":3796:3811   */\n      mstore\n        /* \"#utility.yul\":3830:3834   */\n      0x24\n        /* \"#utility.yul\":3827:3828   */\n      0x00\n        /* \"#utility.yul\":3820:3835   */\n      revert\n        /* \"#utility.yul\":3847:3988   */\n    tag_47:\n        /* \"#utility.yul\":3896:3900   */\n      0x00\n        /* \"#utility.yul\":3919:3922   */\n      dup2\n        /* \"#utility.yul\":3911:3922   */\n      swap1\n      pop\n        /* \"#utility.yul\":3942:3945   */\n      dup2\n        /* \"#utility.yul\":3939:3940   */\n      0x00\n        /* \"#utility.yul\":3932:3946   */\n      mstore\n        /* \"#utility.yul\":3976:3980   */\n      0x20\n        /* \"#utility.yul\":3973:3974   */\n      0x00\n        /* \"#utility.yul\":3963:3981   */\n      keccak256\n        /* \"#utility.yul\":3955:3981   */\n      swap1\n      pop\n        /* \"#utility.yul\":3847:3988   */\n      swap2\n      swap1\n      pop\n      jump\t// out\n        /* \"#utility.yul\":3994:4087   */\n    tag_48:\n        /* \"#utility.yul\":4031:4037   */\n      0x00\n        /* \"#utility.yul\":4078:4080   */\n      0x20\n        /* \"#utility.yul\":4073:4075   */\n      0x1f\n        /* \"#utility.yul\":4066:4071   */\n      dup4\n        /* \"#utility.yul\":4062:4076   */\n      add\n        /* \"#utility.yul\":4058:4081   */\n      div\n        /* \"#utility.yul\":4048:4081   */\n      swap1\n      pop\n        /* \"#utility.yul\":3994:4087   */\n      swap2\n      swap1\n      pop\n      jump\t// out\n        /* \"#utility.yul\":4093:4200   */\n    tag_49:\n        /* \"#utility.yul\":4137:4145   */\n      0x00\n        /* \"#utility.yul\":4187:4192   */\n      dup3\n        /* \"#utility.yul\":4181:4185   */\n      dup3\n        /* \"#utility.yul\":4177:4193   */\n      shl\n        /* \"#utility.yul\":4156:4193   */\n      swap1\n      pop\n        /* \"#utility.yul\":4093:4200   */\n      swap3\n      swap2\n      pop\n      pop\n      jump\t// out\n        /* \"#utility.yul\":4206:4599   */\n    tag_50:\n        /* \"#utility.yul\":4275:4281   */\n      0x00\n        /* \"#utility.yul\":4325:4326   */\n      0x08\n        /* \"#utility.yul\":4313:4323   */\n      dup4\n        /* \"#utility.yul\":4309:4327   */\n      mul\n        /* \"#utility.yul\":4348:4445   */\n      tag_105\n        /* \"#utility.yul\":4378:4444   */\n      0xffffffffffffffffffffffffffffffffffffffffffffffffffffffffffffffff\n        /* \"#utility.yul\":4367:4376   */\n      dup3\n        /* \"#utility.yul\":4348:4445   */\n      tag_49\n      jump\t// in\n    tag_105:\n        /* \"#utility.yul\":4466:4505   */\n      tag_106\n        /* \"#utility.yul\":4496:4504   */\n      dup7\n        /* \"#utility.yul\":4485:4494   */\n      dup4\n        /* \"#utility.yul\":4466:4505   */\n      tag_49\n      jump\t// in\n    tag_106:\n        /* \"#utility.yul\":4454:4505   */\n      swap6\n      pop\n        /* \"#utility.yul\":4538:4542   */\n      dup1\n        /* \"#utility.yul\":4534:4543   */\n      not\n        /* \"#utility.yul\":4527:4532   */\n      dup5\n        /* \"#utility.yul\":4523:4544   */\n      and\n        /* \"#utility.yul\":4514:4544   */\n      swap4\n      pop\n        /* \"#utility.yul\":4587:4591   */\n      dup1\n        /* \"#utility.yul\":4577:4585   */\n      dup7\n        /* \"#utility.yul\":4573:4592   */\n      and\n        /* \"#utility.yul\":4566:4571   */\n      dup5\n        /* \"#utility.yul\":4563:4593   */\n      or\n        /* \"#utility.yul\":4553:4593   */\n      swap3\n      pop\n        /* \"#utility.yul\":4282:4599   */\n      pop\n      pop\n        /* \"#utility.yul\":4206:4599   */\n      swap4\n      swap3\n      pop\n      pop\n      pop\n      jump\t// out\n        /* \"#utility.yul\":4605:4682   */\n    tag_51:\n        /* \"#utility.yul\":4642:4649   */\n      0x00\n        /* \"#utility.yul\":4671:4676   */\n      dup2\n        /* \"#utility.yul\":4660:4676   */\n      swap1\n      pop\n        /* \"#utility.yul\":4605:4682   */\n      swap2\n      swap1\n      pop\n      jump\t// out\n        /* \"#utility.yul\":4688:4748   */\n    tag_52:\n        /* \"#utility.yul\":4716:4719   */\n      0x00\n        /* \"#utility.yul\":4737:4742   */\n      dup2\n        /* \"#utility.yul\":4730:4742   */\n      swap1\n      pop\n        /* \"#utility.yul\":4688:4748   */\n      swap2\n      swap1\n      pop\n      jump\t// out\n        /* \"#utility.yul\":4754:4896   */\n    tag_53:\n        /* \"#utility.yul\":4804:4813   */\n      0x00\n        /* \"#utility.yul\":4837:4890   */\n      tag_110\n        /* \"#utility.yul\":4855:4889   */\n      tag_111\n        /* \"#utility.yul\":4864:4888   */\n      tag_112\n        /* \"#utility.yul\":4882:4887   */\n      dup5\n        /* \"#utility.yul\":4864:4888   */\n      tag_51\n      jump\t// in\n    tag_112:\n        /* \"#utility.yul\":4855:4889   */\n      tag_52\n      jump\t// in\n    tag_111:\n        /* \"#utility.yul\":4837:4890   */\n      tag_51\n      jump\t// in\n    tag_110:\n        /* \"#utility.yul\":4824:4890   */\n      swap1\n      pop\n        /* \"#utility.yul\":4754:4896   */\n      swap2\n      swap1\n      pop\n      jump\t// out\n        /* \"#utility.yul\":4902:4977   */\n    tag_54:\n        /* \"#utility.yul\":4945:4948   */\n      0x00\n        /* \"#utility.yul\":4966:4971   */\n      dup2\n        /* \"#utility.yul\":4959:4971   */\n      swap1\n      pop\n        /* \"#utility.yul\":4902:4977   */\n      swap2\n      swap1\n      pop\n      jump\t// out\n        /* \"#utility.yul\":4983:5252   */\n    tag_55:\n        /* \"#utility.yul\":5093:5132   */\n      tag_115\n        /* \"#utility.yul\":5124:5131   */\n      dup4\n        /* \"#utility.yul\":5093:5132   */\n      tag_53\n      jump\t// in\n    tag_115:\n        /* \"#utility.yul\":5154:5245   */\n      tag_116\n        /* \"#utility.yul\":5203:5244   */\n      tag_117\n        /* \"#utility.yul\":5227:5243   */\n      dup3\n        /* \"#utility.yul\":5203:5244   */\n      tag_54\n      jump\t// in\n    tag_117:\n        /* \"#utility.yul\":5195:5201   */\n      dup5\n        /* \"#utility.yul\":5188:5192   */\n      dup5\n        /* \"#utility.yul\":5182:5193   */\n      sload\n        /* \"#utility.yul\":5154:5245   */\n      tag_50\n      jump\t// in\n    tag_116:\n        /* \"#utility.yul\":5148:5152   */\n      dup3\n        /* \"#utility.yul\":5141:5246   */\n      sstore\n        /* \"#utility.yul\":5059:5252   */\n      pop\n        /* \"#utility.yul\":4983:5252   */\n      pop\n      pop\n      pop\n      jump\t// out\n        /* \"#utility.yul\":5258:5331   */\n    tag_56:\n        /* \"#utility.yul\":5303:5306   */\n      0x00\n        /* \"#utility.yul\":5258:5331   */\n      swap1\n      jump\t// out\n        /* \"#utility.yul\":5337:5526   */\n    tag_57:\n        /* \"#utility.yul\":5414:5446   */\n      tag_120\n      tag_56\n      jump\t// in\n    tag_120:\n        /* \"#utility.yul\":5455:5520   */\n      tag_121\n        /* \"#utility.yul\":5513:5519   */\n      dup2\n        /* \"#utility.yul\":5505:5511   */\n      dup5\n        /* \"#utility.yul\":5499:5503   */\n      dup5\n        /* \"#utility.yul\":5455:5520   */\n      tag_55\n      jump\t// in\n    tag_121:\n        /* \"#utility.yul\":5390:5526   */\n      pop\n        /* \"#utility.yul\":5337:5526   */\n      pop\n      pop\n      jump\t// out\n        /* \"#utility.yul\":5532:5718   */\n    tag_58:\n        /* \"#utility.yul\":5592:5712   */\n    tag_123:\n        /* \"#utility.yul\":5609:5612   */\n      dup2\n        /* \"#utility.yul\":5602:5607   */\n      dup2\n        /* \"#utility.yul\":5599:5613   */\n      lt\n        /* \"#utility.yul\":5592:5712   */\n      iszero\n      tag_125\n      jumpi\n        /* \"#utility.yul\":5663:5702   */\n      tag_126\n        /* \"#utility.yul\":5700:5701   */\n      0x00\n        /* \"#utility.yul\":5693:5698   */\n      dup3\n        /* \"#utility.yul\":5663:5702   */\n      tag_57\n      jump\t// in\n    tag_126:\n        /* \"#utility.yul\":5636:5637   */\n      0x01\n        /* \"#utility.yul\":5629:5634   */\n      dup2\n        /* \"#utility.yul\":5625:5638   */\n      add\n        /* \"#utility.yul\":5616:5638   */\n      swap1\n      pop\n        /* \"#utility.yul\":5592:5712   */\n      jump(tag_123)\n    tag_125:\n        /* \"#utility.yul\":5532:5718   */\n      pop\n      pop\n      jump\t// out\n        /* \"#utility.yul\":5724:6267   */\n    tag_59:\n        /* \"#utility.yul\":5825:5827   */\n      0x1f\n        /* \"#utility.yul\":5820:5823   */\n      dup3\n        /* \"#utility.yul\":5817:5828   */\n      gt\n        /* \"#utility.yul\":5814:6260   */\n      iszero\n      tag_128\n      jumpi\n        /* \"#utility.yul\":5859:5897   */\n      tag_129\n        /* \"#utility.yul\":5891:5896   */\n      dup2\n        /* \"#utility.yul\":5859:5897   */\n      tag_47\n      jump\t// in\n    tag_129:\n        /* \"#utility.yul\":5943:5972   */\n      tag_130\n        /* \"#utility.yul\":5961:5971   */\n      dup5\n        /* \"#utility.yul\":5943:5972   */\n      tag_48\n      jump\t// in\n    tag_130:\n        /* \"#utility.yul\":5933:5941   */\n      dup2\n        /* \"#utility.yul\":5929:5973   */\n      add\n        /* \"#utility.yul\":6126:6128   */\n      0x20\n        /* \"#utility.yul\":6114:6124   */\n      dup6\n        /* \"#utility.yul\":6111:6129   */\n      lt\n        /* \"#utility.yul\":6108:6157   */\n      iszero\n      tag_131\n      jumpi\n        /* \"#utility.yul\":6147:6155   */\n      dup2\n        /* \"#utility.yul\":6132:6155   */\n      swap1\n      pop\n        /* \"#utility.yul\":6108:6157   */\n    tag_131:\n        /* \"#utility.yul\":6170:6250   */\n      tag_132\n        /* \"#utility.yul\":6226:6248   */\n      tag_133\n        /* \"#utility.yul\":6244:6247   */\n      dup6\n        /* \"#utility.yul\":6226:6248   */\n      tag_48\n      jump\t// in\n    tag_133:\n        /* \"#utility.yul\":6216:6224   */\n      dup4\n        /* \"#utility.yul\":6212:6249   */\n      add\n        /* \"#utility.yul\":6199:6210   */\n      dup3\n        /* \"#utility.yul\":6170:6250   */\n      tag_58\n      jump\t// in\n    tag_132:\n        /* \"#utility.yul\":5829:6260   */\n      pop\n      pop\n        /* \"#utility.yul\":5814:6260   */\n    tag_128:\n        /* \"#utility.yul\":5724:6267   */\n      pop\n      pop\n      pop\n      jump\t// out\n        /* \"#utility.yul\":6273:6390   */\n    tag_60:\n        /* \"#utility.yul\":6327:6335   */\n      0x00\n        /* \"#utility.yul\":6377:6382   */\n      dup3\n        /* \"#utility.yul\":6371:6375   */\n      dup3\n        /* \"#utility.yul\":6367:6383   */\n      shr\n        /* \"#utility.yul\":6346:6383   */\n      swap1\n      pop\n        /* \"#utility.yul\":6273:6390   */\n      swap3\n      swap2\n      pop\n      pop\n      jump\t// out\n        /* \"#utility.yul\":6396:6565   */\n    tag_61:\n        /* \"#utility.yul\":6440:6446   */\n      0x00\n        /* \"#utility.yul\":6473:6524   */\n      tag_136\n        /* \"#utility.yul\":6521:6522   */\n      0x00\n        /* \"#utility.yul\":6517:6523   */\n      not\n        /* \"#utility.yul\":6509:6514   */\n      dup5\n        /* \"#utility.yul\":6506:6507   */\n      0x08\n        /* \"#utility.yul\":6502:6515   */\n      mul\n        /* \"#utility.yul\":6473:6524   */\n      tag_60\n      jump\t// in\n    tag_136:\n        /* \"#utility.yul\":6469:6525   */\n      not\n        /* \"#utility.yul\":6554:6558   */\n      dup1\n        /* \"#utility.yul\":6548:6552   */\n      dup4\n        /* \"#utility.yul\":6544:6559   */\n      and\n        /* \"#utility.yul\":6534:6559   */\n      swap2\n      pop\n        /* \"#utility.yul\":6447:6565   */\n      pop\n        /* \"#utility.yul\":6396:6565   */\n      swap3\n      swap2\n      pop\n      pop\n      jump\t// out\n        /* \"#utility.yul\":6570:6865   */\n    tag_62:\n        /* \"#utility.yul\":6646:6650   */\n      0x00\n        /* \"#utility.yul\":6792:6821   */\n      tag_138\n        /* \"#utility.yul\":6817:6820   */\n      dup4\n        /* \"#utility.yul\":6811:6815   */\n      dup4\n        /* \"#utility.yul\":6792:6821   */\n      tag_61\n      jump\t// in\n    tag_138:\n        /* \"#utility.yul\":6784:6821   */\n      swap2\n      pop\n        /* \"#utility.yul\":6854:6857   */\n      dup3\n        /* \"#utility.yul\":6851:6852   */\n      0x02\n        /* \"#utility.yul\":6847:6858   */\n      mul\n        /* \"#utility.yul\":6841:6845   */\n      dup3\n        /* \"#utility.yul\":6838:6859   */\n      or\n        /* \"#utility.yul\":6830:6859   */\n      swap1\n      pop\n        /* \"#utility.yul\":6570:6865   */\n      swap3\n      swap2\n      pop\n      pop\n      jump\t// out\n        /* \"#utility.yul\":6870:8273   */\n    tag_31:\n        /* \"#utility.yul\":6994:7038   */\n      tag_140\n        /* \"#utility.yul\":7034:7037   */\n      dup4\n        /* \"#utility.yul\":7029:7032   */\n      dup4\n        /* \"#utility.yul\":6994:7038   */\n      tag_45\n      jump\t// in\n    tag_140:\n        /* \"#utility.yul\":7103:7121   */\n      0xffffffffffffffff\n        /* \"#utility.yul\":7095:7101   */\n      dup2\n        /* \"#utility.yul\":7092:7122   */\n      gt\n        /* \"#utility.yul\":7089:7145   */\n      iszero\n      tag_141\n      jumpi\n        /* \"#utility.yul\":7125:7143   */\n      tag_142\n      tag_46\n      jump\t// in\n    tag_142:\n        /* \"#utility.yul\":7089:7145   */\n    tag_141:\n        /* \"#utility.yul\":7169:7207   */\n      tag_143\n        /* \"#utility.yul\":7201:7205   */\n      dup3\n        /* \"#utility.yul\":7195:7206   */\n      sload\n        /* \"#utility.yul\":7169:7207   */\n      tag_18\n      jump\t// in\n    tag_143:\n        /* \"#utility.yul\":7254:7321   */\n      tag_144\n        /* \"#utility.yul\":7314:7320   */\n      dup3\n        /* \"#utility.yul\":7306:7312   */\n      dup3\n        /* \"#utility.yul\":7300:7304   */\n      dup6\n        /* \"#utility.yul\":7254:7321   */\n      tag_59\n      jump\t// in\n    tag_144:\n        /* \"#utility.yul\":7348:7349   */\n      0x00\n        /* \"#utility.yul\":7377:7379   */\n      0x1f\n        /* \"#utility.yul\":7369:7375   */\n      dup4\n        /* \"#utility.yul\":7366:7380   */\n      gt\n        /* \"#utility.yul\":7394:7395   */\n      0x01\n        /* \"#utility.yul\":7389:8021   */\n      dup2\n      eq\n      tag_146\n      jumpi\n        /* \"#utility.yul\":8065:8066   */\n      0x00\n        /* \"#utility.yul\":8082:8088   */\n      dup5\n        /* \"#utility.yul\":8079:8163   */\n      iszero\n      tag_147\n      jumpi\n        /* \"#utility.yul\":8138:8147   */\n      dup3\n        /* \"#utility.yul\":8133:8136   */\n      dup8\n        /* \"#utility.yul\":8129:8148   */\n      add\n        /* \"#utility.yul\":8116:8149   */\n      calldataload\n        /* \"#utility.yul\":8107:8149   */\n      swap1\n      pop\n        /* \"#utility.yul\":8079:8163   */\n    tag_147:\n        /* \"#utility.yul\":8189:8256   */\n      tag_148\n        /* \"#utility.yul\":8249:8255   */\n      dup6\n        /* \"#utility.yul\":8242:8247   */\n      dup3\n        /* \"#utility.yul\":8189:8256   */\n      tag_62\n      jump\t// in\n    tag_148:\n        /* \"#utility.yul\":8183:8187   */\n      dup7\n        /* \"#utility.yul\":8176:8257   */\n      sstore\n        /* \"#utility.yul\":8038:8267   */\n      pop\n        /* \"#utility.yul\":7359:8267   */\n      jump(tag_145)\n        /* \"#utility.yul\":7389:8021   */\n    tag_146:\n        /* \"#utility.yul\":7441:7445   */\n      0x1f\n        /* \"#utility.yul\":7437:7446   */\n      not\n        /* \"#utility.yul\":7429:7435   */\n      dup5\n        /* \"#utility.yul\":7425:7447   */\n      and\n        /* \"#utility.yul\":7475:7512   */\n      tag_149\n        /* \"#utility.yul\":7507:7511   */\n      dup7\n        /* \"#utility.yul\":7475:7512   */\n      tag_47\n      jump\t// in\n    tag_149:\n        /* \"#utility.yul\":7534:7535   */\n      0x00\n        /* \"#utility.yul\":7548:7763   */\n    tag_150:\n        /* \"#utility.yul\":7562:7569   */\n      dup3\n        /* \"#utility.yul\":7559:7560   */\n      dup2\n        /* \"#utility.yul\":7556:7570   */\n      lt\n        /* \"#utility.yul\":7548:7763   */\n      iszero\n      tag_152\n      jumpi\n        /* \"#utility.yul\":7648:7657   */\n      dup5\n        /* \"#utility.yul\":7643:7646   */\n      dup10\n        /* \"#utility.yul\":7639:7658   */\n      add\n        /* \"#utility.yul\":7626:7659   */\n      calldataload\n        /* \"#utility.yul\":7618:7624   */\n      dup3\n        /* \"#utility.yul\":7611:7660   */\n      sstore\n        /* \"#utility.yul\":7699:7700   */\n      0x01\n        /* \"#utility.yul\":7691:7697   */\n      dup3\n        /* \"#utility.yul\":7687:7701   */\n      add\n        /* \"#utility.yul\":7677:7701   */\n      swap2\n      pop\n        /* \"#utility.yul\":7746:7748   */\n      0x20\n        /* \"#utility.yul\":7735:7744   */\n      dup6\n        /* \"#utility.yul\":7731:7749   */\n      add\n        /* \"#utility.yul\":7718:7749   */\n      swap5\n      pop\n        /* \"#utility.yul\":7585:7589   */\n      0x20\n        /* \"#utility.yul\":7582:7583   */\n      dup2\n        /* \"#utility.yul\":7578:7590   */\n      add\n        /* \"#utility.yul\":7573:7590   */\n      swap1\n      pop\n        /* \"#utility.yul\":7548:7763   */\n      jump(tag_150)\n    tag_152:\n        /* \"#utility.yul\":7791:7797   */\n      dup7\n        /* \"#utility.yul\":7782:7789   */\n      dup4\n        /* \"#utility.yul\":7779:7798   */\n      lt\n        /* \"#utility.yul\":7776:7962   */\n      iszero\n      tag_153\n      jumpi\n        /* \"#utility.yul\":7856:7865   */\n      dup5\n        /* \"#utility.yul\":7851:7854   */\n      dup10\n        /* \"#utility.yul\":7847:7866   */\n      add\n        /* \"#utility.yul\":7834:7867   */\n      calldataload\n        /* \"#utility.yul\":7899:7947   */\n      tag_154\n        /* \"#utility.yul\":7941:7945   */\n      0x1f\n        /* \"#utility.yul\":7933:7939   */\n      dup10\n        /* \"#utility.yul\":7929:7946   */\n      and\n        /* \"#utility.yul\":7918:7927   */\n      dup3\n        /* \"#utility.yul\":7899:7947   */\n      tag_61\n      jump\t// in\n    tag_154:\n        /* \"#utility.yul\":7891:7897   */\n      dup4\n        /* \"#utility.yul\":7884:7948   */\n      sstore\n        /* \"#utility.yul\":7799:7962   */\n      pop\n        /* \"#utility.yul\":7776:7962   */\n    tag_153:\n        /* \"#utility.yul\":8008:8009   */\n      0x01\n        /* \"#utility.yul\":8004:8005   */\n      0x02\n        /* \"#utility.yul\":7996:8002   */\n      dup9\n        /* \"#utility.yul\":7992:8006   */\n      mul\n        /* \"#utility.yul\":7988:8010   */\n      add\n        /* \"#utility.yul\":7982:7986   */\n      dup9\n        /* \"#utility.yul\":7975:8011   */\n      sstore\n        /* \"#utility.yul\":7396:8021   */\n      pop\n      pop\n      pop\n        /* \"#utility.yul\":7359:8267   */\n    tag_145:\n      pop\n        /* \"#utility.yul\":6969:8273   */\n      pop\n      pop\n      pop\n        /* \"#utility.yul\":6870:8273   */\n      pop\n      pop\n      pop\n      jump\t// out\n\n    auxdata: 0xa26469706673582212206e488f63bb7d49de674969f5c1dbd4285a2a8a8246c4330a0da3751bec09fe7b64736f6c634300081a0033\n}\n",
				"bytecode": {
					"linkReferences": {},
					"object": "6080604052348015600e575f80fd5b5061064b8061001c5f395ff3fe608060405234801561000f575f80fd5b506004361061003f575f3560e01c80630c4789a3146100435780633bc5de3014610061578063fb218f5f1461007f575b5f80fd5b61004b61009b565b604051610058919061023a565b60405180910390f35b610069610126565b604051610076919061023a565b60405180910390f35b610099600480360381019061009491906102c3565b6101b5565b005b5f80546100a79061033b565b80601f01602080910402602001604051908101604052809291908181526020018280546100d39061033b565b801561011e5780601f106100f55761010080835404028352916020019161011e565b820191905f5260205f20905b81548152906001019060200180831161010157829003601f168201915b505050505081565b60605f80546101349061033b565b80601f01602080910402602001604051908101604052809291908181526020018280546101609061033b565b80156101ab5780601f10610182576101008083540402835291602001916101ab565b820191905f5260205f20905b81548152906001019060200180831161018e57829003601f168201915b5050505050905090565b81815f91826101c5929190610548565b505050565b5f81519050919050565b5f82825260208201905092915050565b8281835e5f83830152505050565b5f601f19601f8301169050919050565b5f61020c826101ca565b61021681856101d4565b93506102268185602086016101e4565b61022f816101f2565b840191505092915050565b5f6020820190508181035f8301526102528184610202565b905092915050565b5f80fd5b5f80fd5b5f80fd5b5f80fd5b5f80fd5b5f8083601f84011261028357610282610262565b5b8235905067ffffffffffffffff8111156102a05761029f610266565b5b6020830191508360018202830111156102bc576102bb61026a565b5b9250929050565b5f80602083850312156102d9576102d861025a565b5b5f83013567ffffffffffffffff8111156102f6576102f561025e565b5b6103028582860161026e565b92509250509250929050565b7f4e487b71000000000000000000000000000000000000000000000000000000005f52602260045260245ffd5b5f600282049050600182168061035257607f821691505b6020821081036103655761036461030e565b5b50919050565b5f82905092915050565b7f4e487b71000000000000000000000000000000000000000000000000000000005f52604160045260245ffd5b5f819050815f5260205f209050919050565b5f6020601f8301049050919050565b5f82821b905092915050565b5f600883026103fe7fffffffffffffffffffffffffffffffffffffffffffffffffffffffffffffffff826103c3565b61040886836103c3565b95508019841693508086168417925050509392505050565b5f819050919050565b5f819050919050565b5f61044c61044761044284610420565b610429565b610420565b9050919050565b5f819050919050565b61046583610432565b61047961047182610453565b8484546103cf565b825550505050565b5f90565b61048d610481565b61049881848461045c565b505050565b5b818110156104bb576104b05f82610485565b60018101905061049e565b5050565b601f821115610500576104d1816103a2565b6104da846103b4565b810160208510156104e9578190505b6104fd6104f5856103b4565b83018261049d565b50505b505050565b5f82821c905092915050565b5f6105205f1984600802610505565b1980831691505092915050565b5f6105388383610511565b9150826002028217905092915050565b610552838361036b565b67ffffffffffffffff81111561056b5761056a610375565b5b610575825461033b565b6105808282856104bf565b5f601f8311600181146105ad575f841561059b578287013590505b6105a5858261052d565b86555061060c565b601f1984166105bb866103a2565b5f5b828110156105e2578489013582556001820191506020850194506020810190506105bd565b868310156105ff57848901356105fb601f891682610511565b8355505b6001600288020188555050505b5050505050505056fea26469706673582212206e488f63bb7d49de674969f5c1dbd4285a2a8a8246c4330a0da3751bec09fe7b64736f6c634300081a0033",
					"opcodes": "PUSH1 0x80 PUSH1 0x40 MSTORE CALLVALUE DUP1 ISZERO PUSH1 0xE JUMPI PUSH0 DUP1 REVERT JUMPDEST POP PUSH2 0x64B DUP1 PUSH2 0x1C PUSH0 CODECOPY PUSH0 RETURN INVALID PUSH1 0x80 PUSH1 0x40 MSTORE CALLVALUE DUP1 ISZERO PUSH2 0xF JUMPI PUSH0 DUP1 REVERT JUMPDEST POP PUSH1 0x4 CALLDATASIZE LT PUSH2 0x3F JUMPI PUSH0 CALLDATALOAD PUSH1 0xE0 SHR DUP1 PUSH4 0xC4789A3 EQ PUSH2 0x43 JUMPI DUP1 PUSH4 0x3BC5DE30 EQ PUSH2 0x61 JUMPI DUP1 PUSH4 0xFB218F5F EQ PUSH2 0x7F JUMPI JUMPDEST PUSH0 DUP1 REVERT JUMPDEST PUSH2 0x4B PUSH2 0x9B JUMP JUMPDEST PUSH1 0x40 MLOAD PUSH2 0x58 SWAP2 SWAP1 PUSH2 0x23A JUMP JUMPDEST PUSH1 0x40 MLOAD DUP1 SWAP2 SUB SWAP1 RETURN JUMPDEST PUSH2 0x69 PUSH2 0x126 JUMP JUMPDEST PUSH1 0x40 MLOAD PUSH2 0x76 SWAP2 SWAP1 PUSH2 0x23A JUMP JUMPDEST PUSH1 0x40 MLOAD DUP1 SWAP2 SUB SWAP1 RETURN JUMPDEST PUSH2 0x99 PUSH1 0x4 DUP1 CALLDATASIZE SUB DUP2 ADD SWAP1 PUSH2 0x94 SWAP2 SWAP1 PUSH2 0x2C3 JUMP JUMPDEST PUSH2 0x1B5 JUMP JUMPDEST STOP JUMPDEST PUSH0 DUP1 SLOAD PUSH2 0xA7 SWAP1 PUSH2 0x33B JUMP JUMPDEST DUP1 PUSH1 0x1F ADD PUSH1 0x20 DUP1 SWAP2 DIV MUL PUSH1 0x20 ADD PUSH1 0x40 MLOAD SWAP1 DUP2 ADD PUSH1 0x40 MSTORE DUP1 SWAP3 SWAP2 SWAP1 DUP2 DUP2 MSTORE PUSH1 0x20 ADD DUP3 DUP1 SLOAD PUSH2 0xD3 SWAP1 PUSH2 0x33B JUMP JUMPDEST DUP1 ISZERO PUSH2 0x11E JUMPI DUP1 PUSH1 0x1F LT PUSH2 0xF5 JUMPI PUSH2 0x100 DUP1 DUP4 SLOAD DIV MUL DUP4 MSTORE SWAP2 PUSH1 0x20 ADD SWAP2 PUSH2 0x11E JUMP JUMPDEST DUP3 ADD SWAP2 SWAP1 PUSH0 MSTORE PUSH1 0x20 PUSH0 KECCAK256 SWAP1 JUMPDEST DUP2 SLOAD DUP2 MSTORE SWAP1 PUSH1 0x1 ADD SWAP1 PUSH1 0x20 ADD DUP1 DUP4 GT PUSH2 0x101 JUMPI DUP3 SWAP1 SUB PUSH1 0x1F AND DUP3 ADD SWAP2 JUMPDEST POP POP POP POP POP DUP2 JUMP JUMPDEST PUSH1 0x60 PUSH0 DUP1 SLOAD PUSH2 0x134 SWAP1 PUSH2 0x33B JUMP JUMPDEST DUP1 PUSH1 0x1F ADD PUSH1 0x20 DUP1 SWAP2 DIV MUL PUSH1 0x20 ADD PUSH1 0x40 MLOAD SWAP1 DUP2 ADD PUSH1 0x40 MSTORE DUP1 SWAP3 SWAP2 SWAP1 DUP2 DUP2 MSTORE PUSH1 0x20 ADD DUP3 DUP1 SLOAD PUSH2 0x160 SWAP1 PUSH2 0x33B JUMP JUMPDEST DUP1 ISZERO PUSH2 0x1AB JUMPI DUP1 PUSH1 0x1F LT PUSH2 0x182 JUMPI PUSH2 0x100 DUP1 DUP4 SLOAD DIV MUL DUP4 MSTORE SWAP2 PUSH1 0x20 ADD SWAP2 PUSH2 0x1AB JUMP JUMPDEST DUP3 ADD SWAP2 SWAP1 PUSH0 MSTORE PUSH1 0x20 PUSH0 KECCAK256 SWAP1 JUMPDEST DUP2 SLOAD DUP2 MSTORE SWAP1 PUSH1 0x1 ADD SWAP1 PUSH1 0x20 ADD DUP1 DUP4 GT PUSH2 0x18E JUMPI DUP3 SWAP1 SUB PUSH1 0x1F AND DUP3 ADD SWAP2 JUMPDEST POP POP POP POP POP SWAP1 POP SWAP1 JUMP JUMPDEST DUP2 DUP2 PUSH0 SWAP2 DUP3 PUSH2 0x1C5 SWAP3 SWAP2 SWAP1 PUSH2 0x548 JUMP JUMPDEST POP POP POP JUMP JUMPDEST PUSH0 DUP2 MLOAD SWAP1 POP SWAP2 SWAP1 POP JUMP JUMPDEST PUSH0 DUP3 DUP3 MSTORE PUSH1 0x20 DUP3 ADD SWAP1 POP SWAP3 SWAP2 POP POP JUMP JUMPDEST DUP3 DUP2 DUP4 MCOPY PUSH0 DUP4 DUP4 ADD MSTORE POP POP POP JUMP JUMPDEST PUSH0 PUSH1 0x1F NOT PUSH1 0x1F DUP4 ADD AND SWAP1 POP SWAP2 SWAP1 POP JUMP JUMPDEST PUSH0 PUSH2 0x20C DUP3 PUSH2 0x1CA JUMP JUMPDEST PUSH2 0x216 DUP2 DUP6 PUSH2 0x1D4 JUMP JUMPDEST SWAP4 POP PUSH2 0x226 DUP2 DUP6 PUSH1 0x20 DUP7 ADD PUSH2 0x1E4 JUMP JUMPDEST PUSH2 0x22F DUP2 PUSH2 0x1F2 JUMP JUMPDEST DUP5 ADD SWAP2 POP POP SWAP3 SWAP2 POP POP JUMP JUMPDEST PUSH0 PUSH1 0x20 DUP3 ADD SWAP1 POP DUP2 DUP2 SUB PUSH0 DUP4 ADD MSTORE PUSH2 0x252 DUP2 DUP5 PUSH2 0x202 JUMP JUMPDEST SWAP1 POP SWAP3 SWAP2 POP POP JUMP JUMPDEST PUSH0 DUP1 REVERT JUMPDEST PUSH0 DUP1 REVERT JUMPDEST PUSH0 DUP1 REVERT JUMPDEST PUSH0 DUP1 REVERT JUMPDEST PUSH0 DUP1 REVERT JUMPDEST PUSH0 DUP1 DUP4 PUSH1 0x1F DUP5 ADD SLT PUSH2 0x283 JUMPI PUSH2 0x282 PUSH2 0x262 JUMP JUMPDEST JUMPDEST DUP3 CALLDATALOAD SWAP1 POP PUSH8 0xFFFFFFFFFFFFFFFF DUP2 GT ISZERO PUSH2 0x2A0 JUMPI PUSH2 0x29F PUSH2 0x266 JUMP JUMPDEST JUMPDEST PUSH1 0x20 DUP4 ADD SWAP2 POP DUP4 PUSH1 0x1 DUP3 MUL DUP4 ADD GT ISZERO PUSH2 0x2BC JUMPI PUSH2 0x2BB PUSH2 0x26A JUMP JUMPDEST JUMPDEST SWAP3 POP SWAP3 SWAP1 POP JUMP JUMPDEST PUSH0 DUP1 PUSH1 0x20 DUP4 DUP6 SUB SLT ISZERO PUSH2 0x2D9 JUMPI PUSH2 0x2D8 PUSH2 0x25A JUMP JUMPDEST JUMPDEST PUSH0 DUP4 ADD CALLDATALOAD PUSH8 0xFFFFFFFFFFFFFFFF DUP2 GT ISZERO PUSH2 0x2F6 JUMPI PUSH2 0x2F5 PUSH2 0x25E JUMP JUMPDEST JUMPDEST PUSH2 0x302 DUP6 DUP3 DUP7 ADD PUSH2 0x26E JUMP JUMPDEST SWAP3 POP SWAP3 POP POP SWAP3 POP SWAP3 SWAP1 POP JUMP JUMPDEST PUSH32 0x4E487B7100000000000000000000000000000000000000000000000000000000 PUSH0 MSTORE PUSH1 0x22 PUSH1 0x4 MSTORE PUSH1 0x24 PUSH0 REVERT JUMPDEST PUSH0 PUSH1 0x2 DUP3 DIV SWAP1 POP PUSH1 0x1 DUP3 AND DUP1 PUSH2 0x352 JUMPI PUSH1 0x7F DUP3 AND SWAP2 POP JUMPDEST PUSH1 0x20 DUP3 LT DUP2 SUB PUSH2 0x365 JUMPI PUSH2 0x364 PUSH2 0x30E JUMP JUMPDEST JUMPDEST POP SWAP2 SWAP1 POP JUMP JUMPDEST PUSH0 DUP3 SWAP1 POP SWAP3 SWAP2 POP POP JUMP JUMPDEST PUSH32 0x4E487B7100000000000000000000000000000000000000000000000000000000 PUSH0 MSTORE PUSH1 0x41 PUSH1 0x4 MSTORE PUSH1 0x24 PUSH0 REVERT JUMPDEST PUSH0 DUP2 SWAP1 POP DUP2 PUSH0 MSTORE PUSH1 0x20 PUSH0 KECCAK256 SWAP1 POP SWAP2 SWAP1 POP JUMP JUMPDEST PUSH0 PUSH1 0x20 PUSH1 0x1F DUP4 ADD DIV SWAP1 POP SWAP2 SWAP1 POP JUMP JUMPDEST PUSH0 DUP3 DUP3 SHL SWAP1 POP SWAP3 SWAP2 POP POP JUMP JUMPDEST PUSH0 PUSH1 0x8 DUP4 MUL PUSH2 0x3FE PUSH32 0xFFFFFFFFFFFFFFFFFFFFFFFFFFFFFFFFFFFFFFFFFFFFFFFFFFFFFFFFFFFFFFFF DUP3 PUSH2 0x3C3 JUMP JUMPDEST PUSH2 0x408 DUP7 DUP4 PUSH2 0x3C3 JUMP JUMPDEST SWAP6 POP DUP1 NOT DUP5 AND SWAP4 POP DUP1 DUP7 AND DUP5 OR SWAP3 POP POP POP SWAP4 SWAP3 POP POP POP JUMP JUMPDEST PUSH0 DUP2 SWAP1 POP SWAP2 SWAP1 POP JUMP JUMPDEST PUSH0 DUP2 SWAP1 POP SWAP2 SWAP1 POP JUMP JUMPDEST PUSH0 PUSH2 0x44C PUSH2 0x447 PUSH2 0x442 DUP5 PUSH2 0x420 JUMP JUMPDEST PUSH2 0x429 JUMP JUMPDEST PUSH2 0x420 JUMP JUMPDEST SWAP1 POP SWAP2 SWAP1 POP JUMP JUMPDEST PUSH0 DUP2 SWAP1 POP SWAP2 SWAP1 POP JUMP JUMPDEST PUSH2 0x465 DUP4 PUSH2 0x432 JUMP JUMPDEST PUSH2 0x479 PUSH2 0x471 DUP3 PUSH2 0x453 JUMP JUMPDEST DUP5 DUP5 SLOAD PUSH2 0x3CF JUMP JUMPDEST DUP3 SSTORE POP POP POP POP JUMP JUMPDEST PUSH0 SWAP1 JUMP JUMPDEST PUSH2 0x48D PUSH2 0x481 JUMP JUMPDEST PUSH2 0x498 DUP2 DUP5 DUP5 PUSH2 0x45C JUMP JUMPDEST POP POP POP JUMP JUMPDEST JUMPDEST DUP2 DUP2 LT ISZERO PUSH2 0x4BB JUMPI PUSH2 0x4B0 PUSH0 DUP3 PUSH2 0x485 JUMP JUMPDEST PUSH1 0x1 DUP2 ADD SWAP1 POP PUSH2 0x49E JUMP JUMPDEST POP POP JUMP JUMPDEST PUSH1 0x1F DUP3 GT ISZERO PUSH2 0x500 JUMPI PUSH2 0x4D1 DUP2 PUSH2 0x3A2 JUMP JUMPDEST PUSH2 0x4DA DUP5 PUSH2 0x3B4 JUMP JUMPDEST DUP2 ADD PUSH1 0x20 DUP6 LT ISZERO PUSH2 0x4E9 JUMPI DUP2 SWAP1 POP JUMPDEST PUSH2 0x4FD PUSH2 0x4F5 DUP6 PUSH2 0x3B4 JUMP JUMPDEST DUP4 ADD DUP3 PUSH2 0x49D JUMP JUMPDEST POP POP JUMPDEST POP POP POP JUMP JUMPDEST PUSH0 DUP3 DUP3 SHR SWAP1 POP SWAP3 SWAP2 POP POP JUMP JUMPDEST PUSH0 PUSH2 0x520 PUSH0 NOT DUP5 PUSH1 0x8 MUL PUSH2 0x505 JUMP JUMPDEST NOT DUP1 DUP4 AND SWAP2 POP POP SWAP3 SWAP2 POP POP JUMP JUMPDEST PUSH0 PUSH2 0x538 DUP4 DUP4 PUSH2 0x511 JUMP JUMPDEST SWAP2 POP DUP3 PUSH1 0x2 MUL DUP3 OR SWAP1 POP SWAP3 SWAP2 POP POP JUMP JUMPDEST PUSH2 0x552 DUP4 DUP4 PUSH2 0x36B JUMP JUMPDEST PUSH8 0xFFFFFFFFFFFFFFFF DUP2 GT ISZERO PUSH2 0x56B JUMPI PUSH2 0x56A PUSH2 0x375 JUMP JUMPDEST JUMPDEST PUSH2 0x575 DUP3 SLOAD PUSH2 0x33B JUMP JUMPDEST PUSH2 0x580 DUP3 DUP3 DUP6 PUSH2 0x4BF JUMP JUMPDEST PUSH0 PUSH1 0x1F DUP4 GT PUSH1 0x1 DUP2 EQ PUSH2 0x5AD JUMPI PUSH0 DUP5 ISZERO PUSH2 0x59B JUMPI DUP3 DUP8 ADD CALLDATALOAD SWAP1 POP JUMPDEST PUSH2 0x5A5 DUP6 DUP3 PUSH2 0x52D JUMP JUMPDEST DUP7 SSTORE POP PUSH2 0x60C JUMP JUMPDEST PUSH1 0x1F NOT DUP5 AND PUSH2 0x5BB DUP7 PUSH2 0x3A2 JUMP JUMPDEST PUSH0 JUMPDEST DUP3 DUP2 LT ISZERO PUSH2 0x5E2 JUMPI DUP5 DUP10 ADD CALLDATALOAD DUP3 SSTORE PUSH1 0x1 DUP3 ADD SWAP2 POP PUSH1 0x20 DUP6 ADD SWAP5 POP PUSH1 0x20 DUP2 ADD SWAP1 POP PUSH2 0x5BD JUMP JUMPDEST DUP7 DUP4 LT ISZERO PUSH2 0x5FF JUMPI DUP5 DUP10 ADD CALLDATALOAD PUSH2 0x5FB PUSH1 0x1F DUP10 AND DUP3 PUSH2 0x511 JUMP JUMPDEST DUP4 SSTORE POP JUMPDEST PUSH1 0x1 PUSH1 0x2 DUP9 MUL ADD DUP9 SSTORE POP POP POP JUMPDEST POP POP POP POP POP POP POP JUMP INVALID LOG2 PUSH5 0x6970667358 0x22 SLT KECCAK256 PUSH15 0x488F63BB7D49DE674969F5C1DBD428 GAS 0x2A DUP11 DUP3 CHAINID 0xC4 CALLER EXP 0xD LOG3 PUSH22 0x1BEC09FE7B64736F6C634300081A0033000000000000 "
				},
				"gasEstimates": {
					"creation": {
						"codeDepositCost": "322200",
						"executionCost": "360",
						"totalCost": "322560"
					},
					"external": {
						"getData()": "infinite",
						"storeData(string)": "infinite",
						"storedDataString()": "infinite"
					}
				},
				"methodIdentifiers": {
					"getData()": "3bc5de30",
					"storeData(string)": "fb218f5f",
					"storedDataString()": "0c4789a3"
				}
			},
			"storageLayout": {
				"storage": [
					{
						"astId": 3,
						"contract": "topics/solidity/basics/simple-storage-contract.sol:SimpleStorage",
						"label": "storedDataString",
						"offset": 0,
						"slot": "0",
						"type": "t_string_storage"
					}
				],
				"types": {
					"t_string_storage": {
						"encoding": "bytes",
						"label": "string",
						"numberOfBytes": "32"
					}
				}
			},
			"userdoc": {
				"kind": "user",
				"methods": {},
				"version": 1
			}
		}
	}
}