{
	"employee-token-contract.sol": {
		"EmploymentTokenVestingContractForVe": {
			"abi": [
				{
					"inputs": [
						{
							"internalType": "address",
							"name": "_yggToken",
							"type": "address"
						},
						{
							"internalType": "address",
							"name": "_employee",
							"type": "address"
						},
						{
							"internalType": "uint256",
							"name": "_start",
							"type": "uint256"
						}
					],
					"stateMutability": "nonpayable",
					"type": "constructor"
				},
				{
					"anonymous": false,
					"inputs": [
						{
							"indexed": false,
							"internalType": "uint256",
							"name": "amount",
							"type": "uint256"
						}
					],
					"name": "TokensReleased",
					"type": "event"
				},
				{
					"inputs": [],
					"name": "cliffDuration",
					"outputs": [
						{
							"internalType": "uint256",
							"name": "",
							"type": "uint256"
						}
					],
					"stateMutability": "view",
					"type": "function"
				},
				{
					"inputs": [],
					"name": "employee",
					"outputs": [
						{
							"internalType": "address",
							"name": "",
							"type": "address"
						}
					],
					"stateMutability": "view",
					"type": "function"
				},
				{
					"inputs": [],
					"name": "getReleasableTokens",
					"outputs": [
						{
							"internalType": "uint256",
							"name": "",
							"type": "uint256"
						}
					],
					"stateMutability": "view",
					"type": "function"
				},
				{
					"inputs": [],
					"name": "release",
					"outputs": [],
					"stateMutability": "nonpayable",
					"type": "function"
				},
				{
					"inputs": [],
					"name": "releasedTokens",
					"outputs": [
						{
							"internalType": "uint256",
							"name": "",
							"type": "uint256"
						}
					],
					"stateMutability": "view",
					"type": "function"
				},
				{
					"inputs": [],
					"name": "start",
					"outputs": [
						{
							"internalType": "uint256",
							"name": "",
							"type": "uint256"
						}
					],
					"stateMutability": "view",
					"type": "function"
				},
				{
					"inputs": [],
					"name": "tokensPerMonth",
					"outputs": [
						{
							"internalType": "uint256",
							"name": "",
							"type": "uint256"
						}
					],
					"stateMutability": "view",
					"type": "function"
				},
				{
					"inputs": [],
					"name": "totalTokens",
					"outputs": [
						{
							"internalType": "uint256",
							"name": "",
							"type": "uint256"
						}
					],
					"stateMutability": "view",
					"type": "function"
				},
				{
					"inputs": [],
					"name": "vestingDuration",
					"outputs": [
						{
							"internalType": "uint256",
							"name": "",
							"type": "uint256"
						}
					],
					"stateMutability": "view",
					"type": "function"
				},
				{
					"inputs": [],
					"name": "yggToken",
					"outputs": [
						{
							"internalType": "contract IERC20",
							"name": "",
							"type": "address"
						}
					],
					"stateMutability": "view",
					"type": "function"
				}
			],
			"devdoc": {
				"kind": "dev",
				"methods": {},
				"version": 1
			},
			"evm": {
				"assembly": "    /* \"employee-token-contract.sol\":311:2322  contract EmploymentTokenVestingContractForVe {... */\n  mstore(0x40, 0x80)\n    /* \"employee-token-contract.sol\":450:458  365 days */\n  0x01e13380\n    /* \"employee-token-contract.sol\":419:458  uint256 public cliffDuration = 365 days */\n  0x02\n  sstore\n    /* \"employee-token-contract.sol\":497:509  2 * 365 days */\n  0x03c26700\n    /* \"employee-token-contract.sol\":464:509  uint256 public vestingDuration = 2 * 365 days */\n  0x03\n  sstore\n    /* \"employee-token-contract.sol\":570:590  166666.67 * 10 ** 18 */\n  0x234b04ae4f23156b0000\n    /* \"employee-token-contract.sol\":541:590  uint256 public totalTokens = 166666.67 * 10 ** 18 */\n  0x05\n  sstore\n    /* \"employee-token-contract.sol\":671:673  24 */\n  0x18\n    /* \"employee-token-contract.sol\":657:668  totalTokens */\n  sload(0x05)\n    /* \"employee-token-contract.sol\":657:673  totalTokens / 24 */\n  tag_1\n  swap2\n  swap1\n  tag_2\n  jump\t// in\ntag_1:\n    /* \"employee-token-contract.sol\":625:673  uint256 public tokensPerMonth = totalTokens / 24 */\n  0x06\n  sstore\n    /* \"employee-token-contract.sol\":758:923  constructor(address _yggToken, address _employee, uint256 _start) {... */\n  callvalue\n  dup1\n  iszero\n  tag_3\n  jumpi\n  0x00\n  dup1\n  revert\ntag_3:\n  pop\n  mload(0x40)\n  sub(codesize, bytecodeSize)\n  dup1\n  bytecodeSize\n  dup4\n  codecopy\n  dup2\n  dup2\n  add\n  0x40\n  mstore\n  dup2\n  add\n  swap1\n  tag_4\n  swap2\n  swap1\n  tag_5\n  jump\t// in\ntag_4:\n    /* \"employee-token-contract.sol\":852:861  _yggToken */\n  dup3\n    /* \"employee-token-contract.sol\":834:842  yggToken */\n  0x00\n  dup1\n    /* \"employee-token-contract.sol\":834:862  yggToken = IERC20(_yggToken) */\n  0x0100\n  exp\n  dup2\n  sload\n  dup2\n  0xffffffffffffffffffffffffffffffffffffffff\n  mul\n  not\n  and\n  swap1\n  dup4\n  0xffffffffffffffffffffffffffffffffffffffff\n  and\n  mul\n  or\n  swap1\n  sstore\n  pop\n    /* \"employee-token-contract.sol\":883:892  _employee */\n  dup2\n    /* \"employee-token-contract.sol\":872:880  employee */\n  0x01\n  0x00\n    /* \"employee-token-contract.sol\":872:892  employee = _employee */\n  0x0100\n  exp\n  dup2\n  sload\n  dup2\n  0xffffffffffffffffffffffffffffffffffffffff\n  mul\n  not\n  and\n  swap1\n  dup4\n  0xffffffffffffffffffffffffffffffffffffffff\n  and\n  mul\n  or\n  swap1\n  sstore\n  pop\n    /* \"employee-token-contract.sol\":910:916  _start */\n  dup1\n    /* \"employee-token-contract.sol\":902:907  start */\n  0x04\n    /* \"employee-token-contract.sol\":902:916  start = _start */\n  dup2\n  swap1\n  sstore\n  pop\n    /* \"employee-token-contract.sol\":758:923  constructor(address _yggToken, address _employee, uint256 _start) {... */\n  pop\n  pop\n  pop\n    /* \"employee-token-contract.sol\":311:2322  contract EmploymentTokenVestingContractForVe {... */\n  jump(tag_8)\n    /* \"#utility.yul\":7:84   */\ntag_9:\n    /* \"#utility.yul\":44:51   */\n  0x00\n    /* \"#utility.yul\":73:78   */\n  dup2\n    /* \"#utility.yul\":62:78   */\n  swap1\n  pop\n    /* \"#utility.yul\":7:84   */\n  swap2\n  swap1\n  pop\n  jump\t// out\n    /* \"#utility.yul\":90:270   */\ntag_10:\n    /* \"#utility.yul\":138:215   */\n  0x4e487b7100000000000000000000000000000000000000000000000000000000\n    /* \"#utility.yul\":135:136   */\n  0x00\n    /* \"#utility.yul\":128:216   */\n  mstore\n    /* \"#utility.yul\":235:239   */\n  0x12\n    /* \"#utility.yul\":232:233   */\n  0x04\n    /* \"#utility.yul\":225:240   */\n  mstore\n    /* \"#utility.yul\":259:263   */\n  0x24\n    /* \"#utility.yul\":256:257   */\n  0x00\n    /* \"#utility.yul\":249:264   */\n  revert\n    /* \"#utility.yul\":462:647   */\ntag_2:\n    /* \"#utility.yul\":502:503   */\n  0x00\n    /* \"#utility.yul\":519:539   */\n  tag_26\n    /* \"#utility.yul\":537:538   */\n  dup3\n    /* \"#utility.yul\":519:539   */\n  tag_9\n  jump\t// in\ntag_26:\n    /* \"#utility.yul\":514:539   */\n  swap2\n  pop\n    /* \"#utility.yul\":553:573   */\n  tag_27\n    /* \"#utility.yul\":571:572   */\n  dup4\n    /* \"#utility.yul\":553:573   */\n  tag_9\n  jump\t// in\ntag_27:\n    /* \"#utility.yul\":548:573   */\n  swap3\n  pop\n    /* \"#utility.yul\":592:593   */\n  dup3\n    /* \"#utility.yul\":582:617   */\n  tag_28\n  jumpi\n    /* \"#utility.yul\":597:615   */\n  tag_29\n  tag_10\n  jump\t// in\ntag_29:\n    /* \"#utility.yul\":582:617   */\ntag_28:\n    /* \"#utility.yul\":639:640   */\n  dup3\n    /* \"#utility.yul\":636:637   */\n  dup3\n    /* \"#utility.yul\":632:641   */\n  div\n    /* \"#utility.yul\":627:641   */\n  swap1\n  pop\n    /* \"#utility.yul\":462:647   */\n  swap3\n  swap2\n  pop\n  pop\n  jump\t// out\n    /* \"#utility.yul\":734:851   */\ntag_13:\n    /* \"#utility.yul\":843:844   */\n  0x00\n    /* \"#utility.yul\":840:841   */\n  dup1\n    /* \"#utility.yul\":833:845   */\n  revert\n    /* \"#utility.yul\":980:1106   */\ntag_15:\n    /* \"#utility.yul\":1017:1024   */\n  0x00\n    /* \"#utility.yul\":1057:1099   */\n  0xffffffffffffffffffffffffffffffffffffffff\n    /* \"#utility.yul\":1050:1055   */\n  dup3\n    /* \"#utility.yul\":1046:1100   */\n  and\n    /* \"#utility.yul\":1035:1100   */\n  swap1\n  pop\n    /* \"#utility.yul\":980:1106   */\n  swap2\n  swap1\n  pop\n  jump\t// out\n    /* \"#utility.yul\":1112:1208   */\ntag_16:\n    /* \"#utility.yul\":1149:1156   */\n  0x00\n    /* \"#utility.yul\":1178:1202   */\n  tag_35\n    /* \"#utility.yul\":1196:1201   */\n  dup3\n    /* \"#utility.yul\":1178:1202   */\n  tag_15\n  jump\t// in\ntag_35:\n    /* \"#utility.yul\":1167:1202   */\n  swap1\n  pop\n    /* \"#utility.yul\":1112:1208   */\n  swap2\n  swap1\n  pop\n  jump\t// out\n    /* \"#utility.yul\":1214:1336   */\ntag_17:\n    /* \"#utility.yul\":1287:1311   */\n  tag_37\n    /* \"#utility.yul\":1305:1310   */\n  dup2\n    /* \"#utility.yul\":1287:1311   */\n  tag_16\n  jump\t// in\ntag_37:\n    /* \"#utility.yul\":1280:1285   */\n  dup2\n    /* \"#utility.yul\":1277:1312   */\n  eq\n    /* \"#utility.yul\":1267:1330   */\n  tag_38\n  jumpi\n    /* \"#utility.yul\":1326:1327   */\n  0x00\n    /* \"#utility.yul\":1323:1324   */\n  dup1\n    /* \"#utility.yul\":1316:1328   */\n  revert\n    /* \"#utility.yul\":1267:1330   */\ntag_38:\n    /* \"#utility.yul\":1214:1336   */\n  pop\n  jump\t// out\n    /* \"#utility.yul\":1342:1485   */\ntag_18:\n    /* \"#utility.yul\":1399:1404   */\n  0x00\n    /* \"#utility.yul\":1430:1436   */\n  dup2\n    /* \"#utility.yul\":1424:1437   */\n  mload\n    /* \"#utility.yul\":1415:1437   */\n  swap1\n  pop\n    /* \"#utility.yul\":1446:1479   */\n  tag_40\n    /* \"#utility.yul\":1473:1478   */\n  dup2\n    /* \"#utility.yul\":1446:1479   */\n  tag_17\n  jump\t// in\ntag_40:\n    /* \"#utility.yul\":1342:1485   */\n  swap3\n  swap2\n  pop\n  pop\n  jump\t// out\n    /* \"#utility.yul\":1491:1613   */\ntag_19:\n    /* \"#utility.yul\":1564:1588   */\n  tag_42\n    /* \"#utility.yul\":1582:1587   */\n  dup2\n    /* \"#utility.yul\":1564:1588   */\n  tag_9\n  jump\t// in\ntag_42:\n    /* \"#utility.yul\":1557:1562   */\n  dup2\n    /* \"#utility.yul\":1554:1589   */\n  eq\n    /* \"#utility.yul\":1544:1607   */\n  tag_43\n  jumpi\n    /* \"#utility.yul\":1603:1604   */\n  0x00\n    /* \"#utility.yul\":1600:1601   */\n  dup1\n    /* \"#utility.yul\":1593:1605   */\n  revert\n    /* \"#utility.yul\":1544:1607   */\ntag_43:\n    /* \"#utility.yul\":1491:1613   */\n  pop\n  jump\t// out\n    /* \"#utility.yul\":1619:1762   */\ntag_20:\n    /* \"#utility.yul\":1676:1681   */\n  0x00\n    /* \"#utility.yul\":1707:1713   */\n  dup2\n    /* \"#utility.yul\":1701:1714   */\n  mload\n    /* \"#utility.yul\":1692:1714   */\n  swap1\n  pop\n    /* \"#utility.yul\":1723:1756   */\n  tag_45\n    /* \"#utility.yul\":1750:1755   */\n  dup2\n    /* \"#utility.yul\":1723:1756   */\n  tag_19\n  jump\t// in\ntag_45:\n    /* \"#utility.yul\":1619:1762   */\n  swap3\n  swap2\n  pop\n  pop\n  jump\t// out\n    /* \"#utility.yul\":1768:2431   */\ntag_5:\n    /* \"#utility.yul\":1856:1862   */\n  0x00\n    /* \"#utility.yul\":1864:1870   */\n  dup1\n    /* \"#utility.yul\":1872:1878   */\n  0x00\n    /* \"#utility.yul\":1921:1923   */\n  0x60\n    /* \"#utility.yul\":1909:1918   */\n  dup5\n    /* \"#utility.yul\":1900:1907   */\n  dup7\n    /* \"#utility.yul\":1896:1919   */\n  sub\n    /* \"#utility.yul\":1892:1924   */\n  slt\n    /* \"#utility.yul\":1889:2008   */\n  iszero\n  tag_47\n  jumpi\n    /* \"#utility.yul\":1927:2006   */\n  tag_48\n  tag_13\n  jump\t// in\ntag_48:\n    /* \"#utility.yul\":1889:2008   */\ntag_47:\n    /* \"#utility.yul\":2047:2048   */\n  0x00\n    /* \"#utility.yul\":2072:2136   */\n  tag_49\n    /* \"#utility.yul\":2128:2135   */\n  dup7\n    /* \"#utility.yul\":2119:2125   */\n  dup3\n    /* \"#utility.yul\":2108:2117   */\n  dup8\n    /* \"#utility.yul\":2104:2126   */\n  add\n    /* \"#utility.yul\":2072:2136   */\n  tag_18\n  jump\t// in\ntag_49:\n    /* \"#utility.yul\":2062:2136   */\n  swap4\n  pop\n    /* \"#utility.yul\":2018:2146   */\n  pop\n    /* \"#utility.yul\":2185:2187   */\n  0x20\n    /* \"#utility.yul\":2211:2275   */\n  tag_50\n    /* \"#utility.yul\":2267:2274   */\n  dup7\n    /* \"#utility.yul\":2258:2264   */\n  dup3\n    /* \"#utility.yul\":2247:2256   */\n  dup8\n    /* \"#utility.yul\":2243:2265   */\n  add\n    /* \"#utility.yul\":2211:2275   */\n  tag_18\n  jump\t// in\ntag_50:\n    /* \"#utility.yul\":2201:2275   */\n  swap3\n  pop\n    /* \"#utility.yul\":2156:2285   */\n  pop\n    /* \"#utility.yul\":2324:2326   */\n  0x40\n    /* \"#utility.yul\":2350:2414   */\n  tag_51\n    /* \"#utility.yul\":2406:2413   */\n  dup7\n    /* \"#utility.yul\":2397:2403   */\n  dup3\n    /* \"#utility.yul\":2386:2395   */\n  dup8\n    /* \"#utility.yul\":2382:2404   */\n  add\n    /* \"#utility.yul\":2350:2414   */\n  tag_20\n  jump\t// in\ntag_51:\n    /* \"#utility.yul\":2340:2414   */\n  swap2\n  pop\n    /* \"#utility.yul\":2295:2424   */\n  pop\n    /* \"#utility.yul\":1768:2431   */\n  swap3\n  pop\n  swap3\n  pop\n  swap3\n  jump\t// out\n    /* \"employee-token-contract.sol\":311:2322  contract EmploymentTokenVestingContractForVe {... */\ntag_8:\n  dataSize(sub_0)\n  dup1\n  dataOffset(sub_0)\n  0x00\n  codecopy\n  0x00\n  return\nstop\n\nsub_0: assembly {\n        /* \"employee-token-contract.sol\":311:2322  contract EmploymentTokenVestingContractForVe {... */\n      mstore(0x40, 0x80)\n      callvalue\n      dup1\n      iszero\n      tag_1\n      jumpi\n      0x00\n      dup1\n      revert\n    tag_1:\n      pop\n      jumpi(tag_2, lt(calldatasize, 0x04))\n      shr(0xe0, calldataload(0x00))\n      dup1\n      0xa0a1a7d7\n      gt\n      tag_13\n      jumpi\n      dup1\n      0xa0a1a7d7\n      eq\n      tag_8\n      jumpi\n      dup1\n      0xbe9a6555\n      eq\n      tag_9\n      jumpi\n      dup1\n      0xbef39963\n      eq\n      tag_10\n      jumpi\n      dup1\n      0xc1869bd4\n      eq\n      tag_11\n      jumpi\n      dup1\n      0xd85349f7\n      eq\n      tag_12\n      jumpi\n      jump(tag_2)\n    tag_13:\n      dup1\n      0x1514617e\n      eq\n      tag_3\n      jumpi\n      dup1\n      0x3da2f909\n      eq\n      tag_4\n      jumpi\n      dup1\n      0x484c553d\n      eq\n      tag_5\n      jumpi\n      dup1\n      0x7e1c0c09\n      eq\n      tag_6\n      jumpi\n      dup1\n      0x86d1a69f\n      eq\n      tag_7\n      jumpi\n    tag_2:\n      0x00\n      dup1\n      revert\n        /* \"employee-token-contract.sol\":464:509  uint256 public vestingDuration = 2 * 365 days */\n    tag_3:\n      tag_14\n      tag_15\n      jump\t// in\n    tag_14:\n      mload(0x40)\n      tag_16\n      swap2\n      swap1\n      tag_17\n      jump\t// in\n    tag_16:\n      mload(0x40)\n      dup1\n      swap2\n      sub\n      swap1\n      return\n        /* \"employee-token-contract.sol\":625:673  uint256 public tokensPerMonth = totalTokens / 24 */\n    tag_4:\n      tag_18\n      tag_19\n      jump\t// in\n    tag_18:\n      mload(0x40)\n      tag_20\n      swap2\n      swap1\n      tag_17\n      jump\t// in\n    tag_20:\n      mload(0x40)\n      dup1\n      swap2\n      sub\n      swap1\n      return\n        /* \"employee-token-contract.sol\":1742:2320  function getReleasableTokens() public view returns (uint256) {... */\n    tag_5:\n      tag_21\n      tag_22\n      jump\t// in\n    tag_21:\n      mload(0x40)\n      tag_23\n      swap2\n      swap1\n      tag_17\n      jump\t// in\n    tag_23:\n      mload(0x40)\n      dup1\n      swap2\n      sub\n      swap1\n      return\n        /* \"employee-token-contract.sol\":541:590  uint256 public totalTokens = 166666.67 * 10 ** 18 */\n    tag_6:\n      tag_24\n      tag_25\n      jump\t// in\n    tag_24:\n      mload(0x40)\n      tag_26\n      swap2\n      swap1\n      tag_17\n      jump\t// in\n    tag_26:\n      mload(0x40)\n      dup1\n      swap2\n      sub\n      swap1\n      return\n        /* \"employee-token-contract.sol\":929:1736  function release() public {... */\n    tag_7:\n      tag_27\n      tag_28\n      jump\t// in\n    tag_27:\n      stop\n        /* \"employee-token-contract.sol\":390:413  address public employee */\n    tag_8:\n      tag_29\n      tag_30\n      jump\t// in\n    tag_29:\n      mload(0x40)\n      tag_31\n      swap2\n      swap1\n      tag_32\n      jump\t// in\n    tag_31:\n      mload(0x40)\n      dup1\n      swap2\n      sub\n      swap1\n      return\n        /* \"employee-token-contract.sol\":515:535  uint256 public start */\n    tag_9:\n      tag_33\n      tag_34\n      jump\t// in\n    tag_33:\n      mload(0x40)\n      tag_35\n      swap2\n      swap1\n      tag_17\n      jump\t// in\n    tag_35:\n      mload(0x40)\n      dup1\n      swap2\n      sub\n      swap1\n      return\n        /* \"employee-token-contract.sol\":679:708  uint256 public releasedTokens */\n    tag_10:\n      tag_36\n      tag_37\n      jump\t// in\n    tag_36:\n      mload(0x40)\n      tag_38\n      swap2\n      swap1\n      tag_17\n      jump\t// in\n    tag_38:\n      mload(0x40)\n      dup1\n      swap2\n      sub\n      swap1\n      return\n        /* \"employee-token-contract.sol\":362:384  IERC20 public yggToken */\n    tag_11:\n      tag_39\n      tag_40\n      jump\t// in\n    tag_39:\n      mload(0x40)\n      tag_41\n      swap2\n      swap1\n      tag_42\n      jump\t// in\n    tag_41:\n      mload(0x40)\n      dup1\n      swap2\n      sub\n      swap1\n      return\n        /* \"employee-token-contract.sol\":419:458  uint256 public cliffDuration = 365 days */\n    tag_12:\n      tag_43\n      tag_44\n      jump\t// in\n    tag_43:\n      mload(0x40)\n      tag_45\n      swap2\n      swap1\n      tag_17\n      jump\t// in\n    tag_45:\n      mload(0x40)\n      dup1\n      swap2\n      sub\n      swap1\n      return\n        /* \"employee-token-contract.sol\":464:509  uint256 public vestingDuration = 2 * 365 days */\n    tag_15:\n      sload(0x03)\n      dup2\n      jump\t// out\n        /* \"employee-token-contract.sol\":625:673  uint256 public tokensPerMonth = totalTokens / 24 */\n    tag_19:\n      sload(0x06)\n      dup2\n      jump\t// out\n        /* \"employee-token-contract.sol\":1742:2320  function getReleasableTokens() public view returns (uint256) {... */\n    tag_22:\n        /* \"employee-token-contract.sol\":1794:1801  uint256 */\n      0x00\n        /* \"employee-token-contract.sol\":1843:1856  cliffDuration */\n      sload(0x02)\n        /* \"employee-token-contract.sol\":1835:1840  start */\n      sload(0x04)\n        /* \"employee-token-contract.sol\":1835:1856  start + cliffDuration */\n      tag_47\n      swap2\n      swap1\n      tag_48\n      jump\t// in\n    tag_47:\n        /* \"employee-token-contract.sol\":1817:1832  block.timestamp */\n      timestamp\n        /* \"employee-token-contract.sol\":1817:1856  block.timestamp < start + cliffDuration */\n      lt\n        /* \"employee-token-contract.sol\":1813:1891  if (block.timestamp < start + cliffDuration) {... */\n      iszero\n      tag_49\n      jumpi\n        /* \"employee-token-contract.sol\":1879:1880  0 */\n      0x00\n        /* \"employee-token-contract.sol\":1872:1880  return 0 */\n      swap1\n      pop\n      jump(tag_46)\n        /* \"employee-token-contract.sol\":1813:1891  if (block.timestamp < start + cliffDuration) {... */\n    tag_49:\n        /* \"employee-token-contract.sol\":1901:1920  uint256 elapsedTime */\n      0x00\n        /* \"employee-token-contract.sol\":1941:1946  start */\n      sload(0x04)\n        /* \"employee-token-contract.sol\":1923:1938  block.timestamp */\n      timestamp\n        /* \"employee-token-contract.sol\":1923:1946  block.timestamp - start */\n      tag_50\n      swap2\n      swap1\n      tag_51\n      jump\t// in\n    tag_50:\n        /* \"employee-token-contract.sol\":1901:1946  uint256 elapsedTime = block.timestamp - start */\n      swap1\n      pop\n        /* \"employee-token-contract.sol\":1956:1981  uint256 totalVestedTokens */\n      0x00\n        /* \"employee-token-contract.sol\":2031:2046  vestingDuration */\n      sload(0x03)\n        /* \"employee-token-contract.sol\":2015:2028  cliffDuration */\n      sload(0x02)\n        /* \"employee-token-contract.sol\":2015:2046  cliffDuration + vestingDuration */\n      tag_52\n      swap2\n      swap1\n      tag_48\n      jump\t// in\n    tag_52:\n        /* \"employee-token-contract.sol\":2000:2011  elapsedTime */\n      dup3\n        /* \"employee-token-contract.sol\":2000:2046  elapsedTime >= cliffDuration + vestingDuration */\n      lt\n        /* \"employee-token-contract.sol\":1996:2262  if (elapsedTime >= cliffDuration + vestingDuration) {... */\n      tag_53\n      jumpi\n        /* \"employee-token-contract.sol\":2082:2093  totalTokens */\n      sload(0x05)\n        /* \"employee-token-contract.sol\":2062:2093  totalVestedTokens = totalTokens */\n      swap1\n      pop\n        /* \"employee-token-contract.sol\":1996:2262  if (elapsedTime >= cliffDuration + vestingDuration) {... */\n      jump(tag_54)\n    tag_53:\n        /* \"employee-token-contract.sol\":2124:2145  uint256 monthsElapsed */\n      0x00\n        /* \"employee-token-contract.sol\":2180:2187  30 days */\n      0x278d00\n        /* \"employee-token-contract.sol\":2163:2176  cliffDuration */\n      sload(0x02)\n        /* \"employee-token-contract.sol\":2149:2160  elapsedTime */\n      dup5\n        /* \"employee-token-contract.sol\":2149:2176  elapsedTime - cliffDuration */\n      tag_55\n      swap2\n      swap1\n      tag_51\n      jump\t// in\n    tag_55:\n        /* \"employee-token-contract.sol\":2148:2187  (elapsedTime - cliffDuration) / 30 days */\n      tag_56\n      swap2\n      swap1\n      tag_57\n      jump\t// in\n    tag_56:\n        /* \"employee-token-contract.sol\":2124:2187  uint256 monthsElapsed = (elapsedTime - cliffDuration) / 30 days */\n      swap1\n      pop\n        /* \"employee-token-contract.sol\":2237:2251  tokensPerMonth */\n      sload(0x06)\n        /* \"employee-token-contract.sol\":2221:2234  monthsElapsed */\n      dup2\n        /* \"employee-token-contract.sol\":2221:2251  monthsElapsed * tokensPerMonth */\n      tag_58\n      swap2\n      swap1\n      tag_59\n      jump\t// in\n    tag_58:\n        /* \"employee-token-contract.sol\":2201:2251  totalVestedTokens = monthsElapsed * tokensPerMonth */\n      swap2\n      pop\n        /* \"employee-token-contract.sol\":2110:2262  {... */\n      pop\n        /* \"employee-token-contract.sol\":1996:2262  if (elapsedTime >= cliffDuration + vestingDuration) {... */\n    tag_54:\n        /* \"employee-token-contract.sol\":2299:2313  releasedTokens */\n      sload(0x07)\n        /* \"employee-token-contract.sol\":2279:2296  totalVestedTokens */\n      dup2\n        /* \"employee-token-contract.sol\":2279:2313  totalVestedTokens - releasedTokens */\n      tag_60\n      swap2\n      swap1\n      tag_51\n      jump\t// in\n    tag_60:\n        /* \"employee-token-contract.sol\":2272:2313  return totalVestedTokens - releasedTokens */\n      swap3\n      pop\n      pop\n      pop\n        /* \"employee-token-contract.sol\":1742:2320  function getReleasableTokens() public view returns (uint256) {... */\n    tag_46:\n      swap1\n      jump\t// out\n        /* \"employee-token-contract.sol\":541:590  uint256 public totalTokens = 166666.67 * 10 ** 18 */\n    tag_25:\n      sload(0x05)\n      dup2\n      jump\t// out\n        /* \"employee-token-contract.sol\":929:1736  function release() public {... */\n    tag_28:\n        /* \"employee-token-contract.sol\":1013:1026  cliffDuration */\n      sload(0x02)\n        /* \"employee-token-contract.sol\":1005:1010  start */\n      sload(0x04)\n        /* \"employee-token-contract.sol\":1005:1026  start + cliffDuration */\n      tag_62\n      swap2\n      swap1\n      tag_48\n      jump\t// in\n    tag_62:\n        /* \"employee-token-contract.sol\":986:1001  block.timestamp */\n      timestamp\n        /* \"employee-token-contract.sol\":986:1026  block.timestamp >= start + cliffDuration */\n      lt\n      iszero\n        /* \"employee-token-contract.sol\":965:1076  require(... */\n      tag_63\n      jumpi\n      mload(0x40)\n      0x08c379a000000000000000000000000000000000000000000000000000000000\n      dup2\n      mstore\n      0x04\n      add\n      tag_64\n      swap1\n      tag_65\n      jump\t// in\n    tag_64:\n      mload(0x40)\n      dup1\n      swap2\n      sub\n      swap1\n      revert\n    tag_63:\n        /* \"employee-token-contract.sol\":1086:1105  uint256 elapsedTime */\n      0x00\n        /* \"employee-token-contract.sol\":1126:1131  start */\n      sload(0x04)\n        /* \"employee-token-contract.sol\":1108:1123  block.timestamp */\n      timestamp\n        /* \"employee-token-contract.sol\":1108:1131  block.timestamp - start */\n      tag_66\n      swap2\n      swap1\n      tag_51\n      jump\t// in\n    tag_66:\n        /* \"employee-token-contract.sol\":1086:1131  uint256 elapsedTime = block.timestamp - start */\n      swap1\n      pop\n        /* \"employee-token-contract.sol\":1141:1166  uint256 totalVestedTokens */\n      0x00\n        /* \"employee-token-contract.sol\":1216:1231  vestingDuration */\n      sload(0x03)\n        /* \"employee-token-contract.sol\":1200:1213  cliffDuration */\n      sload(0x02)\n        /* \"employee-token-contract.sol\":1200:1231  cliffDuration + vestingDuration */\n      tag_67\n      swap2\n      swap1\n      tag_48\n      jump\t// in\n    tag_67:\n        /* \"employee-token-contract.sol\":1185:1196  elapsedTime */\n      dup3\n        /* \"employee-token-contract.sol\":1185:1231  elapsedTime >= cliffDuration + vestingDuration */\n      lt\n        /* \"employee-token-contract.sol\":1181:1447  if (elapsedTime >= cliffDuration + vestingDuration) {... */\n      tag_68\n      jumpi\n        /* \"employee-token-contract.sol\":1267:1278  totalTokens */\n      sload(0x05)\n        /* \"employee-token-contract.sol\":1247:1278  totalVestedTokens = totalTokens */\n      swap1\n      pop\n        /* \"employee-token-contract.sol\":1181:1447  if (elapsedTime >= cliffDuration + vestingDuration) {... */\n      jump(tag_69)\n    tag_68:\n        /* \"employee-token-contract.sol\":1309:1330  uint256 monthsElapsed */\n      0x00\n        /* \"employee-token-contract.sol\":1365:1372  30 days */\n      0x278d00\n        /* \"employee-token-contract.sol\":1348:1361  cliffDuration */\n      sload(0x02)\n        /* \"employee-token-contract.sol\":1334:1345  elapsedTime */\n      dup5\n        /* \"employee-token-contract.sol\":1334:1361  elapsedTime - cliffDuration */\n      tag_70\n      swap2\n      swap1\n      tag_51\n      jump\t// in\n    tag_70:\n        /* \"employee-token-contract.sol\":1333:1372  (elapsedTime - cliffDuration) / 30 days */\n      tag_71\n      swap2\n      swap1\n      tag_57\n      jump\t// in\n    tag_71:\n        /* \"employee-token-contract.sol\":1309:1372  uint256 monthsElapsed = (elapsedTime - cliffDuration) / 30 days */\n      swap1\n      pop\n        /* \"employee-token-contract.sol\":1422:1436  tokensPerMonth */\n      sload(0x06)\n        /* \"employee-token-contract.sol\":1406:1419  monthsElapsed */\n      dup2\n        /* \"employee-token-contract.sol\":1406:1436  monthsElapsed * tokensPerMonth */\n      tag_72\n      swap2\n      swap1\n      tag_59\n      jump\t// in\n    tag_72:\n        /* \"employee-token-contract.sol\":1386:1436  totalVestedTokens = monthsElapsed * tokensPerMonth */\n      swap2\n      pop\n        /* \"employee-token-contract.sol\":1295:1447  {... */\n      pop\n        /* \"employee-token-contract.sol\":1181:1447  if (elapsedTime >= cliffDuration + vestingDuration) {... */\n    tag_69:\n        /* \"employee-token-contract.sol\":1457:1481  uint256 releasableTokens */\n      0x00\n        /* \"employee-token-contract.sol\":1504:1518  releasedTokens */\n      sload(0x07)\n        /* \"employee-token-contract.sol\":1484:1501  totalVestedTokens */\n      dup3\n        /* \"employee-token-contract.sol\":1484:1518  totalVestedTokens - releasedTokens */\n      tag_73\n      swap2\n      swap1\n      tag_51\n      jump\t// in\n    tag_73:\n        /* \"employee-token-contract.sol\":1457:1518  uint256 releasableTokens = totalVestedTokens - releasedTokens */\n      swap1\n      pop\n        /* \"employee-token-contract.sol\":1555:1556  0 */\n      0x00\n        /* \"employee-token-contract.sol\":1536:1552  releasableTokens */\n      dup2\n        /* \"employee-token-contract.sol\":1536:1556  releasableTokens > 0 */\n      gt\n        /* \"employee-token-contract.sol\":1528:1581  require(releasableTokens > 0, \"No tokens to release\") */\n      tag_74\n      jumpi\n      mload(0x40)\n      0x08c379a000000000000000000000000000000000000000000000000000000000\n      dup2\n      mstore\n      0x04\n      add\n      tag_75\n      swap1\n      tag_76\n      jump\t// in\n    tag_75:\n      mload(0x40)\n      dup1\n      swap2\n      sub\n      swap1\n      revert\n    tag_74:\n        /* \"employee-token-contract.sol\":1610:1626  releasableTokens */\n      dup1\n        /* \"employee-token-contract.sol\":1592:1606  releasedTokens */\n      0x07\n      0x00\n        /* \"employee-token-contract.sol\":1592:1626  releasedTokens += releasableTokens */\n      dup3\n      dup3\n      sload\n      tag_77\n      swap2\n      swap1\n      tag_48\n      jump\t// in\n    tag_77:\n      swap3\n      pop\n      pop\n      dup2\n      swap1\n      sstore\n      pop\n        /* \"employee-token-contract.sol\":1636:1644  yggToken */\n      0x00\n      dup1\n      sload\n      swap1\n      0x0100\n      exp\n      swap1\n      div\n      0xffffffffffffffffffffffffffffffffffffffff\n      and\n        /* \"employee-token-contract.sol\":1636:1653  yggToken.transfer */\n      0xffffffffffffffffffffffffffffffffffffffff\n      and\n      0xa9059cbb\n        /* \"employee-token-contract.sol\":1654:1662  employee */\n      0x01\n      0x00\n      swap1\n      sload\n      swap1\n      0x0100\n      exp\n      swap1\n      div\n      0xffffffffffffffffffffffffffffffffffffffff\n      and\n        /* \"employee-token-contract.sol\":1664:1680  releasableTokens */\n      dup4\n        /* \"employee-token-contract.sol\":1636:1681  yggToken.transfer(employee, releasableTokens) */\n      mload(0x40)\n      dup4\n      0xffffffff\n      and\n      0xe0\n      shl\n      dup2\n      mstore\n      0x04\n      add\n      tag_78\n      swap3\n      swap2\n      swap1\n      tag_79\n      jump\t// in\n    tag_78:\n      0x20\n      mload(0x40)\n      dup1\n      dup4\n      sub\n      dup2\n      0x00\n      dup8\n      gas\n      call\n      iszero\n      dup1\n      iszero\n      tag_81\n      jumpi\n      returndatasize\n      0x00\n      dup1\n      returndatacopy\n      revert(0x00, returndatasize)\n    tag_81:\n      pop\n      pop\n      pop\n      pop\n      mload(0x40)\n      returndatasize\n      not(0x1f)\n      0x1f\n      dup3\n      add\n      and\n      dup3\n      add\n      dup1\n      0x40\n      mstore\n      pop\n      dup2\n      add\n      swap1\n      tag_82\n      swap2\n      swap1\n      tag_83\n      jump\t// in\n    tag_82:\n      pop\n        /* \"employee-token-contract.sol\":1697:1729  TokensReleased(releasableTokens) */\n      0xa1598fb976f7dd9df63fd18699c54a5744a6a95364166bbd0d77a2f6c8438b1f\n        /* \"employee-token-contract.sol\":1712:1728  releasableTokens */\n      dup2\n        /* \"employee-token-contract.sol\":1697:1729  TokensReleased(releasableTokens) */\n      mload(0x40)\n      tag_84\n      swap2\n      swap1\n      tag_17\n      jump\t// in\n    tag_84:\n      mload(0x40)\n      dup1\n      swap2\n      sub\n      swap1\n      log1\n        /* \"employee-token-contract.sol\":955:1736  {... */\n      pop\n      pop\n      pop\n        /* \"employee-token-contract.sol\":929:1736  function release() public {... */\n      jump\t// out\n        /* \"employee-token-contract.sol\":390:413  address public employee */\n    tag_30:\n      0x01\n      0x00\n      swap1\n      sload\n      swap1\n      0x0100\n      exp\n      swap1\n      div\n      0xffffffffffffffffffffffffffffffffffffffff\n      and\n      dup2\n      jump\t// out\n        /* \"employee-token-contract.sol\":515:535  uint256 public start */\n    tag_34:\n      sload(0x04)\n      dup2\n      jump\t// out\n        /* \"employee-token-contract.sol\":679:708  uint256 public releasedTokens */\n    tag_37:\n      sload(0x07)\n      dup2\n      jump\t// out\n        /* \"employee-token-contract.sol\":362:384  IERC20 public yggToken */\n    tag_40:\n      0x00\n      dup1\n      sload\n      swap1\n      0x0100\n      exp\n      swap1\n      div\n      0xffffffffffffffffffffffffffffffffffffffff\n      and\n      dup2\n      jump\t// out\n        /* \"employee-token-contract.sol\":419:458  uint256 public cliffDuration = 365 days */\n    tag_44:\n      sload(0x02)\n      dup2\n      jump\t// out\n        /* \"#utility.yul\":7:84   */\n    tag_85:\n        /* \"#utility.yul\":44:51   */\n      0x00\n        /* \"#utility.yul\":73:78   */\n      dup2\n        /* \"#utility.yul\":62:78   */\n      swap1\n      pop\n        /* \"#utility.yul\":7:84   */\n      swap2\n      swap1\n      pop\n      jump\t// out\n        /* \"#utility.yul\":90:208   */\n    tag_86:\n        /* \"#utility.yul\":177:201   */\n      tag_111\n        /* \"#utility.yul\":195:200   */\n      dup2\n        /* \"#utility.yul\":177:201   */\n      tag_85\n      jump\t// in\n    tag_111:\n        /* \"#utility.yul\":172:175   */\n      dup3\n        /* \"#utility.yul\":165:202   */\n      mstore\n        /* \"#utility.yul\":90:208   */\n      pop\n      pop\n      jump\t// out\n        /* \"#utility.yul\":214:436   */\n    tag_17:\n        /* \"#utility.yul\":307:311   */\n      0x00\n        /* \"#utility.yul\":345:347   */\n      0x20\n        /* \"#utility.yul\":334:343   */\n      dup3\n        /* \"#utility.yul\":330:348   */\n      add\n        /* \"#utility.yul\":322:348   */\n      swap1\n      pop\n        /* \"#utility.yul\":358:429   */\n      tag_113\n        /* \"#utility.yul\":426:427   */\n      0x00\n        /* \"#utility.yul\":415:424   */\n      dup4\n        /* \"#utility.yul\":411:428   */\n      add\n        /* \"#utility.yul\":402:408   */\n      dup5\n        /* \"#utility.yul\":358:429   */\n      tag_86\n      jump\t// in\n    tag_113:\n        /* \"#utility.yul\":214:436   */\n      swap3\n      swap2\n      pop\n      pop\n      jump\t// out\n        /* \"#utility.yul\":442:568   */\n    tag_87:\n        /* \"#utility.yul\":479:486   */\n      0x00\n        /* \"#utility.yul\":519:561   */\n      0xffffffffffffffffffffffffffffffffffffffff\n        /* \"#utility.yul\":512:517   */\n      dup3\n        /* \"#utility.yul\":508:562   */\n      and\n        /* \"#utility.yul\":497:562   */\n      swap1\n      pop\n        /* \"#utility.yul\":442:568   */\n      swap2\n      swap1\n      pop\n      jump\t// out\n        /* \"#utility.yul\":574:670   */\n    tag_88:\n        /* \"#utility.yul\":611:618   */\n      0x00\n        /* \"#utility.yul\":640:664   */\n      tag_116\n        /* \"#utility.yul\":658:663   */\n      dup3\n        /* \"#utility.yul\":640:664   */\n      tag_87\n      jump\t// in\n    tag_116:\n        /* \"#utility.yul\":629:664   */\n      swap1\n      pop\n        /* \"#utility.yul\":574:670   */\n      swap2\n      swap1\n      pop\n      jump\t// out\n        /* \"#utility.yul\":676:794   */\n    tag_89:\n        /* \"#utility.yul\":763:787   */\n      tag_118\n        /* \"#utility.yul\":781:786   */\n      dup2\n        /* \"#utility.yul\":763:787   */\n      tag_88\n      jump\t// in\n    tag_118:\n        /* \"#utility.yul\":758:761   */\n      dup3\n        /* \"#utility.yul\":751:788   */\n      mstore\n        /* \"#utility.yul\":676:794   */\n      pop\n      pop\n      jump\t// out\n        /* \"#utility.yul\":800:1022   */\n    tag_32:\n        /* \"#utility.yul\":893:897   */\n      0x00\n        /* \"#utility.yul\":931:933   */\n      0x20\n        /* \"#utility.yul\":920:929   */\n      dup3\n        /* \"#utility.yul\":916:934   */\n      add\n        /* \"#utility.yul\":908:934   */\n      swap1\n      pop\n        /* \"#utility.yul\":944:1015   */\n      tag_120\n        /* \"#utility.yul\":1012:1013   */\n      0x00\n        /* \"#utility.yul\":1001:1010   */\n      dup4\n        /* \"#utility.yul\":997:1014   */\n      add\n        /* \"#utility.yul\":988:994   */\n      dup5\n        /* \"#utility.yul\":944:1015   */\n      tag_89\n      jump\t// in\n    tag_120:\n        /* \"#utility.yul\":800:1022   */\n      swap3\n      swap2\n      pop\n      pop\n      jump\t// out\n        /* \"#utility.yul\":1028:1088   */\n    tag_90:\n        /* \"#utility.yul\":1056:1059   */\n      0x00\n        /* \"#utility.yul\":1077:1082   */\n      dup2\n        /* \"#utility.yul\":1070:1082   */\n      swap1\n      pop\n        /* \"#utility.yul\":1028:1088   */\n      swap2\n      swap1\n      pop\n      jump\t// out\n        /* \"#utility.yul\":1094:1236   */\n    tag_91:\n        /* \"#utility.yul\":1144:1153   */\n      0x00\n        /* \"#utility.yul\":1177:1230   */\n      tag_123\n        /* \"#utility.yul\":1195:1229   */\n      tag_124\n        /* \"#utility.yul\":1204:1228   */\n      tag_125\n        /* \"#utility.yul\":1222:1227   */\n      dup5\n        /* \"#utility.yul\":1204:1228   */\n      tag_87\n      jump\t// in\n    tag_125:\n        /* \"#utility.yul\":1195:1229   */\n      tag_90\n      jump\t// in\n    tag_124:\n        /* \"#utility.yul\":1177:1230   */\n      tag_87\n      jump\t// in\n    tag_123:\n        /* \"#utility.yul\":1164:1230   */\n      swap1\n      pop\n        /* \"#utility.yul\":1094:1236   */\n      swap2\n      swap1\n      pop\n      jump\t// out\n        /* \"#utility.yul\":1242:1368   */\n    tag_92:\n        /* \"#utility.yul\":1292:1301   */\n      0x00\n        /* \"#utility.yul\":1325:1362   */\n      tag_127\n        /* \"#utility.yul\":1356:1361   */\n      dup3\n        /* \"#utility.yul\":1325:1362   */\n      tag_91\n      jump\t// in\n    tag_127:\n        /* \"#utility.yul\":1312:1362   */\n      swap1\n      pop\n        /* \"#utility.yul\":1242:1368   */\n      swap2\n      swap1\n      pop\n      jump\t// out\n        /* \"#utility.yul\":1374:1514   */\n    tag_93:\n        /* \"#utility.yul\":1438:1447   */\n      0x00\n        /* \"#utility.yul\":1471:1508   */\n      tag_129\n        /* \"#utility.yul\":1502:1507   */\n      dup3\n        /* \"#utility.yul\":1471:1508   */\n      tag_92\n      jump\t// in\n    tag_129:\n        /* \"#utility.yul\":1458:1508   */\n      swap1\n      pop\n        /* \"#utility.yul\":1374:1514   */\n      swap2\n      swap1\n      pop\n      jump\t// out\n        /* \"#utility.yul\":1520:1679   */\n    tag_94:\n        /* \"#utility.yul\":1621:1672   */\n      tag_131\n        /* \"#utility.yul\":1666:1671   */\n      dup2\n        /* \"#utility.yul\":1621:1672   */\n      tag_93\n      jump\t// in\n    tag_131:\n        /* \"#utility.yul\":1616:1619   */\n      dup3\n        /* \"#utility.yul\":1609:1673   */\n      mstore\n        /* \"#utility.yul\":1520:1679   */\n      pop\n      pop\n      jump\t// out\n        /* \"#utility.yul\":1685:1935   */\n    tag_42:\n        /* \"#utility.yul\":1792:1796   */\n      0x00\n        /* \"#utility.yul\":1830:1832   */\n      0x20\n        /* \"#utility.yul\":1819:1828   */\n      dup3\n        /* \"#utility.yul\":1815:1833   */\n      add\n        /* \"#utility.yul\":1807:1833   */\n      swap1\n      pop\n        /* \"#utility.yul\":1843:1928   */\n      tag_133\n        /* \"#utility.yul\":1925:1926   */\n      0x00\n        /* \"#utility.yul\":1914:1923   */\n      dup4\n        /* \"#utility.yul\":1910:1927   */\n      add\n        /* \"#utility.yul\":1901:1907   */\n      dup5\n        /* \"#utility.yul\":1843:1928   */\n      tag_94\n      jump\t// in\n    tag_133:\n        /* \"#utility.yul\":1685:1935   */\n      swap3\n      swap2\n      pop\n      pop\n      jump\t// out\n        /* \"#utility.yul\":1941:2121   */\n    tag_95:\n        /* \"#utility.yul\":1989:2066   */\n      0x4e487b7100000000000000000000000000000000000000000000000000000000\n        /* \"#utility.yul\":1986:1987   */\n      0x00\n        /* \"#utility.yul\":1979:2067   */\n      mstore\n        /* \"#utility.yul\":2086:2090   */\n      0x11\n        /* \"#utility.yul\":2083:2084   */\n      0x04\n        /* \"#utility.yul\":2076:2091   */\n      mstore\n        /* \"#utility.yul\":2110:2114   */\n      0x24\n        /* \"#utility.yul\":2107:2108   */\n      0x00\n        /* \"#utility.yul\":2100:2115   */\n      revert\n        /* \"#utility.yul\":2127:2318   */\n    tag_48:\n        /* \"#utility.yul\":2167:2170   */\n      0x00\n        /* \"#utility.yul\":2186:2206   */\n      tag_136\n        /* \"#utility.yul\":2204:2205   */\n      dup3\n        /* \"#utility.yul\":2186:2206   */\n      tag_85\n      jump\t// in\n    tag_136:\n        /* \"#utility.yul\":2181:2206   */\n      swap2\n      pop\n        /* \"#utility.yul\":2220:2240   */\n      tag_137\n        /* \"#utility.yul\":2238:2239   */\n      dup4\n        /* \"#utility.yul\":2220:2240   */\n      tag_85\n      jump\t// in\n    tag_137:\n        /* \"#utility.yul\":2215:2240   */\n      swap3\n      pop\n        /* \"#utility.yul\":2263:2264   */\n      dup3\n        /* \"#utility.yul\":2260:2261   */\n      dup3\n        /* \"#utility.yul\":2256:2265   */\n      add\n        /* \"#utility.yul\":2249:2265   */\n      swap1\n      pop\n        /* \"#utility.yul\":2284:2287   */\n      dup1\n        /* \"#utility.yul\":2281:2282   */\n      dup3\n        /* \"#utility.yul\":2278:2288   */\n      gt\n        /* \"#utility.yul\":2275:2311   */\n      iszero\n      tag_138\n      jumpi\n        /* \"#utility.yul\":2291:2309   */\n      tag_139\n      tag_95\n      jump\t// in\n    tag_139:\n        /* \"#utility.yul\":2275:2311   */\n    tag_138:\n        /* \"#utility.yul\":2127:2318   */\n      swap3\n      swap2\n      pop\n      pop\n      jump\t// out\n        /* \"#utility.yul\":2324:2518   */\n    tag_51:\n        /* \"#utility.yul\":2364:2368   */\n      0x00\n        /* \"#utility.yul\":2384:2404   */\n      tag_141\n        /* \"#utility.yul\":2402:2403   */\n      dup3\n        /* \"#utility.yul\":2384:2404   */\n      tag_85\n      jump\t// in\n    tag_141:\n        /* \"#utility.yul\":2379:2404   */\n      swap2\n      pop\n        /* \"#utility.yul\":2418:2438   */\n      tag_142\n        /* \"#utility.yul\":2436:2437   */\n      dup4\n        /* \"#utility.yul\":2418:2438   */\n      tag_85\n      jump\t// in\n    tag_142:\n        /* \"#utility.yul\":2413:2438   */\n      swap3\n      pop\n        /* \"#utility.yul\":2462:2463   */\n      dup3\n        /* \"#utility.yul\":2459:2460   */\n      dup3\n        /* \"#utility.yul\":2455:2464   */\n      sub\n        /* \"#utility.yul\":2447:2464   */\n      swap1\n      pop\n        /* \"#utility.yul\":2486:2487   */\n      dup2\n        /* \"#utility.yul\":2480:2484   */\n      dup2\n        /* \"#utility.yul\":2477:2488   */\n      gt\n        /* \"#utility.yul\":2474:2511   */\n      iszero\n      tag_143\n      jumpi\n        /* \"#utility.yul\":2491:2509   */\n      tag_144\n      tag_95\n      jump\t// in\n    tag_144:\n        /* \"#utility.yul\":2474:2511   */\n    tag_143:\n        /* \"#utility.yul\":2324:2518   */\n      swap3\n      swap2\n      pop\n      pop\n      jump\t// out\n        /* \"#utility.yul\":2524:2704   */\n    tag_96:\n        /* \"#utility.yul\":2572:2649   */\n      0x4e487b7100000000000000000000000000000000000000000000000000000000\n        /* \"#utility.yul\":2569:2570   */\n      0x00\n        /* \"#utility.yul\":2562:2650   */\n      mstore\n        /* \"#utility.yul\":2669:2673   */\n      0x12\n        /* \"#utility.yul\":2666:2667   */\n      0x04\n        /* \"#utility.yul\":2659:2674   */\n      mstore\n        /* \"#utility.yul\":2693:2697   */\n      0x24\n        /* \"#utility.yul\":2690:2691   */\n      0x00\n        /* \"#utility.yul\":2683:2698   */\n      revert\n        /* \"#utility.yul\":2710:2895   */\n    tag_57:\n        /* \"#utility.yul\":2750:2751   */\n      0x00\n        /* \"#utility.yul\":2767:2787   */\n      tag_147\n        /* \"#utility.yul\":2785:2786   */\n      dup3\n        /* \"#utility.yul\":2767:2787   */\n      tag_85\n      jump\t// in\n    tag_147:\n        /* \"#utility.yul\":2762:2787   */\n      swap2\n      pop\n        /* \"#utility.yul\":2801:2821   */\n      tag_148\n        /* \"#utility.yul\":2819:2820   */\n      dup4\n        /* \"#utility.yul\":2801:2821   */\n      tag_85\n      jump\t// in\n    tag_148:\n        /* \"#utility.yul\":2796:2821   */\n      swap3\n      pop\n        /* \"#utility.yul\":2840:2841   */\n      dup3\n        /* \"#utility.yul\":2830:2865   */\n      tag_149\n      jumpi\n        /* \"#utility.yul\":2845:2863   */\n      tag_150\n      tag_96\n      jump\t// in\n    tag_150:\n        /* \"#utility.yul\":2830:2865   */\n    tag_149:\n        /* \"#utility.yul\":2887:2888   */\n      dup3\n        /* \"#utility.yul\":2884:2885   */\n      dup3\n        /* \"#utility.yul\":2880:2889   */\n      div\n        /* \"#utility.yul\":2875:2889   */\n      swap1\n      pop\n        /* \"#utility.yul\":2710:2895   */\n      swap3\n      swap2\n      pop\n      pop\n      jump\t// out\n        /* \"#utility.yul\":2901:3311   */\n    tag_59:\n        /* \"#utility.yul\":2941:2948   */\n      0x00\n        /* \"#utility.yul\":2964:2984   */\n      tag_152\n        /* \"#utility.yul\":2982:2983   */\n      dup3\n        /* \"#utility.yul\":2964:2984   */\n      tag_85\n      jump\t// in\n    tag_152:\n        /* \"#utility.yul\":2959:2984   */\n      swap2\n      pop\n        /* \"#utility.yul\":2998:3018   */\n      tag_153\n        /* \"#utility.yul\":3016:3017   */\n      dup4\n        /* \"#utility.yul\":2998:3018   */\n      tag_85\n      jump\t// in\n    tag_153:\n        /* \"#utility.yul\":2993:3018   */\n      swap3\n      pop\n        /* \"#utility.yul\":3053:3054   */\n      dup3\n        /* \"#utility.yul\":3050:3051   */\n      dup3\n        /* \"#utility.yul\":3046:3055   */\n      mul\n        /* \"#utility.yul\":3075:3105   */\n      tag_154\n        /* \"#utility.yul\":3093:3104   */\n      dup2\n        /* \"#utility.yul\":3075:3105   */\n      tag_85\n      jump\t// in\n    tag_154:\n        /* \"#utility.yul\":3064:3105   */\n      swap2\n      pop\n        /* \"#utility.yul\":3254:3255   */\n      dup3\n        /* \"#utility.yul\":3245:3252   */\n      dup3\n        /* \"#utility.yul\":3241:3256   */\n      div\n        /* \"#utility.yul\":3238:3239   */\n      dup5\n        /* \"#utility.yul\":3235:3257   */\n      eq\n        /* \"#utility.yul\":3215:3216   */\n      dup4\n        /* \"#utility.yul\":3208:3217   */\n      iszero\n        /* \"#utility.yul\":3188:3271   */\n      or\n        /* \"#utility.yul\":3165:3304   */\n      tag_155\n      jumpi\n        /* \"#utility.yul\":3284:3302   */\n      tag_156\n      tag_95\n      jump\t// in\n    tag_156:\n        /* \"#utility.yul\":3165:3304   */\n    tag_155:\n        /* \"#utility.yul\":2949:3311   */\n      pop\n        /* \"#utility.yul\":2901:3311   */\n      swap3\n      swap2\n      pop\n      pop\n      jump\t// out\n        /* \"#utility.yul\":3317:3486   */\n    tag_97:\n        /* \"#utility.yul\":3401:3412   */\n      0x00\n        /* \"#utility.yul\":3435:3441   */\n      dup3\n        /* \"#utility.yul\":3430:3433   */\n      dup3\n        /* \"#utility.yul\":3423:3442   */\n      mstore\n        /* \"#utility.yul\":3475:3479   */\n      0x20\n        /* \"#utility.yul\":3470:3473   */\n      dup3\n        /* \"#utility.yul\":3466:3480   */\n      add\n        /* \"#utility.yul\":3451:3480   */\n      swap1\n      pop\n        /* \"#utility.yul\":3317:3486   */\n      swap3\n      swap2\n      pop\n      pop\n      jump\t// out\n        /* \"#utility.yul\":3492:3666   */\n    tag_98:\n        /* \"#utility.yul\":3632:3658   */\n      0x436c69666620706572696f64206e6f7420726561636865640000000000000000\n        /* \"#utility.yul\":3628:3629   */\n      0x00\n        /* \"#utility.yul\":3620:3626   */\n      dup3\n        /* \"#utility.yul\":3616:3630   */\n      add\n        /* \"#utility.yul\":3609:3659   */\n      mstore\n        /* \"#utility.yul\":3492:3666   */\n      pop\n      jump\t// out\n        /* \"#utility.yul\":3672:4038   */\n    tag_99:\n        /* \"#utility.yul\":3814:3817   */\n      0x00\n        /* \"#utility.yul\":3835:3902   */\n      tag_160\n        /* \"#utility.yul\":3899:3901   */\n      0x18\n        /* \"#utility.yul\":3894:3897   */\n      dup4\n        /* \"#utility.yul\":3835:3902   */\n      tag_97\n      jump\t// in\n    tag_160:\n        /* \"#utility.yul\":3828:3902   */\n      swap2\n      pop\n        /* \"#utility.yul\":3911:4004   */\n      tag_161\n        /* \"#utility.yul\":4000:4003   */\n      dup3\n        /* \"#utility.yul\":3911:4004   */\n      tag_98\n      jump\t// in\n    tag_161:\n        /* \"#utility.yul\":4029:4031   */\n      0x20\n        /* \"#utility.yul\":4024:4027   */\n      dup3\n        /* \"#utility.yul\":4020:4032   */\n      add\n        /* \"#utility.yul\":4013:4032   */\n      swap1\n      pop\n        /* \"#utility.yul\":3672:4038   */\n      swap2\n      swap1\n      pop\n      jump\t// out\n        /* \"#utility.yul\":4044:4463   */\n    tag_65:\n        /* \"#utility.yul\":4210:4214   */\n      0x00\n        /* \"#utility.yul\":4248:4250   */\n      0x20\n        /* \"#utility.yul\":4237:4246   */\n      dup3\n        /* \"#utility.yul\":4233:4251   */\n      add\n        /* \"#utility.yul\":4225:4251   */\n      swap1\n      pop\n        /* \"#utility.yul\":4297:4306   */\n      dup2\n        /* \"#utility.yul\":4291:4295   */\n      dup2\n        /* \"#utility.yul\":4287:4307   */\n      sub\n        /* \"#utility.yul\":4283:4284   */\n      0x00\n        /* \"#utility.yul\":4272:4281   */\n      dup4\n        /* \"#utility.yul\":4268:4285   */\n      add\n        /* \"#utility.yul\":4261:4308   */\n      mstore\n        /* \"#utility.yul\":4325:4456   */\n      tag_163\n        /* \"#utility.yul\":4451:4455   */\n      dup2\n        /* \"#utility.yul\":4325:4456   */\n      tag_99\n      jump\t// in\n    tag_163:\n        /* \"#utility.yul\":4317:4456   */\n      swap1\n      pop\n        /* \"#utility.yul\":4044:4463   */\n      swap2\n      swap1\n      pop\n      jump\t// out\n        /* \"#utility.yul\":4469:4639   */\n    tag_100:\n        /* \"#utility.yul\":4609:4631   */\n      0x4e6f20746f6b656e7320746f2072656c65617365000000000000000000000000\n        /* \"#utility.yul\":4605:4606   */\n      0x00\n        /* \"#utility.yul\":4597:4603   */\n      dup3\n        /* \"#utility.yul\":4593:4607   */\n      add\n        /* \"#utility.yul\":4586:4632   */\n      mstore\n        /* \"#utility.yul\":4469:4639   */\n      pop\n      jump\t// out\n        /* \"#utility.yul\":4645:5011   */\n    tag_101:\n        /* \"#utility.yul\":4787:4790   */\n      0x00\n        /* \"#utility.yul\":4808:4875   */\n      tag_166\n        /* \"#utility.yul\":4872:4874   */\n      0x14\n        /* \"#utility.yul\":4867:4870   */\n      dup4\n        /* \"#utility.yul\":4808:4875   */\n      tag_97\n      jump\t// in\n    tag_166:\n        /* \"#utility.yul\":4801:4875   */\n      swap2\n      pop\n        /* \"#utility.yul\":4884:4977   */\n      tag_167\n        /* \"#utility.yul\":4973:4976   */\n      dup3\n        /* \"#utility.yul\":4884:4977   */\n      tag_100\n      jump\t// in\n    tag_167:\n        /* \"#utility.yul\":5002:5004   */\n      0x20\n        /* \"#utility.yul\":4997:5000   */\n      dup3\n        /* \"#utility.yul\":4993:5005   */\n      add\n        /* \"#utility.yul\":4986:5005   */\n      swap1\n      pop\n        /* \"#utility.yul\":4645:5011   */\n      swap2\n      swap1\n      pop\n      jump\t// out\n        /* \"#utility.yul\":5017:5436   */\n    tag_76:\n        /* \"#utility.yul\":5183:5187   */\n      0x00\n        /* \"#utility.yul\":5221:5223   */\n      0x20\n        /* \"#utility.yul\":5210:5219   */\n      dup3\n        /* \"#utility.yul\":5206:5224   */\n      add\n        /* \"#utility.yul\":5198:5224   */\n      swap1\n      pop\n        /* \"#utility.yul\":5270:5279   */\n      dup2\n        /* \"#utility.yul\":5264:5268   */\n      dup2\n        /* \"#utility.yul\":5260:5280   */\n      sub\n        /* \"#utility.yul\":5256:5257   */\n      0x00\n        /* \"#utility.yul\":5245:5254   */\n      dup4\n        /* \"#utility.yul\":5241:5258   */\n      add\n        /* \"#utility.yul\":5234:5281   */\n      mstore\n        /* \"#utility.yul\":5298:5429   */\n      tag_169\n        /* \"#utility.yul\":5424:5428   */\n      dup2\n        /* \"#utility.yul\":5298:5429   */\n      tag_101\n      jump\t// in\n    tag_169:\n        /* \"#utility.yul\":5290:5429   */\n      swap1\n      pop\n        /* \"#utility.yul\":5017:5436   */\n      swap2\n      swap1\n      pop\n      jump\t// out\n        /* \"#utility.yul\":5442:5774   */\n    tag_79:\n        /* \"#utility.yul\":5563:5567   */\n      0x00\n        /* \"#utility.yul\":5601:5603   */\n      0x40\n        /* \"#utility.yul\":5590:5599   */\n      dup3\n        /* \"#utility.yul\":5586:5604   */\n      add\n        /* \"#utility.yul\":5578:5604   */\n      swap1\n      pop\n        /* \"#utility.yul\":5614:5685   */\n      tag_171\n        /* \"#utility.yul\":5682:5683   */\n      0x00\n        /* \"#utility.yul\":5671:5680   */\n      dup4\n        /* \"#utility.yul\":5667:5684   */\n      add\n        /* \"#utility.yul\":5658:5664   */\n      dup6\n        /* \"#utility.yul\":5614:5685   */\n      tag_89\n      jump\t// in\n    tag_171:\n        /* \"#utility.yul\":5695:5767   */\n      tag_172\n        /* \"#utility.yul\":5763:5765   */\n      0x20\n        /* \"#utility.yul\":5752:5761   */\n      dup4\n        /* \"#utility.yul\":5748:5766   */\n      add\n        /* \"#utility.yul\":5739:5745   */\n      dup5\n        /* \"#utility.yul\":5695:5767   */\n      tag_86\n      jump\t// in\n    tag_172:\n        /* \"#utility.yul\":5442:5774   */\n      swap4\n      swap3\n      pop\n      pop\n      pop\n      jump\t// out\n        /* \"#utility.yul\":5861:5978   */\n    tag_103:\n        /* \"#utility.yul\":5970:5971   */\n      0x00\n        /* \"#utility.yul\":5967:5968   */\n      dup1\n        /* \"#utility.yul\":5960:5972   */\n      revert\n        /* \"#utility.yul\":6107:6197   */\n    tag_105:\n        /* \"#utility.yul\":6141:6148   */\n      0x00\n        /* \"#utility.yul\":6184:6189   */\n      dup2\n        /* \"#utility.yul\":6177:6190   */\n      iszero\n        /* \"#utility.yul\":6170:6191   */\n      iszero\n        /* \"#utility.yul\":6159:6191   */\n      swap1\n      pop\n        /* \"#utility.yul\":6107:6197   */\n      swap2\n      swap1\n      pop\n      jump\t// out\n        /* \"#utility.yul\":6203:6319   */\n    tag_106:\n        /* \"#utility.yul\":6273:6294   */\n      tag_178\n        /* \"#utility.yul\":6288:6293   */\n      dup2\n        /* \"#utility.yul\":6273:6294   */\n      tag_105\n      jump\t// in\n    tag_178:\n        /* \"#utility.yul\":6266:6271   */\n      dup2\n        /* \"#utility.yul\":6263:6295   */\n      eq\n        /* \"#utility.yul\":6253:6313   */\n      tag_179\n      jumpi\n        /* \"#utility.yul\":6309:6310   */\n      0x00\n        /* \"#utility.yul\":6306:6307   */\n      dup1\n        /* \"#utility.yul\":6299:6311   */\n      revert\n        /* \"#utility.yul\":6253:6313   */\n    tag_179:\n        /* \"#utility.yul\":6203:6319   */\n      pop\n      jump\t// out\n        /* \"#utility.yul\":6325:6462   */\n    tag_107:\n        /* \"#utility.yul\":6379:6384   */\n      0x00\n        /* \"#utility.yul\":6410:6416   */\n      dup2\n        /* \"#utility.yul\":6404:6417   */\n      mload\n        /* \"#utility.yul\":6395:6417   */\n      swap1\n      pop\n        /* \"#utility.yul\":6426:6456   */\n      tag_181\n        /* \"#utility.yul\":6450:6455   */\n      dup2\n        /* \"#utility.yul\":6426:6456   */\n      tag_106\n      jump\t// in\n    tag_181:\n        /* \"#utility.yul\":6325:6462   */\n      swap3\n      swap2\n      pop\n      pop\n      jump\t// out\n        /* \"#utility.yul\":6468:6813   */\n    tag_83:\n        /* \"#utility.yul\":6535:6541   */\n      0x00\n        /* \"#utility.yul\":6584:6586   */\n      0x20\n        /* \"#utility.yul\":6572:6581   */\n      dup3\n        /* \"#utility.yul\":6563:6570   */\n      dup5\n        /* \"#utility.yul\":6559:6582   */\n      sub\n        /* \"#utility.yul\":6555:6587   */\n      slt\n        /* \"#utility.yul\":6552:6671   */\n      iszero\n      tag_183\n      jumpi\n        /* \"#utility.yul\":6590:6669   */\n      tag_184\n      tag_103\n      jump\t// in\n    tag_184:\n        /* \"#utility.yul\":6552:6671   */\n    tag_183:\n        /* \"#utility.yul\":6710:6711   */\n      0x00\n        /* \"#utility.yul\":6735:6796   */\n      tag_185\n        /* \"#utility.yul\":6788:6795   */\n      dup5\n        /* \"#utility.yul\":6779:6785   */\n      dup3\n        /* \"#utility.yul\":6768:6777   */\n      dup6\n        /* \"#utility.yul\":6764:6786   */\n      add\n        /* \"#utility.yul\":6735:6796   */\n      tag_107\n      jump\t// in\n    tag_185:\n        /* \"#utility.yul\":6725:6796   */\n      swap2\n      pop\n        /* \"#utility.yul\":6681:6806   */\n      pop\n        /* \"#utility.yul\":6468:6813   */\n      swap3\n      swap2\n      pop\n      pop\n      jump\t// out\n\n    auxdata: 0xa26469706673582212204fbb02d8e229bbbe562bb03f62993d0af66873846b12b556b4e6cf3d218e51ca64736f6c634300081a0033\n}\n",
				"bytecode": {
					"linkReferences": {},
					"object": "60806040526301e133806002556303c2670060035569234b04ae4f23156b000060055560186005546100319190610125565b60065534801561003f575f80fd5b50604051610ade380380610ade833981810160405281019061006191906101dd565b825f806101000a81548173ffffffffffffffffffffffffffffffffffffffff021916908373ffffffffffffffffffffffffffffffffffffffff1602179055508160015f6101000a81548173ffffffffffffffffffffffffffffffffffffffff021916908373ffffffffffffffffffffffffffffffffffffffff1602179055508060048190555050505061022d565b5f819050919050565b7f4e487b71000000000000000000000000000000000000000000000000000000005f52601260045260245ffd5b5f61012f826100ef565b915061013a836100ef565b92508261014a576101496100f8565b5b828204905092915050565b5f80fd5b5f73ffffffffffffffffffffffffffffffffffffffff82169050919050565b5f61018282610159565b9050919050565b61019281610178565b811461019c575f80fd5b50565b5f815190506101ad81610189565b92915050565b6101bc816100ef565b81146101c6575f80fd5b50565b5f815190506101d7816101b3565b92915050565b5f805f606084860312156101f4576101f3610155565b5b5f6102018682870161019f565b93505060206102128682870161019f565b9250506040610223868287016101c9565b9150509250925092565b6108a48061023a5f395ff3fe608060405234801561000f575f80fd5b506004361061009c575f3560e01c8063a0a1a7d711610064578063a0a1a7d714610122578063be9a655514610140578063bef399631461015e578063c1869bd41461017c578063d85349f71461019a5761009c565b80631514617e146100a05780633da2f909146100be578063484c553d146100dc5780637e1c0c09146100fa57806386d1a69f14610118575b5f80fd5b6100a86101b8565b6040516100b591906104ed565b60405180910390f35b6100c66101be565b6040516100d391906104ed565b60405180910390f35b6100e46101c4565b6040516100f191906104ed565b60405180910390f35b61010261025d565b60405161010f91906104ed565b60405180910390f35b610120610263565b005b61012a61047b565b6040516101379190610545565b60405180910390f35b6101486104a0565b60405161015591906104ed565b60405180910390f35b6101666104a6565b60405161017391906104ed565b60405180910390f35b6101846104ac565b60405161019191906105b9565b60405180910390f35b6101a26104cf565b6040516101af91906104ed565b60405180910390f35b60035481565b60065481565b5f6002546004546101d591906105ff565b4210156101e4575f905061025a565b5f600454426101f39190610632565b90505f60035460025461020691906105ff565b8210610216576005549050610247565b5f62278d00600254846102299190610632565b6102339190610692565b90506006548161024391906106c2565b9150505b600754816102559190610632565b925050505b90565b60055481565b60025460045461027391906105ff565b4210156102b5576040517f08c379a00000000000000000000000000000000000000000000000000000000081526004016102ac9061075d565b60405180910390fd5b5f600454426102c49190610632565b90505f6003546002546102d791906105ff565b82106102e7576005549050610318565b5f62278d00600254846102fa9190610632565b6103049190610692565b90506006548161031491906106c2565b9150505b5f600754826103279190610632565b90505f811161036b576040517f08c379a0000000000000000000000000000000000000000000000000000000008152600401610362906107c5565b60405180910390fd5b8060075f82825461037c91906105ff565b925050819055505f8054906101000a900473ffffffffffffffffffffffffffffffffffffffff1673ffffffffffffffffffffffffffffffffffffffff1663a9059cbb60015f9054906101000a900473ffffffffffffffffffffffffffffffffffffffff16836040518363ffffffff1660e01b81526004016103fe9291906107e3565b6020604051808303815f875af115801561041a573d5f803e3d5ffd5b505050506040513d601f19601f8201168201806040525081019061043e9190610843565b507fa1598fb976f7dd9df63fd18699c54a5744a6a95364166bbd0d77a2f6c8438b1f8160405161046e91906104ed565b60405180910390a1505050565b60015f9054906101000a900473ffffffffffffffffffffffffffffffffffffffff1681565b60045481565b60075481565b5f8054906101000a900473ffffffffffffffffffffffffffffffffffffffff1681565b60025481565b5f819050919050565b6104e7816104d5565b82525050565b5f6020820190506105005f8301846104de565b92915050565b5f73ffffffffffffffffffffffffffffffffffffffff82169050919050565b5f61052f82610506565b9050919050565b61053f81610525565b82525050565b5f6020820190506105585f830184610536565b92915050565b5f819050919050565b5f61058161057c61057784610506565b61055e565b610506565b9050919050565b5f61059282610567565b9050919050565b5f6105a382610588565b9050919050565b6105b381610599565b82525050565b5f6020820190506105cc5f8301846105aa565b92915050565b7f4e487b71000000000000000000000000000000000000000000000000000000005f52601160045260245ffd5b5f610609826104d5565b9150610614836104d5565b925082820190508082111561062c5761062b6105d2565b5b92915050565b5f61063c826104d5565b9150610647836104d5565b925082820390508181111561065f5761065e6105d2565b5b92915050565b7f4e487b71000000000000000000000000000000000000000000000000000000005f52601260045260245ffd5b5f61069c826104d5565b91506106a7836104d5565b9250826106b7576106b6610665565b5b828204905092915050565b5f6106cc826104d5565b91506106d7836104d5565b92508282026106e5816104d5565b915082820484148315176106fc576106fb6105d2565b5b5092915050565b5f82825260208201905092915050565b7f436c69666620706572696f64206e6f74207265616368656400000000000000005f82015250565b5f610747601883610703565b915061075282610713565b602082019050919050565b5f6020820190508181035f8301526107748161073b565b9050919050565b7f4e6f20746f6b656e7320746f2072656c656173650000000000000000000000005f82015250565b5f6107af601483610703565b91506107ba8261077b565b602082019050919050565b5f6020820190508181035f8301526107dc816107a3565b9050919050565b5f6040820190506107f65f830185610536565b61080360208301846104de565b9392505050565b5f80fd5b5f8115159050919050565b6108228161080e565b811461082c575f80fd5b50565b5f8151905061083d81610819565b92915050565b5f602082840312156108585761085761080a565b5b5f6108658482850161082f565b9150509291505056fea26469706673582212204fbb02d8e229bbbe562bb03f62993d0af66873846b12b556b4e6cf3d218e51ca64736f6c634300081a0033",
					"opcodes": "PUSH1 0x80 PUSH1 0x40 MSTORE PUSH4 0x1E13380 PUSH1 0x2 SSTORE PUSH4 0x3C26700 PUSH1 0x3 SSTORE PUSH10 0x234B04AE4F23156B0000 PUSH1 0x5 SSTORE PUSH1 0x18 PUSH1 0x5 SLOAD PUSH2 0x31 SWAP2 SWAP1 PUSH2 0x125 JUMP JUMPDEST PUSH1 0x6 SSTORE CALLVALUE DUP1 ISZERO PUSH2 0x3F JUMPI PUSH0 DUP1 REVERT JUMPDEST POP PUSH1 0x40 MLOAD PUSH2 0xADE CODESIZE SUB DUP1 PUSH2 0xADE DUP4 CODECOPY DUP2 DUP2 ADD PUSH1 0x40 MSTORE DUP2 ADD SWAP1 PUSH2 0x61 SWAP2 SWAP1 PUSH2 0x1DD JUMP JUMPDEST DUP3 PUSH0 DUP1 PUSH2 0x100 EXP DUP2 SLOAD DUP2 PUSH20 0xFFFFFFFFFFFFFFFFFFFFFFFFFFFFFFFFFFFFFFFF MUL NOT AND SWAP1 DUP4 PUSH20 0xFFFFFFFFFFFFFFFFFFFFFFFFFFFFFFFFFFFFFFFF AND MUL OR SWAP1 SSTORE POP DUP2 PUSH1 0x1 PUSH0 PUSH2 0x100 EXP DUP2 SLOAD DUP2 PUSH20 0xFFFFFFFFFFFFFFFFFFFFFFFFFFFFFFFFFFFFFFFF MUL NOT AND SWAP1 DUP4 PUSH20 0xFFFFFFFFFFFFFFFFFFFFFFFFFFFFFFFFFFFFFFFF AND MUL OR SWAP1 SSTORE POP DUP1 PUSH1 0x4 DUP2 SWAP1 SSTORE POP POP POP POP PUSH2 0x22D JUMP JUMPDEST PUSH0 DUP2 SWAP1 POP SWAP2 SWAP1 POP JUMP JUMPDEST PUSH32 0x4E487B7100000000000000000000000000000000000000000000000000000000 PUSH0 MSTORE PUSH1 0x12 PUSH1 0x4 MSTORE PUSH1 0x24 PUSH0 REVERT JUMPDEST PUSH0 PUSH2 0x12F DUP3 PUSH2 0xEF JUMP JUMPDEST SWAP2 POP PUSH2 0x13A DUP4 PUSH2 0xEF JUMP JUMPDEST SWAP3 POP DUP3 PUSH2 0x14A JUMPI PUSH2 0x149 PUSH2 0xF8 JUMP JUMPDEST JUMPDEST DUP3 DUP3 DIV SWAP1 POP SWAP3 SWAP2 POP POP JUMP JUMPDEST PUSH0 DUP1 REVERT JUMPDEST PUSH0 PUSH20 0xFFFFFFFFFFFFFFFFFFFFFFFFFFFFFFFFFFFFFFFF DUP3 AND SWAP1 POP SWAP2 SWAP1 POP JUMP JUMPDEST PUSH0 PUSH2 0x182 DUP3 PUSH2 0x159 JUMP JUMPDEST SWAP1 POP SWAP2 SWAP1 POP JUMP JUMPDEST PUSH2 0x192 DUP2 PUSH2 0x178 JUMP JUMPDEST DUP2 EQ PUSH2 0x19C JUMPI PUSH0 DUP1 REVERT JUMPDEST POP JUMP JUMPDEST PUSH0 DUP2 MLOAD SWAP1 POP PUSH2 0x1AD DUP2 PUSH2 0x189 JUMP JUMPDEST SWAP3 SWAP2 POP POP JUMP JUMPDEST PUSH2 0x1BC DUP2 PUSH2 0xEF JUMP JUMPDEST DUP2 EQ PUSH2 0x1C6 JUMPI PUSH0 DUP1 REVERT JUMPDEST POP JUMP JUMPDEST PUSH0 DUP2 MLOAD SWAP1 POP PUSH2 0x1D7 DUP2 PUSH2 0x1B3 JUMP JUMPDEST SWAP3 SWAP2 POP POP JUMP JUMPDEST PUSH0 DUP1 PUSH0 PUSH1 0x60 DUP5 DUP7 SUB SLT ISZERO PUSH2 0x1F4 JUMPI PUSH2 0x1F3 PUSH2 0x155 JUMP JUMPDEST JUMPDEST PUSH0 PUSH2 0x201 DUP7 DUP3 DUP8 ADD PUSH2 0x19F JUMP JUMPDEST SWAP4 POP POP PUSH1 0x20 PUSH2 0x212 DUP7 DUP3 DUP8 ADD PUSH2 0x19F JUMP JUMPDEST SWAP3 POP POP PUSH1 0x40 PUSH2 0x223 DUP7 DUP3 DUP8 ADD PUSH2 0x1C9 JUMP JUMPDEST SWAP2 POP POP SWAP3 POP SWAP3 POP SWAP3 JUMP JUMPDEST PUSH2 0x8A4 DUP1 PUSH2 0x23A PUSH0 CODECOPY PUSH0 RETURN INVALID PUSH1 0x80 PUSH1 0x40 MSTORE CALLVALUE DUP1 ISZERO PUSH2 0xF JUMPI PUSH0 DUP1 REVERT JUMPDEST POP PUSH1 0x4 CALLDATASIZE LT PUSH2 0x9C JUMPI PUSH0 CALLDATALOAD PUSH1 0xE0 SHR DUP1 PUSH4 0xA0A1A7D7 GT PUSH2 0x64 JUMPI DUP1 PUSH4 0xA0A1A7D7 EQ PUSH2 0x122 JUMPI DUP1 PUSH4 0xBE9A6555 EQ PUSH2 0x140 JUMPI DUP1 PUSH4 0xBEF39963 EQ PUSH2 0x15E JUMPI DUP1 PUSH4 0xC1869BD4 EQ PUSH2 0x17C JUMPI DUP1 PUSH4 0xD85349F7 EQ PUSH2 0x19A JUMPI PUSH2 0x9C JUMP JUMPDEST DUP1 PUSH4 0x1514617E EQ PUSH2 0xA0 JUMPI DUP1 PUSH4 0x3DA2F909 EQ PUSH2 0xBE JUMPI DUP1 PUSH4 0x484C553D EQ PUSH2 0xDC JUMPI DUP1 PUSH4 0x7E1C0C09 EQ PUSH2 0xFA JUMPI DUP1 PUSH4 0x86D1A69F EQ PUSH2 0x118 JUMPI JUMPDEST PUSH0 DUP1 REVERT JUMPDEST PUSH2 0xA8 PUSH2 0x1B8 JUMP JUMPDEST PUSH1 0x40 MLOAD PUSH2 0xB5 SWAP2 SWAP1 PUSH2 0x4ED JUMP JUMPDEST PUSH1 0x40 MLOAD DUP1 SWAP2 SUB SWAP1 RETURN JUMPDEST PUSH2 0xC6 PUSH2 0x1BE JUMP JUMPDEST PUSH1 0x40 MLOAD PUSH2 0xD3 SWAP2 SWAP1 PUSH2 0x4ED JUMP JUMPDEST PUSH1 0x40 MLOAD DUP1 SWAP2 SUB SWAP1 RETURN JUMPDEST PUSH2 0xE4 PUSH2 0x1C4 JUMP JUMPDEST PUSH1 0x40 MLOAD PUSH2 0xF1 SWAP2 SWAP1 PUSH2 0x4ED JUMP JUMPDEST PUSH1 0x40 MLOAD DUP1 SWAP2 SUB SWAP1 RETURN JUMPDEST PUSH2 0x102 PUSH2 0x25D JUMP JUMPDEST PUSH1 0x40 MLOAD PUSH2 0x10F SWAP2 SWAP1 PUSH2 0x4ED JUMP JUMPDEST PUSH1 0x40 MLOAD DUP1 SWAP2 SUB SWAP1 RETURN JUMPDEST PUSH2 0x120 PUSH2 0x263 JUMP JUMPDEST STOP JUMPDEST PUSH2 0x12A PUSH2 0x47B JUMP JUMPDEST PUSH1 0x40 MLOAD PUSH2 0x137 SWAP2 SWAP1 PUSH2 0x545 JUMP JUMPDEST PUSH1 0x40 MLOAD DUP1 SWAP2 SUB SWAP1 RETURN JUMPDEST PUSH2 0x148 PUSH2 0x4A0 JUMP JUMPDEST PUSH1 0x40 MLOAD PUSH2 0x155 SWAP2 SWAP1 PUSH2 0x4ED JUMP JUMPDEST PUSH1 0x40 MLOAD DUP1 SWAP2 SUB SWAP1 RETURN JUMPDEST PUSH2 0x166 PUSH2 0x4A6 JUMP JUMPDEST PUSH1 0x40 MLOAD PUSH2 0x173 SWAP2 SWAP1 PUSH2 0x4ED JUMP JUMPDEST PUSH1 0x40 MLOAD DUP1 SWAP2 SUB SWAP1 RETURN JUMPDEST PUSH2 0x184 PUSH2 0x4AC JUMP JUMPDEST PUSH1 0x40 MLOAD PUSH2 0x191 SWAP2 SWAP1 PUSH2 0x5B9 JUMP JUMPDEST PUSH1 0x40 MLOAD DUP1 SWAP2 SUB SWAP1 RETURN JUMPDEST PUSH2 0x1A2 PUSH2 0x4CF JUMP JUMPDEST PUSH1 0x40 MLOAD PUSH2 0x1AF SWAP2 SWAP1 PUSH2 0x4ED JUMP JUMPDEST PUSH1 0x40 MLOAD DUP1 SWAP2 SUB SWAP1 RETURN JUMPDEST PUSH1 0x3 SLOAD DUP2 JUMP JUMPDEST PUSH1 0x6 SLOAD DUP2 JUMP JUMPDEST PUSH0 PUSH1 0x2 SLOAD PUSH1 0x4 SLOAD PUSH2 0x1D5 SWAP2 SWAP1 PUSH2 0x5FF JUMP JUMPDEST TIMESTAMP LT ISZERO PUSH2 0x1E4 JUMPI PUSH0 SWAP1 POP PUSH2 0x25A JUMP JUMPDEST PUSH0 PUSH1 0x4 SLOAD TIMESTAMP PUSH2 0x1F3 SWAP2 SWAP1 PUSH2 0x632 JUMP JUMPDEST SWAP1 POP PUSH0 PUSH1 0x3 SLOAD PUSH1 0x2 SLOAD PUSH2 0x206 SWAP2 SWAP1 PUSH2 0x5FF JUMP JUMPDEST DUP3 LT PUSH2 0x216 JUMPI PUSH1 0x5 SLOAD SWAP1 POP PUSH2 0x247 JUMP JUMPDEST PUSH0 PUSH3 0x278D00 PUSH1 0x2 SLOAD DUP5 PUSH2 0x229 SWAP2 SWAP1 PUSH2 0x632 JUMP JUMPDEST PUSH2 0x233 SWAP2 SWAP1 PUSH2 0x692 JUMP JUMPDEST SWAP1 POP PUSH1 0x6 SLOAD DUP2 PUSH2 0x243 SWAP2 SWAP1 PUSH2 0x6C2 JUMP JUMPDEST SWAP2 POP POP JUMPDEST PUSH1 0x7 SLOAD DUP2 PUSH2 0x255 SWAP2 SWAP1 PUSH2 0x632 JUMP JUMPDEST SWAP3 POP POP POP JUMPDEST SWAP1 JUMP JUMPDEST PUSH1 0x5 SLOAD DUP2 JUMP JUMPDEST PUSH1 0x2 SLOAD PUSH1 0x4 SLOAD PUSH2 0x273 SWAP2 SWAP1 PUSH2 0x5FF JUMP JUMPDEST TIMESTAMP LT ISZERO PUSH2 0x2B5 JUMPI PUSH1 0x40 MLOAD PUSH32 0x8C379A000000000000000000000000000000000000000000000000000000000 DUP2 MSTORE PUSH1 0x4 ADD PUSH2 0x2AC SWAP1 PUSH2 0x75D JUMP JUMPDEST PUSH1 0x40 MLOAD DUP1 SWAP2 SUB SWAP1 REVERT JUMPDEST PUSH0 PUSH1 0x4 SLOAD TIMESTAMP PUSH2 0x2C4 SWAP2 SWAP1 PUSH2 0x632 JUMP JUMPDEST SWAP1 POP PUSH0 PUSH1 0x3 SLOAD PUSH1 0x2 SLOAD PUSH2 0x2D7 SWAP2 SWAP1 PUSH2 0x5FF JUMP JUMPDEST DUP3 LT PUSH2 0x2E7 JUMPI PUSH1 0x5 SLOAD SWAP1 POP PUSH2 0x318 JUMP JUMPDEST PUSH0 PUSH3 0x278D00 PUSH1 0x2 SLOAD DUP5 PUSH2 0x2FA SWAP2 SWAP1 PUSH2 0x632 JUMP JUMPDEST PUSH2 0x304 SWAP2 SWAP1 PUSH2 0x692 JUMP JUMPDEST SWAP1 POP PUSH1 0x6 SLOAD DUP2 PUSH2 0x314 SWAP2 SWAP1 PUSH2 0x6C2 JUMP JUMPDEST SWAP2 POP POP JUMPDEST PUSH0 PUSH1 0x7 SLOAD DUP3 PUSH2 0x327 SWAP2 SWAP1 PUSH2 0x632 JUMP JUMPDEST SWAP1 POP PUSH0 DUP2 GT PUSH2 0x36B JUMPI PUSH1 0x40 MLOAD PUSH32 0x8C379A000000000000000000000000000000000000000000000000000000000 DUP2 MSTORE PUSH1 0x4 ADD PUSH2 0x362 SWAP1 PUSH2 0x7C5 JUMP JUMPDEST PUSH1 0x40 MLOAD DUP1 SWAP2 SUB SWAP1 REVERT JUMPDEST DUP1 PUSH1 0x7 PUSH0 DUP3 DUP3 SLOAD PUSH2 0x37C SWAP2 SWAP1 PUSH2 0x5FF JUMP JUMPDEST SWAP3 POP POP DUP2 SWAP1 SSTORE POP PUSH0 DUP1 SLOAD SWAP1 PUSH2 0x100 EXP SWAP1 DIV PUSH20 0xFFFFFFFFFFFFFFFFFFFFFFFFFFFFFFFFFFFFFFFF AND PUSH20 0xFFFFFFFFFFFFFFFFFFFFFFFFFFFFFFFFFFFFFFFF AND PUSH4 0xA9059CBB PUSH1 0x1 PUSH0 SWAP1 SLOAD SWAP1 PUSH2 0x100 EXP SWAP1 DIV PUSH20 0xFFFFFFFFFFFFFFFFFFFFFFFFFFFFFFFFFFFFFFFF AND DUP4 PUSH1 0x40 MLOAD DUP4 PUSH4 0xFFFFFFFF AND PUSH1 0xE0 SHL DUP2 MSTORE PUSH1 0x4 ADD PUSH2 0x3FE SWAP3 SWAP2 SWAP1 PUSH2 0x7E3 JUMP JUMPDEST PUSH1 0x20 PUSH1 0x40 MLOAD DUP1 DUP4 SUB DUP2 PUSH0 DUP8 GAS CALL ISZERO DUP1 ISZERO PUSH2 0x41A JUMPI RETURNDATASIZE PUSH0 DUP1 RETURNDATACOPY RETURNDATASIZE PUSH0 REVERT JUMPDEST POP POP POP POP PUSH1 0x40 MLOAD RETURNDATASIZE PUSH1 0x1F NOT PUSH1 0x1F DUP3 ADD AND DUP3 ADD DUP1 PUSH1 0x40 MSTORE POP DUP2 ADD SWAP1 PUSH2 0x43E SWAP2 SWAP1 PUSH2 0x843 JUMP JUMPDEST POP PUSH32 0xA1598FB976F7DD9DF63FD18699C54A5744A6A95364166BBD0D77A2F6C8438B1F DUP2 PUSH1 0x40 MLOAD PUSH2 0x46E SWAP2 SWAP1 PUSH2 0x4ED JUMP JUMPDEST PUSH1 0x40 MLOAD DUP1 SWAP2 SUB SWAP1 LOG1 POP POP POP JUMP JUMPDEST PUSH1 0x1 PUSH0 SWAP1 SLOAD SWAP1 PUSH2 0x100 EXP SWAP1 DIV PUSH20 0xFFFFFFFFFFFFFFFFFFFFFFFFFFFFFFFFFFFFFFFF AND DUP2 JUMP JUMPDEST PUSH1 0x4 SLOAD DUP2 JUMP JUMPDEST PUSH1 0x7 SLOAD DUP2 JUMP JUMPDEST PUSH0 DUP1 SLOAD SWAP1 PUSH2 0x100 EXP SWAP1 DIV PUSH20 0xFFFFFFFFFFFFFFFFFFFFFFFFFFFFFFFFFFFFFFFF AND DUP2 JUMP JUMPDEST PUSH1 0x2 SLOAD DUP2 JUMP JUMPDEST PUSH0 DUP2 SWAP1 POP SWAP2 SWAP1 POP JUMP JUMPDEST PUSH2 0x4E7 DUP2 PUSH2 0x4D5 JUMP JUMPDEST DUP3 MSTORE POP POP JUMP JUMPDEST PUSH0 PUSH1 0x20 DUP3 ADD SWAP1 POP PUSH2 0x500 PUSH0 DUP4 ADD DUP5 PUSH2 0x4DE JUMP JUMPDEST SWAP3 SWAP2 POP POP JUMP JUMPDEST PUSH0 PUSH20 0xFFFFFFFFFFFFFFFFFFFFFFFFFFFFFFFFFFFFFFFF DUP3 AND SWAP1 POP SWAP2 SWAP1 POP JUMP JUMPDEST PUSH0 PUSH2 0x52F DUP3 PUSH2 0x506 JUMP JUMPDEST SWAP1 POP SWAP2 SWAP1 POP JUMP JUMPDEST PUSH2 0x53F DUP2 PUSH2 0x525 JUMP JUMPDEST DUP3 MSTORE POP POP JUMP JUMPDEST PUSH0 PUSH1 0x20 DUP3 ADD SWAP1 POP PUSH2 0x558 PUSH0 DUP4 ADD DUP5 PUSH2 0x536 JUMP JUMPDEST SWAP3 SWAP2 POP POP JUMP JUMPDEST PUSH0 DUP2 SWAP1 POP SWAP2 SWAP1 POP JUMP JUMPDEST PUSH0 PUSH2 0x581 PUSH2 0x57C PUSH2 0x577 DUP5 PUSH2 0x506 JUMP JUMPDEST PUSH2 0x55E JUMP JUMPDEST PUSH2 0x506 JUMP JUMPDEST SWAP1 POP SWAP2 SWAP1 POP JUMP JUMPDEST PUSH0 PUSH2 0x592 DUP3 PUSH2 0x567 JUMP JUMPDEST SWAP1 POP SWAP2 SWAP1 POP JUMP JUMPDEST PUSH0 PUSH2 0x5A3 DUP3 PUSH2 0x588 JUMP JUMPDEST SWAP1 POP SWAP2 SWAP1 POP JUMP JUMPDEST PUSH2 0x5B3 DUP2 PUSH2 0x599 JUMP JUMPDEST DUP3 MSTORE POP POP JUMP JUMPDEST PUSH0 PUSH1 0x20 DUP3 ADD SWAP1 POP PUSH2 0x5CC PUSH0 DUP4 ADD DUP5 PUSH2 0x5AA JUMP JUMPDEST SWAP3 SWAP2 POP POP JUMP JUMPDEST PUSH32 0x4E487B7100000000000000000000000000000000000000000000000000000000 PUSH0 MSTORE PUSH1 0x11 PUSH1 0x4 MSTORE PUSH1 0x24 PUSH0 REVERT JUMPDEST PUSH0 PUSH2 0x609 DUP3 PUSH2 0x4D5 JUMP JUMPDEST SWAP2 POP PUSH2 0x614 DUP4 PUSH2 0x4D5 JUMP JUMPDEST SWAP3 POP DUP3 DUP3 ADD SWAP1 POP DUP1 DUP3 GT ISZERO PUSH2 0x62C JUMPI PUSH2 0x62B PUSH2 0x5D2 JUMP JUMPDEST JUMPDEST SWAP3 SWAP2 POP POP JUMP JUMPDEST PUSH0 PUSH2 0x63C DUP3 PUSH2 0x4D5 JUMP JUMPDEST SWAP2 POP PUSH2 0x647 DUP4 PUSH2 0x4D5 JUMP JUMPDEST SWAP3 POP DUP3 DUP3 SUB SWAP1 POP DUP2 DUP2 GT ISZERO PUSH2 0x65F JUMPI PUSH2 0x65E PUSH2 0x5D2 JUMP JUMPDEST JUMPDEST SWAP3 SWAP2 POP POP JUMP JUMPDEST PUSH32 0x4E487B7100000000000000000000000000000000000000000000000000000000 PUSH0 MSTORE PUSH1 0x12 PUSH1 0x4 MSTORE PUSH1 0x24 PUSH0 REVERT JUMPDEST PUSH0 PUSH2 0x69C DUP3 PUSH2 0x4D5 JUMP JUMPDEST SWAP2 POP PUSH2 0x6A7 DUP4 PUSH2 0x4D5 JUMP JUMPDEST SWAP3 POP DUP3 PUSH2 0x6B7 JUMPI PUSH2 0x6B6 PUSH2 0x665 JUMP JUMPDEST JUMPDEST DUP3 DUP3 DIV SWAP1 POP SWAP3 SWAP2 POP POP JUMP JUMPDEST PUSH0 PUSH2 0x6CC DUP3 PUSH2 0x4D5 JUMP JUMPDEST SWAP2 POP PUSH2 0x6D7 DUP4 PUSH2 0x4D5 JUMP JUMPDEST SWAP3 POP DUP3 DUP3 MUL PUSH2 0x6E5 DUP2 PUSH2 0x4D5 JUMP JUMPDEST SWAP2 POP DUP3 DUP3 DIV DUP5 EQ DUP4 ISZERO OR PUSH2 0x6FC JUMPI PUSH2 0x6FB PUSH2 0x5D2 JUMP JUMPDEST JUMPDEST POP SWAP3 SWAP2 POP POP JUMP JUMPDEST PUSH0 DUP3 DUP3 MSTORE PUSH1 0x20 DUP3 ADD SWAP1 POP SWAP3 SWAP2 POP POP JUMP JUMPDEST PUSH32 0x436C69666620706572696F64206E6F7420726561636865640000000000000000 PUSH0 DUP3 ADD MSTORE POP JUMP JUMPDEST PUSH0 PUSH2 0x747 PUSH1 0x18 DUP4 PUSH2 0x703 JUMP JUMPDEST SWAP2 POP PUSH2 0x752 DUP3 PUSH2 0x713 JUMP JUMPDEST PUSH1 0x20 DUP3 ADD SWAP1 POP SWAP2 SWAP1 POP JUMP JUMPDEST PUSH0 PUSH1 0x20 DUP3 ADD SWAP1 POP DUP2 DUP2 SUB PUSH0 DUP4 ADD MSTORE PUSH2 0x774 DUP2 PUSH2 0x73B JUMP JUMPDEST SWAP1 POP SWAP2 SWAP1 POP JUMP JUMPDEST PUSH32 0x4E6F20746F6B656E7320746F2072656C65617365000000000000000000000000 PUSH0 DUP3 ADD MSTORE POP JUMP JUMPDEST PUSH0 PUSH2 0x7AF PUSH1 0x14 DUP4 PUSH2 0x703 JUMP JUMPDEST SWAP2 POP PUSH2 0x7BA DUP3 PUSH2 0x77B JUMP JUMPDEST PUSH1 0x20 DUP3 ADD SWAP1 POP SWAP2 SWAP1 POP JUMP JUMPDEST PUSH0 PUSH1 0x20 DUP3 ADD SWAP1 POP DUP2 DUP2 SUB PUSH0 DUP4 ADD MSTORE PUSH2 0x7DC DUP2 PUSH2 0x7A3 JUMP JUMPDEST SWAP1 POP SWAP2 SWAP1 POP JUMP JUMPDEST PUSH0 PUSH1 0x40 DUP3 ADD SWAP1 POP PUSH2 0x7F6 PUSH0 DUP4 ADD DUP6 PUSH2 0x536 JUMP JUMPDEST PUSH2 0x803 PUSH1 0x20 DUP4 ADD DUP5 PUSH2 0x4DE JUMP JUMPDEST SWAP4 SWAP3 POP POP POP JUMP JUMPDEST PUSH0 DUP1 REVERT JUMPDEST PUSH0 DUP2 ISZERO ISZERO SWAP1 POP SWAP2 SWAP1 POP JUMP JUMPDEST PUSH2 0x822 DUP2 PUSH2 0x80E JUMP JUMPDEST DUP2 EQ PUSH2 0x82C JUMPI PUSH0 DUP1 REVERT JUMPDEST POP JUMP JUMPDEST PUSH0 DUP2 MLOAD SWAP1 POP PUSH2 0x83D DUP2 PUSH2 0x819 JUMP JUMPDEST SWAP3 SWAP2 POP POP JUMP JUMPDEST PUSH0 PUSH1 0x20 DUP3 DUP5 SUB SLT ISZERO PUSH2 0x858 JUMPI PUSH2 0x857 PUSH2 0x80A JUMP JUMPDEST JUMPDEST PUSH0 PUSH2 0x865 DUP5 DUP3 DUP6 ADD PUSH2 0x82F JUMP JUMPDEST SWAP2 POP POP SWAP3 SWAP2 POP POP JUMP INVALID LOG2 PUSH5 0x6970667358 0x22 SLT KECCAK256 0x4F 0xBB MUL 0xD8 0xE2 0x29 0xBB 0xBE JUMP 0x2B 0xB0 EXTCODEHASH PUSH3 0x993D0A 0xF6 PUSH9 0x73846B12B556B4E6CF RETURNDATASIZE 0x21 DUP15 MLOAD 0xCA PUSH5 0x736F6C6343 STOP ADDMOD BYTE STOP CALLER "
				},
				"gasEstimates": {
					"creation": {
						"codeDepositCost": "442400",
						"executionCost": "infinite",
						"totalCost": "infinite"
					},
					"external": {
						"cliffDuration()": "2513",
						"employee()": "2508",
						"getReleasableTokens()": "infinite",
						"release()": "infinite",
						"releasedTokens()": "2469",
						"start()": "2447",
						"tokensPerMonth()": "2448",
						"totalTokens()": "2492",
						"vestingDuration()": "2426",
						"yggToken()": "infinite"
					}
				},
				"methodIdentifiers": {
					"cliffDuration()": "d85349f7",
					"employee()": "a0a1a7d7",
					"getReleasableTokens()": "484c553d",
					"release()": "86d1a69f",
					"releasedTokens()": "bef39963",
					"start()": "be9a6555",
					"tokensPerMonth()": "3da2f909",
					"totalTokens()": "7e1c0c09",
					"vestingDuration()": "1514617e",
					"yggToken()": "c1869bd4"
				}
			},
			"storageLayout": {
				"storage": [
					{
						"astId": 262,
						"contract": "employee-token-contract.sol:EmploymentTokenVestingContractForVe",
						"label": "yggToken",
						"offset": 0,
						"slot": "0",
						"type": "t_contract(IERC20)225"
					},
					{
						"astId": 264,
						"contract": "employee-token-contract.sol:EmploymentTokenVestingContractForVe",
						"label": "employee",
						"offset": 0,
						"slot": "1",
						"type": "t_address"
					},
					{
						"astId": 267,
						"contract": "employee-token-contract.sol:EmploymentTokenVestingContractForVe",
						"label": "cliffDuration",
						"offset": 0,
						"slot": "2",
						"type": "t_uint256"
					},
					{
						"astId": 272,
						"contract": "employee-token-contract.sol:EmploymentTokenVestingContractForVe",
						"label": "vestingDuration",
						"offset": 0,
						"slot": "3",
						"type": "t_uint256"
					},
					{
						"astId": 274,
						"contract": "employee-token-contract.sol:EmploymentTokenVestingContractForVe",
						"label": "start",
						"offset": 0,
						"slot": "4",
						"type": "t_uint256"
					},
					{
						"astId": 281,
						"contract": "employee-token-contract.sol:EmploymentTokenVestingContractForVe",
						"label": "totalTokens",
						"offset": 0,
						"slot": "5",
						"type": "t_uint256"
					},
					{
						"astId": 286,
						"contract": "employee-token-contract.sol:EmploymentTokenVestingContractForVe",
						"label": "tokensPerMonth",
						"offset": 0,
						"slot": "6",
						"type": "t_uint256"
					},
					{
						"astId": 288,
						"contract": "employee-token-contract.sol:EmploymentTokenVestingContractForVe",
						"label": "releasedTokens",
						"offset": 0,
						"slot": "7",
						"type": "t_uint256"
					}
				],
				"types": {
					"t_address": {
						"encoding": "inplace",
						"label": "address",
						"numberOfBytes": "20"
					},
					"t_contract(IERC20)225": {
						"encoding": "inplace",
						"label": "contract IERC20",
						"numberOfBytes": "20"
					},
					"t_uint256": {
						"encoding": "inplace",
						"label": "uint256",
						"numberOfBytes": "32"
					}
				}
			},
			"userdoc": {
				"kind": "user",
				"methods": {},
				"version": 1
			}
		}
	}
}