{
	"contracts/vending-machine.sol": {
		"DigitalVendingMachine": {
			"abi": [
				{
					"inputs": [],
					"stateMutability": "nonpayable",
					"type": "constructor"
				},
				{
					"anonymous": false,
					"inputs": [
						{
							"indexed": true,
							"internalType": "address",
							"name": "owner",
							"type": "address"
						},
						{
							"indexed": false,
							"internalType": "uint256",
							"name": "amount",
							"type": "uint256"
						}
					],
					"name": "FundsWithdrawn",
					"type": "event"
				},
				{
					"anonymous": false,
					"inputs": [
						{
							"indexed": true,
							"internalType": "uint256",
							"name": "id",
							"type": "uint256"
						},
						{
							"indexed": false,
							"internalType": "string",
							"name": "name",
							"type": "string"
						},
						{
							"indexed": false,
							"internalType": "uint256",
							"name": "price",
							"type": "uint256"
						},
						{
							"indexed": false,
							"internalType": "uint256",
							"name": "quantity",
							"type": "uint256"
						}
					],
					"name": "ItemAdded",
					"type": "event"
				},
				{
					"anonymous": false,
					"inputs": [
						{
							"indexed": true,
							"internalType": "uint256",
							"name": "id",
							"type": "uint256"
						},
						{
							"indexed": true,
							"internalType": "address",
							"name": "buyer",
							"type": "address"
						},
						{
							"indexed": false,
							"internalType": "uint256",
							"name": "quantity",
							"type": "uint256"
						},
						{
							"indexed": false,
							"internalType": "uint256",
							"name": "totalPrice",
							"type": "uint256"
						}
					],
					"name": "ItemPurchased",
					"type": "event"
				},
				{
					"anonymous": false,
					"inputs": [
						{
							"indexed": true,
							"internalType": "uint256",
							"name": "id",
							"type": "uint256"
						}
					],
					"name": "ItemRemoved",
					"type": "event"
				},
				{
					"anonymous": false,
					"inputs": [
						{
							"indexed": true,
							"internalType": "address",
							"name": "previousOwner",
							"type": "address"
						},
						{
							"indexed": true,
							"internalType": "address",
							"name": "newOwner",
							"type": "address"
						}
					],
					"name": "OwnershipTransferred",
					"type": "event"
				},
				{
					"inputs": [
						{
							"internalType": "string",
							"name": "name",
							"type": "string"
						},
						{
							"internalType": "uint256",
							"name": "price",
							"type": "uint256"
						},
						{
							"internalType": "uint256",
							"name": "quantity",
							"type": "uint256"
						}
					],
					"name": "addItem",
					"outputs": [],
					"stateMutability": "nonpayable",
					"type": "function"
				},
				{
					"inputs": [
						{
							"internalType": "uint256",
							"name": "index",
							"type": "uint256"
						}
					],
					"name": "getItem",
					"outputs": [
						{
							"internalType": "uint256",
							"name": "id",
							"type": "uint256"
						},
						{
							"internalType": "string",
							"name": "name",
							"type": "string"
						},
						{
							"internalType": "uint256",
							"name": "price",
							"type": "uint256"
						},
						{
							"internalType": "uint256",
							"name": "quantity",
							"type": "uint256"
						}
					],
					"stateMutability": "view",
					"type": "function"
				},
				{
					"inputs": [],
					"name": "getItemCount",
					"outputs": [
						{
							"internalType": "uint256",
							"name": "",
							"type": "uint256"
						}
					],
					"stateMutability": "view",
					"type": "function"
				},
				{
					"inputs": [
						{
							"internalType": "uint256",
							"name": "",
							"type": "uint256"
						}
					],
					"name": "items",
					"outputs": [
						{
							"internalType": "uint256",
							"name": "id",
							"type": "uint256"
						},
						{
							"internalType": "string",
							"name": "name",
							"type": "string"
						},
						{
							"internalType": "uint256",
							"name": "price",
							"type": "uint256"
						},
						{
							"internalType": "uint256",
							"name": "quantity",
							"type": "uint256"
						}
					],
					"stateMutability": "view",
					"type": "function"
				},
				{
					"inputs": [],
					"name": "nextItemId",
					"outputs": [
						{
							"internalType": "uint256",
							"name": "",
							"type": "uint256"
						}
					],
					"stateMutability": "view",
					"type": "function"
				},
				{
					"inputs": [],
					"name": "owner",
					"outputs": [
						{
							"internalType": "address",
							"name": "",
							"type": "address"
						}
					],
					"stateMutability": "view",
					"type": "function"
				},
				{
					"inputs": [
						{
							"internalType": "uint256",
							"name": "id",
							"type": "uint256"
						},
						{
							"internalType": "uint256",
							"name": "quantity",
							"type": "uint256"
						}
					],
					"name": "purchaseItem",
					"outputs": [],
					"stateMutability": "payable",
					"type": "function"
				},
				{
					"inputs": [
						{
							"internalType": "uint256",
							"name": "id",
							"type": "uint256"
						}
					],
					"name": "removeItem",
					"outputs": [],
					"stateMutability": "nonpayable",
					"type": "function"
				},
				{
					"inputs": [
						{
							"internalType": "address",
							"name": "newOwner",
							"type": "address"
						}
					],
					"name": "transferOwnership",
					"outputs": [],
					"stateMutability": "nonpayable",
					"type": "function"
				},
				{
					"inputs": [],
					"name": "withdrawFunds",
					"outputs": [],
					"stateMutability": "nonpayable",
					"type": "function"
				},
				{
					"stateMutability": "payable",
					"type": "receive"
				}
			],
			"devdoc": {
				"details": "A simple digital vending machine contract that allows the owner to manage items and users to purchase them. The DigitalVendingMachine smart contract is a straightforward implementation of a vending machine on the Ethereum blockchain. It allows the contract owner to manage a list of items available for purchase and enables users to buy these items by sending Ether.",
				"kind": "dev",
				"methods": {
					"addItem(string,uint256,uint256)": {
						"details": "Add a new item to the vending machine.",
						"params": {
							"name": "The name of the item.",
							"price": "The price of the item in wei.",
							"quantity": "The initial stock quantity of the item."
						}
					},
					"getItem(uint256)": {
						"details": "Retrieve item details by index.",
						"params": {
							"index": "The index of the item in the array."
						},
						"returns": {
							"id": "The ID of the item.",
							"name": "The name of the item.",
							"price": "The price of the item in wei.",
							"quantity": "The available quantity of the item."
						}
					},
					"getItemCount()": {
						"details": "Get the total number of items in the vending machine.",
						"returns": {
							"_0": "The number of items."
						}
					},
					"purchaseItem(uint256,uint256)": {
						"details": "Purchase an item from the vending machine.",
						"params": {
							"id": "The ID of the item to purchase.",
							"quantity": "The number of items to purchase."
						}
					},
					"removeItem(uint256)": {
						"details": "Remove an item from the vending machine by its ID.",
						"params": {
							"id": "The ID of the item to remove."
						}
					},
					"transferOwnership(address)": {
						"details": "Transfer contract ownership to a new address.",
						"params": {
							"newOwner": "The address to transfer ownership to."
						}
					},
					"withdrawFunds()": {
						"details": "Withdraw all Ether from the contract to the owner's address."
					}
				},
				"title": "DigitalVendingMachine",
				"version": 1
			},
			"evm": {
				"assembly": "    /* \"contracts/vending-machine.sol\":484:5840  contract DigitalVendingMachine {... */\n  mstore(0x40, 0x80)\n    /* \"contracts/vending-machine.sol\":2028:2121  constructor() {... */\n  callvalue\n  dup1\n  iszero\n  tag_1\n  jumpi\n  0x00\n  dup1\n  revert\ntag_1:\n  pop\n    /* \"contracts/vending-machine.sol\":2056:2066  msg.sender */\n  caller\n    /* \"contracts/vending-machine.sol\":2048:2053  owner */\n  0x00\n  dup1\n    /* \"contracts/vending-machine.sol\":2048:2066  owner = msg.sender */\n  0x0100\n  exp\n  dup2\n  sload\n  dup2\n  0xffffffffffffffffffffffffffffffffffffffff\n  mul\n  not\n  and\n  swap1\n  dup4\n  0xffffffffffffffffffffffffffffffffffffffff\n  and\n  mul\n  or\n  swap1\n  sstore\n  pop\n    /* \"contracts/vending-machine.sol\":2110:2115  owner */\n  0x00\n  dup1\n  sload\n  swap1\n  0x0100\n  exp\n  swap1\n  div\n  0xffffffffffffffffffffffffffffffffffffffff\n  and\n    /* \"contracts/vending-machine.sol\":2077:2116  OwnershipTransferred(address(0), owner) */\n  0xffffffffffffffffffffffffffffffffffffffff\n  and\n    /* \"contracts/vending-machine.sol\":2106:2107  0 */\n  0x00\n    /* \"contracts/vending-machine.sol\":2077:2116  OwnershipTransferred(address(0), owner) */\n  0xffffffffffffffffffffffffffffffffffffffff\n  and\n  0x8be0079c531659141344cd1fd0a4f28419497f9722a3daafe3b4186f6b6457e0\n  mload(0x40)\n  mload(0x40)\n  dup1\n  swap2\n  sub\n  swap1\n  log3\n    /* \"contracts/vending-machine.sol\":484:5840  contract DigitalVendingMachine {... */\n  dataSize(sub_0)\n  dup1\n  dataOffset(sub_0)\n  0x00\n  codecopy\n  0x00\n  return\nstop\n\nsub_0: assembly {\n        /* \"contracts/vending-machine.sol\":484:5840  contract DigitalVendingMachine {... */\n      mstore(0x40, 0x80)\n      jumpi(tag_1, lt(calldatasize, 0x04))\n      shr(0xe0, calldataload(0x00))\n      dup1\n      0x8da5cb5b\n      gt\n      tag_13\n      jumpi\n      dup1\n      0x8da5cb5b\n      eq\n      tag_8\n      jumpi\n      dup1\n      0xbfb231d2\n      eq\n      tag_9\n      jumpi\n      dup1\n      0xd5e6c333\n      eq\n      tag_10\n      jumpi\n      dup1\n      0xe0675698\n      eq\n      tag_11\n      jumpi\n      dup1\n      0xf2fde38b\n      eq\n      tag_12\n      jumpi\n      jump(tag_2)\n    tag_13:\n      dup1\n      0x24600fc3\n      eq\n      tag_3\n      jumpi\n      dup1\n      0x3129e773\n      eq\n      tag_4\n      jumpi\n      dup1\n      0x6a868974\n      eq\n      tag_5\n      jumpi\n      dup1\n      0x71329171\n      eq\n      tag_6\n      jumpi\n      dup1\n      0x7749cf23\n      eq\n      tag_7\n      jumpi\n      jump(tag_2)\n    tag_1:\n      jumpi(tag_2, calldatasize)\n        /* \"contracts/vending-machine.sol\":5811:5821  msg.sender */\n      caller\n        /* \"contracts/vending-machine.sol\":5796:5833  FundsWithdrawn(msg.sender, msg.value) */\n      0xffffffffffffffffffffffffffffffffffffffff\n      and\n      0xeaff4b37086828766ad3268786972c0cd24259d4c87a80f9d3963a3c3d999b0d\n        /* \"contracts/vending-machine.sol\":5823:5832  msg.value */\n      callvalue\n        /* \"contracts/vending-machine.sol\":5796:5833  FundsWithdrawn(msg.sender, msg.value) */\n      mload(0x40)\n      tag_16\n      swap2\n      swap1\n      tag_17\n      jump\t// in\n    tag_16:\n      mload(0x40)\n      dup1\n      swap2\n      sub\n      swap1\n      log2\n        /* \"contracts/vending-machine.sol\":484:5840  contract DigitalVendingMachine {... */\n      stop\n    tag_2:\n      0x00\n      dup1\n      revert\n        /* \"contracts/vending-machine.sol\":4317:4540  function withdrawFunds() external onlyOwner {... */\n    tag_3:\n      callvalue\n      dup1\n      iszero\n      tag_18\n      jumpi\n      0x00\n      dup1\n      revert\n    tag_18:\n      pop\n      tag_19\n      tag_20\n      jump\t// in\n    tag_19:\n      stop\n        /* \"contracts/vending-machine.sol\":5034:5322  function getItem(... */\n    tag_4:\n      callvalue\n      dup1\n      iszero\n      tag_21\n      jumpi\n      0x00\n      dup1\n      revert\n    tag_21:\n      pop\n      tag_22\n      0x04\n      dup1\n      calldatasize\n      sub\n      dup2\n      add\n      swap1\n      tag_23\n      swap2\n      swap1\n      tag_24\n      jump\t// in\n    tag_23:\n      tag_25\n      jump\t// in\n    tag_22:\n      mload(0x40)\n      tag_26\n      swap5\n      swap4\n      swap3\n      swap2\n      swap1\n      tag_27\n      jump\t// in\n    tag_26:\n      mload(0x40)\n      dup1\n      swap2\n      sub\n      swap1\n      return\n        /* \"contracts/vending-machine.sol\":1493:1518  uint256 public nextItemId */\n    tag_5:\n      callvalue\n      dup1\n      iszero\n      tag_28\n      jumpi\n      0x00\n      dup1\n      revert\n    tag_28:\n      pop\n      tag_29\n      tag_30\n      jump\t// in\n    tag_29:\n      mload(0x40)\n      tag_31\n      swap2\n      swap1\n      tag_17\n      jump\t// in\n    tag_31:\n      mload(0x40)\n      dup1\n      swap2\n      sub\n      swap1\n      return\n        /* \"contracts/vending-machine.sol\":3110:3414  function removeItem(uint256 id) external onlyOwner {... */\n    tag_6:\n      callvalue\n      dup1\n      iszero\n      tag_32\n      jumpi\n      0x00\n      dup1\n      revert\n    tag_32:\n      pop\n      tag_33\n      0x04\n      dup1\n      calldatasize\n      sub\n      dup2\n      add\n      swap1\n      tag_34\n      swap2\n      swap1\n      tag_24\n      jump\t// in\n    tag_34:\n      tag_35\n      jump\t// in\n    tag_33:\n      stop\n        /* \"contracts/vending-machine.sol\":4654:4740  function getItemCount() external view returns (uint256) {... */\n    tag_7:\n      callvalue\n      dup1\n      iszero\n      tag_36\n      jumpi\n      0x00\n      dup1\n      revert\n    tag_36:\n      pop\n      tag_37\n      tag_38\n      jump\t// in\n    tag_37:\n      mload(0x40)\n      tag_39\n      swap2\n      swap1\n      tag_17\n      jump\t// in\n    tag_39:\n      mload(0x40)\n      dup1\n      swap2\n      sub\n      swap1\n      return\n        /* \"contracts/vending-machine.sol\":1340:1360  address public owner */\n    tag_8:\n      callvalue\n      dup1\n      iszero\n      tag_40\n      jumpi\n      0x00\n      dup1\n      revert\n    tag_40:\n      pop\n      tag_41\n      tag_42\n      jump\t// in\n    tag_41:\n      mload(0x40)\n      tag_43\n      swap2\n      swap1\n      tag_44\n      jump\t// in\n    tag_43:\n      mload(0x40)\n      dup1\n      swap2\n      sub\n      swap1\n      return\n        /* \"contracts/vending-machine.sol\":1470:1489  Item[] public items */\n    tag_9:\n      callvalue\n      dup1\n      iszero\n      tag_45\n      jumpi\n      0x00\n      dup1\n      revert\n    tag_45:\n      pop\n      tag_46\n      0x04\n      dup1\n      calldatasize\n      sub\n      dup2\n      add\n      swap1\n      tag_47\n      swap2\n      swap1\n      tag_24\n      jump\t// in\n    tag_47:\n      tag_48\n      jump\t// in\n    tag_46:\n      mload(0x40)\n      tag_49\n      swap5\n      swap4\n      swap3\n      swap2\n      swap1\n      tag_27\n      jump\t// in\n    tag_49:\n      mload(0x40)\n      dup1\n      swap2\n      sub\n      swap1\n      return\n        /* \"contracts/vending-machine.sol\":2674:2988  function addItem(string memory name, uint256 price, uint256 quantity) external onlyOwner {... */\n    tag_10:\n      callvalue\n      dup1\n      iszero\n      tag_50\n      jumpi\n      0x00\n      dup1\n      revert\n    tag_50:\n      pop\n      tag_51\n      0x04\n      dup1\n      calldatasize\n      sub\n      dup2\n      add\n      swap1\n      tag_52\n      swap2\n      swap1\n      tag_53\n      jump\t// in\n    tag_52:\n      tag_54\n      jump\t// in\n    tag_51:\n      stop\n        /* \"contracts/vending-machine.sol\":3583:4230  function purchaseItem(uint256 id, uint256 quantity) external payable {... */\n    tag_11:\n      tag_55\n      0x04\n      dup1\n      calldatasize\n      sub\n      dup2\n      add\n      swap1\n      tag_56\n      swap2\n      swap1\n      tag_57\n      jump\t// in\n    tag_56:\n      tag_58\n      jump\t// in\n    tag_55:\n      stop\n        /* \"contracts/vending-machine.sol\":2252:2461  function transferOwnership(address newOwner) external onlyOwner {... */\n    tag_12:\n      callvalue\n      dup1\n      iszero\n      tag_59\n      jumpi\n      0x00\n      dup1\n      revert\n    tag_59:\n      pop\n      tag_60\n      0x04\n      dup1\n      calldatasize\n      sub\n      dup2\n      add\n      swap1\n      tag_61\n      swap2\n      swap1\n      tag_62\n      jump\t// in\n    tag_61:\n      tag_63\n      jump\t// in\n    tag_60:\n      stop\n        /* \"contracts/vending-machine.sol\":4317:4540  function withdrawFunds() external onlyOwner {... */\n    tag_20:\n        /* \"contracts/vending-machine.sol\":1980:1985  owner */\n      0x00\n      dup1\n      sload\n      swap1\n      0x0100\n      exp\n      swap1\n      div\n      0xffffffffffffffffffffffffffffffffffffffff\n      and\n        /* \"contracts/vending-machine.sol\":1966:1985  msg.sender == owner */\n      0xffffffffffffffffffffffffffffffffffffffff\n      and\n        /* \"contracts/vending-machine.sol\":1966:1976  msg.sender */\n      caller\n        /* \"contracts/vending-machine.sol\":1966:1985  msg.sender == owner */\n      0xffffffffffffffffffffffffffffffffffffffff\n      and\n      eq\n        /* \"contracts/vending-machine.sol\":1958:2012  require(msg.sender == owner, 'Not the contract owner') */\n      tag_65\n      jumpi\n      mload(0x40)\n      0x08c379a000000000000000000000000000000000000000000000000000000000\n      dup2\n      mstore\n      0x04\n      add\n      tag_66\n      swap1\n      tag_67\n      jump\t// in\n    tag_66:\n      mload(0x40)\n      dup1\n      swap2\n      sub\n      swap1\n      revert\n    tag_65:\n        /* \"contracts/vending-machine.sol\":4367:4382  uint256 balance */\n      0x00\n        /* \"contracts/vending-machine.sol\":4385:4406  address(this).balance */\n      selfbalance\n        /* \"contracts/vending-machine.sol\":4367:4406  uint256 balance = address(this).balance */\n      swap1\n      pop\n        /* \"contracts/vending-machine.sol\":4430:4431  0 */\n      0x00\n        /* \"contracts/vending-machine.sol\":4420:4427  balance */\n      dup2\n        /* \"contracts/vending-machine.sol\":4420:4431  balance > 0 */\n      gt\n        /* \"contracts/vending-machine.sol\":4412:4456  require(balance > 0, 'No funds to withdraw') */\n      tag_69\n      jumpi\n      mload(0x40)\n      0x08c379a000000000000000000000000000000000000000000000000000000000\n      dup2\n      mstore\n      0x04\n      add\n      tag_70\n      swap1\n      tag_71\n      jump\t// in\n    tag_70:\n      mload(0x40)\n      dup1\n      swap2\n      sub\n      swap1\n      revert\n    tag_69:\n        /* \"contracts/vending-machine.sol\":4470:4475  owner */\n      0x00\n      dup1\n      sload\n      swap1\n      0x0100\n      exp\n      swap1\n      div\n      0xffffffffffffffffffffffffffffffffffffffff\n      and\n        /* \"contracts/vending-machine.sol\":4462:4485  payable(owner).transfer */\n      0xffffffffffffffffffffffffffffffffffffffff\n      and\n        /* \"contracts/vending-machine.sol\":4462:4494  payable(owner).transfer(balance) */\n      0x08fc\n        /* \"contracts/vending-machine.sol\":4486:4493  balance */\n      dup3\n        /* \"contracts/vending-machine.sol\":4462:4494  payable(owner).transfer(balance) */\n      swap1\n      dup2\n      iszero\n      mul\n      swap1\n      mload(0x40)\n      0x00\n      mload(0x40)\n      dup1\n      dup4\n      sub\n      dup2\n      dup6\n      dup9\n      dup9\n      call\n      swap4\n      pop\n      pop\n      pop\n      pop\n      iszero\n      dup1\n      iszero\n      tag_73\n      jumpi\n      returndatasize\n      0x00\n      dup1\n      returndatacopy\n      revert(0x00, returndatasize)\n    tag_73:\n      pop\n        /* \"contracts/vending-machine.sol\":4520:4525  owner */\n      0x00\n      dup1\n      sload\n      swap1\n      0x0100\n      exp\n      swap1\n      div\n      0xffffffffffffffffffffffffffffffffffffffff\n      and\n        /* \"contracts/vending-machine.sol\":4505:4535  FundsWithdrawn(owner, balance) */\n      0xffffffffffffffffffffffffffffffffffffffff\n      and\n      0xeaff4b37086828766ad3268786972c0cd24259d4c87a80f9d3963a3c3d999b0d\n        /* \"contracts/vending-machine.sol\":4527:4534  balance */\n      dup3\n        /* \"contracts/vending-machine.sol\":4505:4535  FundsWithdrawn(owner, balance) */\n      mload(0x40)\n      tag_74\n      swap2\n      swap1\n      tag_17\n      jump\t// in\n    tag_74:\n      mload(0x40)\n      dup1\n      swap2\n      sub\n      swap1\n      log2\n        /* \"contracts/vending-machine.sol\":4361:4540  {... */\n      pop\n        /* \"contracts/vending-machine.sol\":4317:4540  function withdrawFunds() external onlyOwner {... */\n      jump\t// out\n        /* \"contracts/vending-machine.sol\":5034:5322  function getItem(... */\n    tag_25:\n        /* \"contracts/vending-machine.sol\":5097:5107  uint256 id */\n      0x00\n        /* \"contracts/vending-machine.sol\":5109:5127  string memory name */\n      0x60\n        /* \"contracts/vending-machine.sol\":5129:5142  uint256 price */\n      0x00\n        /* \"contracts/vending-machine.sol\":5144:5160  uint256 quantity */\n      dup1\n        /* \"contracts/vending-machine.sol\":5184:5189  items */\n      0x01\n        /* \"contracts/vending-machine.sol\":5184:5196  items.length */\n      dup1\n      sload\n      swap1\n      pop\n        /* \"contracts/vending-machine.sol\":5176:5181  index */\n      dup6\n        /* \"contracts/vending-machine.sol\":5176:5196  index < items.length */\n      lt\n        /* \"contracts/vending-machine.sol\":5168:5219  require(index < items.length, 'Item does not exit') */\n      tag_76\n      jumpi\n      mload(0x40)\n      0x08c379a000000000000000000000000000000000000000000000000000000000\n      dup2\n      mstore\n      0x04\n      add\n      tag_77\n      swap1\n      tag_78\n      jump\t// in\n    tag_77:\n      mload(0x40)\n      dup1\n      swap2\n      sub\n      swap1\n      revert\n    tag_76:\n        /* \"contracts/vending-machine.sol\":5225:5242  Item storage item */\n      0x00\n        /* \"contracts/vending-machine.sol\":5245:5250  items */\n      0x01\n        /* \"contracts/vending-machine.sol\":5251:5256  index */\n      dup7\n        /* \"contracts/vending-machine.sol\":5245:5257  items[index] */\n      dup2\n      sload\n      dup2\n      lt\n      tag_79\n      jumpi\n      tag_80\n      tag_81\n      jump\t// in\n    tag_80:\n    tag_79:\n      swap1\n      0x00\n      mstore\n      keccak256(0x00, 0x20)\n      swap1\n      0x04\n      mul\n      add\n        /* \"contracts/vending-machine.sol\":5225:5257  Item storage item = items[index] */\n      swap1\n      pop\n        /* \"contracts/vending-machine.sol\":5271:5275  item */\n      dup1\n        /* \"contracts/vending-machine.sol\":5271:5278  item.id */\n      0x00\n      add\n      sload\n        /* \"contracts/vending-machine.sol\":5280:5284  item */\n      dup2\n        /* \"contracts/vending-machine.sol\":5280:5289  item.name */\n      0x01\n      add\n        /* \"contracts/vending-machine.sol\":5291:5295  item */\n      dup3\n        /* \"contracts/vending-machine.sol\":5291:5301  item.price */\n      0x02\n      add\n      sload\n        /* \"contracts/vending-machine.sol\":5303:5307  item */\n      dup4\n        /* \"contracts/vending-machine.sol\":5303:5316  item.quantity */\n      0x03\n      add\n      sload\n        /* \"contracts/vending-machine.sol\":5263:5317  return (item.id, item.name, item.price, item.quantity) */\n      dup3\n      dup1\n      sload\n      tag_83\n      swap1\n      tag_84\n      jump\t// in\n    tag_83:\n      dup1\n      0x1f\n      add\n      0x20\n      dup1\n      swap2\n      div\n      mul\n      0x20\n      add\n      mload(0x40)\n      swap1\n      dup2\n      add\n      0x40\n      mstore\n      dup1\n      swap3\n      swap2\n      swap1\n      dup2\n      dup2\n      mstore\n      0x20\n      add\n      dup3\n      dup1\n      sload\n      tag_85\n      swap1\n      tag_84\n      jump\t// in\n    tag_85:\n      dup1\n      iszero\n      tag_86\n      jumpi\n      dup1\n      0x1f\n      lt\n      tag_87\n      jumpi\n      0x0100\n      dup1\n      dup4\n      sload\n      div\n      mul\n      dup4\n      mstore\n      swap2\n      0x20\n      add\n      swap2\n      jump(tag_86)\n    tag_87:\n      dup3\n      add\n      swap2\n      swap1\n      0x00\n      mstore\n      keccak256(0x00, 0x20)\n      swap1\n    tag_88:\n      dup2\n      sload\n      dup2\n      mstore\n      swap1\n      0x01\n      add\n      swap1\n      0x20\n      add\n      dup1\n      dup4\n      gt\n      tag_88\n      jumpi\n      dup3\n      swap1\n      sub\n      0x1f\n      and\n      dup3\n      add\n      swap2\n    tag_86:\n      pop\n      pop\n      pop\n      pop\n      pop\n      swap3\n      pop\n      swap5\n      pop\n      swap5\n      pop\n      swap5\n      pop\n      swap5\n      pop\n      pop\n        /* \"contracts/vending-machine.sol\":5034:5322  function getItem(... */\n      swap2\n      swap4\n      pop\n      swap2\n      swap4\n      jump\t// out\n        /* \"contracts/vending-machine.sol\":1493:1518  uint256 public nextItemId */\n    tag_30:\n      sload(0x02)\n      dup2\n      jump\t// out\n        /* \"contracts/vending-machine.sol\":3110:3414  function removeItem(uint256 id) external onlyOwner {... */\n    tag_35:\n        /* \"contracts/vending-machine.sol\":1980:1985  owner */\n      0x00\n      dup1\n      sload\n      swap1\n      0x0100\n      exp\n      swap1\n      div\n      0xffffffffffffffffffffffffffffffffffffffff\n      and\n        /* \"contracts/vending-machine.sol\":1966:1985  msg.sender == owner */\n      0xffffffffffffffffffffffffffffffffffffffff\n      and\n        /* \"contracts/vending-machine.sol\":1966:1976  msg.sender */\n      caller\n        /* \"contracts/vending-machine.sol\":1966:1985  msg.sender == owner */\n      0xffffffffffffffffffffffffffffffffffffffff\n      and\n      eq\n        /* \"contracts/vending-machine.sol\":1958:2012  require(msg.sender == owner, 'Not the contract owner') */\n      tag_90\n      jumpi\n      mload(0x40)\n      0x08c379a000000000000000000000000000000000000000000000000000000000\n      dup2\n      mstore\n      0x04\n      add\n      tag_91\n      swap1\n      tag_67\n      jump\t// in\n    tag_91:\n      mload(0x40)\n      dup1\n      swap2\n      sub\n      swap1\n      revert\n    tag_90:\n        /* \"contracts/vending-machine.sol\":3167:3180  uint256 index */\n      0x00\n        /* \"contracts/vending-machine.sol\":3183:3200  _getItemIndex(id) */\n      tag_93\n        /* \"contracts/vending-machine.sol\":3197:3199  id */\n      dup3\n        /* \"contracts/vending-machine.sol\":3183:3196  _getItemIndex */\n      tag_94\n        /* \"contracts/vending-machine.sol\":3183:3200  _getItemIndex(id) */\n      jump\t// in\n    tag_93:\n        /* \"contracts/vending-machine.sol\":3167:3200  uint256 index = _getItemIndex(id) */\n      swap1\n      pop\n        /* \"contracts/vending-machine.sol\":3222:3227  items */\n      0x01\n        /* \"contracts/vending-machine.sol\":3222:3234  items.length */\n      dup1\n      sload\n      swap1\n      pop\n        /* \"contracts/vending-machine.sol\":3214:3219  index */\n      dup2\n        /* \"contracts/vending-machine.sol\":3214:3234  index < items.length */\n      lt\n        /* \"contracts/vending-machine.sol\":3206:3258  require(index < items.length, 'Item does not exist') */\n      tag_95\n      jumpi\n      mload(0x40)\n      0x08c379a000000000000000000000000000000000000000000000000000000000\n      dup2\n      mstore\n      0x04\n      add\n      tag_96\n      swap1\n      tag_97\n      jump\t// in\n    tag_96:\n      mload(0x40)\n      dup1\n      swap2\n      sub\n      swap1\n      revert\n    tag_95:\n        /* \"contracts/vending-machine.sol\":3343:3348  items */\n      0x01\n        /* \"contracts/vending-machine.sol\":3364:3365  1 */\n      dup1\n        /* \"contracts/vending-machine.sol\":3349:3354  items */\n      dup1\n        /* \"contracts/vending-machine.sol\":3349:3361  items.length */\n      dup1\n      sload\n      swap1\n      pop\n        /* \"contracts/vending-machine.sol\":3349:3365  items.length - 1 */\n      tag_98\n      swap2\n      swap1\n      tag_99\n      jump\t// in\n    tag_98:\n        /* \"contracts/vending-machine.sol\":3343:3366  items[items.length - 1] */\n      dup2\n      sload\n      dup2\n      lt\n      tag_100\n      jumpi\n      tag_101\n      tag_81\n      jump\t// in\n    tag_101:\n    tag_100:\n      swap1\n      0x00\n      mstore\n      keccak256(0x00, 0x20)\n      swap1\n      0x04\n      mul\n      add\n        /* \"contracts/vending-machine.sol\":3328:3333  items */\n      0x01\n        /* \"contracts/vending-machine.sol\":3334:3339  index */\n      dup3\n        /* \"contracts/vending-machine.sol\":3328:3340  items[index] */\n      dup2\n      sload\n      dup2\n      lt\n      tag_103\n      jumpi\n      tag_104\n      tag_81\n      jump\t// in\n    tag_104:\n    tag_103:\n      swap1\n      0x00\n      mstore\n      keccak256(0x00, 0x20)\n      swap1\n      0x04\n      mul\n      add\n        /* \"contracts/vending-machine.sol\":3328:3366  items[index] = items[items.length - 1] */\n      0x00\n      dup3\n      add\n      sload\n      dup2\n      0x00\n      add\n      sstore\n      0x01\n      dup3\n      add\n      dup2\n      0x01\n      add\n      swap1\n      dup2\n      tag_106\n      swap2\n      swap1\n      tag_107\n      jump\t// in\n    tag_106:\n      pop\n      0x02\n      dup3\n      add\n      sload\n      dup2\n      0x02\n      add\n      sstore\n      0x03\n      dup3\n      add\n      sload\n      dup2\n      0x03\n      add\n      sstore\n      swap1\n      pop\n      pop\n        /* \"contracts/vending-machine.sol\":3372:3377  items */\n      0x01\n        /* \"contracts/vending-machine.sol\":3372:3383  items.pop() */\n      dup1\n      sload\n      dup1\n      tag_108\n      jumpi\n      tag_109\n      tag_110\n      jump\t// in\n    tag_109:\n    tag_108:\n      0x01\n      swap1\n      sub\n      dup2\n      dup2\n      swap1\n      0x00\n      mstore\n      keccak256(0x00, 0x20)\n      swap1\n      0x04\n      mul\n      add\n      0x00\n      dup1\n      dup3\n      add\n      0x00\n      swap1\n      sstore\n      0x01\n      dup3\n      add\n      0x00\n      tag_112\n      swap2\n      swap1\n      tag_113\n      jump\t// in\n    tag_112:\n      0x02\n      dup3\n      add\n      0x00\n      swap1\n      sstore\n      0x03\n      dup3\n      add\n      0x00\n      swap1\n      sstore\n      pop\n      pop\n      swap1\n      sstore\n        /* \"contracts/vending-machine.sol\":3406:3408  id */\n      dup2\n        /* \"contracts/vending-machine.sol\":3394:3409  ItemRemoved(id) */\n      0xa54eda4149a0fb9258911733973ecf1f6762357ed371fc6d1e63123bbce23bed\n      mload(0x40)\n      mload(0x40)\n      dup1\n      swap2\n      sub\n      swap1\n      log2\n        /* \"contracts/vending-machine.sol\":3161:3414  {... */\n      pop\n        /* \"contracts/vending-machine.sol\":3110:3414  function removeItem(uint256 id) external onlyOwner {... */\n      pop\n      jump\t// out\n        /* \"contracts/vending-machine.sol\":4654:4740  function getItemCount() external view returns (uint256) {... */\n    tag_38:\n        /* \"contracts/vending-machine.sol\":4701:4708  uint256 */\n      0x00\n        /* \"contracts/vending-machine.sol\":4723:4728  items */\n      0x01\n        /* \"contracts/vending-machine.sol\":4723:4735  items.length */\n      dup1\n      sload\n      swap1\n      pop\n        /* \"contracts/vending-machine.sol\":4716:4735  return items.length */\n      swap1\n      pop\n        /* \"contracts/vending-machine.sol\":4654:4740  function getItemCount() external view returns (uint256) {... */\n      swap1\n      jump\t// out\n        /* \"contracts/vending-machine.sol\":1340:1360  address public owner */\n    tag_42:\n      0x00\n      dup1\n      sload\n      swap1\n      0x0100\n      exp\n      swap1\n      div\n      0xffffffffffffffffffffffffffffffffffffffff\n      and\n      dup2\n      jump\t// out\n        /* \"contracts/vending-machine.sol\":1470:1489  Item[] public items */\n    tag_48:\n      0x01\n      dup2\n      dup2\n      sload\n      dup2\n      lt\n      tag_115\n      jumpi\n      0x00\n      dup1\n      revert\n    tag_115:\n      swap1\n      0x00\n      mstore\n      keccak256(0x00, 0x20)\n      swap1\n      0x04\n      mul\n      add\n      0x00\n      swap2\n      pop\n      swap1\n      pop\n      dup1\n      0x00\n      add\n      sload\n      swap1\n      dup1\n      0x01\n      add\n      dup1\n      sload\n      tag_117\n      swap1\n      tag_84\n      jump\t// in\n    tag_117:\n      dup1\n      0x1f\n      add\n      0x20\n      dup1\n      swap2\n      div\n      mul\n      0x20\n      add\n      mload(0x40)\n      swap1\n      dup2\n      add\n      0x40\n      mstore\n      dup1\n      swap3\n      swap2\n      swap1\n      dup2\n      dup2\n      mstore\n      0x20\n      add\n      dup3\n      dup1\n      sload\n      tag_118\n      swap1\n      tag_84\n      jump\t// in\n    tag_118:\n      dup1\n      iszero\n      tag_119\n      jumpi\n      dup1\n      0x1f\n      lt\n      tag_120\n      jumpi\n      0x0100\n      dup1\n      dup4\n      sload\n      div\n      mul\n      dup4\n      mstore\n      swap2\n      0x20\n      add\n      swap2\n      jump(tag_119)\n    tag_120:\n      dup3\n      add\n      swap2\n      swap1\n      0x00\n      mstore\n      keccak256(0x00, 0x20)\n      swap1\n    tag_121:\n      dup2\n      sload\n      dup2\n      mstore\n      swap1\n      0x01\n      add\n      swap1\n      0x20\n      add\n      dup1\n      dup4\n      gt\n      tag_121\n      jumpi\n      dup3\n      swap1\n      sub\n      0x1f\n      and\n      dup3\n      add\n      swap2\n    tag_119:\n      pop\n      pop\n      pop\n      pop\n      pop\n      swap1\n      dup1\n      0x02\n      add\n      sload\n      swap1\n      dup1\n      0x03\n      add\n      sload\n      swap1\n      pop\n      dup5\n      jump\t// out\n        /* \"contracts/vending-machine.sol\":2674:2988  function addItem(string memory name, uint256 price, uint256 quantity) external onlyOwner {... */\n    tag_54:\n        /* \"contracts/vending-machine.sol\":1980:1985  owner */\n      0x00\n      dup1\n      sload\n      swap1\n      0x0100\n      exp\n      swap1\n      div\n      0xffffffffffffffffffffffffffffffffffffffff\n      and\n        /* \"contracts/vending-machine.sol\":1966:1985  msg.sender == owner */\n      0xffffffffffffffffffffffffffffffffffffffff\n      and\n        /* \"contracts/vending-machine.sol\":1966:1976  msg.sender */\n      caller\n        /* \"contracts/vending-machine.sol\":1966:1985  msg.sender == owner */\n      0xffffffffffffffffffffffffffffffffffffffff\n      and\n      eq\n        /* \"contracts/vending-machine.sol\":1958:2012  require(msg.sender == owner, 'Not the contract owner') */\n      tag_123\n      jumpi\n      mload(0x40)\n      0x08c379a000000000000000000000000000000000000000000000000000000000\n      dup2\n      mstore\n      0x04\n      add\n      tag_124\n      swap1\n      tag_67\n      jump\t// in\n    tag_124:\n      mload(0x40)\n      dup1\n      swap2\n      sub\n      swap1\n      revert\n    tag_123:\n        /* \"contracts/vending-machine.sol\":2785:2786  0 */\n      0x00\n        /* \"contracts/vending-machine.sol\":2777:2782  price */\n      dup3\n        /* \"contracts/vending-machine.sol\":2777:2786  price > 0 */\n      gt\n        /* \"contracts/vending-machine.sol\":2769:2822  require(price > 0, 'Price must be greater than zero') */\n      tag_126\n      jumpi\n      mload(0x40)\n      0x08c379a000000000000000000000000000000000000000000000000000000000\n      dup2\n      mstore\n      0x04\n      add\n      tag_127\n      swap1\n      tag_128\n      jump\t// in\n    tag_127:\n      mload(0x40)\n      dup1\n      swap2\n      sub\n      swap1\n      revert\n    tag_126:\n        /* \"contracts/vending-machine.sol\":2828:2833  items */\n      0x01\n        /* \"contracts/vending-machine.sol\":2839:2909  Item({ id: nextItemId, name: name, price: price, quantity: quantity }) */\n      mload(0x40)\n      dup1\n      0x80\n      add\n      0x40\n      mstore\n      dup1\n        /* \"contracts/vending-machine.sol\":2850:2860  nextItemId */\n      sload(0x02)\n        /* \"contracts/vending-machine.sol\":2839:2909  Item({ id: nextItemId, name: name, price: price, quantity: quantity }) */\n      dup2\n      mstore\n      0x20\n      add\n        /* \"contracts/vending-machine.sol\":2868:2872  name */\n      dup6\n        /* \"contracts/vending-machine.sol\":2839:2909  Item({ id: nextItemId, name: name, price: price, quantity: quantity }) */\n      dup2\n      mstore\n      0x20\n      add\n        /* \"contracts/vending-machine.sol\":2881:2886  price */\n      dup5\n        /* \"contracts/vending-machine.sol\":2839:2909  Item({ id: nextItemId, name: name, price: price, quantity: quantity }) */\n      dup2\n      mstore\n      0x20\n      add\n        /* \"contracts/vending-machine.sol\":2898:2906  quantity */\n      dup4\n        /* \"contracts/vending-machine.sol\":2839:2909  Item({ id: nextItemId, name: name, price: price, quantity: quantity }) */\n      dup2\n      mstore\n      pop\n        /* \"contracts/vending-machine.sol\":2828:2910  items.push(Item({ id: nextItemId, name: name, price: price, quantity: quantity })) */\n      swap1\n      dup1\n      0x01\n      dup2\n      sload\n      add\n      dup1\n      dup3\n      sstore\n      dup1\n      swap2\n      pop\n      pop\n      0x01\n      swap1\n      sub\n      swap1\n      0x00\n      mstore\n      keccak256(0x00, 0x20)\n      swap1\n      0x04\n      mul\n      add\n      0x00\n      swap1\n      swap2\n      swap1\n      swap2\n      swap1\n      swap2\n      pop\n      0x00\n      dup3\n      add\n      mload\n      dup2\n      0x00\n      add\n      sstore\n      0x20\n      dup3\n      add\n      mload\n      dup2\n      0x01\n      add\n      swap1\n      dup2\n      tag_130\n      swap2\n      swap1\n      tag_131\n      jump\t// in\n    tag_130:\n      pop\n      0x40\n      dup3\n      add\n      mload\n      dup2\n      0x02\n      add\n      sstore\n      0x60\n      dup3\n      add\n      mload\n      dup2\n      0x03\n      add\n      sstore\n      pop\n      pop\n        /* \"contracts/vending-machine.sol\":2931:2941  nextItemId */\n      sload(0x02)\n        /* \"contracts/vending-machine.sol\":2921:2965  ItemAdded(nextItemId, name, price, quantity) */\n      0x665e452eb624a7f9bf54abd5d404d4f4da7360a1e40698893fe2cc447a51af9c\n        /* \"contracts/vending-machine.sol\":2943:2947  name */\n      dup5\n        /* \"contracts/vending-machine.sol\":2949:2954  price */\n      dup5\n        /* \"contracts/vending-machine.sol\":2956:2964  quantity */\n      dup5\n        /* \"contracts/vending-machine.sol\":2921:2965  ItemAdded(nextItemId, name, price, quantity) */\n      mload(0x40)\n      tag_132\n      swap4\n      swap3\n      swap2\n      swap1\n      tag_133\n      jump\t// in\n    tag_132:\n      mload(0x40)\n      dup1\n      swap2\n      sub\n      swap1\n      log2\n        /* \"contracts/vending-machine.sol\":2971:2981  nextItemId */\n      0x02\n      0x00\n        /* \"contracts/vending-machine.sol\":2971:2983  nextItemId++ */\n      dup2\n      sload\n      dup1\n      swap3\n      swap2\n      swap1\n      tag_134\n      swap1\n      tag_135\n      jump\t// in\n    tag_134:\n      swap2\n      swap1\n      pop\n      sstore\n      pop\n        /* \"contracts/vending-machine.sol\":2674:2988  function addItem(string memory name, uint256 price, uint256 quantity) external onlyOwner {... */\n      pop\n      pop\n      pop\n      jump\t// out\n        /* \"contracts/vending-machine.sol\":3583:4230  function purchaseItem(uint256 id, uint256 quantity) external payable {... */\n    tag_58:\n        /* \"contracts/vending-machine.sol\":3658:3671  uint256 index */\n      0x00\n        /* \"contracts/vending-machine.sol\":3674:3691  _getItemIndex(id) */\n      tag_137\n        /* \"contracts/vending-machine.sol\":3688:3690  id */\n      dup4\n        /* \"contracts/vending-machine.sol\":3674:3687  _getItemIndex */\n      tag_94\n        /* \"contracts/vending-machine.sol\":3674:3691  _getItemIndex(id) */\n      jump\t// in\n    tag_137:\n        /* \"contracts/vending-machine.sol\":3658:3691  uint256 index = _getItemIndex(id) */\n      swap1\n      pop\n        /* \"contracts/vending-machine.sol\":3713:3718  items */\n      0x01\n        /* \"contracts/vending-machine.sol\":3713:3725  items.length */\n      dup1\n      sload\n      swap1\n      pop\n        /* \"contracts/vending-machine.sol\":3705:3710  index */\n      dup2\n        /* \"contracts/vending-machine.sol\":3705:3725  index < items.length */\n      lt\n        /* \"contracts/vending-machine.sol\":3697:3749  require(index < items.length, 'Item does not exist') */\n      tag_138\n      jumpi\n      mload(0x40)\n      0x08c379a000000000000000000000000000000000000000000000000000000000\n      dup2\n      mstore\n      0x04\n      add\n      tag_139\n      swap1\n      tag_97\n      jump\t// in\n    tag_139:\n      mload(0x40)\n      dup1\n      swap2\n      sub\n      swap1\n      revert\n    tag_138:\n        /* \"contracts/vending-machine.sol\":3755:3772  Item storage item */\n      0x00\n        /* \"contracts/vending-machine.sol\":3775:3780  items */\n      0x01\n        /* \"contracts/vending-machine.sol\":3781:3786  index */\n      dup3\n        /* \"contracts/vending-machine.sol\":3775:3787  items[index] */\n      dup2\n      sload\n      dup2\n      lt\n      tag_140\n      jumpi\n      tag_141\n      tag_81\n      jump\t// in\n    tag_141:\n    tag_140:\n      swap1\n      0x00\n      mstore\n      keccak256(0x00, 0x20)\n      swap1\n      0x04\n      mul\n      add\n        /* \"contracts/vending-machine.sol\":3755:3787  Item storage item = items[index] */\n      swap1\n      pop\n        /* \"contracts/vending-machine.sol\":3812:3813  0 */\n      0x00\n        /* \"contracts/vending-machine.sol\":3801:3809  quantity */\n      dup4\n        /* \"contracts/vending-machine.sol\":3801:3813  quantity > 0 */\n      gt\n        /* \"contracts/vending-machine.sol\":3793:3849  require(quantity > 0, 'Quantity must be greater than 0') */\n      tag_143\n      jumpi\n      mload(0x40)\n      0x08c379a000000000000000000000000000000000000000000000000000000000\n      dup2\n      mstore\n      0x04\n      add\n      tag_144\n      swap1\n      tag_145\n      jump\t// in\n    tag_144:\n      mload(0x40)\n      dup1\n      swap2\n      sub\n      swap1\n      revert\n    tag_143:\n        /* \"contracts/vending-machine.sol\":3855:3873  uint256 totalPrice */\n      0x00\n        /* \"contracts/vending-machine.sol\":3889:3897  quantity */\n      dup4\n        /* \"contracts/vending-machine.sol\":3876:3880  item */\n      dup3\n        /* \"contracts/vending-machine.sol\":3876:3886  item.price */\n      0x02\n      add\n      sload\n        /* \"contracts/vending-machine.sol\":3876:3897  item.price * quantity */\n      tag_146\n      swap2\n      swap1\n      tag_147\n      jump\t// in\n    tag_146:\n        /* \"contracts/vending-machine.sol\":3855:3897  uint256 totalPrice = item.price * quantity */\n      swap1\n      pop\n        /* \"contracts/vending-machine.sol\":3925:3935  totalPrice */\n      dup1\n        /* \"contracts/vending-machine.sol\":3912:3921  msg.value */\n      callvalue\n        /* \"contracts/vending-machine.sol\":3912:3935  msg.value >= totalPrice */\n      lt\n      iszero\n        /* \"contracts/vending-machine.sol\":3904:3964  require(msg.value >= totalPrice, 'Insufficient Ether sent!') */\n      tag_148\n      jumpi\n      mload(0x40)\n      0x08c379a000000000000000000000000000000000000000000000000000000000\n      dup2\n      mstore\n      0x04\n      add\n      tag_149\n      swap1\n      tag_150\n      jump\t// in\n    tag_149:\n      mload(0x40)\n      dup1\n      swap2\n      sub\n      swap1\n      revert\n    tag_148:\n        /* \"contracts/vending-machine.sol\":4020:4028  quantity */\n      dup4\n        /* \"contracts/vending-machine.sol\":4003:4007  item */\n      dup3\n        /* \"contracts/vending-machine.sol\":4003:4016  item.quantity */\n      0x03\n      add\n      0x00\n        /* \"contracts/vending-machine.sol\":4003:4028  item.quantity -= quantity */\n      dup3\n      dup3\n      sload\n      tag_151\n      swap2\n      swap1\n      tag_99\n      jump\t// in\n    tag_151:\n      swap3\n      pop\n      pop\n      dup2\n      swap1\n      sstore\n      pop\n        /* \"contracts/vending-machine.sol\":4085:4095  totalPrice */\n      dup1\n        /* \"contracts/vending-machine.sol\":4073:4082  msg.value */\n      callvalue\n        /* \"contracts/vending-machine.sol\":4073:4095  msg.value > totalPrice */\n      gt\n        /* \"contracts/vending-machine.sol\":4069:4164  if (msg.value > totalPrice) {... */\n      iszero\n      tag_152\n      jumpi\n        /* \"contracts/vending-machine.sol\":4113:4123  msg.sender */\n      caller\n        /* \"contracts/vending-machine.sol\":4105:4133  payable(msg.sender).transfer */\n      0xffffffffffffffffffffffffffffffffffffffff\n      and\n        /* \"contracts/vending-machine.sol\":4105:4157  payable(msg.sender).transfer(msg.value - totalPrice) */\n      0x08fc\n        /* \"contracts/vending-machine.sol\":4146:4156  totalPrice */\n      dup3\n        /* \"contracts/vending-machine.sol\":4134:4143  msg.value */\n      callvalue\n        /* \"contracts/vending-machine.sol\":4134:4156  msg.value - totalPrice */\n      tag_153\n      swap2\n      swap1\n      tag_99\n      jump\t// in\n    tag_153:\n        /* \"contracts/vending-machine.sol\":4105:4157  payable(msg.sender).transfer(msg.value - totalPrice) */\n      swap1\n      dup2\n      iszero\n      mul\n      swap1\n      mload(0x40)\n      0x00\n      mload(0x40)\n      dup1\n      dup4\n      sub\n      dup2\n      dup6\n      dup9\n      dup9\n      call\n      swap4\n      pop\n      pop\n      pop\n      pop\n      iszero\n      dup1\n      iszero\n      tag_155\n      jumpi\n      returndatasize\n      0x00\n      dup1\n      returndatacopy\n      revert(0x00, returndatasize)\n    tag_155:\n      pop\n        /* \"contracts/vending-machine.sol\":4069:4164  if (msg.value > totalPrice) {... */\n    tag_152:\n        /* \"contracts/vending-machine.sol\":4192:4202  msg.sender */\n      caller\n        /* \"contracts/vending-machine.sol\":4174:4225  ItemPurchased(id, msg.sender, quantity, totalPrice) */\n      0xffffffffffffffffffffffffffffffffffffffff\n      and\n        /* \"contracts/vending-machine.sol\":4188:4190  id */\n      dup6\n        /* \"contracts/vending-machine.sol\":4174:4225  ItemPurchased(id, msg.sender, quantity, totalPrice) */\n      0x7e90354d1b8c35feb2fac2d29c9e6d5a7daa4d8d4e97ac36fd94cc11a3db3d9e\n        /* \"contracts/vending-machine.sol\":4204:4212  quantity */\n      dup7\n        /* \"contracts/vending-machine.sol\":4214:4224  totalPrice */\n      dup5\n        /* \"contracts/vending-machine.sol\":4174:4225  ItemPurchased(id, msg.sender, quantity, totalPrice) */\n      mload(0x40)\n      tag_156\n      swap3\n      swap2\n      swap1\n      tag_157\n      jump\t// in\n    tag_156:\n      mload(0x40)\n      dup1\n      swap2\n      sub\n      swap1\n      log3\n        /* \"contracts/vending-machine.sol\":3652:4230  {... */\n      pop\n      pop\n      pop\n        /* \"contracts/vending-machine.sol\":3583:4230  function purchaseItem(uint256 id, uint256 quantity) external payable {... */\n      pop\n      pop\n      jump\t// out\n        /* \"contracts/vending-machine.sol\":2252:2461  function transferOwnership(address newOwner) external onlyOwner {... */\n    tag_63:\n        /* \"contracts/vending-machine.sol\":1980:1985  owner */\n      0x00\n      dup1\n      sload\n      swap1\n      0x0100\n      exp\n      swap1\n      div\n      0xffffffffffffffffffffffffffffffffffffffff\n      and\n        /* \"contracts/vending-machine.sol\":1966:1985  msg.sender == owner */\n      0xffffffffffffffffffffffffffffffffffffffff\n      and\n        /* \"contracts/vending-machine.sol\":1966:1976  msg.sender */\n      caller\n        /* \"contracts/vending-machine.sol\":1966:1985  msg.sender == owner */\n      0xffffffffffffffffffffffffffffffffffffffff\n      and\n      eq\n        /* \"contracts/vending-machine.sol\":1958:2012  require(msg.sender == owner, 'Not the contract owner') */\n      tag_159\n      jumpi\n      mload(0x40)\n      0x08c379a000000000000000000000000000000000000000000000000000000000\n      dup2\n      mstore\n      0x04\n      add\n      tag_160\n      swap1\n      tag_67\n      jump\t// in\n    tag_160:\n      mload(0x40)\n      dup1\n      swap2\n      sub\n      swap1\n      revert\n    tag_159:\n        /* \"contracts/vending-machine.sol\":2350:2351  0 */\n      0x00\n        /* \"contracts/vending-machine.sol\":2330:2352  newOwner != address(0) */\n      0xffffffffffffffffffffffffffffffffffffffff\n      and\n        /* \"contracts/vending-machine.sol\":2330:2338  newOwner */\n      dup2\n        /* \"contracts/vending-machine.sol\":2330:2352  newOwner != address(0) */\n      0xffffffffffffffffffffffffffffffffffffffff\n      and\n      sub\n        /* \"contracts/vending-machine.sol\":2322:2386  require(newOwner != address(0), 'Invalid address for new owner') */\n      tag_162\n      jumpi\n      mload(0x40)\n      0x08c379a000000000000000000000000000000000000000000000000000000000\n      dup2\n      mstore\n      0x04\n      add\n      tag_163\n      swap1\n      tag_164\n      jump\t// in\n    tag_163:\n      mload(0x40)\n      dup1\n      swap2\n      sub\n      swap1\n      revert\n    tag_162:\n        /* \"contracts/vending-machine.sol\":2425:2433  newOwner */\n      dup1\n        /* \"contracts/vending-machine.sol\":2397:2434  OwnershipTransferred(owner, newOwner) */\n      0xffffffffffffffffffffffffffffffffffffffff\n      and\n        /* \"contracts/vending-machine.sol\":2418:2423  owner */\n      0x00\n      dup1\n      sload\n      swap1\n      0x0100\n      exp\n      swap1\n      div\n      0xffffffffffffffffffffffffffffffffffffffff\n      and\n        /* \"contracts/vending-machine.sol\":2397:2434  OwnershipTransferred(owner, newOwner) */\n      0xffffffffffffffffffffffffffffffffffffffff\n      and\n      0x8be0079c531659141344cd1fd0a4f28419497f9722a3daafe3b4186f6b6457e0\n      mload(0x40)\n      mload(0x40)\n      dup1\n      swap2\n      sub\n      swap1\n      log3\n        /* \"contracts/vending-machine.sol\":2448:2456  newOwner */\n      dup1\n        /* \"contracts/vending-machine.sol\":2440:2445  owner */\n      0x00\n      dup1\n        /* \"contracts/vending-machine.sol\":2440:2456  owner = newOwner */\n      0x0100\n      exp\n      dup2\n      sload\n      dup2\n      0xffffffffffffffffffffffffffffffffffffffff\n      mul\n      not\n      and\n      swap1\n      dup4\n      0xffffffffffffffffffffffffffffffffffffffff\n      and\n      mul\n      or\n      swap1\n      sstore\n      pop\n        /* \"contracts/vending-machine.sol\":2252:2461  function transferOwnership(address newOwner) external onlyOwner {... */\n      pop\n      jump\t// out\n        /* \"contracts/vending-machine.sol\":5495:5716  function _getItemIndex(uint256 id) internal view returns (uint256 index) {... */\n    tag_94:\n        /* \"contracts/vending-machine.sol\":5553:5566  uint256 index */\n      0x00\n        /* \"contracts/vending-machine.sol\":5579:5588  uint256 i */\n      dup1\n        /* \"contracts/vending-machine.sol\":5591:5592  0 */\n      0x00\n        /* \"contracts/vending-machine.sol\":5579:5592  uint256 i = 0 */\n      swap1\n      pop\n        /* \"contracts/vending-machine.sol\":5574:5681  for (uint256 i = 0; i < items.length; i++) {... */\n    tag_166:\n        /* \"contracts/vending-machine.sol\":5598:5603  items */\n      0x01\n        /* \"contracts/vending-machine.sol\":5598:5610  items.length */\n      dup1\n      sload\n      swap1\n      pop\n        /* \"contracts/vending-machine.sol\":5594:5595  i */\n      dup2\n        /* \"contracts/vending-machine.sol\":5594:5610  i < items.length */\n      lt\n        /* \"contracts/vending-machine.sol\":5574:5681  for (uint256 i = 0; i < items.length; i++) {... */\n      iszero\n      tag_167\n      jumpi\n        /* \"contracts/vending-machine.sol\":5644:5646  id */\n      dup3\n        /* \"contracts/vending-machine.sol\":5629:5634  items */\n      0x01\n        /* \"contracts/vending-machine.sol\":5635:5636  i */\n      dup3\n        /* \"contracts/vending-machine.sol\":5629:5637  items[i] */\n      dup2\n      sload\n      dup2\n      lt\n      tag_169\n      jumpi\n      tag_170\n      tag_81\n      jump\t// in\n    tag_170:\n    tag_169:\n      swap1\n      0x00\n      mstore\n      keccak256(0x00, 0x20)\n      swap1\n      0x04\n      mul\n      add\n        /* \"contracts/vending-machine.sol\":5629:5640  items[i].id */\n      0x00\n      add\n      sload\n        /* \"contracts/vending-machine.sol\":5629:5646  items[i].id == id */\n      sub\n        /* \"contracts/vending-machine.sol\":5625:5675  if (items[i].id == id) {... */\n      tag_172\n      jumpi\n        /* \"contracts/vending-machine.sol\":5665:5666  i */\n      dup1\n        /* \"contracts/vending-machine.sol\":5658:5666  return i */\n      swap2\n      pop\n      pop\n      jump(tag_165)\n        /* \"contracts/vending-machine.sol\":5625:5675  if (items[i].id == id) {... */\n    tag_172:\n        /* \"contracts/vending-machine.sol\":5612:5615  i++ */\n      dup1\n      dup1\n      0x01\n      add\n      swap2\n      pop\n      pop\n        /* \"contracts/vending-machine.sol\":5574:5681  for (uint256 i = 0; i < items.length; i++) {... */\n      jump(tag_166)\n    tag_167:\n      pop\n        /* \"contracts/vending-machine.sol\":5686:5711  revert('Item not found!') */\n      mload(0x40)\n      0x08c379a000000000000000000000000000000000000000000000000000000000\n      dup2\n      mstore\n      0x04\n      add\n      tag_173\n      swap1\n      tag_174\n      jump\t// in\n    tag_173:\n      mload(0x40)\n      dup1\n      swap2\n      sub\n      swap1\n      revert\n        /* \"contracts/vending-machine.sol\":5495:5716  function _getItemIndex(uint256 id) internal view returns (uint256 index) {... */\n    tag_165:\n      swap2\n      swap1\n      pop\n      jump\t// out\n    tag_113:\n      pop\n      dup1\n      sload\n      tag_175\n      swap1\n      tag_84\n      jump\t// in\n    tag_175:\n      0x00\n      dup3\n      sstore\n      dup1\n      0x1f\n      lt\n      tag_177\n      jumpi\n      pop\n      jump(tag_176)\n    tag_177:\n      0x1f\n      add\n      0x20\n      swap1\n      div\n      swap1\n      0x00\n      mstore\n      keccak256(0x00, 0x20)\n      swap1\n      dup2\n      add\n      swap1\n      tag_178\n      swap2\n      swap1\n      tag_179\n      jump\t// in\n    tag_178:\n    tag_176:\n      pop\n      jump\t// out\n    tag_179:\n    tag_180:\n      dup1\n      dup3\n      gt\n      iszero\n      tag_181\n      jumpi\n      0x00\n      dup2\n      0x00\n      swap1\n      sstore\n      pop\n      0x01\n      add\n      jump(tag_180)\n    tag_181:\n      pop\n      swap1\n      jump\t// out\n        /* \"#utility.yul\":7:84   */\n    tag_182:\n        /* \"#utility.yul\":44:51   */\n      0x00\n        /* \"#utility.yul\":73:78   */\n      dup2\n        /* \"#utility.yul\":62:78   */\n      swap1\n      pop\n        /* \"#utility.yul\":7:84   */\n      swap2\n      swap1\n      pop\n      jump\t// out\n        /* \"#utility.yul\":90:208   */\n    tag_183:\n        /* \"#utility.yul\":177:201   */\n      tag_247\n        /* \"#utility.yul\":195:200   */\n      dup2\n        /* \"#utility.yul\":177:201   */\n      tag_182\n      jump\t// in\n    tag_247:\n        /* \"#utility.yul\":172:175   */\n      dup3\n        /* \"#utility.yul\":165:202   */\n      mstore\n        /* \"#utility.yul\":90:208   */\n      pop\n      pop\n      jump\t// out\n        /* \"#utility.yul\":214:436   */\n    tag_17:\n        /* \"#utility.yul\":307:311   */\n      0x00\n        /* \"#utility.yul\":345:347   */\n      0x20\n        /* \"#utility.yul\":334:343   */\n      dup3\n        /* \"#utility.yul\":330:348   */\n      add\n        /* \"#utility.yul\":322:348   */\n      swap1\n      pop\n        /* \"#utility.yul\":358:429   */\n      tag_249\n        /* \"#utility.yul\":426:427   */\n      0x00\n        /* \"#utility.yul\":415:424   */\n      dup4\n        /* \"#utility.yul\":411:428   */\n      add\n        /* \"#utility.yul\":402:408   */\n      dup5\n        /* \"#utility.yul\":358:429   */\n      tag_183\n      jump\t// in\n    tag_249:\n        /* \"#utility.yul\":214:436   */\n      swap3\n      swap2\n      pop\n      pop\n      jump\t// out\n        /* \"#utility.yul\":442:517   */\n    tag_184:\n        /* \"#utility.yul\":475:481   */\n      0x00\n        /* \"#utility.yul\":508:510   */\n      0x40\n        /* \"#utility.yul\":502:511   */\n      mload\n        /* \"#utility.yul\":492:511   */\n      swap1\n      pop\n        /* \"#utility.yul\":442:517   */\n      swap1\n      jump\t// out\n        /* \"#utility.yul\":523:640   */\n    tag_185:\n        /* \"#utility.yul\":632:633   */\n      0x00\n        /* \"#utility.yul\":629:630   */\n      dup1\n        /* \"#utility.yul\":622:634   */\n      revert\n        /* \"#utility.yul\":646:763   */\n    tag_186:\n        /* \"#utility.yul\":755:756   */\n      0x00\n        /* \"#utility.yul\":752:753   */\n      dup1\n        /* \"#utility.yul\":745:757   */\n      revert\n        /* \"#utility.yul\":769:891   */\n    tag_187:\n        /* \"#utility.yul\":842:866   */\n      tag_254\n        /* \"#utility.yul\":860:865   */\n      dup2\n        /* \"#utility.yul\":842:866   */\n      tag_182\n      jump\t// in\n    tag_254:\n        /* \"#utility.yul\":835:840   */\n      dup2\n        /* \"#utility.yul\":832:867   */\n      eq\n        /* \"#utility.yul\":822:885   */\n      tag_255\n      jumpi\n        /* \"#utility.yul\":881:882   */\n      0x00\n        /* \"#utility.yul\":878:879   */\n      dup1\n        /* \"#utility.yul\":871:883   */\n      revert\n        /* \"#utility.yul\":822:885   */\n    tag_255:\n        /* \"#utility.yul\":769:891   */\n      pop\n      jump\t// out\n        /* \"#utility.yul\":897:1036   */\n    tag_188:\n        /* \"#utility.yul\":943:948   */\n      0x00\n        /* \"#utility.yul\":981:987   */\n      dup2\n        /* \"#utility.yul\":968:988   */\n      calldataload\n        /* \"#utility.yul\":959:988   */\n      swap1\n      pop\n        /* \"#utility.yul\":997:1030   */\n      tag_257\n        /* \"#utility.yul\":1024:1029   */\n      dup2\n        /* \"#utility.yul\":997:1030   */\n      tag_187\n      jump\t// in\n    tag_257:\n        /* \"#utility.yul\":897:1036   */\n      swap3\n      swap2\n      pop\n      pop\n      jump\t// out\n        /* \"#utility.yul\":1042:1371   */\n    tag_24:\n        /* \"#utility.yul\":1101:1107   */\n      0x00\n        /* \"#utility.yul\":1150:1152   */\n      0x20\n        /* \"#utility.yul\":1138:1147   */\n      dup3\n        /* \"#utility.yul\":1129:1136   */\n      dup5\n        /* \"#utility.yul\":1125:1148   */\n      sub\n        /* \"#utility.yul\":1121:1153   */\n      slt\n        /* \"#utility.yul\":1118:1237   */\n      iszero\n      tag_259\n      jumpi\n        /* \"#utility.yul\":1156:1235   */\n      tag_260\n      tag_185\n      jump\t// in\n    tag_260:\n        /* \"#utility.yul\":1118:1237   */\n    tag_259:\n        /* \"#utility.yul\":1276:1277   */\n      0x00\n        /* \"#utility.yul\":1301:1354   */\n      tag_261\n        /* \"#utility.yul\":1346:1353   */\n      dup5\n        /* \"#utility.yul\":1337:1343   */\n      dup3\n        /* \"#utility.yul\":1326:1335   */\n      dup6\n        /* \"#utility.yul\":1322:1344   */\n      add\n        /* \"#utility.yul\":1301:1354   */\n      tag_188\n      jump\t// in\n    tag_261:\n        /* \"#utility.yul\":1291:1354   */\n      swap2\n      pop\n        /* \"#utility.yul\":1247:1364   */\n      pop\n        /* \"#utility.yul\":1042:1371   */\n      swap3\n      swap2\n      pop\n      pop\n      jump\t// out\n        /* \"#utility.yul\":1377:1476   */\n    tag_189:\n        /* \"#utility.yul\":1429:1435   */\n      0x00\n        /* \"#utility.yul\":1463:1468   */\n      dup2\n        /* \"#utility.yul\":1457:1469   */\n      mload\n        /* \"#utility.yul\":1447:1469   */\n      swap1\n      pop\n        /* \"#utility.yul\":1377:1476   */\n      swap2\n      swap1\n      pop\n      jump\t// out\n        /* \"#utility.yul\":1482:1651   */\n    tag_190:\n        /* \"#utility.yul\":1566:1577   */\n      0x00\n        /* \"#utility.yul\":1600:1606   */\n      dup3\n        /* \"#utility.yul\":1595:1598   */\n      dup3\n        /* \"#utility.yul\":1588:1607   */\n      mstore\n        /* \"#utility.yul\":1640:1644   */\n      0x20\n        /* \"#utility.yul\":1635:1638   */\n      dup3\n        /* \"#utility.yul\":1631:1645   */\n      add\n        /* \"#utility.yul\":1616:1645   */\n      swap1\n      pop\n        /* \"#utility.yul\":1482:1651   */\n      swap3\n      swap2\n      pop\n      pop\n      jump\t// out\n        /* \"#utility.yul\":1657:1796   */\n    tag_191:\n        /* \"#utility.yul\":1746:1752   */\n      dup3\n        /* \"#utility.yul\":1741:1744   */\n      dup2\n        /* \"#utility.yul\":1736:1739   */\n      dup4\n        /* \"#utility.yul\":1730:1753   */\n      mcopy\n        /* \"#utility.yul\":1787:1788   */\n      0x00\n        /* \"#utility.yul\":1778:1784   */\n      dup4\n        /* \"#utility.yul\":1773:1776   */\n      dup4\n        /* \"#utility.yul\":1769:1785   */\n      add\n        /* \"#utility.yul\":1762:1789   */\n      mstore\n        /* \"#utility.yul\":1657:1796   */\n      pop\n      pop\n      pop\n      jump\t// out\n        /* \"#utility.yul\":1802:1904   */\n    tag_192:\n        /* \"#utility.yul\":1843:1849   */\n      0x00\n        /* \"#utility.yul\":1894:1896   */\n      0x1f\n        /* \"#utility.yul\":1890:1897   */\n      not\n        /* \"#utility.yul\":1885:1887   */\n      0x1f\n        /* \"#utility.yul\":1878:1883   */\n      dup4\n        /* \"#utility.yul\":1874:1888   */\n      add\n        /* \"#utility.yul\":1870:1898   */\n      and\n        /* \"#utility.yul\":1860:1898   */\n      swap1\n      pop\n        /* \"#utility.yul\":1802:1904   */\n      swap2\n      swap1\n      pop\n      jump\t// out\n        /* \"#utility.yul\":1910:2287   */\n    tag_193:\n        /* \"#utility.yul\":1998:2001   */\n      0x00\n        /* \"#utility.yul\":2026:2065   */\n      tag_267\n        /* \"#utility.yul\":2059:2064   */\n      dup3\n        /* \"#utility.yul\":2026:2065   */\n      tag_189\n      jump\t// in\n    tag_267:\n        /* \"#utility.yul\":2081:2152   */\n      tag_268\n        /* \"#utility.yul\":2145:2151   */\n      dup2\n        /* \"#utility.yul\":2140:2143   */\n      dup6\n        /* \"#utility.yul\":2081:2152   */\n      tag_190\n      jump\t// in\n    tag_268:\n        /* \"#utility.yul\":2074:2152   */\n      swap4\n      pop\n        /* \"#utility.yul\":2161:2226   */\n      tag_269\n        /* \"#utility.yul\":2219:2225   */\n      dup2\n        /* \"#utility.yul\":2214:2217   */\n      dup6\n        /* \"#utility.yul\":2207:2211   */\n      0x20\n        /* \"#utility.yul\":2200:2205   */\n      dup7\n        /* \"#utility.yul\":2196:2212   */\n      add\n        /* \"#utility.yul\":2161:2226   */\n      tag_191\n      jump\t// in\n    tag_269:\n        /* \"#utility.yul\":2251:2280   */\n      tag_270\n        /* \"#utility.yul\":2273:2279   */\n      dup2\n        /* \"#utility.yul\":2251:2280   */\n      tag_192\n      jump\t// in\n    tag_270:\n        /* \"#utility.yul\":2246:2249   */\n      dup5\n        /* \"#utility.yul\":2242:2281   */\n      add\n        /* \"#utility.yul\":2235:2281   */\n      swap2\n      pop\n        /* \"#utility.yul\":2002:2287   */\n      pop\n        /* \"#utility.yul\":1910:2287   */\n      swap3\n      swap2\n      pop\n      pop\n      jump\t// out\n        /* \"#utility.yul\":2293:2937   */\n    tag_27:\n        /* \"#utility.yul\":2490:2494   */\n      0x00\n        /* \"#utility.yul\":2528:2531   */\n      0x80\n        /* \"#utility.yul\":2517:2526   */\n      dup3\n        /* \"#utility.yul\":2513:2532   */\n      add\n        /* \"#utility.yul\":2505:2532   */\n      swap1\n      pop\n        /* \"#utility.yul\":2542:2613   */\n      tag_272\n        /* \"#utility.yul\":2610:2611   */\n      0x00\n        /* \"#utility.yul\":2599:2608   */\n      dup4\n        /* \"#utility.yul\":2595:2612   */\n      add\n        /* \"#utility.yul\":2586:2592   */\n      dup8\n        /* \"#utility.yul\":2542:2613   */\n      tag_183\n      jump\t// in\n    tag_272:\n        /* \"#utility.yul\":2660:2669   */\n      dup2\n        /* \"#utility.yul\":2654:2658   */\n      dup2\n        /* \"#utility.yul\":2650:2670   */\n      sub\n        /* \"#utility.yul\":2645:2647   */\n      0x20\n        /* \"#utility.yul\":2634:2643   */\n      dup4\n        /* \"#utility.yul\":2630:2648   */\n      add\n        /* \"#utility.yul\":2623:2671   */\n      mstore\n        /* \"#utility.yul\":2688:2766   */\n      tag_273\n        /* \"#utility.yul\":2761:2765   */\n      dup2\n        /* \"#utility.yul\":2752:2758   */\n      dup7\n        /* \"#utility.yul\":2688:2766   */\n      tag_193\n      jump\t// in\n    tag_273:\n        /* \"#utility.yul\":2680:2766   */\n      swap1\n      pop\n        /* \"#utility.yul\":2776:2848   */\n      tag_274\n        /* \"#utility.yul\":2844:2846   */\n      0x40\n        /* \"#utility.yul\":2833:2842   */\n      dup4\n        /* \"#utility.yul\":2829:2847   */\n      add\n        /* \"#utility.yul\":2820:2826   */\n      dup6\n        /* \"#utility.yul\":2776:2848   */\n      tag_183\n      jump\t// in\n    tag_274:\n        /* \"#utility.yul\":2858:2930   */\n      tag_275\n        /* \"#utility.yul\":2926:2928   */\n      0x60\n        /* \"#utility.yul\":2915:2924   */\n      dup4\n        /* \"#utility.yul\":2911:2929   */\n      add\n        /* \"#utility.yul\":2902:2908   */\n      dup5\n        /* \"#utility.yul\":2858:2930   */\n      tag_183\n      jump\t// in\n    tag_275:\n        /* \"#utility.yul\":2293:2937   */\n      swap6\n      swap5\n      pop\n      pop\n      pop\n      pop\n      pop\n      jump\t// out\n        /* \"#utility.yul\":2943:3069   */\n    tag_194:\n        /* \"#utility.yul\":2980:2987   */\n      0x00\n        /* \"#utility.yul\":3020:3062   */\n      0xffffffffffffffffffffffffffffffffffffffff\n        /* \"#utility.yul\":3013:3018   */\n      dup3\n        /* \"#utility.yul\":3009:3063   */\n      and\n        /* \"#utility.yul\":2998:3063   */\n      swap1\n      pop\n        /* \"#utility.yul\":2943:3069   */\n      swap2\n      swap1\n      pop\n      jump\t// out\n        /* \"#utility.yul\":3075:3171   */\n    tag_195:\n        /* \"#utility.yul\":3112:3119   */\n      0x00\n        /* \"#utility.yul\":3141:3165   */\n      tag_278\n        /* \"#utility.yul\":3159:3164   */\n      dup3\n        /* \"#utility.yul\":3141:3165   */\n      tag_194\n      jump\t// in\n    tag_278:\n        /* \"#utility.yul\":3130:3165   */\n      swap1\n      pop\n        /* \"#utility.yul\":3075:3171   */\n      swap2\n      swap1\n      pop\n      jump\t// out\n        /* \"#utility.yul\":3177:3295   */\n    tag_196:\n        /* \"#utility.yul\":3264:3288   */\n      tag_280\n        /* \"#utility.yul\":3282:3287   */\n      dup2\n        /* \"#utility.yul\":3264:3288   */\n      tag_195\n      jump\t// in\n    tag_280:\n        /* \"#utility.yul\":3259:3262   */\n      dup3\n        /* \"#utility.yul\":3252:3289   */\n      mstore\n        /* \"#utility.yul\":3177:3295   */\n      pop\n      pop\n      jump\t// out\n        /* \"#utility.yul\":3301:3523   */\n    tag_44:\n        /* \"#utility.yul\":3394:3398   */\n      0x00\n        /* \"#utility.yul\":3432:3434   */\n      0x20\n        /* \"#utility.yul\":3421:3430   */\n      dup3\n        /* \"#utility.yul\":3417:3435   */\n      add\n        /* \"#utility.yul\":3409:3435   */\n      swap1\n      pop\n        /* \"#utility.yul\":3445:3516   */\n      tag_282\n        /* \"#utility.yul\":3513:3514   */\n      0x00\n        /* \"#utility.yul\":3502:3511   */\n      dup4\n        /* \"#utility.yul\":3498:3515   */\n      add\n        /* \"#utility.yul\":3489:3495   */\n      dup5\n        /* \"#utility.yul\":3445:3516   */\n      tag_196\n      jump\t// in\n    tag_282:\n        /* \"#utility.yul\":3301:3523   */\n      swap3\n      swap2\n      pop\n      pop\n      jump\t// out\n        /* \"#utility.yul\":3529:3646   */\n    tag_197:\n        /* \"#utility.yul\":3638:3639   */\n      0x00\n        /* \"#utility.yul\":3635:3636   */\n      dup1\n        /* \"#utility.yul\":3628:3640   */\n      revert\n        /* \"#utility.yul\":3652:3769   */\n    tag_198:\n        /* \"#utility.yul\":3761:3762   */\n      0x00\n        /* \"#utility.yul\":3758:3759   */\n      dup1\n        /* \"#utility.yul\":3751:3763   */\n      revert\n        /* \"#utility.yul\":3775:3955   */\n    tag_199:\n        /* \"#utility.yul\":3823:3900   */\n      0x4e487b7100000000000000000000000000000000000000000000000000000000\n        /* \"#utility.yul\":3820:3821   */\n      0x00\n        /* \"#utility.yul\":3813:3901   */\n      mstore\n        /* \"#utility.yul\":3920:3924   */\n      0x41\n        /* \"#utility.yul\":3917:3918   */\n      0x04\n        /* \"#utility.yul\":3910:3925   */\n      mstore\n        /* \"#utility.yul\":3944:3948   */\n      0x24\n        /* \"#utility.yul\":3941:3942   */\n      0x00\n        /* \"#utility.yul\":3934:3949   */\n      revert\n        /* \"#utility.yul\":3961:4242   */\n    tag_200:\n        /* \"#utility.yul\":4044:4071   */\n      tag_287\n        /* \"#utility.yul\":4066:4070   */\n      dup3\n        /* \"#utility.yul\":4044:4071   */\n      tag_192\n      jump\t// in\n    tag_287:\n        /* \"#utility.yul\":4036:4042   */\n      dup2\n        /* \"#utility.yul\":4032:4072   */\n      add\n        /* \"#utility.yul\":4174:4180   */\n      dup2\n        /* \"#utility.yul\":4162:4172   */\n      dup2\n        /* \"#utility.yul\":4159:4181   */\n      lt\n        /* \"#utility.yul\":4138:4156   */\n      0xffffffffffffffff\n        /* \"#utility.yul\":4126:4136   */\n      dup3\n        /* \"#utility.yul\":4123:4157   */\n      gt\n        /* \"#utility.yul\":4120:4182   */\n      or\n        /* \"#utility.yul\":4117:4205   */\n      iszero\n      tag_288\n      jumpi\n        /* \"#utility.yul\":4185:4203   */\n      tag_289\n      tag_199\n      jump\t// in\n    tag_289:\n        /* \"#utility.yul\":4117:4205   */\n    tag_288:\n        /* \"#utility.yul\":4225:4235   */\n      dup1\n        /* \"#utility.yul\":4221:4223   */\n      0x40\n        /* \"#utility.yul\":4214:4236   */\n      mstore\n        /* \"#utility.yul\":4004:4242   */\n      pop\n        /* \"#utility.yul\":3961:4242   */\n      pop\n      pop\n      jump\t// out\n        /* \"#utility.yul\":4248:4377   */\n    tag_201:\n        /* \"#utility.yul\":4282:4288   */\n      0x00\n        /* \"#utility.yul\":4309:4329   */\n      tag_291\n      tag_184\n      jump\t// in\n    tag_291:\n        /* \"#utility.yul\":4299:4329   */\n      swap1\n      pop\n        /* \"#utility.yul\":4338:4371   */\n      tag_292\n        /* \"#utility.yul\":4366:4370   */\n      dup3\n        /* \"#utility.yul\":4358:4364   */\n      dup3\n        /* \"#utility.yul\":4338:4371   */\n      tag_200\n      jump\t// in\n    tag_292:\n        /* \"#utility.yul\":4248:4377   */\n      swap2\n      swap1\n      pop\n      jump\t// out\n        /* \"#utility.yul\":4383:4691   */\n    tag_202:\n        /* \"#utility.yul\":4445:4449   */\n      0x00\n        /* \"#utility.yul\":4535:4553   */\n      0xffffffffffffffff\n        /* \"#utility.yul\":4527:4533   */\n      dup3\n        /* \"#utility.yul\":4524:4554   */\n      gt\n        /* \"#utility.yul\":4521:4577   */\n      iszero\n      tag_294\n      jumpi\n        /* \"#utility.yul\":4557:4575   */\n      tag_295\n      tag_199\n      jump\t// in\n    tag_295:\n        /* \"#utility.yul\":4521:4577   */\n    tag_294:\n        /* \"#utility.yul\":4595:4624   */\n      tag_296\n        /* \"#utility.yul\":4617:4623   */\n      dup3\n        /* \"#utility.yul\":4595:4624   */\n      tag_192\n      jump\t// in\n    tag_296:\n        /* \"#utility.yul\":4587:4624   */\n      swap1\n      pop\n        /* \"#utility.yul\":4679:4683   */\n      0x20\n        /* \"#utility.yul\":4673:4677   */\n      dup2\n        /* \"#utility.yul\":4669:4684   */\n      add\n        /* \"#utility.yul\":4661:4684   */\n      swap1\n      pop\n        /* \"#utility.yul\":4383:4691   */\n      swap2\n      swap1\n      pop\n      jump\t// out\n        /* \"#utility.yul\":4697:4845   */\n    tag_203:\n        /* \"#utility.yul\":4795:4801   */\n      dup3\n        /* \"#utility.yul\":4790:4793   */\n      dup2\n        /* \"#utility.yul\":4785:4788   */\n      dup4\n        /* \"#utility.yul\":4772:4802   */\n      calldatacopy\n        /* \"#utility.yul\":4836:4837   */\n      0x00\n        /* \"#utility.yul\":4827:4833   */\n      dup4\n        /* \"#utility.yul\":4822:4825   */\n      dup4\n        /* \"#utility.yul\":4818:4834   */\n      add\n        /* \"#utility.yul\":4811:4838   */\n      mstore\n        /* \"#utility.yul\":4697:4845   */\n      pop\n      pop\n      pop\n      jump\t// out\n        /* \"#utility.yul\":4851:5276   */\n    tag_204:\n        /* \"#utility.yul\":4929:4934   */\n      0x00\n        /* \"#utility.yul\":4954:5020   */\n      tag_299\n        /* \"#utility.yul\":4970:5019   */\n      tag_300\n        /* \"#utility.yul\":5012:5018   */\n      dup5\n        /* \"#utility.yul\":4970:5019   */\n      tag_202\n      jump\t// in\n    tag_300:\n        /* \"#utility.yul\":4954:5020   */\n      tag_201\n      jump\t// in\n    tag_299:\n        /* \"#utility.yul\":4945:5020   */\n      swap1\n      pop\n        /* \"#utility.yul\":5043:5049   */\n      dup3\n        /* \"#utility.yul\":5036:5041   */\n      dup2\n        /* \"#utility.yul\":5029:5050   */\n      mstore\n        /* \"#utility.yul\":5081:5085   */\n      0x20\n        /* \"#utility.yul\":5074:5079   */\n      dup2\n        /* \"#utility.yul\":5070:5086   */\n      add\n        /* \"#utility.yul\":5119:5122   */\n      dup5\n        /* \"#utility.yul\":5110:5116   */\n      dup5\n        /* \"#utility.yul\":5105:5108   */\n      dup5\n        /* \"#utility.yul\":5101:5117   */\n      add\n        /* \"#utility.yul\":5098:5123   */\n      gt\n        /* \"#utility.yul\":5095:5207   */\n      iszero\n      tag_301\n      jumpi\n        /* \"#utility.yul\":5126:5205   */\n      tag_302\n      tag_198\n      jump\t// in\n    tag_302:\n        /* \"#utility.yul\":5095:5207   */\n    tag_301:\n        /* \"#utility.yul\":5216:5270   */\n      tag_303\n        /* \"#utility.yul\":5263:5269   */\n      dup5\n        /* \"#utility.yul\":5258:5261   */\n      dup3\n        /* \"#utility.yul\":5253:5256   */\n      dup6\n        /* \"#utility.yul\":5216:5270   */\n      tag_203\n      jump\t// in\n    tag_303:\n        /* \"#utility.yul\":4935:5276   */\n      pop\n        /* \"#utility.yul\":4851:5276   */\n      swap4\n      swap3\n      pop\n      pop\n      pop\n      jump\t// out\n        /* \"#utility.yul\":5296:5636   */\n    tag_205:\n        /* \"#utility.yul\":5352:5357   */\n      0x00\n        /* \"#utility.yul\":5401:5404   */\n      dup3\n        /* \"#utility.yul\":5394:5398   */\n      0x1f\n        /* \"#utility.yul\":5386:5392   */\n      dup4\n        /* \"#utility.yul\":5382:5399   */\n      add\n        /* \"#utility.yul\":5378:5405   */\n      slt\n        /* \"#utility.yul\":5368:5490   */\n      tag_305\n      jumpi\n        /* \"#utility.yul\":5409:5488   */\n      tag_306\n      tag_197\n      jump\t// in\n    tag_306:\n        /* \"#utility.yul\":5368:5490   */\n    tag_305:\n        /* \"#utility.yul\":5526:5532   */\n      dup2\n        /* \"#utility.yul\":5513:5533   */\n      calldataload\n        /* \"#utility.yul\":5551:5630   */\n      tag_307\n        /* \"#utility.yul\":5626:5629   */\n      dup5\n        /* \"#utility.yul\":5618:5624   */\n      dup3\n        /* \"#utility.yul\":5611:5615   */\n      0x20\n        /* \"#utility.yul\":5603:5609   */\n      dup7\n        /* \"#utility.yul\":5599:5616   */\n      add\n        /* \"#utility.yul\":5551:5630   */\n      tag_204\n      jump\t// in\n    tag_307:\n        /* \"#utility.yul\":5542:5630   */\n      swap2\n      pop\n        /* \"#utility.yul\":5358:5636   */\n      pop\n        /* \"#utility.yul\":5296:5636   */\n      swap3\n      swap2\n      pop\n      pop\n      jump\t// out\n        /* \"#utility.yul\":5642:6441   */\n    tag_53:\n        /* \"#utility.yul\":5729:5735   */\n      0x00\n        /* \"#utility.yul\":5737:5743   */\n      dup1\n        /* \"#utility.yul\":5745:5751   */\n      0x00\n        /* \"#utility.yul\":5794:5796   */\n      0x60\n        /* \"#utility.yul\":5782:5791   */\n      dup5\n        /* \"#utility.yul\":5773:5780   */\n      dup7\n        /* \"#utility.yul\":5769:5792   */\n      sub\n        /* \"#utility.yul\":5765:5797   */\n      slt\n        /* \"#utility.yul\":5762:5881   */\n      iszero\n      tag_309\n      jumpi\n        /* \"#utility.yul\":5800:5879   */\n      tag_310\n      tag_185\n      jump\t// in\n    tag_310:\n        /* \"#utility.yul\":5762:5881   */\n    tag_309:\n        /* \"#utility.yul\":5948:5949   */\n      0x00\n        /* \"#utility.yul\":5937:5946   */\n      dup5\n        /* \"#utility.yul\":5933:5950   */\n      add\n        /* \"#utility.yul\":5920:5951   */\n      calldataload\n        /* \"#utility.yul\":5978:5996   */\n      0xffffffffffffffff\n        /* \"#utility.yul\":5970:5976   */\n      dup2\n        /* \"#utility.yul\":5967:5997   */\n      gt\n        /* \"#utility.yul\":5964:6081   */\n      iszero\n      tag_311\n      jumpi\n        /* \"#utility.yul\":6000:6079   */\n      tag_312\n      tag_186\n      jump\t// in\n    tag_312:\n        /* \"#utility.yul\":5964:6081   */\n    tag_311:\n        /* \"#utility.yul\":6105:6168   */\n      tag_313\n        /* \"#utility.yul\":6160:6167   */\n      dup7\n        /* \"#utility.yul\":6151:6157   */\n      dup3\n        /* \"#utility.yul\":6140:6149   */\n      dup8\n        /* \"#utility.yul\":6136:6158   */\n      add\n        /* \"#utility.yul\":6105:6168   */\n      tag_205\n      jump\t// in\n    tag_313:\n        /* \"#utility.yul\":6095:6168   */\n      swap4\n      pop\n        /* \"#utility.yul\":5891:6178   */\n      pop\n        /* \"#utility.yul\":6217:6219   */\n      0x20\n        /* \"#utility.yul\":6243:6296   */\n      tag_314\n        /* \"#utility.yul\":6288:6295   */\n      dup7\n        /* \"#utility.yul\":6279:6285   */\n      dup3\n        /* \"#utility.yul\":6268:6277   */\n      dup8\n        /* \"#utility.yul\":6264:6286   */\n      add\n        /* \"#utility.yul\":6243:6296   */\n      tag_188\n      jump\t// in\n    tag_314:\n        /* \"#utility.yul\":6233:6296   */\n      swap3\n      pop\n        /* \"#utility.yul\":6188:6306   */\n      pop\n        /* \"#utility.yul\":6345:6347   */\n      0x40\n        /* \"#utility.yul\":6371:6424   */\n      tag_315\n        /* \"#utility.yul\":6416:6423   */\n      dup7\n        /* \"#utility.yul\":6407:6413   */\n      dup3\n        /* \"#utility.yul\":6396:6405   */\n      dup8\n        /* \"#utility.yul\":6392:6414   */\n      add\n        /* \"#utility.yul\":6371:6424   */\n      tag_188\n      jump\t// in\n    tag_315:\n        /* \"#utility.yul\":6361:6424   */\n      swap2\n      pop\n        /* \"#utility.yul\":6316:6434   */\n      pop\n        /* \"#utility.yul\":5642:6441   */\n      swap3\n      pop\n      swap3\n      pop\n      swap3\n      jump\t// out\n        /* \"#utility.yul\":6447:6921   */\n    tag_57:\n        /* \"#utility.yul\":6515:6521   */\n      0x00\n        /* \"#utility.yul\":6523:6529   */\n      dup1\n        /* \"#utility.yul\":6572:6574   */\n      0x40\n        /* \"#utility.yul\":6560:6569   */\n      dup4\n        /* \"#utility.yul\":6551:6558   */\n      dup6\n        /* \"#utility.yul\":6547:6570   */\n      sub\n        /* \"#utility.yul\":6543:6575   */\n      slt\n        /* \"#utility.yul\":6540:6659   */\n      iszero\n      tag_317\n      jumpi\n        /* \"#utility.yul\":6578:6657   */\n      tag_318\n      tag_185\n      jump\t// in\n    tag_318:\n        /* \"#utility.yul\":6540:6659   */\n    tag_317:\n        /* \"#utility.yul\":6698:6699   */\n      0x00\n        /* \"#utility.yul\":6723:6776   */\n      tag_319\n        /* \"#utility.yul\":6768:6775   */\n      dup6\n        /* \"#utility.yul\":6759:6765   */\n      dup3\n        /* \"#utility.yul\":6748:6757   */\n      dup7\n        /* \"#utility.yul\":6744:6766   */\n      add\n        /* \"#utility.yul\":6723:6776   */\n      tag_188\n      jump\t// in\n    tag_319:\n        /* \"#utility.yul\":6713:6776   */\n      swap3\n      pop\n        /* \"#utility.yul\":6669:6786   */\n      pop\n        /* \"#utility.yul\":6825:6827   */\n      0x20\n        /* \"#utility.yul\":6851:6904   */\n      tag_320\n        /* \"#utility.yul\":6896:6903   */\n      dup6\n        /* \"#utility.yul\":6887:6893   */\n      dup3\n        /* \"#utility.yul\":6876:6885   */\n      dup7\n        /* \"#utility.yul\":6872:6894   */\n      add\n        /* \"#utility.yul\":6851:6904   */\n      tag_188\n      jump\t// in\n    tag_320:\n        /* \"#utility.yul\":6841:6904   */\n      swap2\n      pop\n        /* \"#utility.yul\":6796:6914   */\n      pop\n        /* \"#utility.yul\":6447:6921   */\n      swap3\n      pop\n      swap3\n      swap1\n      pop\n      jump\t// out\n        /* \"#utility.yul\":6927:7049   */\n    tag_206:\n        /* \"#utility.yul\":7000:7024   */\n      tag_322\n        /* \"#utility.yul\":7018:7023   */\n      dup2\n        /* \"#utility.yul\":7000:7024   */\n      tag_195\n      jump\t// in\n    tag_322:\n        /* \"#utility.yul\":6993:6998   */\n      dup2\n        /* \"#utility.yul\":6990:7025   */\n      eq\n        /* \"#utility.yul\":6980:7043   */\n      tag_323\n      jumpi\n        /* \"#utility.yul\":7039:7040   */\n      0x00\n        /* \"#utility.yul\":7036:7037   */\n      dup1\n        /* \"#utility.yul\":7029:7041   */\n      revert\n        /* \"#utility.yul\":6980:7043   */\n    tag_323:\n        /* \"#utility.yul\":6927:7049   */\n      pop\n      jump\t// out\n        /* \"#utility.yul\":7055:7194   */\n    tag_207:\n        /* \"#utility.yul\":7101:7106   */\n      0x00\n        /* \"#utility.yul\":7139:7145   */\n      dup2\n        /* \"#utility.yul\":7126:7146   */\n      calldataload\n        /* \"#utility.yul\":7117:7146   */\n      swap1\n      pop\n        /* \"#utility.yul\":7155:7188   */\n      tag_325\n        /* \"#utility.yul\":7182:7187   */\n      dup2\n        /* \"#utility.yul\":7155:7188   */\n      tag_206\n      jump\t// in\n    tag_325:\n        /* \"#utility.yul\":7055:7194   */\n      swap3\n      swap2\n      pop\n      pop\n      jump\t// out\n        /* \"#utility.yul\":7200:7529   */\n    tag_62:\n        /* \"#utility.yul\":7259:7265   */\n      0x00\n        /* \"#utility.yul\":7308:7310   */\n      0x20\n        /* \"#utility.yul\":7296:7305   */\n      dup3\n        /* \"#utility.yul\":7287:7294   */\n      dup5\n        /* \"#utility.yul\":7283:7306   */\n      sub\n        /* \"#utility.yul\":7279:7311   */\n      slt\n        /* \"#utility.yul\":7276:7395   */\n      iszero\n      tag_327\n      jumpi\n        /* \"#utility.yul\":7314:7393   */\n      tag_328\n      tag_185\n      jump\t// in\n    tag_328:\n        /* \"#utility.yul\":7276:7395   */\n    tag_327:\n        /* \"#utility.yul\":7434:7435   */\n      0x00\n        /* \"#utility.yul\":7459:7512   */\n      tag_329\n        /* \"#utility.yul\":7504:7511   */\n      dup5\n        /* \"#utility.yul\":7495:7501   */\n      dup3\n        /* \"#utility.yul\":7484:7493   */\n      dup6\n        /* \"#utility.yul\":7480:7502   */\n      add\n        /* \"#utility.yul\":7459:7512   */\n      tag_207\n      jump\t// in\n    tag_329:\n        /* \"#utility.yul\":7449:7512   */\n      swap2\n      pop\n        /* \"#utility.yul\":7405:7522   */\n      pop\n        /* \"#utility.yul\":7200:7529   */\n      swap3\n      swap2\n      pop\n      pop\n      jump\t// out\n        /* \"#utility.yul\":7535:7707   */\n    tag_208:\n        /* \"#utility.yul\":7675:7699   */\n      0x4e6f742074686520636f6e7472616374206f776e657200000000000000000000\n        /* \"#utility.yul\":7671:7672   */\n      0x00\n        /* \"#utility.yul\":7663:7669   */\n      dup3\n        /* \"#utility.yul\":7659:7673   */\n      add\n        /* \"#utility.yul\":7652:7700   */\n      mstore\n        /* \"#utility.yul\":7535:7707   */\n      pop\n      jump\t// out\n        /* \"#utility.yul\":7713:8079   */\n    tag_209:\n        /* \"#utility.yul\":7855:7858   */\n      0x00\n        /* \"#utility.yul\":7876:7943   */\n      tag_332\n        /* \"#utility.yul\":7940:7942   */\n      0x16\n        /* \"#utility.yul\":7935:7938   */\n      dup4\n        /* \"#utility.yul\":7876:7943   */\n      tag_190\n      jump\t// in\n    tag_332:\n        /* \"#utility.yul\":7869:7943   */\n      swap2\n      pop\n        /* \"#utility.yul\":7952:8045   */\n      tag_333\n        /* \"#utility.yul\":8041:8044   */\n      dup3\n        /* \"#utility.yul\":7952:8045   */\n      tag_208\n      jump\t// in\n    tag_333:\n        /* \"#utility.yul\":8070:8072   */\n      0x20\n        /* \"#utility.yul\":8065:8068   */\n      dup3\n        /* \"#utility.yul\":8061:8073   */\n      add\n        /* \"#utility.yul\":8054:8073   */\n      swap1\n      pop\n        /* \"#utility.yul\":7713:8079   */\n      swap2\n      swap1\n      pop\n      jump\t// out\n        /* \"#utility.yul\":8085:8504   */\n    tag_67:\n        /* \"#utility.yul\":8251:8255   */\n      0x00\n        /* \"#utility.yul\":8289:8291   */\n      0x20\n        /* \"#utility.yul\":8278:8287   */\n      dup3\n        /* \"#utility.yul\":8274:8292   */\n      add\n        /* \"#utility.yul\":8266:8292   */\n      swap1\n      pop\n        /* \"#utility.yul\":8338:8347   */\n      dup2\n        /* \"#utility.yul\":8332:8336   */\n      dup2\n        /* \"#utility.yul\":8328:8348   */\n      sub\n        /* \"#utility.yul\":8324:8325   */\n      0x00\n        /* \"#utility.yul\":8313:8322   */\n      dup4\n        /* \"#utility.yul\":8309:8326   */\n      add\n        /* \"#utility.yul\":8302:8349   */\n      mstore\n        /* \"#utility.yul\":8366:8497   */\n      tag_335\n        /* \"#utility.yul\":8492:8496   */\n      dup2\n        /* \"#utility.yul\":8366:8497   */\n      tag_209\n      jump\t// in\n    tag_335:\n        /* \"#utility.yul\":8358:8497   */\n      swap1\n      pop\n        /* \"#utility.yul\":8085:8504   */\n      swap2\n      swap1\n      pop\n      jump\t// out\n        /* \"#utility.yul\":8510:8680   */\n    tag_210:\n        /* \"#utility.yul\":8650:8672   */\n      0x4e6f2066756e647320746f207769746864726177000000000000000000000000\n        /* \"#utility.yul\":8646:8647   */\n      0x00\n        /* \"#utility.yul\":8638:8644   */\n      dup3\n        /* \"#utility.yul\":8634:8648   */\n      add\n        /* \"#utility.yul\":8627:8673   */\n      mstore\n        /* \"#utility.yul\":8510:8680   */\n      pop\n      jump\t// out\n        /* \"#utility.yul\":8686:9052   */\n    tag_211:\n        /* \"#utility.yul\":8828:8831   */\n      0x00\n        /* \"#utility.yul\":8849:8916   */\n      tag_338\n        /* \"#utility.yul\":8913:8915   */\n      0x14\n        /* \"#utility.yul\":8908:8911   */\n      dup4\n        /* \"#utility.yul\":8849:8916   */\n      tag_190\n      jump\t// in\n    tag_338:\n        /* \"#utility.yul\":8842:8916   */\n      swap2\n      pop\n        /* \"#utility.yul\":8925:9018   */\n      tag_339\n        /* \"#utility.yul\":9014:9017   */\n      dup3\n        /* \"#utility.yul\":8925:9018   */\n      tag_210\n      jump\t// in\n    tag_339:\n        /* \"#utility.yul\":9043:9045   */\n      0x20\n        /* \"#utility.yul\":9038:9041   */\n      dup3\n        /* \"#utility.yul\":9034:9046   */\n      add\n        /* \"#utility.yul\":9027:9046   */\n      swap1\n      pop\n        /* \"#utility.yul\":8686:9052   */\n      swap2\n      swap1\n      pop\n      jump\t// out\n        /* \"#utility.yul\":9058:9477   */\n    tag_71:\n        /* \"#utility.yul\":9224:9228   */\n      0x00\n        /* \"#utility.yul\":9262:9264   */\n      0x20\n        /* \"#utility.yul\":9251:9260   */\n      dup3\n        /* \"#utility.yul\":9247:9265   */\n      add\n        /* \"#utility.yul\":9239:9265   */\n      swap1\n      pop\n        /* \"#utility.yul\":9311:9320   */\n      dup2\n        /* \"#utility.yul\":9305:9309   */\n      dup2\n        /* \"#utility.yul\":9301:9321   */\n      sub\n        /* \"#utility.yul\":9297:9298   */\n      0x00\n        /* \"#utility.yul\":9286:9295   */\n      dup4\n        /* \"#utility.yul\":9282:9299   */\n      add\n        /* \"#utility.yul\":9275:9322   */\n      mstore\n        /* \"#utility.yul\":9339:9470   */\n      tag_341\n        /* \"#utility.yul\":9465:9469   */\n      dup2\n        /* \"#utility.yul\":9339:9470   */\n      tag_211\n      jump\t// in\n    tag_341:\n        /* \"#utility.yul\":9331:9470   */\n      swap1\n      pop\n        /* \"#utility.yul\":9058:9477   */\n      swap2\n      swap1\n      pop\n      jump\t// out\n        /* \"#utility.yul\":9483:9651   */\n    tag_212:\n        /* \"#utility.yul\":9623:9643   */\n      0x4974656d20646f6573206e6f7420657869740000000000000000000000000000\n        /* \"#utility.yul\":9619:9620   */\n      0x00\n        /* \"#utility.yul\":9611:9617   */\n      dup3\n        /* \"#utility.yul\":9607:9621   */\n      add\n        /* \"#utility.yul\":9600:9644   */\n      mstore\n        /* \"#utility.yul\":9483:9651   */\n      pop\n      jump\t// out\n        /* \"#utility.yul\":9657:10023   */\n    tag_213:\n        /* \"#utility.yul\":9799:9802   */\n      0x00\n        /* \"#utility.yul\":9820:9887   */\n      tag_344\n        /* \"#utility.yul\":9884:9886   */\n      0x12\n        /* \"#utility.yul\":9879:9882   */\n      dup4\n        /* \"#utility.yul\":9820:9887   */\n      tag_190\n      jump\t// in\n    tag_344:\n        /* \"#utility.yul\":9813:9887   */\n      swap2\n      pop\n        /* \"#utility.yul\":9896:9989   */\n      tag_345\n        /* \"#utility.yul\":9985:9988   */\n      dup3\n        /* \"#utility.yul\":9896:9989   */\n      tag_212\n      jump\t// in\n    tag_345:\n        /* \"#utility.yul\":10014:10016   */\n      0x20\n        /* \"#utility.yul\":10009:10012   */\n      dup3\n        /* \"#utility.yul\":10005:10017   */\n      add\n        /* \"#utility.yul\":9998:10017   */\n      swap1\n      pop\n        /* \"#utility.yul\":9657:10023   */\n      swap2\n      swap1\n      pop\n      jump\t// out\n        /* \"#utility.yul\":10029:10448   */\n    tag_78:\n        /* \"#utility.yul\":10195:10199   */\n      0x00\n        /* \"#utility.yul\":10233:10235   */\n      0x20\n        /* \"#utility.yul\":10222:10231   */\n      dup3\n        /* \"#utility.yul\":10218:10236   */\n      add\n        /* \"#utility.yul\":10210:10236   */\n      swap1\n      pop\n        /* \"#utility.yul\":10282:10291   */\n      dup2\n        /* \"#utility.yul\":10276:10280   */\n      dup2\n        /* \"#utility.yul\":10272:10292   */\n      sub\n        /* \"#utility.yul\":10268:10269   */\n      0x00\n        /* \"#utility.yul\":10257:10266   */\n      dup4\n        /* \"#utility.yul\":10253:10270   */\n      add\n        /* \"#utility.yul\":10246:10293   */\n      mstore\n        /* \"#utility.yul\":10310:10441   */\n      tag_347\n        /* \"#utility.yul\":10436:10440   */\n      dup2\n        /* \"#utility.yul\":10310:10441   */\n      tag_213\n      jump\t// in\n    tag_347:\n        /* \"#utility.yul\":10302:10441   */\n      swap1\n      pop\n        /* \"#utility.yul\":10029:10448   */\n      swap2\n      swap1\n      pop\n      jump\t// out\n        /* \"#utility.yul\":10454:10634   */\n    tag_81:\n        /* \"#utility.yul\":10502:10579   */\n      0x4e487b7100000000000000000000000000000000000000000000000000000000\n        /* \"#utility.yul\":10499:10500   */\n      0x00\n        /* \"#utility.yul\":10492:10580   */\n      mstore\n        /* \"#utility.yul\":10599:10603   */\n      0x32\n        /* \"#utility.yul\":10596:10597   */\n      0x04\n        /* \"#utility.yul\":10589:10604   */\n      mstore\n        /* \"#utility.yul\":10623:10627   */\n      0x24\n        /* \"#utility.yul\":10620:10621   */\n      0x00\n        /* \"#utility.yul\":10613:10628   */\n      revert\n        /* \"#utility.yul\":10640:10820   */\n    tag_214:\n        /* \"#utility.yul\":10688:10765   */\n      0x4e487b7100000000000000000000000000000000000000000000000000000000\n        /* \"#utility.yul\":10685:10686   */\n      0x00\n        /* \"#utility.yul\":10678:10766   */\n      mstore\n        /* \"#utility.yul\":10785:10789   */\n      0x22\n        /* \"#utility.yul\":10782:10783   */\n      0x04\n        /* \"#utility.yul\":10775:10790   */\n      mstore\n        /* \"#utility.yul\":10809:10813   */\n      0x24\n        /* \"#utility.yul\":10806:10807   */\n      0x00\n        /* \"#utility.yul\":10799:10814   */\n      revert\n        /* \"#utility.yul\":10826:11146   */\n    tag_84:\n        /* \"#utility.yul\":10870:10876   */\n      0x00\n        /* \"#utility.yul\":10907:10908   */\n      0x02\n        /* \"#utility.yul\":10901:10905   */\n      dup3\n        /* \"#utility.yul\":10897:10909   */\n      div\n        /* \"#utility.yul\":10887:10909   */\n      swap1\n      pop\n        /* \"#utility.yul\":10954:10955   */\n      0x01\n        /* \"#utility.yul\":10948:10952   */\n      dup3\n        /* \"#utility.yul\":10944:10956   */\n      and\n        /* \"#utility.yul\":10975:10993   */\n      dup1\n        /* \"#utility.yul\":10965:11046   */\n      tag_351\n      jumpi\n        /* \"#utility.yul\":11031:11035   */\n      0x7f\n        /* \"#utility.yul\":11023:11029   */\n      dup3\n        /* \"#utility.yul\":11019:11036   */\n      and\n        /* \"#utility.yul\":11009:11036   */\n      swap2\n      pop\n        /* \"#utility.yul\":10965:11046   */\n    tag_351:\n        /* \"#utility.yul\":11093:11095   */\n      0x20\n        /* \"#utility.yul\":11085:11091   */\n      dup3\n        /* \"#utility.yul\":11082:11096   */\n      lt\n        /* \"#utility.yul\":11062:11080   */\n      dup2\n        /* \"#utility.yul\":11059:11097   */\n      sub\n        /* \"#utility.yul\":11056:11140   */\n      tag_352\n      jumpi\n        /* \"#utility.yul\":11112:11130   */\n      tag_353\n      tag_214\n      jump\t// in\n    tag_353:\n        /* \"#utility.yul\":11056:11140   */\n    tag_352:\n        /* \"#utility.yul\":10877:11146   */\n      pop\n        /* \"#utility.yul\":10826:11146   */\n      swap2\n      swap1\n      pop\n      jump\t// out\n        /* \"#utility.yul\":11152:11321   */\n    tag_215:\n        /* \"#utility.yul\":11292:11313   */\n      0x4974656d20646f6573206e6f7420657869737400000000000000000000000000\n        /* \"#utility.yul\":11288:11289   */\n      0x00\n        /* \"#utility.yul\":11280:11286   */\n      dup3\n        /* \"#utility.yul\":11276:11290   */\n      add\n        /* \"#utility.yul\":11269:11314   */\n      mstore\n        /* \"#utility.yul\":11152:11321   */\n      pop\n      jump\t// out\n        /* \"#utility.yul\":11327:11693   */\n    tag_216:\n        /* \"#utility.yul\":11469:11472   */\n      0x00\n        /* \"#utility.yul\":11490:11557   */\n      tag_356\n        /* \"#utility.yul\":11554:11556   */\n      0x13\n        /* \"#utility.yul\":11549:11552   */\n      dup4\n        /* \"#utility.yul\":11490:11557   */\n      tag_190\n      jump\t// in\n    tag_356:\n        /* \"#utility.yul\":11483:11557   */\n      swap2\n      pop\n        /* \"#utility.yul\":11566:11659   */\n      tag_357\n        /* \"#utility.yul\":11655:11658   */\n      dup3\n        /* \"#utility.yul\":11566:11659   */\n      tag_215\n      jump\t// in\n    tag_357:\n        /* \"#utility.yul\":11684:11686   */\n      0x20\n        /* \"#utility.yul\":11679:11682   */\n      dup3\n        /* \"#utility.yul\":11675:11687   */\n      add\n        /* \"#utility.yul\":11668:11687   */\n      swap1\n      pop\n        /* \"#utility.yul\":11327:11693   */\n      swap2\n      swap1\n      pop\n      jump\t// out\n        /* \"#utility.yul\":11699:12118   */\n    tag_97:\n        /* \"#utility.yul\":11865:11869   */\n      0x00\n        /* \"#utility.yul\":11903:11905   */\n      0x20\n        /* \"#utility.yul\":11892:11901   */\n      dup3\n        /* \"#utility.yul\":11888:11906   */\n      add\n        /* \"#utility.yul\":11880:11906   */\n      swap1\n      pop\n        /* \"#utility.yul\":11952:11961   */\n      dup2\n        /* \"#utility.yul\":11946:11950   */\n      dup2\n        /* \"#utility.yul\":11942:11962   */\n      sub\n        /* \"#utility.yul\":11938:11939   */\n      0x00\n        /* \"#utility.yul\":11927:11936   */\n      dup4\n        /* \"#utility.yul\":11923:11940   */\n      add\n        /* \"#utility.yul\":11916:11963   */\n      mstore\n        /* \"#utility.yul\":11980:12111   */\n      tag_359\n        /* \"#utility.yul\":12106:12110   */\n      dup2\n        /* \"#utility.yul\":11980:12111   */\n      tag_216\n      jump\t// in\n    tag_359:\n        /* \"#utility.yul\":11972:12111   */\n      swap1\n      pop\n        /* \"#utility.yul\":11699:12118   */\n      swap2\n      swap1\n      pop\n      jump\t// out\n        /* \"#utility.yul\":12124:12304   */\n    tag_217:\n        /* \"#utility.yul\":12172:12249   */\n      0x4e487b7100000000000000000000000000000000000000000000000000000000\n        /* \"#utility.yul\":12169:12170   */\n      0x00\n        /* \"#utility.yul\":12162:12250   */\n      mstore\n        /* \"#utility.yul\":12269:12273   */\n      0x11\n        /* \"#utility.yul\":12266:12267   */\n      0x04\n        /* \"#utility.yul\":12259:12274   */\n      mstore\n        /* \"#utility.yul\":12293:12297   */\n      0x24\n        /* \"#utility.yul\":12290:12291   */\n      0x00\n        /* \"#utility.yul\":12283:12298   */\n      revert\n        /* \"#utility.yul\":12310:12504   */\n    tag_99:\n        /* \"#utility.yul\":12350:12354   */\n      0x00\n        /* \"#utility.yul\":12370:12390   */\n      tag_362\n        /* \"#utility.yul\":12388:12389   */\n      dup3\n        /* \"#utility.yul\":12370:12390   */\n      tag_182\n      jump\t// in\n    tag_362:\n        /* \"#utility.yul\":12365:12390   */\n      swap2\n      pop\n        /* \"#utility.yul\":12404:12424   */\n      tag_363\n        /* \"#utility.yul\":12422:12423   */\n      dup4\n        /* \"#utility.yul\":12404:12424   */\n      tag_182\n      jump\t// in\n    tag_363:\n        /* \"#utility.yul\":12399:12424   */\n      swap3\n      pop\n        /* \"#utility.yul\":12448:12449   */\n      dup3\n        /* \"#utility.yul\":12445:12446   */\n      dup3\n        /* \"#utility.yul\":12441:12450   */\n      sub\n        /* \"#utility.yul\":12433:12450   */\n      swap1\n      pop\n        /* \"#utility.yul\":12472:12473   */\n      dup2\n        /* \"#utility.yul\":12466:12470   */\n      dup2\n        /* \"#utility.yul\":12463:12474   */\n      gt\n        /* \"#utility.yul\":12460:12497   */\n      iszero\n      tag_364\n      jumpi\n        /* \"#utility.yul\":12477:12495   */\n      tag_365\n      tag_217\n      jump\t// in\n    tag_365:\n        /* \"#utility.yul\":12460:12497   */\n    tag_364:\n        /* \"#utility.yul\":12310:12504   */\n      swap3\n      swap2\n      pop\n      pop\n      jump\t// out\n        /* \"#utility.yul\":12510:12659   */\n    tag_218:\n        /* \"#utility.yul\":12559:12565   */\n      0x00\n        /* \"#utility.yul\":12593:12598   */\n      dup2\n        /* \"#utility.yul\":12587:12599   */\n      sload\n        /* \"#utility.yul\":12577:12599   */\n      swap1\n      pop\n        /* \"#utility.yul\":12619:12652   */\n      tag_367\n        /* \"#utility.yul\":12645:12651   */\n      dup2\n        /* \"#utility.yul\":12619:12652   */\n      tag_84\n      jump\t// in\n    tag_367:\n        /* \"#utility.yul\":12609:12652   */\n      swap1\n      pop\n        /* \"#utility.yul\":12510:12659   */\n      swap2\n      swap1\n      pop\n      jump\t// out\n        /* \"#utility.yul\":12665:12806   */\n    tag_219:\n        /* \"#utility.yul\":12714:12718   */\n      0x00\n        /* \"#utility.yul\":12737:12740   */\n      dup2\n        /* \"#utility.yul\":12729:12740   */\n      swap1\n      pop\n        /* \"#utility.yul\":12760:12763   */\n      dup2\n        /* \"#utility.yul\":12757:12758   */\n      0x00\n        /* \"#utility.yul\":12750:12764   */\n      mstore\n        /* \"#utility.yul\":12794:12798   */\n      0x20\n        /* \"#utility.yul\":12791:12792   */\n      0x00\n        /* \"#utility.yul\":12781:12799   */\n      keccak256\n        /* \"#utility.yul\":12773:12799   */\n      swap1\n      pop\n        /* \"#utility.yul\":12665:12806   */\n      swap2\n      swap1\n      pop\n      jump\t// out\n        /* \"#utility.yul\":12812:12905   */\n    tag_220:\n        /* \"#utility.yul\":12849:12855   */\n      0x00\n        /* \"#utility.yul\":12896:12898   */\n      0x20\n        /* \"#utility.yul\":12891:12893   */\n      0x1f\n        /* \"#utility.yul\":12884:12889   */\n      dup4\n        /* \"#utility.yul\":12880:12894   */\n      add\n        /* \"#utility.yul\":12876:12899   */\n      div\n        /* \"#utility.yul\":12866:12899   */\n      swap1\n      pop\n        /* \"#utility.yul\":12812:12905   */\n      swap2\n      swap1\n      pop\n      jump\t// out\n        /* \"#utility.yul\":12911:13018   */\n    tag_221:\n        /* \"#utility.yul\":12955:12963   */\n      0x00\n        /* \"#utility.yul\":13005:13010   */\n      dup3\n        /* \"#utility.yul\":12999:13003   */\n      dup3\n        /* \"#utility.yul\":12995:13011   */\n      shl\n        /* \"#utility.yul\":12974:13011   */\n      swap1\n      pop\n        /* \"#utility.yul\":12911:13018   */\n      swap3\n      swap2\n      pop\n      pop\n      jump\t// out\n        /* \"#utility.yul\":13024:13417   */\n    tag_222:\n        /* \"#utility.yul\":13093:13099   */\n      0x00\n        /* \"#utility.yul\":13143:13144   */\n      0x08\n        /* \"#utility.yul\":13131:13141   */\n      dup4\n        /* \"#utility.yul\":13127:13145   */\n      mul\n        /* \"#utility.yul\":13166:13263   */\n      tag_372\n        /* \"#utility.yul\":13196:13262   */\n      0xffffffffffffffffffffffffffffffffffffffffffffffffffffffffffffffff\n        /* \"#utility.yul\":13185:13194   */\n      dup3\n        /* \"#utility.yul\":13166:13263   */\n      tag_221\n      jump\t// in\n    tag_372:\n        /* \"#utility.yul\":13284:13323   */\n      tag_373\n        /* \"#utility.yul\":13314:13322   */\n      dup7\n        /* \"#utility.yul\":13303:13312   */\n      dup4\n        /* \"#utility.yul\":13284:13323   */\n      tag_221\n      jump\t// in\n    tag_373:\n        /* \"#utility.yul\":13272:13323   */\n      swap6\n      pop\n        /* \"#utility.yul\":13356:13360   */\n      dup1\n        /* \"#utility.yul\":13352:13361   */\n      not\n        /* \"#utility.yul\":13345:13350   */\n      dup5\n        /* \"#utility.yul\":13341:13362   */\n      and\n        /* \"#utility.yul\":13332:13362   */\n      swap4\n      pop\n        /* \"#utility.yul\":13405:13409   */\n      dup1\n        /* \"#utility.yul\":13395:13403   */\n      dup7\n        /* \"#utility.yul\":13391:13410   */\n      and\n        /* \"#utility.yul\":13384:13389   */\n      dup5\n        /* \"#utility.yul\":13381:13411   */\n      or\n        /* \"#utility.yul\":13371:13411   */\n      swap3\n      pop\n        /* \"#utility.yul\":13100:13417   */\n      pop\n      pop\n        /* \"#utility.yul\":13024:13417   */\n      swap4\n      swap3\n      pop\n      pop\n      pop\n      jump\t// out\n        /* \"#utility.yul\":13423:13483   */\n    tag_223:\n        /* \"#utility.yul\":13451:13454   */\n      0x00\n        /* \"#utility.yul\":13472:13477   */\n      dup2\n        /* \"#utility.yul\":13465:13477   */\n      swap1\n      pop\n        /* \"#utility.yul\":13423:13483   */\n      swap2\n      swap1\n      pop\n      jump\t// out\n        /* \"#utility.yul\":13489:13631   */\n    tag_224:\n        /* \"#utility.yul\":13539:13548   */\n      0x00\n        /* \"#utility.yul\":13572:13625   */\n      tag_376\n        /* \"#utility.yul\":13590:13624   */\n      tag_377\n        /* \"#utility.yul\":13599:13623   */\n      tag_378\n        /* \"#utility.yul\":13617:13622   */\n      dup5\n        /* \"#utility.yul\":13599:13623   */\n      tag_182\n      jump\t// in\n    tag_378:\n        /* \"#utility.yul\":13590:13624   */\n      tag_223\n      jump\t// in\n    tag_377:\n        /* \"#utility.yul\":13572:13625   */\n      tag_182\n      jump\t// in\n    tag_376:\n        /* \"#utility.yul\":13559:13625   */\n      swap1\n      pop\n        /* \"#utility.yul\":13489:13631   */\n      swap2\n      swap1\n      pop\n      jump\t// out\n        /* \"#utility.yul\":13637:13712   */\n    tag_225:\n        /* \"#utility.yul\":13680:13683   */\n      0x00\n        /* \"#utility.yul\":13701:13706   */\n      dup2\n        /* \"#utility.yul\":13694:13706   */\n      swap1\n      pop\n        /* \"#utility.yul\":13637:13712   */\n      swap2\n      swap1\n      pop\n      jump\t// out\n        /* \"#utility.yul\":13718:13987   */\n    tag_226:\n        /* \"#utility.yul\":13828:13867   */\n      tag_381\n        /* \"#utility.yul\":13859:13866   */\n      dup4\n        /* \"#utility.yul\":13828:13867   */\n      tag_224\n      jump\t// in\n    tag_381:\n        /* \"#utility.yul\":13889:13980   */\n      tag_382\n        /* \"#utility.yul\":13938:13979   */\n      tag_383\n        /* \"#utility.yul\":13962:13978   */\n      dup3\n        /* \"#utility.yul\":13938:13979   */\n      tag_225\n      jump\t// in\n    tag_383:\n        /* \"#utility.yul\":13930:13936   */\n      dup5\n        /* \"#utility.yul\":13923:13927   */\n      dup5\n        /* \"#utility.yul\":13917:13928   */\n      sload\n        /* \"#utility.yul\":13889:13980   */\n      tag_222\n      jump\t// in\n    tag_382:\n        /* \"#utility.yul\":13883:13887   */\n      dup3\n        /* \"#utility.yul\":13876:13981   */\n      sstore\n        /* \"#utility.yul\":13794:13987   */\n      pop\n        /* \"#utility.yul\":13718:13987   */\n      pop\n      pop\n      pop\n      jump\t// out\n        /* \"#utility.yul\":13993:14066   */\n    tag_227:\n        /* \"#utility.yul\":14038:14041   */\n      0x00\n        /* \"#utility.yul\":13993:14066   */\n      swap1\n      jump\t// out\n        /* \"#utility.yul\":14072:14261   */\n    tag_228:\n        /* \"#utility.yul\":14149:14181   */\n      tag_386\n      tag_227\n      jump\t// in\n    tag_386:\n        /* \"#utility.yul\":14190:14255   */\n      tag_387\n        /* \"#utility.yul\":14248:14254   */\n      dup2\n        /* \"#utility.yul\":14240:14246   */\n      dup5\n        /* \"#utility.yul\":14234:14238   */\n      dup5\n        /* \"#utility.yul\":14190:14255   */\n      tag_226\n      jump\t// in\n    tag_387:\n        /* \"#utility.yul\":14125:14261   */\n      pop\n        /* \"#utility.yul\":14072:14261   */\n      pop\n      pop\n      jump\t// out\n        /* \"#utility.yul\":14267:14453   */\n    tag_229:\n        /* \"#utility.yul\":14327:14447   */\n    tag_389:\n        /* \"#utility.yul\":14344:14347   */\n      dup2\n        /* \"#utility.yul\":14337:14342   */\n      dup2\n        /* \"#utility.yul\":14334:14348   */\n      lt\n        /* \"#utility.yul\":14327:14447   */\n      iszero\n      tag_391\n      jumpi\n        /* \"#utility.yul\":14398:14437   */\n      tag_392\n        /* \"#utility.yul\":14435:14436   */\n      0x00\n        /* \"#utility.yul\":14428:14433   */\n      dup3\n        /* \"#utility.yul\":14398:14437   */\n      tag_228\n      jump\t// in\n    tag_392:\n        /* \"#utility.yul\":14371:14372   */\n      0x01\n        /* \"#utility.yul\":14364:14369   */\n      dup2\n        /* \"#utility.yul\":14360:14373   */\n      add\n        /* \"#utility.yul\":14351:14373   */\n      swap1\n      pop\n        /* \"#utility.yul\":14327:14447   */\n      jump(tag_389)\n    tag_391:\n        /* \"#utility.yul\":14267:14453   */\n      pop\n      pop\n      jump\t// out\n        /* \"#utility.yul\":14459:15002   */\n    tag_230:\n        /* \"#utility.yul\":14560:14562   */\n      0x1f\n        /* \"#utility.yul\":14555:14558   */\n      dup3\n        /* \"#utility.yul\":14552:14563   */\n      gt\n        /* \"#utility.yul\":14549:14995   */\n      iszero\n      tag_394\n      jumpi\n        /* \"#utility.yul\":14594:14632   */\n      tag_395\n        /* \"#utility.yul\":14626:14631   */\n      dup2\n        /* \"#utility.yul\":14594:14632   */\n      tag_219\n      jump\t// in\n    tag_395:\n        /* \"#utility.yul\":14678:14707   */\n      tag_396\n        /* \"#utility.yul\":14696:14706   */\n      dup5\n        /* \"#utility.yul\":14678:14707   */\n      tag_220\n      jump\t// in\n    tag_396:\n        /* \"#utility.yul\":14668:14676   */\n      dup2\n        /* \"#utility.yul\":14664:14708   */\n      add\n        /* \"#utility.yul\":14861:14863   */\n      0x20\n        /* \"#utility.yul\":14849:14859   */\n      dup6\n        /* \"#utility.yul\":14846:14864   */\n      lt\n        /* \"#utility.yul\":14843:14892   */\n      iszero\n      tag_397\n      jumpi\n        /* \"#utility.yul\":14882:14890   */\n      dup2\n        /* \"#utility.yul\":14867:14890   */\n      swap1\n      pop\n        /* \"#utility.yul\":14843:14892   */\n    tag_397:\n        /* \"#utility.yul\":14905:14985   */\n      tag_398\n        /* \"#utility.yul\":14961:14983   */\n      tag_399\n        /* \"#utility.yul\":14979:14982   */\n      dup6\n        /* \"#utility.yul\":14961:14983   */\n      tag_220\n      jump\t// in\n    tag_399:\n        /* \"#utility.yul\":14951:14959   */\n      dup4\n        /* \"#utility.yul\":14947:14984   */\n      add\n        /* \"#utility.yul\":14934:14945   */\n      dup3\n        /* \"#utility.yul\":14905:14985   */\n      tag_229\n      jump\t// in\n    tag_398:\n        /* \"#utility.yul\":14564:14995   */\n      pop\n      pop\n        /* \"#utility.yul\":14549:14995   */\n    tag_394:\n        /* \"#utility.yul\":14459:15002   */\n      pop\n      pop\n      pop\n      jump\t// out\n        /* \"#utility.yul\":15008:15125   */\n    tag_231:\n        /* \"#utility.yul\":15062:15070   */\n      0x00\n        /* \"#utility.yul\":15112:15117   */\n      dup3\n        /* \"#utility.yul\":15106:15110   */\n      dup3\n        /* \"#utility.yul\":15102:15118   */\n      shr\n        /* \"#utility.yul\":15081:15118   */\n      swap1\n      pop\n        /* \"#utility.yul\":15008:15125   */\n      swap3\n      swap2\n      pop\n      pop\n      jump\t// out\n        /* \"#utility.yul\":15131:15300   */\n    tag_232:\n        /* \"#utility.yul\":15175:15181   */\n      0x00\n        /* \"#utility.yul\":15208:15259   */\n      tag_402\n        /* \"#utility.yul\":15256:15257   */\n      0x00\n        /* \"#utility.yul\":15252:15258   */\n      not\n        /* \"#utility.yul\":15244:15249   */\n      dup5\n        /* \"#utility.yul\":15241:15242   */\n      0x08\n        /* \"#utility.yul\":15237:15250   */\n      mul\n        /* \"#utility.yul\":15208:15259   */\n      tag_231\n      jump\t// in\n    tag_402:\n        /* \"#utility.yul\":15204:15260   */\n      not\n        /* \"#utility.yul\":15289:15293   */\n      dup1\n        /* \"#utility.yul\":15283:15287   */\n      dup4\n        /* \"#utility.yul\":15279:15294   */\n      and\n        /* \"#utility.yul\":15269:15294   */\n      swap2\n      pop\n        /* \"#utility.yul\":15182:15300   */\n      pop\n        /* \"#utility.yul\":15131:15300   */\n      swap3\n      swap2\n      pop\n      pop\n      jump\t// out\n        /* \"#utility.yul\":15305:15600   */\n    tag_233:\n        /* \"#utility.yul\":15381:15385   */\n      0x00\n        /* \"#utility.yul\":15527:15556   */\n      tag_404\n        /* \"#utility.yul\":15552:15555   */\n      dup4\n        /* \"#utility.yul\":15546:15550   */\n      dup4\n        /* \"#utility.yul\":15527:15556   */\n      tag_232\n      jump\t// in\n    tag_404:\n        /* \"#utility.yul\":15519:15556   */\n      swap2\n      pop\n        /* \"#utility.yul\":15589:15592   */\n      dup3\n        /* \"#utility.yul\":15586:15587   */\n      0x02\n        /* \"#utility.yul\":15582:15593   */\n      mul\n        /* \"#utility.yul\":15576:15580   */\n      dup3\n        /* \"#utility.yul\":15573:15594   */\n      or\n        /* \"#utility.yul\":15565:15594   */\n      swap1\n      pop\n        /* \"#utility.yul\":15305:15600   */\n      swap3\n      swap2\n      pop\n      pop\n      jump\t// out\n        /* \"#utility.yul\":15605:17056   */\n    tag_107:\n        /* \"#utility.yul\":15716:15719   */\n      dup2\n        /* \"#utility.yul\":15710:15714   */\n      dup2\n        /* \"#utility.yul\":15707:15720   */\n      sub\n        /* \"#utility.yul\":15704:15730   */\n      tag_406\n      jumpi\n        /* \"#utility.yul\":15723:15728   */\n      pop\n      pop\n      jump(tag_405)\n        /* \"#utility.yul\":15704:15730   */\n    tag_406:\n        /* \"#utility.yul\":15754:15788   */\n      tag_407\n        /* \"#utility.yul\":15784:15787   */\n      dup3\n        /* \"#utility.yul\":15754:15788   */\n      tag_218\n      jump\t// in\n    tag_407:\n        /* \"#utility.yul\":15853:15871   */\n      0xffffffffffffffff\n        /* \"#utility.yul\":15845:15851   */\n      dup2\n        /* \"#utility.yul\":15842:15872   */\n      gt\n        /* \"#utility.yul\":15839:15895   */\n      iszero\n      tag_408\n      jumpi\n        /* \"#utility.yul\":15875:15893   */\n      tag_409\n      tag_199\n      jump\t// in\n    tag_409:\n        /* \"#utility.yul\":15839:15895   */\n    tag_408:\n        /* \"#utility.yul\":15919:15957   */\n      tag_410\n        /* \"#utility.yul\":15951:15955   */\n      dup3\n        /* \"#utility.yul\":15945:15956   */\n      sload\n        /* \"#utility.yul\":15919:15957   */\n      tag_84\n      jump\t// in\n    tag_410:\n        /* \"#utility.yul\":16004:16071   */\n      tag_411\n        /* \"#utility.yul\":16064:16070   */\n      dup3\n        /* \"#utility.yul\":16056:16062   */\n      dup3\n        /* \"#utility.yul\":16050:16054   */\n      dup6\n        /* \"#utility.yul\":16004:16071   */\n      tag_230\n      jump\t// in\n    tag_411:\n        /* \"#utility.yul\":16098:16099   */\n      0x00\n        /* \"#utility.yul\":16127:16129   */\n      0x1f\n        /* \"#utility.yul\":16119:16125   */\n      dup4\n        /* \"#utility.yul\":16116:16130   */\n      gt\n        /* \"#utility.yul\":16144:16145   */\n      0x01\n        /* \"#utility.yul\":16139:16811   */\n      dup2\n      eq\n      tag_413\n      jumpi\n        /* \"#utility.yul\":16855:16856   */\n      0x00\n        /* \"#utility.yul\":16872:16878   */\n      dup5\n        /* \"#utility.yul\":16869:16946   */\n      iszero\n      tag_414\n      jumpi\n        /* \"#utility.yul\":16921:16930   */\n      dup3\n        /* \"#utility.yul\":16916:16919   */\n      dup8\n        /* \"#utility.yul\":16912:16931   */\n      add\n        /* \"#utility.yul\":16906:16932   */\n      sload\n        /* \"#utility.yul\":16897:16932   */\n      swap1\n      pop\n        /* \"#utility.yul\":16869:16946   */\n    tag_414:\n        /* \"#utility.yul\":16972:17039   */\n      tag_415\n        /* \"#utility.yul\":17032:17038   */\n      dup6\n        /* \"#utility.yul\":17025:17030   */\n      dup3\n        /* \"#utility.yul\":16972:17039   */\n      tag_233\n      jump\t// in\n    tag_415:\n        /* \"#utility.yul\":16966:16970   */\n      dup7\n        /* \"#utility.yul\":16959:17040   */\n      sstore\n        /* \"#utility.yul\":16828:17050   */\n      pop\n        /* \"#utility.yul\":16109:17050   */\n      jump(tag_412)\n        /* \"#utility.yul\":16139:16811   */\n    tag_413:\n        /* \"#utility.yul\":16191:16195   */\n      0x1f\n        /* \"#utility.yul\":16187:16196   */\n      not\n        /* \"#utility.yul\":16179:16185   */\n      dup5\n        /* \"#utility.yul\":16175:16197   */\n      and\n        /* \"#utility.yul\":16217:16253   */\n      tag_416\n        /* \"#utility.yul\":16249:16252   */\n      dup8\n        /* \"#utility.yul\":16217:16253   */\n      tag_219\n      jump\t// in\n    tag_416:\n        /* \"#utility.yul\":16210:16253   */\n      swap7\n      pop\n        /* \"#utility.yul\":16280:16317   */\n      tag_417\n        /* \"#utility.yul\":16312:16316   */\n      dup7\n        /* \"#utility.yul\":16280:16317   */\n      tag_219\n      jump\t// in\n    tag_417:\n        /* \"#utility.yul\":16339:16340   */\n      0x00\n        /* \"#utility.yul\":16353:16560   */\n    tag_418:\n        /* \"#utility.yul\":16367:16374   */\n      dup3\n        /* \"#utility.yul\":16364:16365   */\n      dup2\n        /* \"#utility.yul\":16361:16375   */\n      lt\n        /* \"#utility.yul\":16353:16560   */\n      iszero\n      tag_420\n      jumpi\n        /* \"#utility.yul\":16446:16455   */\n      dup5\n        /* \"#utility.yul\":16441:16444   */\n      dup10\n        /* \"#utility.yul\":16437:16456   */\n      add\n        /* \"#utility.yul\":16431:16457   */\n      sload\n        /* \"#utility.yul\":16423:16429   */\n      dup3\n        /* \"#utility.yul\":16416:16458   */\n      sstore\n        /* \"#utility.yul\":16497:16498   */\n      0x01\n        /* \"#utility.yul\":16489:16495   */\n      dup3\n        /* \"#utility.yul\":16485:16499   */\n      add\n        /* \"#utility.yul\":16475:16499   */\n      swap2\n      pop\n        /* \"#utility.yul\":16544:16545   */\n      0x01\n        /* \"#utility.yul\":16533:16542   */\n      dup6\n        /* \"#utility.yul\":16529:16546   */\n      add\n        /* \"#utility.yul\":16516:16546   */\n      swap5\n      pop\n        /* \"#utility.yul\":16390:16394   */\n      0x20\n        /* \"#utility.yul\":16387:16388   */\n      dup2\n        /* \"#utility.yul\":16383:16395   */\n      add\n        /* \"#utility.yul\":16378:16395   */\n      swap1\n      pop\n        /* \"#utility.yul\":16353:16560   */\n      jump(tag_418)\n    tag_420:\n        /* \"#utility.yul\":16588:16594   */\n      dup7\n        /* \"#utility.yul\":16579:16586   */\n      dup4\n        /* \"#utility.yul\":16576:16595   */\n      lt\n        /* \"#utility.yul\":16573:16752   */\n      iszero\n      tag_421\n      jumpi\n        /* \"#utility.yul\":16646:16655   */\n      dup5\n        /* \"#utility.yul\":16641:16644   */\n      dup10\n        /* \"#utility.yul\":16637:16656   */\n      add\n        /* \"#utility.yul\":16631:16657   */\n      sload\n        /* \"#utility.yul\":16689:16737   */\n      tag_422\n        /* \"#utility.yul\":16731:16735   */\n      0x1f\n        /* \"#utility.yul\":16723:16729   */\n      dup10\n        /* \"#utility.yul\":16719:16736   */\n      and\n        /* \"#utility.yul\":16708:16717   */\n      dup3\n        /* \"#utility.yul\":16689:16737   */\n      tag_232\n      jump\t// in\n    tag_422:\n        /* \"#utility.yul\":16681:16687   */\n      dup4\n        /* \"#utility.yul\":16674:16738   */\n      sstore\n        /* \"#utility.yul\":16596:16752   */\n      pop\n        /* \"#utility.yul\":16573:16752   */\n    tag_421:\n        /* \"#utility.yul\":16798:16799   */\n      0x01\n        /* \"#utility.yul\":16794:16795   */\n      0x02\n        /* \"#utility.yul\":16786:16792   */\n      dup9\n        /* \"#utility.yul\":16782:16796   */\n      mul\n        /* \"#utility.yul\":16778:16800   */\n      add\n        /* \"#utility.yul\":16772:16776   */\n      dup9\n        /* \"#utility.yul\":16765:16801   */\n      sstore\n        /* \"#utility.yul\":16146:16811   */\n      pop\n      pop\n      pop\n        /* \"#utility.yul\":16109:17050   */\n    tag_412:\n      pop\n        /* \"#utility.yul\":15694:17056   */\n      pop\n      pop\n      pop\n        /* \"#utility.yul\":15605:17056   */\n      pop\n      pop\n    tag_405:\n      jump\t// out\n        /* \"#utility.yul\":17062:17242   */\n    tag_110:\n        /* \"#utility.yul\":17110:17187   */\n      0x4e487b7100000000000000000000000000000000000000000000000000000000\n        /* \"#utility.yul\":17107:17108   */\n      0x00\n        /* \"#utility.yul\":17100:17188   */\n      mstore\n        /* \"#utility.yul\":17207:17211   */\n      0x31\n        /* \"#utility.yul\":17204:17205   */\n      0x04\n        /* \"#utility.yul\":17197:17212   */\n      mstore\n        /* \"#utility.yul\":17231:17235   */\n      0x24\n        /* \"#utility.yul\":17228:17229   */\n      0x00\n        /* \"#utility.yul\":17221:17236   */\n      revert\n        /* \"#utility.yul\":17248:17429   */\n    tag_234:\n        /* \"#utility.yul\":17388:17421   */\n      0x5072696365206d7573742062652067726561746572207468616e207a65726f00\n        /* \"#utility.yul\":17384:17385   */\n      0x00\n        /* \"#utility.yul\":17376:17382   */\n      dup3\n        /* \"#utility.yul\":17372:17386   */\n      add\n        /* \"#utility.yul\":17365:17422   */\n      mstore\n        /* \"#utility.yul\":17248:17429   */\n      pop\n      jump\t// out\n        /* \"#utility.yul\":17435:17801   */\n    tag_235:\n        /* \"#utility.yul\":17577:17580   */\n      0x00\n        /* \"#utility.yul\":17598:17665   */\n      tag_426\n        /* \"#utility.yul\":17662:17664   */\n      0x1f\n        /* \"#utility.yul\":17657:17660   */\n      dup4\n        /* \"#utility.yul\":17598:17665   */\n      tag_190\n      jump\t// in\n    tag_426:\n        /* \"#utility.yul\":17591:17665   */\n      swap2\n      pop\n        /* \"#utility.yul\":17674:17767   */\n      tag_427\n        /* \"#utility.yul\":17763:17766   */\n      dup3\n        /* \"#utility.yul\":17674:17767   */\n      tag_234\n      jump\t// in\n    tag_427:\n        /* \"#utility.yul\":17792:17794   */\n      0x20\n        /* \"#utility.yul\":17787:17790   */\n      dup3\n        /* \"#utility.yul\":17783:17795   */\n      add\n        /* \"#utility.yul\":17776:17795   */\n      swap1\n      pop\n        /* \"#utility.yul\":17435:17801   */\n      swap2\n      swap1\n      pop\n      jump\t// out\n        /* \"#utility.yul\":17807:18226   */\n    tag_128:\n        /* \"#utility.yul\":17973:17977   */\n      0x00\n        /* \"#utility.yul\":18011:18013   */\n      0x20\n        /* \"#utility.yul\":18000:18009   */\n      dup3\n        /* \"#utility.yul\":17996:18014   */\n      add\n        /* \"#utility.yul\":17988:18014   */\n      swap1\n      pop\n        /* \"#utility.yul\":18060:18069   */\n      dup2\n        /* \"#utility.yul\":18054:18058   */\n      dup2\n        /* \"#utility.yul\":18050:18070   */\n      sub\n        /* \"#utility.yul\":18046:18047   */\n      0x00\n        /* \"#utility.yul\":18035:18044   */\n      dup4\n        /* \"#utility.yul\":18031:18048   */\n      add\n        /* \"#utility.yul\":18024:18071   */\n      mstore\n        /* \"#utility.yul\":18088:18219   */\n      tag_429\n        /* \"#utility.yul\":18214:18218   */\n      dup2\n        /* \"#utility.yul\":18088:18219   */\n      tag_235\n      jump\t// in\n    tag_429:\n        /* \"#utility.yul\":18080:18219   */\n      swap1\n      pop\n        /* \"#utility.yul\":17807:18226   */\n      swap2\n      swap1\n      pop\n      jump\t// out\n        /* \"#utility.yul\":18232:19627   */\n    tag_131:\n        /* \"#utility.yul\":18349:18386   */\n      tag_431\n        /* \"#utility.yul\":18382:18385   */\n      dup3\n        /* \"#utility.yul\":18349:18386   */\n      tag_189\n      jump\t// in\n    tag_431:\n        /* \"#utility.yul\":18451:18469   */\n      0xffffffffffffffff\n        /* \"#utility.yul\":18443:18449   */\n      dup2\n        /* \"#utility.yul\":18440:18470   */\n      gt\n        /* \"#utility.yul\":18437:18493   */\n      iszero\n      tag_432\n      jumpi\n        /* \"#utility.yul\":18473:18491   */\n      tag_433\n      tag_199\n      jump\t// in\n    tag_433:\n        /* \"#utility.yul\":18437:18493   */\n    tag_432:\n        /* \"#utility.yul\":18517:18555   */\n      tag_434\n        /* \"#utility.yul\":18549:18553   */\n      dup3\n        /* \"#utility.yul\":18543:18554   */\n      sload\n        /* \"#utility.yul\":18517:18555   */\n      tag_84\n      jump\t// in\n    tag_434:\n        /* \"#utility.yul\":18602:18669   */\n      tag_435\n        /* \"#utility.yul\":18662:18668   */\n      dup3\n        /* \"#utility.yul\":18654:18660   */\n      dup3\n        /* \"#utility.yul\":18648:18652   */\n      dup6\n        /* \"#utility.yul\":18602:18669   */\n      tag_230\n      jump\t// in\n    tag_435:\n        /* \"#utility.yul\":18696:18697   */\n      0x00\n        /* \"#utility.yul\":18720:18724   */\n      0x20\n        /* \"#utility.yul\":18707:18724   */\n      swap1\n      pop\n        /* \"#utility.yul\":18752:18754   */\n      0x1f\n        /* \"#utility.yul\":18744:18750   */\n      dup4\n        /* \"#utility.yul\":18741:18755   */\n      gt\n        /* \"#utility.yul\":18769:18770   */\n      0x01\n        /* \"#utility.yul\":18764:19382   */\n      dup2\n      eq\n      tag_437\n      jumpi\n        /* \"#utility.yul\":19426:19427   */\n      0x00\n        /* \"#utility.yul\":19443:19449   */\n      dup5\n        /* \"#utility.yul\":19440:19517   */\n      iszero\n      tag_438\n      jumpi\n        /* \"#utility.yul\":19492:19501   */\n      dup3\n        /* \"#utility.yul\":19487:19490   */\n      dup8\n        /* \"#utility.yul\":19483:19502   */\n      add\n        /* \"#utility.yul\":19477:19503   */\n      mload\n        /* \"#utility.yul\":19468:19503   */\n      swap1\n      pop\n        /* \"#utility.yul\":19440:19517   */\n    tag_438:\n        /* \"#utility.yul\":19543:19610   */\n      tag_439\n        /* \"#utility.yul\":19603:19609   */\n      dup6\n        /* \"#utility.yul\":19596:19601   */\n      dup3\n        /* \"#utility.yul\":19543:19610   */\n      tag_233\n      jump\t// in\n    tag_439:\n        /* \"#utility.yul\":19537:19541   */\n      dup7\n        /* \"#utility.yul\":19530:19611   */\n      sstore\n        /* \"#utility.yul\":19399:19621   */\n      pop\n        /* \"#utility.yul\":18734:19621   */\n      jump(tag_436)\n        /* \"#utility.yul\":18764:19382   */\n    tag_437:\n        /* \"#utility.yul\":18816:18820   */\n      0x1f\n        /* \"#utility.yul\":18812:18821   */\n      not\n        /* \"#utility.yul\":18804:18810   */\n      dup5\n        /* \"#utility.yul\":18800:18822   */\n      and\n        /* \"#utility.yul\":18850:18887   */\n      tag_440\n        /* \"#utility.yul\":18882:18886   */\n      dup7\n        /* \"#utility.yul\":18850:18887   */\n      tag_219\n      jump\t// in\n    tag_440:\n        /* \"#utility.yul\":18909:18910   */\n      0x00\n        /* \"#utility.yul\":18923:19131   */\n    tag_441:\n        /* \"#utility.yul\":18937:18944   */\n      dup3\n        /* \"#utility.yul\":18934:18935   */\n      dup2\n        /* \"#utility.yul\":18931:18945   */\n      lt\n        /* \"#utility.yul\":18923:19131   */\n      iszero\n      tag_443\n      jumpi\n        /* \"#utility.yul\":19016:19025   */\n      dup5\n        /* \"#utility.yul\":19011:19014   */\n      dup10\n        /* \"#utility.yul\":19007:19026   */\n      add\n        /* \"#utility.yul\":19001:19027   */\n      mload\n        /* \"#utility.yul\":18993:18999   */\n      dup3\n        /* \"#utility.yul\":18986:19028   */\n      sstore\n        /* \"#utility.yul\":19067:19068   */\n      0x01\n        /* \"#utility.yul\":19059:19065   */\n      dup3\n        /* \"#utility.yul\":19055:19069   */\n      add\n        /* \"#utility.yul\":19045:19069   */\n      swap2\n      pop\n        /* \"#utility.yul\":19114:19116   */\n      0x20\n        /* \"#utility.yul\":19103:19112   */\n      dup6\n        /* \"#utility.yul\":19099:19117   */\n      add\n        /* \"#utility.yul\":19086:19117   */\n      swap5\n      pop\n        /* \"#utility.yul\":18960:18964   */\n      0x20\n        /* \"#utility.yul\":18957:18958   */\n      dup2\n        /* \"#utility.yul\":18953:18965   */\n      add\n        /* \"#utility.yul\":18948:18965   */\n      swap1\n      pop\n        /* \"#utility.yul\":18923:19131   */\n      jump(tag_441)\n    tag_443:\n        /* \"#utility.yul\":19159:19165   */\n      dup7\n        /* \"#utility.yul\":19150:19157   */\n      dup4\n        /* \"#utility.yul\":19147:19166   */\n      lt\n        /* \"#utility.yul\":19144:19323   */\n      iszero\n      tag_444\n      jumpi\n        /* \"#utility.yul\":19217:19226   */\n      dup5\n        /* \"#utility.yul\":19212:19215   */\n      dup10\n        /* \"#utility.yul\":19208:19227   */\n      add\n        /* \"#utility.yul\":19202:19228   */\n      mload\n        /* \"#utility.yul\":19260:19308   */\n      tag_445\n        /* \"#utility.yul\":19302:19306   */\n      0x1f\n        /* \"#utility.yul\":19294:19300   */\n      dup10\n        /* \"#utility.yul\":19290:19307   */\n      and\n        /* \"#utility.yul\":19279:19288   */\n      dup3\n        /* \"#utility.yul\":19260:19308   */\n      tag_232\n      jump\t// in\n    tag_445:\n        /* \"#utility.yul\":19252:19258   */\n      dup4\n        /* \"#utility.yul\":19245:19309   */\n      sstore\n        /* \"#utility.yul\":19167:19323   */\n      pop\n        /* \"#utility.yul\":19144:19323   */\n    tag_444:\n        /* \"#utility.yul\":19369:19370   */\n      0x01\n        /* \"#utility.yul\":19365:19366   */\n      0x02\n        /* \"#utility.yul\":19357:19363   */\n      dup9\n        /* \"#utility.yul\":19353:19367   */\n      mul\n        /* \"#utility.yul\":19349:19371   */\n      add\n        /* \"#utility.yul\":19343:19347   */\n      dup9\n        /* \"#utility.yul\":19336:19372   */\n      sstore\n        /* \"#utility.yul\":18771:19382   */\n      pop\n      pop\n      pop\n        /* \"#utility.yul\":18734:19621   */\n    tag_436:\n      pop\n        /* \"#utility.yul\":18324:19627   */\n      pop\n      pop\n      pop\n        /* \"#utility.yul\":18232:19627   */\n      pop\n      pop\n      jump\t// out\n        /* \"#utility.yul\":19633:20166   */\n    tag_133:\n        /* \"#utility.yul\":19802:19806   */\n      0x00\n        /* \"#utility.yul\":19840:19842   */\n      0x60\n        /* \"#utility.yul\":19829:19838   */\n      dup3\n        /* \"#utility.yul\":19825:19843   */\n      add\n        /* \"#utility.yul\":19817:19843   */\n      swap1\n      pop\n        /* \"#utility.yul\":19889:19898   */\n      dup2\n        /* \"#utility.yul\":19883:19887   */\n      dup2\n        /* \"#utility.yul\":19879:19899   */\n      sub\n        /* \"#utility.yul\":19875:19876   */\n      0x00\n        /* \"#utility.yul\":19864:19873   */\n      dup4\n        /* \"#utility.yul\":19860:19877   */\n      add\n        /* \"#utility.yul\":19853:19900   */\n      mstore\n        /* \"#utility.yul\":19917:19995   */\n      tag_447\n        /* \"#utility.yul\":19990:19994   */\n      dup2\n        /* \"#utility.yul\":19981:19987   */\n      dup7\n        /* \"#utility.yul\":19917:19995   */\n      tag_193\n      jump\t// in\n    tag_447:\n        /* \"#utility.yul\":19909:19995   */\n      swap1\n      pop\n        /* \"#utility.yul\":20005:20077   */\n      tag_448\n        /* \"#utility.yul\":20073:20075   */\n      0x20\n        /* \"#utility.yul\":20062:20071   */\n      dup4\n        /* \"#utility.yul\":20058:20076   */\n      add\n        /* \"#utility.yul\":20049:20055   */\n      dup6\n        /* \"#utility.yul\":20005:20077   */\n      tag_183\n      jump\t// in\n    tag_448:\n        /* \"#utility.yul\":20087:20159   */\n      tag_449\n        /* \"#utility.yul\":20155:20157   */\n      0x40\n        /* \"#utility.yul\":20144:20153   */\n      dup4\n        /* \"#utility.yul\":20140:20158   */\n      add\n        /* \"#utility.yul\":20131:20137   */\n      dup5\n        /* \"#utility.yul\":20087:20159   */\n      tag_183\n      jump\t// in\n    tag_449:\n        /* \"#utility.yul\":19633:20166   */\n      swap5\n      swap4\n      pop\n      pop\n      pop\n      pop\n      jump\t// out\n        /* \"#utility.yul\":20172:20405   */\n    tag_135:\n        /* \"#utility.yul\":20211:20214   */\n      0x00\n        /* \"#utility.yul\":20234:20258   */\n      tag_451\n        /* \"#utility.yul\":20252:20257   */\n      dup3\n        /* \"#utility.yul\":20234:20258   */\n      tag_182\n      jump\t// in\n    tag_451:\n        /* \"#utility.yul\":20225:20258   */\n      swap2\n      pop\n        /* \"#utility.yul\":20280:20346   */\n      0xffffffffffffffffffffffffffffffffffffffffffffffffffffffffffffffff\n        /* \"#utility.yul\":20273:20278   */\n      dup3\n        /* \"#utility.yul\":20270:20347   */\n      sub\n        /* \"#utility.yul\":20267:20370   */\n      tag_452\n      jumpi\n        /* \"#utility.yul\":20350:20368   */\n      tag_453\n      tag_217\n      jump\t// in\n    tag_453:\n        /* \"#utility.yul\":20267:20370   */\n    tag_452:\n        /* \"#utility.yul\":20397:20398   */\n      0x01\n        /* \"#utility.yul\":20390:20395   */\n      dup3\n        /* \"#utility.yul\":20386:20399   */\n      add\n        /* \"#utility.yul\":20379:20399   */\n      swap1\n      pop\n        /* \"#utility.yul\":20172:20405   */\n      swap2\n      swap1\n      pop\n      jump\t// out\n        /* \"#utility.yul\":20411:20592   */\n    tag_236:\n        /* \"#utility.yul\":20551:20584   */\n      0x5175616e74697479206d7573742062652067726561746572207468616e203000\n        /* \"#utility.yul\":20547:20548   */\n      0x00\n        /* \"#utility.yul\":20539:20545   */\n      dup3\n        /* \"#utility.yul\":20535:20549   */\n      add\n        /* \"#utility.yul\":20528:20585   */\n      mstore\n        /* \"#utility.yul\":20411:20592   */\n      pop\n      jump\t// out\n        /* \"#utility.yul\":20598:20964   */\n    tag_237:\n        /* \"#utility.yul\":20740:20743   */\n      0x00\n        /* \"#utility.yul\":20761:20828   */\n      tag_456\n        /* \"#utility.yul\":20825:20827   */\n      0x1f\n        /* \"#utility.yul\":20820:20823   */\n      dup4\n        /* \"#utility.yul\":20761:20828   */\n      tag_190\n      jump\t// in\n    tag_456:\n        /* \"#utility.yul\":20754:20828   */\n      swap2\n      pop\n        /* \"#utility.yul\":20837:20930   */\n      tag_457\n        /* \"#utility.yul\":20926:20929   */\n      dup3\n        /* \"#utility.yul\":20837:20930   */\n      tag_236\n      jump\t// in\n    tag_457:\n        /* \"#utility.yul\":20955:20957   */\n      0x20\n        /* \"#utility.yul\":20950:20953   */\n      dup3\n        /* \"#utility.yul\":20946:20958   */\n      add\n        /* \"#utility.yul\":20939:20958   */\n      swap1\n      pop\n        /* \"#utility.yul\":20598:20964   */\n      swap2\n      swap1\n      pop\n      jump\t// out\n        /* \"#utility.yul\":20970:21389   */\n    tag_145:\n        /* \"#utility.yul\":21136:21140   */\n      0x00\n        /* \"#utility.yul\":21174:21176   */\n      0x20\n        /* \"#utility.yul\":21163:21172   */\n      dup3\n        /* \"#utility.yul\":21159:21177   */\n      add\n        /* \"#utility.yul\":21151:21177   */\n      swap1\n      pop\n        /* \"#utility.yul\":21223:21232   */\n      dup2\n        /* \"#utility.yul\":21217:21221   */\n      dup2\n        /* \"#utility.yul\":21213:21233   */\n      sub\n        /* \"#utility.yul\":21209:21210   */\n      0x00\n        /* \"#utility.yul\":21198:21207   */\n      dup4\n        /* \"#utility.yul\":21194:21211   */\n      add\n        /* \"#utility.yul\":21187:21234   */\n      mstore\n        /* \"#utility.yul\":21251:21382   */\n      tag_459\n        /* \"#utility.yul\":21377:21381   */\n      dup2\n        /* \"#utility.yul\":21251:21382   */\n      tag_237\n      jump\t// in\n    tag_459:\n        /* \"#utility.yul\":21243:21382   */\n      swap1\n      pop\n        /* \"#utility.yul\":20970:21389   */\n      swap2\n      swap1\n      pop\n      jump\t// out\n        /* \"#utility.yul\":21395:21805   */\n    tag_147:\n        /* \"#utility.yul\":21435:21442   */\n      0x00\n        /* \"#utility.yul\":21458:21478   */\n      tag_461\n        /* \"#utility.yul\":21476:21477   */\n      dup3\n        /* \"#utility.yul\":21458:21478   */\n      tag_182\n      jump\t// in\n    tag_461:\n        /* \"#utility.yul\":21453:21478   */\n      swap2\n      pop\n        /* \"#utility.yul\":21492:21512   */\n      tag_462\n        /* \"#utility.yul\":21510:21511   */\n      dup4\n        /* \"#utility.yul\":21492:21512   */\n      tag_182\n      jump\t// in\n    tag_462:\n        /* \"#utility.yul\":21487:21512   */\n      swap3\n      pop\n        /* \"#utility.yul\":21547:21548   */\n      dup3\n        /* \"#utility.yul\":21544:21545   */\n      dup3\n        /* \"#utility.yul\":21540:21549   */\n      mul\n        /* \"#utility.yul\":21569:21599   */\n      tag_463\n        /* \"#utility.yul\":21587:21598   */\n      dup2\n        /* \"#utility.yul\":21569:21599   */\n      tag_182\n      jump\t// in\n    tag_463:\n        /* \"#utility.yul\":21558:21599   */\n      swap2\n      pop\n        /* \"#utility.yul\":21748:21749   */\n      dup3\n        /* \"#utility.yul\":21739:21746   */\n      dup3\n        /* \"#utility.yul\":21735:21750   */\n      div\n        /* \"#utility.yul\":21732:21733   */\n      dup5\n        /* \"#utility.yul\":21729:21751   */\n      eq\n        /* \"#utility.yul\":21709:21710   */\n      dup4\n        /* \"#utility.yul\":21702:21711   */\n      iszero\n        /* \"#utility.yul\":21682:21765   */\n      or\n        /* \"#utility.yul\":21659:21798   */\n      tag_464\n      jumpi\n        /* \"#utility.yul\":21778:21796   */\n      tag_465\n      tag_217\n      jump\t// in\n    tag_465:\n        /* \"#utility.yul\":21659:21798   */\n    tag_464:\n        /* \"#utility.yul\":21443:21805   */\n      pop\n        /* \"#utility.yul\":21395:21805   */\n      swap3\n      swap2\n      pop\n      pop\n      jump\t// out\n        /* \"#utility.yul\":21811:21985   */\n    tag_238:\n        /* \"#utility.yul\":21951:21977   */\n      0x496e73756666696369656e742045746865722073656e74210000000000000000\n        /* \"#utility.yul\":21947:21948   */\n      0x00\n        /* \"#utility.yul\":21939:21945   */\n      dup3\n        /* \"#utility.yul\":21935:21949   */\n      add\n        /* \"#utility.yul\":21928:21978   */\n      mstore\n        /* \"#utility.yul\":21811:21985   */\n      pop\n      jump\t// out\n        /* \"#utility.yul\":21991:22357   */\n    tag_239:\n        /* \"#utility.yul\":22133:22136   */\n      0x00\n        /* \"#utility.yul\":22154:22221   */\n      tag_468\n        /* \"#utility.yul\":22218:22220   */\n      0x18\n        /* \"#utility.yul\":22213:22216   */\n      dup4\n        /* \"#utility.yul\":22154:22221   */\n      tag_190\n      jump\t// in\n    tag_468:\n        /* \"#utility.yul\":22147:22221   */\n      swap2\n      pop\n        /* \"#utility.yul\":22230:22323   */\n      tag_469\n        /* \"#utility.yul\":22319:22322   */\n      dup3\n        /* \"#utility.yul\":22230:22323   */\n      tag_238\n      jump\t// in\n    tag_469:\n        /* \"#utility.yul\":22348:22350   */\n      0x20\n        /* \"#utility.yul\":22343:22346   */\n      dup3\n        /* \"#utility.yul\":22339:22351   */\n      add\n        /* \"#utility.yul\":22332:22351   */\n      swap1\n      pop\n        /* \"#utility.yul\":21991:22357   */\n      swap2\n      swap1\n      pop\n      jump\t// out\n        /* \"#utility.yul\":22363:22782   */\n    tag_150:\n        /* \"#utility.yul\":22529:22533   */\n      0x00\n        /* \"#utility.yul\":22567:22569   */\n      0x20\n        /* \"#utility.yul\":22556:22565   */\n      dup3\n        /* \"#utility.yul\":22552:22570   */\n      add\n        /* \"#utility.yul\":22544:22570   */\n      swap1\n      pop\n        /* \"#utility.yul\":22616:22625   */\n      dup2\n        /* \"#utility.yul\":22610:22614   */\n      dup2\n        /* \"#utility.yul\":22606:22626   */\n      sub\n        /* \"#utility.yul\":22602:22603   */\n      0x00\n        /* \"#utility.yul\":22591:22600   */\n      dup4\n        /* \"#utility.yul\":22587:22604   */\n      add\n        /* \"#utility.yul\":22580:22627   */\n      mstore\n        /* \"#utility.yul\":22644:22775   */\n      tag_471\n        /* \"#utility.yul\":22770:22774   */\n      dup2\n        /* \"#utility.yul\":22644:22775   */\n      tag_239\n      jump\t// in\n    tag_471:\n        /* \"#utility.yul\":22636:22775   */\n      swap1\n      pop\n        /* \"#utility.yul\":22363:22782   */\n      swap2\n      swap1\n      pop\n      jump\t// out\n        /* \"#utility.yul\":22788:23120   */\n    tag_157:\n        /* \"#utility.yul\":22909:22913   */\n      0x00\n        /* \"#utility.yul\":22947:22949   */\n      0x40\n        /* \"#utility.yul\":22936:22945   */\n      dup3\n        /* \"#utility.yul\":22932:22950   */\n      add\n        /* \"#utility.yul\":22924:22950   */\n      swap1\n      pop\n        /* \"#utility.yul\":22960:23031   */\n      tag_473\n        /* \"#utility.yul\":23028:23029   */\n      0x00\n        /* \"#utility.yul\":23017:23026   */\n      dup4\n        /* \"#utility.yul\":23013:23030   */\n      add\n        /* \"#utility.yul\":23004:23010   */\n      dup6\n        /* \"#utility.yul\":22960:23031   */\n      tag_183\n      jump\t// in\n    tag_473:\n        /* \"#utility.yul\":23041:23113   */\n      tag_474\n        /* \"#utility.yul\":23109:23111   */\n      0x20\n        /* \"#utility.yul\":23098:23107   */\n      dup4\n        /* \"#utility.yul\":23094:23112   */\n      add\n        /* \"#utility.yul\":23085:23091   */\n      dup5\n        /* \"#utility.yul\":23041:23113   */\n      tag_183\n      jump\t// in\n    tag_474:\n        /* \"#utility.yul\":22788:23120   */\n      swap4\n      swap3\n      pop\n      pop\n      pop\n      jump\t// out\n        /* \"#utility.yul\":23126:23305   */\n    tag_240:\n        /* \"#utility.yul\":23266:23297   */\n      0x496e76616c6964206164647265737320666f72206e6577206f776e6572000000\n        /* \"#utility.yul\":23262:23263   */\n      0x00\n        /* \"#utility.yul\":23254:23260   */\n      dup3\n        /* \"#utility.yul\":23250:23264   */\n      add\n        /* \"#utility.yul\":23243:23298   */\n      mstore\n        /* \"#utility.yul\":23126:23305   */\n      pop\n      jump\t// out\n        /* \"#utility.yul\":23311:23677   */\n    tag_241:\n        /* \"#utility.yul\":23453:23456   */\n      0x00\n        /* \"#utility.yul\":23474:23541   */\n      tag_477\n        /* \"#utility.yul\":23538:23540   */\n      0x1d\n        /* \"#utility.yul\":23533:23536   */\n      dup4\n        /* \"#utility.yul\":23474:23541   */\n      tag_190\n      jump\t// in\n    tag_477:\n        /* \"#utility.yul\":23467:23541   */\n      swap2\n      pop\n        /* \"#utility.yul\":23550:23643   */\n      tag_478\n        /* \"#utility.yul\":23639:23642   */\n      dup3\n        /* \"#utility.yul\":23550:23643   */\n      tag_240\n      jump\t// in\n    tag_478:\n        /* \"#utility.yul\":23668:23670   */\n      0x20\n        /* \"#utility.yul\":23663:23666   */\n      dup3\n        /* \"#utility.yul\":23659:23671   */\n      add\n        /* \"#utility.yul\":23652:23671   */\n      swap1\n      pop\n        /* \"#utility.yul\":23311:23677   */\n      swap2\n      swap1\n      pop\n      jump\t// out\n        /* \"#utility.yul\":23683:24102   */\n    tag_164:\n        /* \"#utility.yul\":23849:23853   */\n      0x00\n        /* \"#utility.yul\":23887:23889   */\n      0x20\n        /* \"#utility.yul\":23876:23885   */\n      dup3\n        /* \"#utility.yul\":23872:23890   */\n      add\n        /* \"#utility.yul\":23864:23890   */\n      swap1\n      pop\n        /* \"#utility.yul\":23936:23945   */\n      dup2\n        /* \"#utility.yul\":23930:23934   */\n      dup2\n        /* \"#utility.yul\":23926:23946   */\n      sub\n        /* \"#utility.yul\":23922:23923   */\n      0x00\n        /* \"#utility.yul\":23911:23920   */\n      dup4\n        /* \"#utility.yul\":23907:23924   */\n      add\n        /* \"#utility.yul\":23900:23947   */\n      mstore\n        /* \"#utility.yul\":23964:24095   */\n      tag_480\n        /* \"#utility.yul\":24090:24094   */\n      dup2\n        /* \"#utility.yul\":23964:24095   */\n      tag_241\n      jump\t// in\n    tag_480:\n        /* \"#utility.yul\":23956:24095   */\n      swap1\n      pop\n        /* \"#utility.yul\":23683:24102   */\n      swap2\n      swap1\n      pop\n      jump\t// out\n        /* \"#utility.yul\":24108:24273   */\n    tag_242:\n        /* \"#utility.yul\":24248:24265   */\n      0x4974656d206e6f7420666f756e64210000000000000000000000000000000000\n        /* \"#utility.yul\":24244:24245   */\n      0x00\n        /* \"#utility.yul\":24236:24242   */\n      dup3\n        /* \"#utility.yul\":24232:24246   */\n      add\n        /* \"#utility.yul\":24225:24266   */\n      mstore\n        /* \"#utility.yul\":24108:24273   */\n      pop\n      jump\t// out\n        /* \"#utility.yul\":24279:24645   */\n    tag_243:\n        /* \"#utility.yul\":24421:24424   */\n      0x00\n        /* \"#utility.yul\":24442:24509   */\n      tag_483\n        /* \"#utility.yul\":24506:24508   */\n      0x0f\n        /* \"#utility.yul\":24501:24504   */\n      dup4\n        /* \"#utility.yul\":24442:24509   */\n      tag_190\n      jump\t// in\n    tag_483:\n        /* \"#utility.yul\":24435:24509   */\n      swap2\n      pop\n        /* \"#utility.yul\":24518:24611   */\n      tag_484\n        /* \"#utility.yul\":24607:24610   */\n      dup3\n        /* \"#utility.yul\":24518:24611   */\n      tag_242\n      jump\t// in\n    tag_484:\n        /* \"#utility.yul\":24636:24638   */\n      0x20\n        /* \"#utility.yul\":24631:24634   */\n      dup3\n        /* \"#utility.yul\":24627:24639   */\n      add\n        /* \"#utility.yul\":24620:24639   */\n      swap1\n      pop\n        /* \"#utility.yul\":24279:24645   */\n      swap2\n      swap1\n      pop\n      jump\t// out\n        /* \"#utility.yul\":24651:25070   */\n    tag_174:\n        /* \"#utility.yul\":24817:24821   */\n      0x00\n        /* \"#utility.yul\":24855:24857   */\n      0x20\n        /* \"#utility.yul\":24844:24853   */\n      dup3\n        /* \"#utility.yul\":24840:24858   */\n      add\n        /* \"#utility.yul\":24832:24858   */\n      swap1\n      pop\n        /* \"#utility.yul\":24904:24913   */\n      dup2\n        /* \"#utility.yul\":24898:24902   */\n      dup2\n        /* \"#utility.yul\":24894:24914   */\n      sub\n        /* \"#utility.yul\":24890:24891   */\n      0x00\n        /* \"#utility.yul\":24879:24888   */\n      dup4\n        /* \"#utility.yul\":24875:24892   */\n      add\n        /* \"#utility.yul\":24868:24915   */\n      mstore\n        /* \"#utility.yul\":24932:25063   */\n      tag_486\n        /* \"#utility.yul\":25058:25062   */\n      dup2\n        /* \"#utility.yul\":24932:25063   */\n      tag_243\n      jump\t// in\n    tag_486:\n        /* \"#utility.yul\":24924:25063   */\n      swap1\n      pop\n        /* \"#utility.yul\":24651:25070   */\n      swap2\n      swap1\n      pop\n      jump\t// out\n\n    auxdata: 0xa2646970667358221220e3e9a24b96ec8fc1ac889a8b6cbe1f1912c4b35fcb390028aa36dcb08f5e814c64736f6c634300081a0033\n}\n",
				"bytecode": {
					"linkReferences": {},
					"object": "6080604052348015600e575f80fd5b50335f806101000a81548173ffffffffffffffffffffffffffffffffffffffff021916908373ffffffffffffffffffffffffffffffffffffffff1602179055505f8054906101000a900473ffffffffffffffffffffffffffffffffffffffff1673ffffffffffffffffffffffffffffffffffffffff165f73ffffffffffffffffffffffffffffffffffffffff167f8be0079c531659141344cd1fd0a4f28419497f9722a3daafe3b4186f6b6457e060405160405180910390a3611b65806100d45f395ff3fe608060405260043610610094575f3560e01c80638da5cb5b116100585780638da5cb5b146101be578063bfb231d2146101e8578063d5e6c33314610227578063e06756981461024f578063f2fde38b1461026b576100e9565b806324600fc3146100ed5780633129e773146101035780636a86897414610142578063713291711461016c5780637749cf2314610194576100e9565b366100e9573373ffffffffffffffffffffffffffffffffffffffff167feaff4b37086828766ad3268786972c0cd24259d4c87a80f9d3963a3c3d999b0d346040516100df9190610e63565b60405180910390a2005b5f80fd5b3480156100f8575f80fd5b50610101610293565b005b34801561010e575f80fd5b5061012960048036038101906101249190610eb7565b610439565b6040516101399493929190610f52565b60405180910390f35b34801561014d575f80fd5b50610156610554565b6040516101639190610e63565b60405180910390f35b348015610177575f80fd5b50610192600480360381019061018d9190610eb7565b61055a565b005b34801561019f575f80fd5b506101a861073a565b6040516101b59190610e63565b60405180910390f35b3480156101c9575f80fd5b506101d2610746565b6040516101df9190610fdb565b60405180910390f35b3480156101f3575f80fd5b5061020e60048036038101906102099190610eb7565b610769565b60405161021e9493929190610f52565b60405180910390f35b348015610232575f80fd5b5061024d60048036038101906102489190611120565b61082a565b005b6102696004803603810190610264919061118c565b6109d2565b005b348015610276575f80fd5b50610291600480360381019061028c91906111f4565b610baa565b005b5f8054906101000a900473ffffffffffffffffffffffffffffffffffffffff1673ffffffffffffffffffffffffffffffffffffffff163373ffffffffffffffffffffffffffffffffffffffff1614610320576040517f08c379a000000000000000000000000000000000000000000000000000000000815260040161031790611269565b60405180910390fd5b5f4790505f8111610366576040517f08c379a000000000000000000000000000000000000000000000000000000000815260040161035d906112d1565b60405180910390fd5b5f8054906101000a900473ffffffffffffffffffffffffffffffffffffffff1673ffffffffffffffffffffffffffffffffffffffff166108fc8290811502906040515f60405180830381858888f193505050501580156103c8573d5f803e3d5ffd5b505f8054906101000a900473ffffffffffffffffffffffffffffffffffffffff1673ffffffffffffffffffffffffffffffffffffffff167feaff4b37086828766ad3268786972c0cd24259d4c87a80f9d3963a3c3d999b0d8260405161042e9190610e63565b60405180910390a250565b5f60605f806001805490508510610485576040517f08c379a000000000000000000000000000000000000000000000000000000000815260040161047c90611339565b60405180910390fd5b5f6001868154811061049a57610499611357565b5b905f5260205f2090600402019050805f015481600101826002015483600301548280546104c6906113b1565b80601f01602080910402602001604051908101604052809291908181526020018280546104f2906113b1565b801561053d5780601f106105145761010080835404028352916020019161053d565b820191905f5260205f20905b81548152906001019060200180831161052057829003601f168201915b505050505092509450945094509450509193509193565b60025481565b5f8054906101000a900473ffffffffffffffffffffffffffffffffffffffff1673ffffffffffffffffffffffffffffffffffffffff163373ffffffffffffffffffffffffffffffffffffffff16146105e7576040517f08c379a00000000000000000000000000000000000000000000000000000000081526004016105de90611269565b60405180910390fd5b5f6105f182610d60565b9050600180549050811061063a576040517f08c379a00000000000000000000000000000000000000000000000000000000081526004016106319061142b565b60405180910390fd5b600180808054905061064c9190611476565b8154811061065d5761065c611357565b5b905f5260205f2090600402016001828154811061067d5761067c611357565b5b905f5260205f2090600402015f820154815f0155600182018160010190816106a5919061165b565b50600282015481600201556003820154816003015590505060018054806106cf576106ce611740565b5b600190038181905f5260205f2090600402015f8082015f9055600182015f6106f79190610df3565b600282015f9055600382015f905550509055817fa54eda4149a0fb9258911733973ecf1f6762357ed371fc6d1e63123bbce23bed60405160405180910390a25050565b5f600180549050905090565b5f8054906101000a900473ffffffffffffffffffffffffffffffffffffffff1681565b60018181548110610778575f80fd5b905f5260205f2090600402015f91509050805f01549080600101805461079d906113b1565b80601f01602080910402602001604051908101604052809291908181526020018280546107c9906113b1565b80156108145780601f106107eb57610100808354040283529160200191610814565b820191905f5260205f20905b8154815290600101906020018083116107f757829003601f168201915b5050505050908060020154908060030154905084565b5f8054906101000a900473ffffffffffffffffffffffffffffffffffffffff1673ffffffffffffffffffffffffffffffffffffffff163373ffffffffffffffffffffffffffffffffffffffff16146108b7576040517f08c379a00000000000000000000000000000000000000000000000000000000081526004016108ae90611269565b60405180910390fd5b5f82116108f9576040517f08c379a00000000000000000000000000000000000000000000000000000000081526004016108f0906117b7565b60405180910390fd5b60016040518060800160405280600254815260200185815260200184815260200183815250908060018154018082558091505060019003905f5260205f2090600402015f909190919091505f820151815f0155602082015181600101908161096191906117d5565b50604082015181600201556060820151816003015550506002547f665e452eb624a7f9bf54abd5d404d4f4da7360a1e40698893fe2cc447a51af9c8484846040516109ae939291906118a4565b60405180910390a260025f8154809291906109c8906118e0565b9190505550505050565b5f6109dc83610d60565b90506001805490508110610a25576040517f08c379a0000000000000000000000000000000000000000000000000000000008152600401610a1c9061142b565b60405180910390fd5b5f60018281548110610a3a57610a39611357565b5b905f5260205f20906004020190505f8311610a8a576040517f08c379a0000000000000000000000000000000000000000000000000000000008152600401610a8190611971565b60405180910390fd5b5f838260020154610a9b919061198f565b905080341015610ae0576040517f08c379a0000000000000000000000000000000000000000000000000000000008152600401610ad790611a1a565b60405180910390fd5b83826003015f828254610af39190611476565b9250508190555080341115610b52573373ffffffffffffffffffffffffffffffffffffffff166108fc8234610b289190611476565b90811502906040515f60405180830381858888f19350505050158015610b50573d5f803e3d5ffd5b505b3373ffffffffffffffffffffffffffffffffffffffff16857f7e90354d1b8c35feb2fac2d29c9e6d5a7daa4d8d4e97ac36fd94cc11a3db3d9e8684604051610b9b929190611a38565b60405180910390a35050505050565b5f8054906101000a900473ffffffffffffffffffffffffffffffffffffffff1673ffffffffffffffffffffffffffffffffffffffff163373ffffffffffffffffffffffffffffffffffffffff1614610c37576040517f08c379a0000000000000000000000000000000000000000000000000000000008152600401610c2e90611269565b60405180910390fd5b5f73ffffffffffffffffffffffffffffffffffffffff168173ffffffffffffffffffffffffffffffffffffffff1603610ca5576040517f08c379a0000000000000000000000000000000000000000000000000000000008152600401610c9c90611aa9565b60405180910390fd5b8073ffffffffffffffffffffffffffffffffffffffff165f8054906101000a900473ffffffffffffffffffffffffffffffffffffffff1673ffffffffffffffffffffffffffffffffffffffff167f8be0079c531659141344cd1fd0a4f28419497f9722a3daafe3b4186f6b6457e060405160405180910390a3805f806101000a81548173ffffffffffffffffffffffffffffffffffffffff021916908373ffffffffffffffffffffffffffffffffffffffff16021790555050565b5f805f90505b600180549050811015610db2578260018281548110610d8857610d87611357565b5b905f5260205f2090600402015f015403610da55780915050610dee565b8080600101915050610d66565b506040517f08c379a0000000000000000000000000000000000000000000000000000000008152600401610de590611b11565b60405180910390fd5b919050565b508054610dff906113b1565b5f825580601f10610e105750610e2d565b601f0160209004905f5260205f2090810190610e2c9190610e30565b5b50565b5b80821115610e47575f815f905550600101610e31565b5090565b5f819050919050565b610e5d81610e4b565b82525050565b5f602082019050610e765f830184610e54565b92915050565b5f604051905090565b5f80fd5b5f80fd5b610e9681610e4b565b8114610ea0575f80fd5b50565b5f81359050610eb181610e8d565b92915050565b5f60208284031215610ecc57610ecb610e85565b5b5f610ed984828501610ea3565b91505092915050565b5f81519050919050565b5f82825260208201905092915050565b8281835e5f83830152505050565b5f601f19601f8301169050919050565b5f610f2482610ee2565b610f2e8185610eec565b9350610f3e818560208601610efc565b610f4781610f0a565b840191505092915050565b5f608082019050610f655f830187610e54565b8181036020830152610f778186610f1a565b9050610f866040830185610e54565b610f936060830184610e54565b95945050505050565b5f73ffffffffffffffffffffffffffffffffffffffff82169050919050565b5f610fc582610f9c565b9050919050565b610fd581610fbb565b82525050565b5f602082019050610fee5f830184610fcc565b92915050565b5f80fd5b5f80fd5b7f4e487b71000000000000000000000000000000000000000000000000000000005f52604160045260245ffd5b61103282610f0a565b810181811067ffffffffffffffff8211171561105157611050610ffc565b5b80604052505050565b5f611063610e7c565b905061106f8282611029565b919050565b5f67ffffffffffffffff82111561108e5761108d610ffc565b5b61109782610f0a565b9050602081019050919050565b828183375f83830152505050565b5f6110c46110bf84611074565b61105a565b9050828152602081018484840111156110e0576110df610ff8565b5b6110eb8482856110a4565b509392505050565b5f82601f83011261110757611106610ff4565b5b81356111178482602086016110b2565b91505092915050565b5f805f6060848603121561113757611136610e85565b5b5f84013567ffffffffffffffff81111561115457611153610e89565b5b611160868287016110f3565b935050602061117186828701610ea3565b925050604061118286828701610ea3565b9150509250925092565b5f80604083850312156111a2576111a1610e85565b5b5f6111af85828601610ea3565b92505060206111c085828601610ea3565b9150509250929050565b6111d381610fbb565b81146111dd575f80fd5b50565b5f813590506111ee816111ca565b92915050565b5f6020828403121561120957611208610e85565b5b5f611216848285016111e0565b91505092915050565b7f4e6f742074686520636f6e7472616374206f776e6572000000000000000000005f82015250565b5f611253601683610eec565b915061125e8261121f565b602082019050919050565b5f6020820190508181035f83015261128081611247565b9050919050565b7f4e6f2066756e647320746f2077697468647261770000000000000000000000005f82015250565b5f6112bb601483610eec565b91506112c682611287565b602082019050919050565b5f6020820190508181035f8301526112e8816112af565b9050919050565b7f4974656d20646f6573206e6f74206578697400000000000000000000000000005f82015250565b5f611323601283610eec565b915061132e826112ef565b602082019050919050565b5f6020820190508181035f83015261135081611317565b9050919050565b7f4e487b71000000000000000000000000000000000000000000000000000000005f52603260045260245ffd5b7f4e487b71000000000000000000000000000000000000000000000000000000005f52602260045260245ffd5b5f60028204905060018216806113c857607f821691505b6020821081036113db576113da611384565b5b50919050565b7f4974656d20646f6573206e6f74206578697374000000000000000000000000005f82015250565b5f611415601383610eec565b9150611420826113e1565b602082019050919050565b5f6020820190508181035f83015261144281611409565b9050919050565b7f4e487b71000000000000000000000000000000000000000000000000000000005f52601160045260245ffd5b5f61148082610e4b565b915061148b83610e4b565b92508282039050818111156114a3576114a2611449565b5b92915050565b5f815490506114b7816113b1565b9050919050565b5f819050815f5260205f209050919050565b5f6020601f8301049050919050565b5f82821b905092915050565b5f6008830261151a7fffffffffffffffffffffffffffffffffffffffffffffffffffffffffffffffff826114df565b61152486836114df565b95508019841693508086168417925050509392505050565b5f819050919050565b5f61155f61155a61155584610e4b565b61153c565b610e4b565b9050919050565b5f819050919050565b61157883611545565b61158c61158482611566565b8484546114eb565b825550505050565b5f90565b6115a0611594565b6115ab81848461156f565b505050565b5b818110156115ce576115c35f82611598565b6001810190506115b1565b5050565b601f821115611613576115e4816114be565b6115ed846114d0565b810160208510156115fc578190505b611610611608856114d0565b8301826115b0565b50505b505050565b5f82821c905092915050565b5f6116335f1984600802611618565b1980831691505092915050565b5f61164b8383611624565b9150826002028217905092915050565b81810361166957505061173e565b611672826114a9565b67ffffffffffffffff81111561168b5761168a610ffc565b5b61169582546113b1565b6116a08282856115d2565b5f601f8311600181146116cd575f84156116bb578287015490505b6116c58582611640565b865550611737565b601f1984166116db876114be565b96506116e6866114be565b5f5b8281101561170d578489015482556001820191506001850194506020810190506116e8565b8683101561172a5784890154611726601f891682611624565b8355505b6001600288020188555050505b5050505050505b565b7f4e487b71000000000000000000000000000000000000000000000000000000005f52603160045260245ffd5b7f5072696365206d7573742062652067726561746572207468616e207a65726f005f82015250565b5f6117a1601f83610eec565b91506117ac8261176d565b602082019050919050565b5f6020820190508181035f8301526117ce81611795565b9050919050565b6117de82610ee2565b67ffffffffffffffff8111156117f7576117f6610ffc565b5b61180182546113b1565b61180c8282856115d2565b5f60209050601f83116001811461183d575f841561182b578287015190505b6118358582611640565b86555061189c565b601f19841661184b866114be565b5f5b828110156118725784890151825560018201915060208501945060208101905061184d565b8683101561188f578489015161188b601f891682611624565b8355505b6001600288020188555050505b505050505050565b5f6060820190508181035f8301526118bc8186610f1a565b90506118cb6020830185610e54565b6118d86040830184610e54565b949350505050565b5f6118ea82610e4b565b91507fffffffffffffffffffffffffffffffffffffffffffffffffffffffffffffffff820361191c5761191b611449565b5b600182019050919050565b7f5175616e74697479206d7573742062652067726561746572207468616e2030005f82015250565b5f61195b601f83610eec565b915061196682611927565b602082019050919050565b5f6020820190508181035f8301526119888161194f565b9050919050565b5f61199982610e4b565b91506119a483610e4b565b92508282026119b281610e4b565b915082820484148315176119c9576119c8611449565b5b5092915050565b7f496e73756666696369656e742045746865722073656e742100000000000000005f82015250565b5f611a04601883610eec565b9150611a0f826119d0565b602082019050919050565b5f6020820190508181035f830152611a31816119f8565b9050919050565b5f604082019050611a4b5f830185610e54565b611a586020830184610e54565b9392505050565b7f496e76616c6964206164647265737320666f72206e6577206f776e65720000005f82015250565b5f611a93601d83610eec565b9150611a9e82611a5f565b602082019050919050565b5f6020820190508181035f830152611ac081611a87565b9050919050565b7f4974656d206e6f7420666f756e642100000000000000000000000000000000005f82015250565b5f611afb600f83610eec565b9150611b0682611ac7565b602082019050919050565b5f6020820190508181035f830152611b2881611aef565b905091905056fea2646970667358221220e3e9a24b96ec8fc1ac889a8b6cbe1f1912c4b35fcb390028aa36dcb08f5e814c64736f6c634300081a0033",
					"opcodes": "PUSH1 0x80 PUSH1 0x40 MSTORE CALLVALUE DUP1 ISZERO PUSH1 0xE JUMPI PUSH0 DUP1 REVERT JUMPDEST POP CALLER PUSH0 DUP1 PUSH2 0x100 EXP DUP2 SLOAD DUP2 PUSH20 0xFFFFFFFFFFFFFFFFFFFFFFFFFFFFFFFFFFFFFFFF MUL NOT AND SWAP1 DUP4 PUSH20 0xFFFFFFFFFFFFFFFFFFFFFFFFFFFFFFFFFFFFFFFF AND MUL OR SWAP1 SSTORE POP PUSH0 DUP1 SLOAD SWAP1 PUSH2 0x100 EXP SWAP1 DIV PUSH20 0xFFFFFFFFFFFFFFFFFFFFFFFFFFFFFFFFFFFFFFFF AND PUSH20 0xFFFFFFFFFFFFFFFFFFFFFFFFFFFFFFFFFFFFFFFF AND PUSH0 PUSH20 0xFFFFFFFFFFFFFFFFFFFFFFFFFFFFFFFFFFFFFFFF AND PUSH32 0x8BE0079C531659141344CD1FD0A4F28419497F9722A3DAAFE3B4186F6B6457E0 PUSH1 0x40 MLOAD PUSH1 0x40 MLOAD DUP1 SWAP2 SUB SWAP1 LOG3 PUSH2 0x1B65 DUP1 PUSH2 0xD4 PUSH0 CODECOPY PUSH0 RETURN INVALID PUSH1 0x80 PUSH1 0x40 MSTORE PUSH1 0x4 CALLDATASIZE LT PUSH2 0x94 JUMPI PUSH0 CALLDATALOAD PUSH1 0xE0 SHR DUP1 PUSH4 0x8DA5CB5B GT PUSH2 0x58 JUMPI DUP1 PUSH4 0x8DA5CB5B EQ PUSH2 0x1BE JUMPI DUP1 PUSH4 0xBFB231D2 EQ PUSH2 0x1E8 JUMPI DUP1 PUSH4 0xD5E6C333 EQ PUSH2 0x227 JUMPI DUP1 PUSH4 0xE0675698 EQ PUSH2 0x24F JUMPI DUP1 PUSH4 0xF2FDE38B EQ PUSH2 0x26B JUMPI PUSH2 0xE9 JUMP JUMPDEST DUP1 PUSH4 0x24600FC3 EQ PUSH2 0xED JUMPI DUP1 PUSH4 0x3129E773 EQ PUSH2 0x103 JUMPI DUP1 PUSH4 0x6A868974 EQ PUSH2 0x142 JUMPI DUP1 PUSH4 0x71329171 EQ PUSH2 0x16C JUMPI DUP1 PUSH4 0x7749CF23 EQ PUSH2 0x194 JUMPI PUSH2 0xE9 JUMP JUMPDEST CALLDATASIZE PUSH2 0xE9 JUMPI CALLER PUSH20 0xFFFFFFFFFFFFFFFFFFFFFFFFFFFFFFFFFFFFFFFF AND PUSH32 0xEAFF4B37086828766AD3268786972C0CD24259D4C87A80F9D3963A3C3D999B0D CALLVALUE PUSH1 0x40 MLOAD PUSH2 0xDF SWAP2 SWAP1 PUSH2 0xE63 JUMP JUMPDEST PUSH1 0x40 MLOAD DUP1 SWAP2 SUB SWAP1 LOG2 STOP JUMPDEST PUSH0 DUP1 REVERT JUMPDEST CALLVALUE DUP1 ISZERO PUSH2 0xF8 JUMPI PUSH0 DUP1 REVERT JUMPDEST POP PUSH2 0x101 PUSH2 0x293 JUMP JUMPDEST STOP JUMPDEST CALLVALUE DUP1 ISZERO PUSH2 0x10E JUMPI PUSH0 DUP1 REVERT JUMPDEST POP PUSH2 0x129 PUSH1 0x4 DUP1 CALLDATASIZE SUB DUP2 ADD SWAP1 PUSH2 0x124 SWAP2 SWAP1 PUSH2 0xEB7 JUMP JUMPDEST PUSH2 0x439 JUMP JUMPDEST PUSH1 0x40 MLOAD PUSH2 0x139 SWAP5 SWAP4 SWAP3 SWAP2 SWAP1 PUSH2 0xF52 JUMP JUMPDEST PUSH1 0x40 MLOAD DUP1 SWAP2 SUB SWAP1 RETURN JUMPDEST CALLVALUE DUP1 ISZERO PUSH2 0x14D JUMPI PUSH0 DUP1 REVERT JUMPDEST POP PUSH2 0x156 PUSH2 0x554 JUMP JUMPDEST PUSH1 0x40 MLOAD PUSH2 0x163 SWAP2 SWAP1 PUSH2 0xE63 JUMP JUMPDEST PUSH1 0x40 MLOAD DUP1 SWAP2 SUB SWAP1 RETURN JUMPDEST CALLVALUE DUP1 ISZERO PUSH2 0x177 JUMPI PUSH0 DUP1 REVERT JUMPDEST POP PUSH2 0x192 PUSH1 0x4 DUP1 CALLDATASIZE SUB DUP2 ADD SWAP1 PUSH2 0x18D SWAP2 SWAP1 PUSH2 0xEB7 JUMP JUMPDEST PUSH2 0x55A JUMP JUMPDEST STOP JUMPDEST CALLVALUE DUP1 ISZERO PUSH2 0x19F JUMPI PUSH0 DUP1 REVERT JUMPDEST POP PUSH2 0x1A8 PUSH2 0x73A JUMP JUMPDEST PUSH1 0x40 MLOAD PUSH2 0x1B5 SWAP2 SWAP1 PUSH2 0xE63 JUMP JUMPDEST PUSH1 0x40 MLOAD DUP1 SWAP2 SUB SWAP1 RETURN JUMPDEST CALLVALUE DUP1 ISZERO PUSH2 0x1C9 JUMPI PUSH0 DUP1 REVERT JUMPDEST POP PUSH2 0x1D2 PUSH2 0x746 JUMP JUMPDEST PUSH1 0x40 MLOAD PUSH2 0x1DF SWAP2 SWAP1 PUSH2 0xFDB JUMP JUMPDEST PUSH1 0x40 MLOAD DUP1 SWAP2 SUB SWAP1 RETURN JUMPDEST CALLVALUE DUP1 ISZERO PUSH2 0x1F3 JUMPI PUSH0 DUP1 REVERT JUMPDEST POP PUSH2 0x20E PUSH1 0x4 DUP1 CALLDATASIZE SUB DUP2 ADD SWAP1 PUSH2 0x209 SWAP2 SWAP1 PUSH2 0xEB7 JUMP JUMPDEST PUSH2 0x769 JUMP JUMPDEST PUSH1 0x40 MLOAD PUSH2 0x21E SWAP5 SWAP4 SWAP3 SWAP2 SWAP1 PUSH2 0xF52 JUMP JUMPDEST PUSH1 0x40 MLOAD DUP1 SWAP2 SUB SWAP1 RETURN JUMPDEST CALLVALUE DUP1 ISZERO PUSH2 0x232 JUMPI PUSH0 DUP1 REVERT JUMPDEST POP PUSH2 0x24D PUSH1 0x4 DUP1 CALLDATASIZE SUB DUP2 ADD SWAP1 PUSH2 0x248 SWAP2 SWAP1 PUSH2 0x1120 JUMP JUMPDEST PUSH2 0x82A JUMP JUMPDEST STOP JUMPDEST PUSH2 0x269 PUSH1 0x4 DUP1 CALLDATASIZE SUB DUP2 ADD SWAP1 PUSH2 0x264 SWAP2 SWAP1 PUSH2 0x118C JUMP JUMPDEST PUSH2 0x9D2 JUMP JUMPDEST STOP JUMPDEST CALLVALUE DUP1 ISZERO PUSH2 0x276 JUMPI PUSH0 DUP1 REVERT JUMPDEST POP PUSH2 0x291 PUSH1 0x4 DUP1 CALLDATASIZE SUB DUP2 ADD SWAP1 PUSH2 0x28C SWAP2 SWAP1 PUSH2 0x11F4 JUMP JUMPDEST PUSH2 0xBAA JUMP JUMPDEST STOP JUMPDEST PUSH0 DUP1 SLOAD SWAP1 PUSH2 0x100 EXP SWAP1 DIV PUSH20 0xFFFFFFFFFFFFFFFFFFFFFFFFFFFFFFFFFFFFFFFF AND PUSH20 0xFFFFFFFFFFFFFFFFFFFFFFFFFFFFFFFFFFFFFFFF AND CALLER PUSH20 0xFFFFFFFFFFFFFFFFFFFFFFFFFFFFFFFFFFFFFFFF AND EQ PUSH2 0x320 JUMPI PUSH1 0x40 MLOAD PUSH32 0x8C379A000000000000000000000000000000000000000000000000000000000 DUP2 MSTORE PUSH1 0x4 ADD PUSH2 0x317 SWAP1 PUSH2 0x1269 JUMP JUMPDEST PUSH1 0x40 MLOAD DUP1 SWAP2 SUB SWAP1 REVERT JUMPDEST PUSH0 SELFBALANCE SWAP1 POP PUSH0 DUP2 GT PUSH2 0x366 JUMPI PUSH1 0x40 MLOAD PUSH32 0x8C379A000000000000000000000000000000000000000000000000000000000 DUP2 MSTORE PUSH1 0x4 ADD PUSH2 0x35D SWAP1 PUSH2 0x12D1 JUMP JUMPDEST PUSH1 0x40 MLOAD DUP1 SWAP2 SUB SWAP1 REVERT JUMPDEST PUSH0 DUP1 SLOAD SWAP1 PUSH2 0x100 EXP SWAP1 DIV PUSH20 0xFFFFFFFFFFFFFFFFFFFFFFFFFFFFFFFFFFFFFFFF AND PUSH20 0xFFFFFFFFFFFFFFFFFFFFFFFFFFFFFFFFFFFFFFFF AND PUSH2 0x8FC DUP3 SWAP1 DUP2 ISZERO MUL SWAP1 PUSH1 0x40 MLOAD PUSH0 PUSH1 0x40 MLOAD DUP1 DUP4 SUB DUP2 DUP6 DUP9 DUP9 CALL SWAP4 POP POP POP POP ISZERO DUP1 ISZERO PUSH2 0x3C8 JUMPI RETURNDATASIZE PUSH0 DUP1 RETURNDATACOPY RETURNDATASIZE PUSH0 REVERT JUMPDEST POP PUSH0 DUP1 SLOAD SWAP1 PUSH2 0x100 EXP SWAP1 DIV PUSH20 0xFFFFFFFFFFFFFFFFFFFFFFFFFFFFFFFFFFFFFFFF AND PUSH20 0xFFFFFFFFFFFFFFFFFFFFFFFFFFFFFFFFFFFFFFFF AND PUSH32 0xEAFF4B37086828766AD3268786972C0CD24259D4C87A80F9D3963A3C3D999B0D DUP3 PUSH1 0x40 MLOAD PUSH2 0x42E SWAP2 SWAP1 PUSH2 0xE63 JUMP JUMPDEST PUSH1 0x40 MLOAD DUP1 SWAP2 SUB SWAP1 LOG2 POP JUMP JUMPDEST PUSH0 PUSH1 0x60 PUSH0 DUP1 PUSH1 0x1 DUP1 SLOAD SWAP1 POP DUP6 LT PUSH2 0x485 JUMPI PUSH1 0x40 MLOAD PUSH32 0x8C379A000000000000000000000000000000000000000000000000000000000 DUP2 MSTORE PUSH1 0x4 ADD PUSH2 0x47C SWAP1 PUSH2 0x1339 JUMP JUMPDEST PUSH1 0x40 MLOAD DUP1 SWAP2 SUB SWAP1 REVERT JUMPDEST PUSH0 PUSH1 0x1 DUP7 DUP2 SLOAD DUP2 LT PUSH2 0x49A JUMPI PUSH2 0x499 PUSH2 0x1357 JUMP JUMPDEST JUMPDEST SWAP1 PUSH0 MSTORE PUSH1 0x20 PUSH0 KECCAK256 SWAP1 PUSH1 0x4 MUL ADD SWAP1 POP DUP1 PUSH0 ADD SLOAD DUP2 PUSH1 0x1 ADD DUP3 PUSH1 0x2 ADD SLOAD DUP4 PUSH1 0x3 ADD SLOAD DUP3 DUP1 SLOAD PUSH2 0x4C6 SWAP1 PUSH2 0x13B1 JUMP JUMPDEST DUP1 PUSH1 0x1F ADD PUSH1 0x20 DUP1 SWAP2 DIV MUL PUSH1 0x20 ADD PUSH1 0x40 MLOAD SWAP1 DUP2 ADD PUSH1 0x40 MSTORE DUP1 SWAP3 SWAP2 SWAP1 DUP2 DUP2 MSTORE PUSH1 0x20 ADD DUP3 DUP1 SLOAD PUSH2 0x4F2 SWAP1 PUSH2 0x13B1 JUMP JUMPDEST DUP1 ISZERO PUSH2 0x53D JUMPI DUP1 PUSH1 0x1F LT PUSH2 0x514 JUMPI PUSH2 0x100 DUP1 DUP4 SLOAD DIV MUL DUP4 MSTORE SWAP2 PUSH1 0x20 ADD SWAP2 PUSH2 0x53D JUMP JUMPDEST DUP3 ADD SWAP2 SWAP1 PUSH0 MSTORE PUSH1 0x20 PUSH0 KECCAK256 SWAP1 JUMPDEST DUP2 SLOAD DUP2 MSTORE SWAP1 PUSH1 0x1 ADD SWAP1 PUSH1 0x20 ADD DUP1 DUP4 GT PUSH2 0x520 JUMPI DUP3 SWAP1 SUB PUSH1 0x1F AND DUP3 ADD SWAP2 JUMPDEST POP POP POP POP POP SWAP3 POP SWAP5 POP SWAP5 POP SWAP5 POP SWAP5 POP POP SWAP2 SWAP4 POP SWAP2 SWAP4 JUMP JUMPDEST PUSH1 0x2 SLOAD DUP2 JUMP JUMPDEST PUSH0 DUP1 SLOAD SWAP1 PUSH2 0x100 EXP SWAP1 DIV PUSH20 0xFFFFFFFFFFFFFFFFFFFFFFFFFFFFFFFFFFFFFFFF AND PUSH20 0xFFFFFFFFFFFFFFFFFFFFFFFFFFFFFFFFFFFFFFFF AND CALLER PUSH20 0xFFFFFFFFFFFFFFFFFFFFFFFFFFFFFFFFFFFFFFFF AND EQ PUSH2 0x5E7 JUMPI PUSH1 0x40 MLOAD PUSH32 0x8C379A000000000000000000000000000000000000000000000000000000000 DUP2 MSTORE PUSH1 0x4 ADD PUSH2 0x5DE SWAP1 PUSH2 0x1269 JUMP JUMPDEST PUSH1 0x40 MLOAD DUP1 SWAP2 SUB SWAP1 REVERT JUMPDEST PUSH0 PUSH2 0x5F1 DUP3 PUSH2 0xD60 JUMP JUMPDEST SWAP1 POP PUSH1 0x1 DUP1 SLOAD SWAP1 POP DUP2 LT PUSH2 0x63A JUMPI PUSH1 0x40 MLOAD PUSH32 0x8C379A000000000000000000000000000000000000000000000000000000000 DUP2 MSTORE PUSH1 0x4 ADD PUSH2 0x631 SWAP1 PUSH2 0x142B JUMP JUMPDEST PUSH1 0x40 MLOAD DUP1 SWAP2 SUB SWAP1 REVERT JUMPDEST PUSH1 0x1 DUP1 DUP1 DUP1 SLOAD SWAP1 POP PUSH2 0x64C SWAP2 SWAP1 PUSH2 0x1476 JUMP JUMPDEST DUP2 SLOAD DUP2 LT PUSH2 0x65D JUMPI PUSH2 0x65C PUSH2 0x1357 JUMP JUMPDEST JUMPDEST SWAP1 PUSH0 MSTORE PUSH1 0x20 PUSH0 KECCAK256 SWAP1 PUSH1 0x4 MUL ADD PUSH1 0x1 DUP3 DUP2 SLOAD DUP2 LT PUSH2 0x67D JUMPI PUSH2 0x67C PUSH2 0x1357 JUMP JUMPDEST JUMPDEST SWAP1 PUSH0 MSTORE PUSH1 0x20 PUSH0 KECCAK256 SWAP1 PUSH1 0x4 MUL ADD PUSH0 DUP3 ADD SLOAD DUP2 PUSH0 ADD SSTORE PUSH1 0x1 DUP3 ADD DUP2 PUSH1 0x1 ADD SWAP1 DUP2 PUSH2 0x6A5 SWAP2 SWAP1 PUSH2 0x165B JUMP JUMPDEST POP PUSH1 0x2 DUP3 ADD SLOAD DUP2 PUSH1 0x2 ADD SSTORE PUSH1 0x3 DUP3 ADD SLOAD DUP2 PUSH1 0x3 ADD SSTORE SWAP1 POP POP PUSH1 0x1 DUP1 SLOAD DUP1 PUSH2 0x6CF JUMPI PUSH2 0x6CE PUSH2 0x1740 JUMP JUMPDEST JUMPDEST PUSH1 0x1 SWAP1 SUB DUP2 DUP2 SWAP1 PUSH0 MSTORE PUSH1 0x20 PUSH0 KECCAK256 SWAP1 PUSH1 0x4 MUL ADD PUSH0 DUP1 DUP3 ADD PUSH0 SWAP1 SSTORE PUSH1 0x1 DUP3 ADD PUSH0 PUSH2 0x6F7 SWAP2 SWAP1 PUSH2 0xDF3 JUMP JUMPDEST PUSH1 0x2 DUP3 ADD PUSH0 SWAP1 SSTORE PUSH1 0x3 DUP3 ADD PUSH0 SWAP1 SSTORE POP POP SWAP1 SSTORE DUP2 PUSH32 0xA54EDA4149A0FB9258911733973ECF1F6762357ED371FC6D1E63123BBCE23BED PUSH1 0x40 MLOAD PUSH1 0x40 MLOAD DUP1 SWAP2 SUB SWAP1 LOG2 POP POP JUMP JUMPDEST PUSH0 PUSH1 0x1 DUP1 SLOAD SWAP1 POP SWAP1 POP SWAP1 JUMP JUMPDEST PUSH0 DUP1 SLOAD SWAP1 PUSH2 0x100 EXP SWAP1 DIV PUSH20 0xFFFFFFFFFFFFFFFFFFFFFFFFFFFFFFFFFFFFFFFF AND DUP2 JUMP JUMPDEST PUSH1 0x1 DUP2 DUP2 SLOAD DUP2 LT PUSH2 0x778 JUMPI PUSH0 DUP1 REVERT JUMPDEST SWAP1 PUSH0 MSTORE PUSH1 0x20 PUSH0 KECCAK256 SWAP1 PUSH1 0x4 MUL ADD PUSH0 SWAP2 POP SWAP1 POP DUP1 PUSH0 ADD SLOAD SWAP1 DUP1 PUSH1 0x1 ADD DUP1 SLOAD PUSH2 0x79D SWAP1 PUSH2 0x13B1 JUMP JUMPDEST DUP1 PUSH1 0x1F ADD PUSH1 0x20 DUP1 SWAP2 DIV MUL PUSH1 0x20 ADD PUSH1 0x40 MLOAD SWAP1 DUP2 ADD PUSH1 0x40 MSTORE DUP1 SWAP3 SWAP2 SWAP1 DUP2 DUP2 MSTORE PUSH1 0x20 ADD DUP3 DUP1 SLOAD PUSH2 0x7C9 SWAP1 PUSH2 0x13B1 JUMP JUMPDEST DUP1 ISZERO PUSH2 0x814 JUMPI DUP1 PUSH1 0x1F LT PUSH2 0x7EB JUMPI PUSH2 0x100 DUP1 DUP4 SLOAD DIV MUL DUP4 MSTORE SWAP2 PUSH1 0x20 ADD SWAP2 PUSH2 0x814 JUMP JUMPDEST DUP3 ADD SWAP2 SWAP1 PUSH0 MSTORE PUSH1 0x20 PUSH0 KECCAK256 SWAP1 JUMPDEST DUP2 SLOAD DUP2 MSTORE SWAP1 PUSH1 0x1 ADD SWAP1 PUSH1 0x20 ADD DUP1 DUP4 GT PUSH2 0x7F7 JUMPI DUP3 SWAP1 SUB PUSH1 0x1F AND DUP3 ADD SWAP2 JUMPDEST POP POP POP POP POP SWAP1 DUP1 PUSH1 0x2 ADD SLOAD SWAP1 DUP1 PUSH1 0x3 ADD SLOAD SWAP1 POP DUP5 JUMP JUMPDEST PUSH0 DUP1 SLOAD SWAP1 PUSH2 0x100 EXP SWAP1 DIV PUSH20 0xFFFFFFFFFFFFFFFFFFFFFFFFFFFFFFFFFFFFFFFF AND PUSH20 0xFFFFFFFFFFFFFFFFFFFFFFFFFFFFFFFFFFFFFFFF AND CALLER PUSH20 0xFFFFFFFFFFFFFFFFFFFFFFFFFFFFFFFFFFFFFFFF AND EQ PUSH2 0x8B7 JUMPI PUSH1 0x40 MLOAD PUSH32 0x8C379A000000000000000000000000000000000000000000000000000000000 DUP2 MSTORE PUSH1 0x4 ADD PUSH2 0x8AE SWAP1 PUSH2 0x1269 JUMP JUMPDEST PUSH1 0x40 MLOAD DUP1 SWAP2 SUB SWAP1 REVERT JUMPDEST PUSH0 DUP3 GT PUSH2 0x8F9 JUMPI PUSH1 0x40 MLOAD PUSH32 0x8C379A000000000000000000000000000000000000000000000000000000000 DUP2 MSTORE PUSH1 0x4 ADD PUSH2 0x8F0 SWAP1 PUSH2 0x17B7 JUMP JUMPDEST PUSH1 0x40 MLOAD DUP1 SWAP2 SUB SWAP1 REVERT JUMPDEST PUSH1 0x1 PUSH1 0x40 MLOAD DUP1 PUSH1 0x80 ADD PUSH1 0x40 MSTORE DUP1 PUSH1 0x2 SLOAD DUP2 MSTORE PUSH1 0x20 ADD DUP6 DUP2 MSTORE PUSH1 0x20 ADD DUP5 DUP2 MSTORE PUSH1 0x20 ADD DUP4 DUP2 MSTORE POP SWAP1 DUP1 PUSH1 0x1 DUP2 SLOAD ADD DUP1 DUP3 SSTORE DUP1 SWAP2 POP POP PUSH1 0x1 SWAP1 SUB SWAP1 PUSH0 MSTORE PUSH1 0x20 PUSH0 KECCAK256 SWAP1 PUSH1 0x4 MUL ADD PUSH0 SWAP1 SWAP2 SWAP1 SWAP2 SWAP1 SWAP2 POP PUSH0 DUP3 ADD MLOAD DUP2 PUSH0 ADD SSTORE PUSH1 0x20 DUP3 ADD MLOAD DUP2 PUSH1 0x1 ADD SWAP1 DUP2 PUSH2 0x961 SWAP2 SWAP1 PUSH2 0x17D5 JUMP JUMPDEST POP PUSH1 0x40 DUP3 ADD MLOAD DUP2 PUSH1 0x2 ADD SSTORE PUSH1 0x60 DUP3 ADD MLOAD DUP2 PUSH1 0x3 ADD SSTORE POP POP PUSH1 0x2 SLOAD PUSH32 0x665E452EB624A7F9BF54ABD5D404D4F4DA7360A1E40698893FE2CC447A51AF9C DUP5 DUP5 DUP5 PUSH1 0x40 MLOAD PUSH2 0x9AE SWAP4 SWAP3 SWAP2 SWAP1 PUSH2 0x18A4 JUMP JUMPDEST PUSH1 0x40 MLOAD DUP1 SWAP2 SUB SWAP1 LOG2 PUSH1 0x2 PUSH0 DUP2 SLOAD DUP1 SWAP3 SWAP2 SWAP1 PUSH2 0x9C8 SWAP1 PUSH2 0x18E0 JUMP JUMPDEST SWAP2 SWAP1 POP SSTORE POP POP POP POP JUMP JUMPDEST PUSH0 PUSH2 0x9DC DUP4 PUSH2 0xD60 JUMP JUMPDEST SWAP1 POP PUSH1 0x1 DUP1 SLOAD SWAP1 POP DUP2 LT PUSH2 0xA25 JUMPI PUSH1 0x40 MLOAD PUSH32 0x8C379A000000000000000000000000000000000000000000000000000000000 DUP2 MSTORE PUSH1 0x4 ADD PUSH2 0xA1C SWAP1 PUSH2 0x142B JUMP JUMPDEST PUSH1 0x40 MLOAD DUP1 SWAP2 SUB SWAP1 REVERT JUMPDEST PUSH0 PUSH1 0x1 DUP3 DUP2 SLOAD DUP2 LT PUSH2 0xA3A JUMPI PUSH2 0xA39 PUSH2 0x1357 JUMP JUMPDEST JUMPDEST SWAP1 PUSH0 MSTORE PUSH1 0x20 PUSH0 KECCAK256 SWAP1 PUSH1 0x4 MUL ADD SWAP1 POP PUSH0 DUP4 GT PUSH2 0xA8A JUMPI PUSH1 0x40 MLOAD PUSH32 0x8C379A000000000000000000000000000000000000000000000000000000000 DUP2 MSTORE PUSH1 0x4 ADD PUSH2 0xA81 SWAP1 PUSH2 0x1971 JUMP JUMPDEST PUSH1 0x40 MLOAD DUP1 SWAP2 SUB SWAP1 REVERT JUMPDEST PUSH0 DUP4 DUP3 PUSH1 0x2 ADD SLOAD PUSH2 0xA9B SWAP2 SWAP1 PUSH2 0x198F JUMP JUMPDEST SWAP1 POP DUP1 CALLVALUE LT ISZERO PUSH2 0xAE0 JUMPI PUSH1 0x40 MLOAD PUSH32 0x8C379A000000000000000000000000000000000000000000000000000000000 DUP2 MSTORE PUSH1 0x4 ADD PUSH2 0xAD7 SWAP1 PUSH2 0x1A1A JUMP JUMPDEST PUSH1 0x40 MLOAD DUP1 SWAP2 SUB SWAP1 REVERT JUMPDEST DUP4 DUP3 PUSH1 0x3 ADD PUSH0 DUP3 DUP3 SLOAD PUSH2 0xAF3 SWAP2 SWAP1 PUSH2 0x1476 JUMP JUMPDEST SWAP3 POP POP DUP2 SWAP1 SSTORE POP DUP1 CALLVALUE GT ISZERO PUSH2 0xB52 JUMPI CALLER PUSH20 0xFFFFFFFFFFFFFFFFFFFFFFFFFFFFFFFFFFFFFFFF AND PUSH2 0x8FC DUP3 CALLVALUE PUSH2 0xB28 SWAP2 SWAP1 PUSH2 0x1476 JUMP JUMPDEST SWAP1 DUP2 ISZERO MUL SWAP1 PUSH1 0x40 MLOAD PUSH0 PUSH1 0x40 MLOAD DUP1 DUP4 SUB DUP2 DUP6 DUP9 DUP9 CALL SWAP4 POP POP POP POP ISZERO DUP1 ISZERO PUSH2 0xB50 JUMPI RETURNDATASIZE PUSH0 DUP1 RETURNDATACOPY RETURNDATASIZE PUSH0 REVERT JUMPDEST POP JUMPDEST CALLER PUSH20 0xFFFFFFFFFFFFFFFFFFFFFFFFFFFFFFFFFFFFFFFF AND DUP6 PUSH32 0x7E90354D1B8C35FEB2FAC2D29C9E6D5A7DAA4D8D4E97AC36FD94CC11A3DB3D9E DUP7 DUP5 PUSH1 0x40 MLOAD PUSH2 0xB9B SWAP3 SWAP2 SWAP1 PUSH2 0x1A38 JUMP JUMPDEST PUSH1 0x40 MLOAD DUP1 SWAP2 SUB SWAP1 LOG3 POP POP POP POP POP JUMP JUMPDEST PUSH0 DUP1 SLOAD SWAP1 PUSH2 0x100 EXP SWAP1 DIV PUSH20 0xFFFFFFFFFFFFFFFFFFFFFFFFFFFFFFFFFFFFFFFF AND PUSH20 0xFFFFFFFFFFFFFFFFFFFFFFFFFFFFFFFFFFFFFFFF AND CALLER PUSH20 0xFFFFFFFFFFFFFFFFFFFFFFFFFFFFFFFFFFFFFFFF AND EQ PUSH2 0xC37 JUMPI PUSH1 0x40 MLOAD PUSH32 0x8C379A000000000000000000000000000000000000000000000000000000000 DUP2 MSTORE PUSH1 0x4 ADD PUSH2 0xC2E SWAP1 PUSH2 0x1269 JUMP JUMPDEST PUSH1 0x40 MLOAD DUP1 SWAP2 SUB SWAP1 REVERT JUMPDEST PUSH0 PUSH20 0xFFFFFFFFFFFFFFFFFFFFFFFFFFFFFFFFFFFFFFFF AND DUP2 PUSH20 0xFFFFFFFFFFFFFFFFFFFFFFFFFFFFFFFFFFFFFFFF AND SUB PUSH2 0xCA5 JUMPI PUSH1 0x40 MLOAD PUSH32 0x8C379A000000000000000000000000000000000000000000000000000000000 DUP2 MSTORE PUSH1 0x4 ADD PUSH2 0xC9C SWAP1 PUSH2 0x1AA9 JUMP JUMPDEST PUSH1 0x40 MLOAD DUP1 SWAP2 SUB SWAP1 REVERT JUMPDEST DUP1 PUSH20 0xFFFFFFFFFFFFFFFFFFFFFFFFFFFFFFFFFFFFFFFF AND PUSH0 DUP1 SLOAD SWAP1 PUSH2 0x100 EXP SWAP1 DIV PUSH20 0xFFFFFFFFFFFFFFFFFFFFFFFFFFFFFFFFFFFFFFFF AND PUSH20 0xFFFFFFFFFFFFFFFFFFFFFFFFFFFFFFFFFFFFFFFF AND PUSH32 0x8BE0079C531659141344CD1FD0A4F28419497F9722A3DAAFE3B4186F6B6457E0 PUSH1 0x40 MLOAD PUSH1 0x40 MLOAD DUP1 SWAP2 SUB SWAP1 LOG3 DUP1 PUSH0 DUP1 PUSH2 0x100 EXP DUP2 SLOAD DUP2 PUSH20 0xFFFFFFFFFFFFFFFFFFFFFFFFFFFFFFFFFFFFFFFF MUL NOT AND SWAP1 DUP4 PUSH20 0xFFFFFFFFFFFFFFFFFFFFFFFFFFFFFFFFFFFFFFFF AND MUL OR SWAP1 SSTORE POP POP JUMP JUMPDEST PUSH0 DUP1 PUSH0 SWAP1 POP JUMPDEST PUSH1 0x1 DUP1 SLOAD SWAP1 POP DUP2 LT ISZERO PUSH2 0xDB2 JUMPI DUP3 PUSH1 0x1 DUP3 DUP2 SLOAD DUP2 LT PUSH2 0xD88 JUMPI PUSH2 0xD87 PUSH2 0x1357 JUMP JUMPDEST JUMPDEST SWAP1 PUSH0 MSTORE PUSH1 0x20 PUSH0 KECCAK256 SWAP1 PUSH1 0x4 MUL ADD PUSH0 ADD SLOAD SUB PUSH2 0xDA5 JUMPI DUP1 SWAP2 POP POP PUSH2 0xDEE JUMP JUMPDEST DUP1 DUP1 PUSH1 0x1 ADD SWAP2 POP POP PUSH2 0xD66 JUMP JUMPDEST POP PUSH1 0x40 MLOAD PUSH32 0x8C379A000000000000000000000000000000000000000000000000000000000 DUP2 MSTORE PUSH1 0x4 ADD PUSH2 0xDE5 SWAP1 PUSH2 0x1B11 JUMP JUMPDEST PUSH1 0x40 MLOAD DUP1 SWAP2 SUB SWAP1 REVERT JUMPDEST SWAP2 SWAP1 POP JUMP JUMPDEST POP DUP1 SLOAD PUSH2 0xDFF SWAP1 PUSH2 0x13B1 JUMP JUMPDEST PUSH0 DUP3 SSTORE DUP1 PUSH1 0x1F LT PUSH2 0xE10 JUMPI POP PUSH2 0xE2D JUMP JUMPDEST PUSH1 0x1F ADD PUSH1 0x20 SWAP1 DIV SWAP1 PUSH0 MSTORE PUSH1 0x20 PUSH0 KECCAK256 SWAP1 DUP2 ADD SWAP1 PUSH2 0xE2C SWAP2 SWAP1 PUSH2 0xE30 JUMP JUMPDEST JUMPDEST POP JUMP JUMPDEST JUMPDEST DUP1 DUP3 GT ISZERO PUSH2 0xE47 JUMPI PUSH0 DUP2 PUSH0 SWAP1 SSTORE POP PUSH1 0x1 ADD PUSH2 0xE31 JUMP JUMPDEST POP SWAP1 JUMP JUMPDEST PUSH0 DUP2 SWAP1 POP SWAP2 SWAP1 POP JUMP JUMPDEST PUSH2 0xE5D DUP2 PUSH2 0xE4B JUMP JUMPDEST DUP3 MSTORE POP POP JUMP JUMPDEST PUSH0 PUSH1 0x20 DUP3 ADD SWAP1 POP PUSH2 0xE76 PUSH0 DUP4 ADD DUP5 PUSH2 0xE54 JUMP JUMPDEST SWAP3 SWAP2 POP POP JUMP JUMPDEST PUSH0 PUSH1 0x40 MLOAD SWAP1 POP SWAP1 JUMP JUMPDEST PUSH0 DUP1 REVERT JUMPDEST PUSH0 DUP1 REVERT JUMPDEST PUSH2 0xE96 DUP2 PUSH2 0xE4B JUMP JUMPDEST DUP2 EQ PUSH2 0xEA0 JUMPI PUSH0 DUP1 REVERT JUMPDEST POP JUMP JUMPDEST PUSH0 DUP2 CALLDATALOAD SWAP1 POP PUSH2 0xEB1 DUP2 PUSH2 0xE8D JUMP JUMPDEST SWAP3 SWAP2 POP POP JUMP JUMPDEST PUSH0 PUSH1 0x20 DUP3 DUP5 SUB SLT ISZERO PUSH2 0xECC JUMPI PUSH2 0xECB PUSH2 0xE85 JUMP JUMPDEST JUMPDEST PUSH0 PUSH2 0xED9 DUP5 DUP3 DUP6 ADD PUSH2 0xEA3 JUMP JUMPDEST SWAP2 POP POP SWAP3 SWAP2 POP POP JUMP JUMPDEST PUSH0 DUP2 MLOAD SWAP1 POP SWAP2 SWAP1 POP JUMP JUMPDEST PUSH0 DUP3 DUP3 MSTORE PUSH1 0x20 DUP3 ADD SWAP1 POP SWAP3 SWAP2 POP POP JUMP JUMPDEST DUP3 DUP2 DUP4 MCOPY PUSH0 DUP4 DUP4 ADD MSTORE POP POP POP JUMP JUMPDEST PUSH0 PUSH1 0x1F NOT PUSH1 0x1F DUP4 ADD AND SWAP1 POP SWAP2 SWAP1 POP JUMP JUMPDEST PUSH0 PUSH2 0xF24 DUP3 PUSH2 0xEE2 JUMP JUMPDEST PUSH2 0xF2E DUP2 DUP6 PUSH2 0xEEC JUMP JUMPDEST SWAP4 POP PUSH2 0xF3E DUP2 DUP6 PUSH1 0x20 DUP7 ADD PUSH2 0xEFC JUMP JUMPDEST PUSH2 0xF47 DUP2 PUSH2 0xF0A JUMP JUMPDEST DUP5 ADD SWAP2 POP POP SWAP3 SWAP2 POP POP JUMP JUMPDEST PUSH0 PUSH1 0x80 DUP3 ADD SWAP1 POP PUSH2 0xF65 PUSH0 DUP4 ADD DUP8 PUSH2 0xE54 JUMP JUMPDEST DUP2 DUP2 SUB PUSH1 0x20 DUP4 ADD MSTORE PUSH2 0xF77 DUP2 DUP7 PUSH2 0xF1A JUMP JUMPDEST SWAP1 POP PUSH2 0xF86 PUSH1 0x40 DUP4 ADD DUP6 PUSH2 0xE54 JUMP JUMPDEST PUSH2 0xF93 PUSH1 0x60 DUP4 ADD DUP5 PUSH2 0xE54 JUMP JUMPDEST SWAP6 SWAP5 POP POP POP POP POP JUMP JUMPDEST PUSH0 PUSH20 0xFFFFFFFFFFFFFFFFFFFFFFFFFFFFFFFFFFFFFFFF DUP3 AND SWAP1 POP SWAP2 SWAP1 POP JUMP JUMPDEST PUSH0 PUSH2 0xFC5 DUP3 PUSH2 0xF9C JUMP JUMPDEST SWAP1 POP SWAP2 SWAP1 POP JUMP JUMPDEST PUSH2 0xFD5 DUP2 PUSH2 0xFBB JUMP JUMPDEST DUP3 MSTORE POP POP JUMP JUMPDEST PUSH0 PUSH1 0x20 DUP3 ADD SWAP1 POP PUSH2 0xFEE PUSH0 DUP4 ADD DUP5 PUSH2 0xFCC JUMP JUMPDEST SWAP3 SWAP2 POP POP JUMP JUMPDEST PUSH0 DUP1 REVERT JUMPDEST PUSH0 DUP1 REVERT JUMPDEST PUSH32 0x4E487B7100000000000000000000000000000000000000000000000000000000 PUSH0 MSTORE PUSH1 0x41 PUSH1 0x4 MSTORE PUSH1 0x24 PUSH0 REVERT JUMPDEST PUSH2 0x1032 DUP3 PUSH2 0xF0A JUMP JUMPDEST DUP2 ADD DUP2 DUP2 LT PUSH8 0xFFFFFFFFFFFFFFFF DUP3 GT OR ISZERO PUSH2 0x1051 JUMPI PUSH2 0x1050 PUSH2 0xFFC JUMP JUMPDEST JUMPDEST DUP1 PUSH1 0x40 MSTORE POP POP POP JUMP JUMPDEST PUSH0 PUSH2 0x1063 PUSH2 0xE7C JUMP JUMPDEST SWAP1 POP PUSH2 0x106F DUP3 DUP3 PUSH2 0x1029 JUMP JUMPDEST SWAP2 SWAP1 POP JUMP JUMPDEST PUSH0 PUSH8 0xFFFFFFFFFFFFFFFF DUP3 GT ISZERO PUSH2 0x108E JUMPI PUSH2 0x108D PUSH2 0xFFC JUMP JUMPDEST JUMPDEST PUSH2 0x1097 DUP3 PUSH2 0xF0A JUMP JUMPDEST SWAP1 POP PUSH1 0x20 DUP2 ADD SWAP1 POP SWAP2 SWAP1 POP JUMP JUMPDEST DUP3 DUP2 DUP4 CALLDATACOPY PUSH0 DUP4 DUP4 ADD MSTORE POP POP POP JUMP JUMPDEST PUSH0 PUSH2 0x10C4 PUSH2 0x10BF DUP5 PUSH2 0x1074 JUMP JUMPDEST PUSH2 0x105A JUMP JUMPDEST SWAP1 POP DUP3 DUP2 MSTORE PUSH1 0x20 DUP2 ADD DUP5 DUP5 DUP5 ADD GT ISZERO PUSH2 0x10E0 JUMPI PUSH2 0x10DF PUSH2 0xFF8 JUMP JUMPDEST JUMPDEST PUSH2 0x10EB DUP5 DUP3 DUP6 PUSH2 0x10A4 JUMP JUMPDEST POP SWAP4 SWAP3 POP POP POP JUMP JUMPDEST PUSH0 DUP3 PUSH1 0x1F DUP4 ADD SLT PUSH2 0x1107 JUMPI PUSH2 0x1106 PUSH2 0xFF4 JUMP JUMPDEST JUMPDEST DUP2 CALLDATALOAD PUSH2 0x1117 DUP5 DUP3 PUSH1 0x20 DUP7 ADD PUSH2 0x10B2 JUMP JUMPDEST SWAP2 POP POP SWAP3 SWAP2 POP POP JUMP JUMPDEST PUSH0 DUP1 PUSH0 PUSH1 0x60 DUP5 DUP7 SUB SLT ISZERO PUSH2 0x1137 JUMPI PUSH2 0x1136 PUSH2 0xE85 JUMP JUMPDEST JUMPDEST PUSH0 DUP5 ADD CALLDATALOAD PUSH8 0xFFFFFFFFFFFFFFFF DUP2 GT ISZERO PUSH2 0x1154 JUMPI PUSH2 0x1153 PUSH2 0xE89 JUMP JUMPDEST JUMPDEST PUSH2 0x1160 DUP7 DUP3 DUP8 ADD PUSH2 0x10F3 JUMP JUMPDEST SWAP4 POP POP PUSH1 0x20 PUSH2 0x1171 DUP7 DUP3 DUP8 ADD PUSH2 0xEA3 JUMP JUMPDEST SWAP3 POP POP PUSH1 0x40 PUSH2 0x1182 DUP7 DUP3 DUP8 ADD PUSH2 0xEA3 JUMP JUMPDEST SWAP2 POP POP SWAP3 POP SWAP3 POP SWAP3 JUMP JUMPDEST PUSH0 DUP1 PUSH1 0x40 DUP4 DUP6 SUB SLT ISZERO PUSH2 0x11A2 JUMPI PUSH2 0x11A1 PUSH2 0xE85 JUMP JUMPDEST JUMPDEST PUSH0 PUSH2 0x11AF DUP6 DUP3 DUP7 ADD PUSH2 0xEA3 JUMP JUMPDEST SWAP3 POP POP PUSH1 0x20 PUSH2 0x11C0 DUP6 DUP3 DUP7 ADD PUSH2 0xEA3 JUMP JUMPDEST SWAP2 POP POP SWAP3 POP SWAP3 SWAP1 POP JUMP JUMPDEST PUSH2 0x11D3 DUP2 PUSH2 0xFBB JUMP JUMPDEST DUP2 EQ PUSH2 0x11DD JUMPI PUSH0 DUP1 REVERT JUMPDEST POP JUMP JUMPDEST PUSH0 DUP2 CALLDATALOAD SWAP1 POP PUSH2 0x11EE DUP2 PUSH2 0x11CA JUMP JUMPDEST SWAP3 SWAP2 POP POP JUMP JUMPDEST PUSH0 PUSH1 0x20 DUP3 DUP5 SUB SLT ISZERO PUSH2 0x1209 JUMPI PUSH2 0x1208 PUSH2 0xE85 JUMP JUMPDEST JUMPDEST PUSH0 PUSH2 0x1216 DUP5 DUP3 DUP6 ADD PUSH2 0x11E0 JUMP JUMPDEST SWAP2 POP POP SWAP3 SWAP2 POP POP JUMP JUMPDEST PUSH32 0x4E6F742074686520636F6E7472616374206F776E657200000000000000000000 PUSH0 DUP3 ADD MSTORE POP JUMP JUMPDEST PUSH0 PUSH2 0x1253 PUSH1 0x16 DUP4 PUSH2 0xEEC JUMP JUMPDEST SWAP2 POP PUSH2 0x125E DUP3 PUSH2 0x121F JUMP JUMPDEST PUSH1 0x20 DUP3 ADD SWAP1 POP SWAP2 SWAP1 POP JUMP JUMPDEST PUSH0 PUSH1 0x20 DUP3 ADD SWAP1 POP DUP2 DUP2 SUB PUSH0 DUP4 ADD MSTORE PUSH2 0x1280 DUP2 PUSH2 0x1247 JUMP JUMPDEST SWAP1 POP SWAP2 SWAP1 POP JUMP JUMPDEST PUSH32 0x4E6F2066756E647320746F207769746864726177000000000000000000000000 PUSH0 DUP3 ADD MSTORE POP JUMP JUMPDEST PUSH0 PUSH2 0x12BB PUSH1 0x14 DUP4 PUSH2 0xEEC JUMP JUMPDEST SWAP2 POP PUSH2 0x12C6 DUP3 PUSH2 0x1287 JUMP JUMPDEST PUSH1 0x20 DUP3 ADD SWAP1 POP SWAP2 SWAP1 POP JUMP JUMPDEST PUSH0 PUSH1 0x20 DUP3 ADD SWAP1 POP DUP2 DUP2 SUB PUSH0 DUP4 ADD MSTORE PUSH2 0x12E8 DUP2 PUSH2 0x12AF JUMP JUMPDEST SWAP1 POP SWAP2 SWAP1 POP JUMP JUMPDEST PUSH32 0x4974656D20646F6573206E6F7420657869740000000000000000000000000000 PUSH0 DUP3 ADD MSTORE POP JUMP JUMPDEST PUSH0 PUSH2 0x1323 PUSH1 0x12 DUP4 PUSH2 0xEEC JUMP JUMPDEST SWAP2 POP PUSH2 0x132E DUP3 PUSH2 0x12EF JUMP JUMPDEST PUSH1 0x20 DUP3 ADD SWAP1 POP SWAP2 SWAP1 POP JUMP JUMPDEST PUSH0 PUSH1 0x20 DUP3 ADD SWAP1 POP DUP2 DUP2 SUB PUSH0 DUP4 ADD MSTORE PUSH2 0x1350 DUP2 PUSH2 0x1317 JUMP JUMPDEST SWAP1 POP SWAP2 SWAP1 POP JUMP JUMPDEST PUSH32 0x4E487B7100000000000000000000000000000000000000000000000000000000 PUSH0 MSTORE PUSH1 0x32 PUSH1 0x4 MSTORE PUSH1 0x24 PUSH0 REVERT JUMPDEST PUSH32 0x4E487B7100000000000000000000000000000000000000000000000000000000 PUSH0 MSTORE PUSH1 0x22 PUSH1 0x4 MSTORE PUSH1 0x24 PUSH0 REVERT JUMPDEST PUSH0 PUSH1 0x2 DUP3 DIV SWAP1 POP PUSH1 0x1 DUP3 AND DUP1 PUSH2 0x13C8 JUMPI PUSH1 0x7F DUP3 AND SWAP2 POP JUMPDEST PUSH1 0x20 DUP3 LT DUP2 SUB PUSH2 0x13DB JUMPI PUSH2 0x13DA PUSH2 0x1384 JUMP JUMPDEST JUMPDEST POP SWAP2 SWAP1 POP JUMP JUMPDEST PUSH32 0x4974656D20646F6573206E6F7420657869737400000000000000000000000000 PUSH0 DUP3 ADD MSTORE POP JUMP JUMPDEST PUSH0 PUSH2 0x1415 PUSH1 0x13 DUP4 PUSH2 0xEEC JUMP JUMPDEST SWAP2 POP PUSH2 0x1420 DUP3 PUSH2 0x13E1 JUMP JUMPDEST PUSH1 0x20 DUP3 ADD SWAP1 POP SWAP2 SWAP1 POP JUMP JUMPDEST PUSH0 PUSH1 0x20 DUP3 ADD SWAP1 POP DUP2 DUP2 SUB PUSH0 DUP4 ADD MSTORE PUSH2 0x1442 DUP2 PUSH2 0x1409 JUMP JUMPDEST SWAP1 POP SWAP2 SWAP1 POP JUMP JUMPDEST PUSH32 0x4E487B7100000000000000000000000000000000000000000000000000000000 PUSH0 MSTORE PUSH1 0x11 PUSH1 0x4 MSTORE PUSH1 0x24 PUSH0 REVERT JUMPDEST PUSH0 PUSH2 0x1480 DUP3 PUSH2 0xE4B JUMP JUMPDEST SWAP2 POP PUSH2 0x148B DUP4 PUSH2 0xE4B JUMP JUMPDEST SWAP3 POP DUP3 DUP3 SUB SWAP1 POP DUP2 DUP2 GT ISZERO PUSH2 0x14A3 JUMPI PUSH2 0x14A2 PUSH2 0x1449 JUMP JUMPDEST JUMPDEST SWAP3 SWAP2 POP POP JUMP JUMPDEST PUSH0 DUP2 SLOAD SWAP1 POP PUSH2 0x14B7 DUP2 PUSH2 0x13B1 JUMP JUMPDEST SWAP1 POP SWAP2 SWAP1 POP JUMP JUMPDEST PUSH0 DUP2 SWAP1 POP DUP2 PUSH0 MSTORE PUSH1 0x20 PUSH0 KECCAK256 SWAP1 POP SWAP2 SWAP1 POP JUMP JUMPDEST PUSH0 PUSH1 0x20 PUSH1 0x1F DUP4 ADD DIV SWAP1 POP SWAP2 SWAP1 POP JUMP JUMPDEST PUSH0 DUP3 DUP3 SHL SWAP1 POP SWAP3 SWAP2 POP POP JUMP JUMPDEST PUSH0 PUSH1 0x8 DUP4 MUL PUSH2 0x151A PUSH32 0xFFFFFFFFFFFFFFFFFFFFFFFFFFFFFFFFFFFFFFFFFFFFFFFFFFFFFFFFFFFFFFFF DUP3 PUSH2 0x14DF JUMP JUMPDEST PUSH2 0x1524 DUP7 DUP4 PUSH2 0x14DF JUMP JUMPDEST SWAP6 POP DUP1 NOT DUP5 AND SWAP4 POP DUP1 DUP7 AND DUP5 OR SWAP3 POP POP POP SWAP4 SWAP3 POP POP POP JUMP JUMPDEST PUSH0 DUP2 SWAP1 POP SWAP2 SWAP1 POP JUMP JUMPDEST PUSH0 PUSH2 0x155F PUSH2 0x155A PUSH2 0x1555 DUP5 PUSH2 0xE4B JUMP JUMPDEST PUSH2 0x153C JUMP JUMPDEST PUSH2 0xE4B JUMP JUMPDEST SWAP1 POP SWAP2 SWAP1 POP JUMP JUMPDEST PUSH0 DUP2 SWAP1 POP SWAP2 SWAP1 POP JUMP JUMPDEST PUSH2 0x1578 DUP4 PUSH2 0x1545 JUMP JUMPDEST PUSH2 0x158C PUSH2 0x1584 DUP3 PUSH2 0x1566 JUMP JUMPDEST DUP5 DUP5 SLOAD PUSH2 0x14EB JUMP JUMPDEST DUP3 SSTORE POP POP POP POP JUMP JUMPDEST PUSH0 SWAP1 JUMP JUMPDEST PUSH2 0x15A0 PUSH2 0x1594 JUMP JUMPDEST PUSH2 0x15AB DUP2 DUP5 DUP5 PUSH2 0x156F JUMP JUMPDEST POP POP POP JUMP JUMPDEST JUMPDEST DUP2 DUP2 LT ISZERO PUSH2 0x15CE JUMPI PUSH2 0x15C3 PUSH0 DUP3 PUSH2 0x1598 JUMP JUMPDEST PUSH1 0x1 DUP2 ADD SWAP1 POP PUSH2 0x15B1 JUMP JUMPDEST POP POP JUMP JUMPDEST PUSH1 0x1F DUP3 GT ISZERO PUSH2 0x1613 JUMPI PUSH2 0x15E4 DUP2 PUSH2 0x14BE JUMP JUMPDEST PUSH2 0x15ED DUP5 PUSH2 0x14D0 JUMP JUMPDEST DUP2 ADD PUSH1 0x20 DUP6 LT ISZERO PUSH2 0x15FC JUMPI DUP2 SWAP1 POP JUMPDEST PUSH2 0x1610 PUSH2 0x1608 DUP6 PUSH2 0x14D0 JUMP JUMPDEST DUP4 ADD DUP3 PUSH2 0x15B0 JUMP JUMPDEST POP POP JUMPDEST POP POP POP JUMP JUMPDEST PUSH0 DUP3 DUP3 SHR SWAP1 POP SWAP3 SWAP2 POP POP JUMP JUMPDEST PUSH0 PUSH2 0x1633 PUSH0 NOT DUP5 PUSH1 0x8 MUL PUSH2 0x1618 JUMP JUMPDEST NOT DUP1 DUP4 AND SWAP2 POP POP SWAP3 SWAP2 POP POP JUMP JUMPDEST PUSH0 PUSH2 0x164B DUP4 DUP4 PUSH2 0x1624 JUMP JUMPDEST SWAP2 POP DUP3 PUSH1 0x2 MUL DUP3 OR SWAP1 POP SWAP3 SWAP2 POP POP JUMP JUMPDEST DUP2 DUP2 SUB PUSH2 0x1669 JUMPI POP POP PUSH2 0x173E JUMP JUMPDEST PUSH2 0x1672 DUP3 PUSH2 0x14A9 JUMP JUMPDEST PUSH8 0xFFFFFFFFFFFFFFFF DUP2 GT ISZERO PUSH2 0x168B JUMPI PUSH2 0x168A PUSH2 0xFFC JUMP JUMPDEST JUMPDEST PUSH2 0x1695 DUP3 SLOAD PUSH2 0x13B1 JUMP JUMPDEST PUSH2 0x16A0 DUP3 DUP3 DUP6 PUSH2 0x15D2 JUMP JUMPDEST PUSH0 PUSH1 0x1F DUP4 GT PUSH1 0x1 DUP2 EQ PUSH2 0x16CD JUMPI PUSH0 DUP5 ISZERO PUSH2 0x16BB JUMPI DUP3 DUP8 ADD SLOAD SWAP1 POP JUMPDEST PUSH2 0x16C5 DUP6 DUP3 PUSH2 0x1640 JUMP JUMPDEST DUP7 SSTORE POP PUSH2 0x1737 JUMP JUMPDEST PUSH1 0x1F NOT DUP5 AND PUSH2 0x16DB DUP8 PUSH2 0x14BE JUMP JUMPDEST SWAP7 POP PUSH2 0x16E6 DUP7 PUSH2 0x14BE JUMP JUMPDEST PUSH0 JUMPDEST DUP3 DUP2 LT ISZERO PUSH2 0x170D JUMPI DUP5 DUP10 ADD SLOAD DUP3 SSTORE PUSH1 0x1 DUP3 ADD SWAP2 POP PUSH1 0x1 DUP6 ADD SWAP5 POP PUSH1 0x20 DUP2 ADD SWAP1 POP PUSH2 0x16E8 JUMP JUMPDEST DUP7 DUP4 LT ISZERO PUSH2 0x172A JUMPI DUP5 DUP10 ADD SLOAD PUSH2 0x1726 PUSH1 0x1F DUP10 AND DUP3 PUSH2 0x1624 JUMP JUMPDEST DUP4 SSTORE POP JUMPDEST PUSH1 0x1 PUSH1 0x2 DUP9 MUL ADD DUP9 SSTORE POP POP POP JUMPDEST POP POP POP POP POP POP JUMPDEST JUMP JUMPDEST PUSH32 0x4E487B7100000000000000000000000000000000000000000000000000000000 PUSH0 MSTORE PUSH1 0x31 PUSH1 0x4 MSTORE PUSH1 0x24 PUSH0 REVERT JUMPDEST PUSH32 0x5072696365206D7573742062652067726561746572207468616E207A65726F00 PUSH0 DUP3 ADD MSTORE POP JUMP JUMPDEST PUSH0 PUSH2 0x17A1 PUSH1 0x1F DUP4 PUSH2 0xEEC JUMP JUMPDEST SWAP2 POP PUSH2 0x17AC DUP3 PUSH2 0x176D JUMP JUMPDEST PUSH1 0x20 DUP3 ADD SWAP1 POP SWAP2 SWAP1 POP JUMP JUMPDEST PUSH0 PUSH1 0x20 DUP3 ADD SWAP1 POP DUP2 DUP2 SUB PUSH0 DUP4 ADD MSTORE PUSH2 0x17CE DUP2 PUSH2 0x1795 JUMP JUMPDEST SWAP1 POP SWAP2 SWAP1 POP JUMP JUMPDEST PUSH2 0x17DE DUP3 PUSH2 0xEE2 JUMP JUMPDEST PUSH8 0xFFFFFFFFFFFFFFFF DUP2 GT ISZERO PUSH2 0x17F7 JUMPI PUSH2 0x17F6 PUSH2 0xFFC JUMP JUMPDEST JUMPDEST PUSH2 0x1801 DUP3 SLOAD PUSH2 0x13B1 JUMP JUMPDEST PUSH2 0x180C DUP3 DUP3 DUP6 PUSH2 0x15D2 JUMP JUMPDEST PUSH0 PUSH1 0x20 SWAP1 POP PUSH1 0x1F DUP4 GT PUSH1 0x1 DUP2 EQ PUSH2 0x183D JUMPI PUSH0 DUP5 ISZERO PUSH2 0x182B JUMPI DUP3 DUP8 ADD MLOAD SWAP1 POP JUMPDEST PUSH2 0x1835 DUP6 DUP3 PUSH2 0x1640 JUMP JUMPDEST DUP7 SSTORE POP PUSH2 0x189C JUMP JUMPDEST PUSH1 0x1F NOT DUP5 AND PUSH2 0x184B DUP7 PUSH2 0x14BE JUMP JUMPDEST PUSH0 JUMPDEST DUP3 DUP2 LT ISZERO PUSH2 0x1872 JUMPI DUP5 DUP10 ADD MLOAD DUP3 SSTORE PUSH1 0x1 DUP3 ADD SWAP2 POP PUSH1 0x20 DUP6 ADD SWAP5 POP PUSH1 0x20 DUP2 ADD SWAP1 POP PUSH2 0x184D JUMP JUMPDEST DUP7 DUP4 LT ISZERO PUSH2 0x188F JUMPI DUP5 DUP10 ADD MLOAD PUSH2 0x188B PUSH1 0x1F DUP10 AND DUP3 PUSH2 0x1624 JUMP JUMPDEST DUP4 SSTORE POP JUMPDEST PUSH1 0x1 PUSH1 0x2 DUP9 MUL ADD DUP9 SSTORE POP POP POP JUMPDEST POP POP POP POP POP POP JUMP JUMPDEST PUSH0 PUSH1 0x60 DUP3 ADD SWAP1 POP DUP2 DUP2 SUB PUSH0 DUP4 ADD MSTORE PUSH2 0x18BC DUP2 DUP7 PUSH2 0xF1A JUMP JUMPDEST SWAP1 POP PUSH2 0x18CB PUSH1 0x20 DUP4 ADD DUP6 PUSH2 0xE54 JUMP JUMPDEST PUSH2 0x18D8 PUSH1 0x40 DUP4 ADD DUP5 PUSH2 0xE54 JUMP JUMPDEST SWAP5 SWAP4 POP POP POP POP JUMP JUMPDEST PUSH0 PUSH2 0x18EA DUP3 PUSH2 0xE4B JUMP JUMPDEST SWAP2 POP PUSH32 0xFFFFFFFFFFFFFFFFFFFFFFFFFFFFFFFFFFFFFFFFFFFFFFFFFFFFFFFFFFFFFFFF DUP3 SUB PUSH2 0x191C JUMPI PUSH2 0x191B PUSH2 0x1449 JUMP JUMPDEST JUMPDEST PUSH1 0x1 DUP3 ADD SWAP1 POP SWAP2 SWAP1 POP JUMP JUMPDEST PUSH32 0x5175616E74697479206D7573742062652067726561746572207468616E203000 PUSH0 DUP3 ADD MSTORE POP JUMP JUMPDEST PUSH0 PUSH2 0x195B PUSH1 0x1F DUP4 PUSH2 0xEEC JUMP JUMPDEST SWAP2 POP PUSH2 0x1966 DUP3 PUSH2 0x1927 JUMP JUMPDEST PUSH1 0x20 DUP3 ADD SWAP1 POP SWAP2 SWAP1 POP JUMP JUMPDEST PUSH0 PUSH1 0x20 DUP3 ADD SWAP1 POP DUP2 DUP2 SUB PUSH0 DUP4 ADD MSTORE PUSH2 0x1988 DUP2 PUSH2 0x194F JUMP JUMPDEST SWAP1 POP SWAP2 SWAP1 POP JUMP JUMPDEST PUSH0 PUSH2 0x1999 DUP3 PUSH2 0xE4B JUMP JUMPDEST SWAP2 POP PUSH2 0x19A4 DUP4 PUSH2 0xE4B JUMP JUMPDEST SWAP3 POP DUP3 DUP3 MUL PUSH2 0x19B2 DUP2 PUSH2 0xE4B JUMP JUMPDEST SWAP2 POP DUP3 DUP3 DIV DUP5 EQ DUP4 ISZERO OR PUSH2 0x19C9 JUMPI PUSH2 0x19C8 PUSH2 0x1449 JUMP JUMPDEST JUMPDEST POP SWAP3 SWAP2 POP POP JUMP JUMPDEST PUSH32 0x496E73756666696369656E742045746865722073656E74210000000000000000 PUSH0 DUP3 ADD MSTORE POP JUMP JUMPDEST PUSH0 PUSH2 0x1A04 PUSH1 0x18 DUP4 PUSH2 0xEEC JUMP JUMPDEST SWAP2 POP PUSH2 0x1A0F DUP3 PUSH2 0x19D0 JUMP JUMPDEST PUSH1 0x20 DUP3 ADD SWAP1 POP SWAP2 SWAP1 POP JUMP JUMPDEST PUSH0 PUSH1 0x20 DUP3 ADD SWAP1 POP DUP2 DUP2 SUB PUSH0 DUP4 ADD MSTORE PUSH2 0x1A31 DUP2 PUSH2 0x19F8 JUMP JUMPDEST SWAP1 POP SWAP2 SWAP1 POP JUMP JUMPDEST PUSH0 PUSH1 0x40 DUP3 ADD SWAP1 POP PUSH2 0x1A4B PUSH0 DUP4 ADD DUP6 PUSH2 0xE54 JUMP JUMPDEST PUSH2 0x1A58 PUSH1 0x20 DUP4 ADD DUP5 PUSH2 0xE54 JUMP JUMPDEST SWAP4 SWAP3 POP POP POP JUMP JUMPDEST PUSH32 0x496E76616C6964206164647265737320666F72206E6577206F776E6572000000 PUSH0 DUP3 ADD MSTORE POP JUMP JUMPDEST PUSH0 PUSH2 0x1A93 PUSH1 0x1D DUP4 PUSH2 0xEEC JUMP JUMPDEST SWAP2 POP PUSH2 0x1A9E DUP3 PUSH2 0x1A5F JUMP JUMPDEST PUSH1 0x20 DUP3 ADD SWAP1 POP SWAP2 SWAP1 POP JUMP JUMPDEST PUSH0 PUSH1 0x20 DUP3 ADD SWAP1 POP DUP2 DUP2 SUB PUSH0 DUP4 ADD MSTORE PUSH2 0x1AC0 DUP2 PUSH2 0x1A87 JUMP JUMPDEST SWAP1 POP SWAP2 SWAP1 POP JUMP JUMPDEST PUSH32 0x4974656D206E6F7420666F756E64210000000000000000000000000000000000 PUSH0 DUP3 ADD MSTORE POP JUMP JUMPDEST PUSH0 PUSH2 0x1AFB PUSH1 0xF DUP4 PUSH2 0xEEC JUMP JUMPDEST SWAP2 POP PUSH2 0x1B06 DUP3 PUSH2 0x1AC7 JUMP JUMPDEST PUSH1 0x20 DUP3 ADD SWAP1 POP SWAP2 SWAP1 POP JUMP JUMPDEST PUSH0 PUSH1 0x20 DUP3 ADD SWAP1 POP DUP2 DUP2 SUB PUSH0 DUP4 ADD MSTORE PUSH2 0x1B28 DUP2 PUSH2 0x1AEF JUMP JUMPDEST SWAP1 POP SWAP2 SWAP1 POP JUMP INVALID LOG2 PUSH5 0x6970667358 0x22 SLT KECCAK256 0xE3 0xE9 LOG2 0x4B SWAP7 0xEC DUP16 0xC1 0xAC DUP9 SWAP11 DUP12 PUSH13 0xBE1F1912C4B35FCB390028AA36 0xDC 0xB0 DUP16 MCOPY DUP2 0x4C PUSH5 0x736F6C6343 STOP ADDMOD BYTE STOP CALLER "
				},
				"gasEstimates": {
					"creation": {
						"codeDepositCost": "1402600",
						"executionCost": "29404",
						"totalCost": "1432004"
					},
					"external": {
						"addItem(string,uint256,uint256)": "infinite",
						"getItem(uint256)": "infinite",
						"getItemCount()": "2529",
						"items(uint256)": "infinite",
						"nextItemId()": "2470",
						"owner()": "2505",
						"purchaseItem(uint256,uint256)": "infinite",
						"removeItem(uint256)": "infinite",
						"transferOwnership(address)": "30680",
						"withdrawFunds()": "infinite"
					},
					"internal": {
						"_getItemIndex(uint256)": "infinite"
					}
				},
				"methodIdentifiers": {
					"addItem(string,uint256,uint256)": "d5e6c333",
					"getItem(uint256)": "3129e773",
					"getItemCount()": "7749cf23",
					"items(uint256)": "bfb231d2",
					"nextItemId()": "6a868974",
					"owner()": "8da5cb5b",
					"purchaseItem(uint256,uint256)": "e0675698",
					"removeItem(uint256)": "71329171",
					"transferOwnership(address)": "f2fde38b",
					"withdrawFunds()": "24600fc3"
				}
			},
			"storageLayout": {
				"storage": [
					{
						"astId": 4,
						"contract": "contracts/vending-machine.sol:DigitalVendingMachine",
						"label": "owner",
						"offset": 0,
						"slot": "0",
						"type": "t_address"
					},
					{
						"astId": 17,
						"contract": "contracts/vending-machine.sol:DigitalVendingMachine",
						"label": "items",
						"offset": 0,
						"slot": "1",
						"type": "t_array(t_struct(Item)13_storage)dyn_storage"
					},
					{
						"astId": 19,
						"contract": "contracts/vending-machine.sol:DigitalVendingMachine",
						"label": "nextItemId",
						"offset": 0,
						"slot": "2",
						"type": "t_uint256"
					}
				],
				"types": {
					"t_address": {
						"encoding": "inplace",
						"label": "address",
						"numberOfBytes": "20"
					},
					"t_array(t_struct(Item)13_storage)dyn_storage": {
						"base": "t_struct(Item)13_storage",
						"encoding": "dynamic_array",
						"label": "struct DigitalVendingMachine.Item[]",
						"numberOfBytes": "32"
					},
					"t_string_storage": {
						"encoding": "bytes",
						"label": "string",
						"numberOfBytes": "32"
					},
					"t_struct(Item)13_storage": {
						"encoding": "inplace",
						"label": "struct DigitalVendingMachine.Item",
						"members": [
							{
								"astId": 6,
								"contract": "contracts/vending-machine.sol:DigitalVendingMachine",
								"label": "id",
								"offset": 0,
								"slot": "0",
								"type": "t_uint256"
							},
							{
								"astId": 8,
								"contract": "contracts/vending-machine.sol:DigitalVendingMachine",
								"label": "name",
								"offset": 0,
								"slot": "1",
								"type": "t_string_storage"
							},
							{
								"astId": 10,
								"contract": "contracts/vending-machine.sol:DigitalVendingMachine",
								"label": "price",
								"offset": 0,
								"slot": "2",
								"type": "t_uint256"
							},
							{
								"astId": 12,
								"contract": "contracts/vending-machine.sol:DigitalVendingMachine",
								"label": "quantity",
								"offset": 0,
								"slot": "3",
								"type": "t_uint256"
							}
						],
						"numberOfBytes": "128"
					},
					"t_uint256": {
						"encoding": "inplace",
						"label": "uint256",
						"numberOfBytes": "32"
					}
				}
			},
			"userdoc": {
				"kind": "user",
				"methods": {},
				"version": 1
			}
		}
	}
}